:020000040000fa
:10000000f0ff03205d2400009f2c000087320000d9
:100010005737000087370000573800000000000005
:100020000000000000000000000000008326000027
:10003000f735000000000000832600008326000042
:10004000832600008326000083260000832600000c
:1000500083260000832600008326000083260000fc
:1000600083260000832600008326000083260000ec
:1000700083260000832600008326000083260000dc
:1000800083260000832600008326000083260000cc
:1000900083260000832600008326000083260000bc
:1000a00083260000832600008326000083260000ac
:1000b000832600008326000083260000832600009c
:1000c000832600008326000083260000832600008c
:1000d000832600008326000083260000832600007c
:1000e00083260000832600000000000000000000be
:1000f0000000000083260000832600008326000005
:10010000832600008326000083260000832600004b
:100110008326000083260000d1140000d1140000c3
:10012000d1140000d11400001d1300001d130000a5
:100130001d1300001d13000083260000832600000d
:10014000832600008326000083260000832600000b
:1001500083260000832600008326000083260000fb
:1001600083260000832600008326000083260000eb
:1001700083260000832600008326000083260000db
:1001800083260000832600008326000083260000cb
:1001900083260000832600008326000083260000bb
:1001a00083260000832600008326000083260000ab
:1001b000832600008326000083260000832600009b
:1001c000832600008326000083260000832600008b
:1001d000832600008326000083260000832600007b
:1001e000832600008326000083260000832600006b
:1001f000832600008326000083260000832600005b
:10020000832600008326000083260000832600004a
:10021000832600008326000083260000832600003a
:10022000832600008326000083260000832600002a
:10023000832600008326000083260000832600001a
:10024000832600008326000083260000832600000a
:1002500083260000832600008326000083260000fa
:0402600083260000f1
:020000040000fa
:10026400f8b500bff8bc08bc9e467047e12d0000fd
:10027400f8b500bff8bc08bc9e467047bd2d000011
:020000040000fa
:1002840070b54ff0ff0c4cf4e06c1cea11541dbf28
:100294001cea135594ea0c0f95ea0c0f00f0def8f3
:1002a4002c4481ea030621ea4c5123ea4c5350ead8
:1002b400013518bf52ea033541f4801143f4801329
:1002c40038d0a0fb02ce4ff00005e1fb02e506f0ba
:1002d4000042e0fb03e54ff00006e1fb03569cf00f
:1002e400000f18bf4ef0010ea4f1ff04b6f5007f15
:1002f40064f5407404d25fea4e0e6d4146eb060687
:1003040042eac62141ea55514feac52040ea5e500f
:100314004feace2eb4f1fd0c88bfbcf5e06f1ed8b9
:10032400bef1004f08bf5fea500e50f1000041ebf0
:10033400045170bd06f0004646ea010140ea02009d
:1003440081ea0301b4eb5c04c2bfd4eb0c0541eabf
:10035400045170bd41f480114ff0000e013c00f3d4
:10036400ab8014f1360fdebf002001f0004170bdf8
:10037400c4f10004203c35da0c341bdc04f1140411
:10038400c4f1200500fa05f320fa04f001fa05f29d
:1003940040ea020001f0004221f0004110ebd3706a
:1003a40021fa04f642eb06015eea430e08bf20ea96
:1003b400d37070bdc4f10c04c4f1200500fa04f339
:1003c40020fa05f001fa04f240ea020001f00041cb
:1003d40010ebd37041f100015eea430e08bf20ea3e
:1003e400d37070bdc4f1200500fa05f24eea020e86
:1003f40020fa04f301fa05f243ea020321fa04f0b5
:1004040001f0004121fa04f220ea020000ebd3706b
:100414005eea430e08bf20ead37070bd94f0000f6b
:100424000fd101f00046400041eb010111f4801f9f
:1004340008bf013cf7d041ea060195f0000f18bf50
:10044400704703f00046520043eb030313f4801f8c
:1004540008bf013df7d043ea0603704794ea0c0f46
:100464000cea135518bf95ea0c0f0cd050ea41065c
:1004740018bf52ea4306d1d181ea030101f00041d9
:100484004ff0000070bd50ea410606bf1046194601
:1004940052ea430619d094ea0c0f02d150ea01360d
:1004a40013d195ea0c0f05d152ea03361cbf10464e
:1004b40019460ad181ea030101f0004141f0fe41ed
:1004c40041f470014ff0000070bd41f0fe4141f471
:1004d400780170bd70b54ff0ff0c4cf4e06c1cea71
:1004e40011541dbf1cea135594ea0c0f95ea0c0f26
:1004f40000f0a7f8a4eb050481ea030e52ea0335e1
:100504004fea013100f088804fea03334ff0805501
:1005140045ea131343ea12634fea022245ea11152e
:1005240045ea10654fea00260ef000419d4208bfdf
:10053400964244f1fd0404f5407402d25b084fea8c
:100544003202b61a65eb03055b084fea32024ff438
:1005540080104ff4002cb6eb020e75eb030e22bf95
:10056400b61a754640ea0c005b084fea3202b6eb55
:10057400020e75eb030e22bfb61a754640ea5c0004
:100584005b084fea3202b6eb020e75eb030e22bf94
:10059400b61a754640ea9c005b084fea3202b6eb95
:1005a400020e75eb030e22bfb61a754640eadc0054
:1005b40055ea060e18d04fea051545ea16754feab6
:1005c40006164feac30343ea52734feac2025fead4
:1005d4001c1cc0d111f4801f0bd141ea00014ff063
:1005e40000004ff0004cb6e711f4801f04bf014334
:1005f4000020b4f1fd0c88bfbcf5e06f3ff6afae50
:10060400b5eb030c04bfb6eb020c5fea500c50f1df
:10061400000041eb045170bd0ef0004e4eea113162
:1006240014eb5c04c2bfd4eb0c0541ea045170bd69
:1006340041f480114ff0000e013c90e645ea060ead
:100644008de60cea135594ea0c0f08bf95ea0c0fdb
:100654003ff43baf94ea0c0f0ad150ea01347ff423
:1006640034af95ea0c0f7ff425af104619462ce7fa
:1006740095ea0c0f06d152ea03353ff4fdae10465d
:10068400194622e750ea410618bf52ea43067ff4ae
:10069400c5ae50ea41047ff40daf52ea43057ff43e
:1006a400ebae12e781f0004102e000bf83f00043ab
:1006b40030b54fea41044fea430594ea050f08bff9
:1006c40090ea020f1fbf54ea000c55ea020c7feabd
:1006d400645c7fea655c00f0e2804fea5454d4eb3a
:1006e4005555b8bf6d420cdd2c4480ea020281ea04
:1006f400030382ea000083ea010180ea020281ea3c
:100704000303362d88bf30bd11f0004f4fea01318d
:100714004ff4801c4cea113102d0404261eb41019c
:1007240013f0004f4fea03334cea133302d0524222
:1007340063eb430394ea050f00f0a780a4f10104de
:10074400d5f1200e0ddb02fa0efc22fa05f2801818
:1007540041f1000103fa0ef2801843fa05f35941fe
:100764000ee0a5f120050ef1200e012a03fa0efc7d
:1007740028bf4cf0020c43fa05f3c01851ebe371a7
:1007840001f0004507d54ff0000edcf1000c7eebc4
:1007940000006eeb0101b1f5801f1bd3b1f5001f02
:1007a4000cd349085fea30004fea3c0c04f1010421
:1007b4004fea445212f5800f80f09a80bcf1004f4a
:1007c40008bf5fea500c50f1000041eb045141eacc
:1007d400050130bd5fea4c0c404141eb010111f4cd
:1007e400801fa4f10104e9d191f0000f04bf014678
:1007f4000020b1fa81f308bf2033a3f10b03b3f156
:1008040020020cda0c3208dd02f1140cc2f10c02e5
:1008140001fa0cf021fa02f10ce002f11402d8bf43
:10082400c2f1200c01fa02f120fa0cfcdcbf41ea0f
:100834000c019040e41aa2bf01eb0451294330bdde
:100844006fea04041f3c1cda0c340edc04f11404bb
:10085400c4f1200220fa04f001fa02f340ea030092
:1008640021fa04f345ea030130bdc4f10c04c4f1d8
:10087400200220fa02f001fa04f340ea03002946b8
:1008840030bd21fa04f0294630bd94f0000f83f402
:10089400801306bf81f480110134013d4ee77feae5
:1008a400645c18bf7fea655c29d094ea050f08bf31
:1008b40090ea020f05d054ea000c04bf1946104612
:1008c40030bd91ea030f1ebf0021002030bd5fea56
:1008d400545c05d14000494128bf41f0004130bd7e
:1008e40014f580043cbf01f5801130bd01f00045d2
:1008f40045f0fe4141f470014ff0000030bd7fea45
:10090400645c1abf194610467fea655c1cbf0b463f
:10091400024650ea013406bf52ea033591ea030f56
:1009240041f4002130bd00bf90f0000f04bf00214e
:10093400704730b54ff4806404f132044ff0000581
:100944004ff0000150e700bf90f0000f04bf0021fa
:10095400704730b54ff4806404f1320410f0004560
:1009640048bf40424ff000013ee700bf42004fea5b
:10097400e2014fea31014fea02701fbf12f07f43d8
:1009840093f07f4f81f06051704732f07f4208bf8f
:10099400704793f07f4f04bf41f40021704730b596
:1009a4004ff4607401f0004521f000411ce700bfe2
:1009b40050ea010208bf704730b54ff000050ae065
:1009c40050ea010208bf704730b511f0004502d566
:1009d400404261eb41014ff4806404f132045fea68
:1009e400915c3ff4d8ae4ff003025feadc0c18bf11
:1009f40003325feadc0c18bf033202ebdc02c2f103
:100a0400200300fa03fc20fa02f001fa03fe40ea94
:0c0a14000e0021fa02f11444bde600bf00
:020000040000fa
:100a20005c0400201c00000000000000b003002057
:100a30002c000000000000008003002030000000b7
:100a40000000000004000020b001000000000000d1
:100a5000a80400201000000000000000e8040020ae
:100a600008000000000000003c0400201e00000000
:100a700000000000b804002010000000000000008a
:100a8000f00400200800000000000000c80400205e
:100a9000100000000000000094040020140000007a
:100aa0000000000078040020190000000000000091
:100ab000d80400201000000000000000f80400200e
:100ac00007000000000000000005002004000000f6
:100ad00000000000dc0300202000000000000000f7
:100ae000fc03002020000000000000001c04002087
:100af00020000000000000000405002004000000a9
:100b000001000000200300202003002060000000fe
:100b10000100000000000000fc0300201c04002075
:100b2000dc030020000000000000000000000000c6
:100b300000000000000000000000000000000000b5
:100b400000000000000000000000000000000000a5
:100b50000000000000000000000000000000000095
:100b60000000000000000000000000000000000085
:100b70000000000008050020040000000000000044
:100b80000c0500200400000000000000b40100205b
:100b90006c010000010000004300000000000000a4
:100ba0000000000000000000000000000000000045
:100bb00000000000000000004300000000000000f2
:100bc0000000000000000000000000000000000025
:100bd00000000000000000004300000000000000d2
:100be0000000000000000000000000000000000005
:100bf00000000000000000004300000000000000b2
:100c000000000000000000000000000000000000e4
:100c10000000000000000000430000000000000091
:100c200000000000000000000000000000000000c4
:100c30000000000000000000430000000000000071
:100c400000000000000000000000000000000000a4
:100c50000000000000000000430000000000000051
:100c60000000000000000000000000000000000084
:100c700000000000000000003d370000e5340000e7
:100c8000000000003c1800005d3900005c390000e5
:100c90005c3900005c3900005c3900005c39000000
:100ca0005c3900005c3900005c3900005c390000f0
:100cb000ffffffffffffffffffffffffffff000042
:100cc00001004153434949000000000000000000ba
:100cd0000000000000000000000000000000000014
:100ce000000041534349490000000000000000009b
:100cf00000000000000000000000000000000000f4
:100d000000000000000000200400000000000000bf
:100d1000100500200400000000000000000000009a
:100d2000000000002222222222222222222222222b
:020000040000fa
:100d30002de9f04306460c4601f14300097e85b0db
:100d40006e29984617460c9b00f0ba8024d8632978
:100d500039d00ad8002900f0c380582900f09180ca
:100d600004f1420584f8421035e0642901d0692974
:100d7000f6d125681a6815f0800f02f104012cd015
:100d800012681960002a03da2d23524284f8433096
:100d9000dff8bcc10a233fe0732900f0a58008d822
:100da0006f2921d07029dbd1226842f02002226015
:100db00003e0752918d07829d2d1782284f845200b
:100dc000dff890c161e01a68111d1960136884f89a
:100dd000423004f14205012393e01268196015f0d6
:100de000400f18bf12b2cde7d4f800c01a681cf04b
:100df000800f02f104051d6001d0126803e01cf0b1
:100e0000400ffad01288dff848c16f290cbf0823c1
:100e10000a23002184f843106568a560002da2bf55
:100e2000216821f0040121600ab9002d46d0054651
:100e3000b2fbf3f103fb112e93421cf80ee005f810
:100e400001ed39d9082b0bd12368da0708d52369be
:100e500062689a42debf302305f8013c05f1ff3598
:100e6000401b2061cdf800803b4603aa2146304656
:100e700000f0e4fe013049d14ff0ff3005b0bde88d
:100e8000f083dff8ccc084f845101d68216855f860
:100e9000042b1d600d060bd5cd0744bf41f020018a
:100ea00021601ab9236823f0200323601023b0e7e0
:100eb0004b0648bf92b2efe70a46b9e70546c1e7dd
:100ec0001a68d4f800c06169151d1d601cf0800f00
:100ed000136801d0196003e01cf0400ffad01980ac
:100ee000002323610546bde71a68111d19601568c6
:100ef00062680021284601f013fa08b1401b6060c7
:100f000063682361002384f84330abe723692a46f2
:100f100039463046c0470130aed023689b0713d412
:100f2000e068039b9842b8bf1846a7e701234a46ea
:100f300039463046c04701309ed00135e368039af8
:100f40009b1aab42f2dcebe7002504f11909f5e747
:080f500072350000833500003a
:020000040000fa
:100f58002de9f04f0d469db014461e46074618b1c0
:100f680083690bb901f04cfd704b9d425cd17d68e3
:100f7800ab891b0762d52b69002b5fd0002309932f
:100f8800dff8ac91039620238df8293030238df8b3
:100f98002a304ff0ff3809f1060a23461e4613f897
:100fa800012b0ab1252af9d1b6eb040b0bd05b460d
:100fb80022462946384601f049fe013000f0b0804b
:100fc800099b5b4409933378002b00f0a980002328
:100fd800cde905830136049307938df853301a93ae
:100fe8004ff0010b3446052214f8011b504801f05c
:100ff80093f9049b68bbd80644bf20228df8532080
:10100800190744bf2b228df8532032782a2a28d07a
:10101800079a344600200a26214611f8013b303b46
:10102800092b60d918bb29e0424b9d4201d1bd680c
:101038009ee7414b9d4208bffd6899e7294638461f
:1010480000f06efe002899d04ff0ff301db0bde8cb
:10105800f08fa0eb09000bfa00f018430490264625
:10106800c0e7039a111d12680391002a01db079259
:1010780004e0524243f002030792049323782e2b94
:101088000bd163782a2b33d1039b1a1d1b6803925b
:10109800002bb8bf43460234059303222178274822
:1010a80001f03af940b14023a0eb0a0003fa00f03e
:1010b800049b03430134049314f8011b20488df862
:1010c8002810062201f028f903ab00932a461d4b8d
:1010d80004a908b3384602f07dfc421c20d0099bc5
:1010e8000344099359e706fb023201200c4693e7b3
:1010f80000230134059319460a26204610f8012bcf
:10110800303a092a03d9002bc7d00591c5e706fb59
:10111800012101230446f0e73846fff705fedce726
:10112800ab895b0690d4099890e700bffc030020c8
:10113800453800001c040020dc0300204b38000068
:081148004f380000552c000097
:020000040000fa
:101150002de9f04f1e468b891b069db007460d46b4
:1011600014460ed50b6963b9402101f02df82860b3
:10117000286120b90c233b604ff0ff30c3e04023cf
:101180006b6100230993dff88491039620238df887
:10119000293030238df82a304ff0ff3809f1060a44
:1011a00023461e4613f8012b0ab1252af9d1b6ebc6
:1011b000040b0bd05b4622462946384600f04eff12
:1011c000013000f09b80099b5b4409933378002b2e
:1011d00000f094800023cde9058301360493079342
:1011e0008df853301a934ff0010b3446052214f852
:1011f000011b464801f094f8049bc0b9d80644bfcf
:1012000020228df85320190744bf2b228df853203c
:1012100032782a2a13d0079a344600200a2621461b
:1012200011f8013b303b092b4bd970b914e0a0eb0e
:1012300009000bfa00f0184304902646d5e7039afc
:10124000111d12680391002a01db079204e052424b
:1012500043f002030792049323782e2b0bd163787b
:101260002a2b33d1039b1a1d1b680392002bb8bf96
:1012700043460234059303222178254801f050f8b3
:1012800040b14023a0eb0a0003fa00f0049b0343a3
:101290000134049314f8011b1e488df8281006220f
:1012a00001f03ef803ab00932a461b4b04a908b398
:1012b000384602f093fb421c20d0099b034409935b
:1012c0006ee706fb023201200c46a8e7002301343a
:1012d000059319460a26204610f8012b303a092ab0
:1012e00003d9002bc7d00591c5e706fb01210123d7
:1012f0000446f0e73846fff71bfddce7ab895b06e9
:101300003ff53aaf09981db0bde8f08f34380000c2
:0c1310003a3800003e3800005d2000006c
:020000040000fa
:10131c006a4b9b7d002b00f0d08010b5674b5b8b2c
:10132c0013f0020f16d0664bff2283f82020022206
:10133c0083f82120624b93f820305bb2b3f1ff3f6e
:10134c0000f08b805e4b93f820305bb2062b00f0e4
:10135c009c8010bd594b5b8b13f0010f07d0584b81
:10136c00ff2283f82020022283f82120e2e7534b4e
:10137c005b8b13f0040f07d0514bff2283f8202016
:10138c00012283f82120d5e74d4b93f820305bb236
:10139c00032b42d0042b10d0022bcbd1484b1b6912
:1013ac002bb10021464b988801f002fcc2e70121c9
:1013bc00434b988801f0fcfbbce7414a93691269e6
:1013cc0093420bd03e4a9168581c9061ca5c3b4bcf
:1013dc009a621a46d369002bfcd1abe7384b5b6998
:1013ec0073b1374b9b885b0043f00103334a536264
:1013fc00d369002bfcd1324b032283f8202099e7d0
:10140c002e4a536843f440335360d369002bfcd10c
:10141c002b4b062283f820208ce7294a5369013b89
:10142c00d2699a420cd0254ad369002bfcd1234bac
:10143c00986a234bd968da69541cdc61885479e7c3
:10144c001e4a536843f4e0235360d369002bfcd14c
:10145c001b4b062283f82020e5e7194b002283f86a
:10146c002020164a536843f440335360d369002b51
:10147c00fcd1124b83221a76114b5b6a002b3ff482
:10148c0068af0f4a906a984763e70d4b002283f8c8
:10149c00202083f82120094b83221a761a46538b7d
:1014ac0003f03003102bfad1054b5b6a002b3ff491
:1014bc0050af034a906a98474be770470040014190
:0414cc00b003002049
:020000040000fa
:1014d00038b54f4b9b7dd3b14d4a137edbb2927d25
:1014e00012f0800f14d14a4a137edbb2927d12f0c3
:1014f000010f02d013f0010f50d1454a137edbb229
:10150000927d12f0040f02d013f0040f18d138bdf1
:1015100013f0800fe7d03e4b5b8b13f00703e2d054
:101520003c4ce38501f0dafd394b84221a75002327
:1015300084f82c30636a002bd5d0a06a9847d2e794
:10154000344b93f82c30002be1d0324b1a6adb6914
:101550009a42dcd22e4b9a6a5b6803f00703012b98
:101560002c4b9869196a01f101041c6214bf4254a2
:1015700020f81120274b1a6adb699a42c7d1254b04
:10158000002283f82c20da61214a842111755b6adc
:10159000002bbcd01f4a906a9847b8e71d4b1b7db3
:1015a000002baad01b4b9a685c68194b1b7e13f06a
:1015b000010f19d0a24217d2164b1d6814491a46c2
:1015c0004b6803f00703012b936803f1010090605f
:1015d00014bfeb5c35f813308b6290680b7e13f010
:1015e000010f01d08442ebd80a4b9a685b689a429b
:1015f00083d3084b00221a755a60054a01211175e0
:10160000db68002b3ff479af024a1069984774e712
:081610000020014180030020cd
:020000040000fa
:1016180038b504460378042b79d8dfe803f00312c1
:101628002a43620002f0aff905464ff47a7002f0df
:101638002ff80146284602f0c3f96060012002f045
:10164800b3f802f025f960b13149324801f03cf9ac
:1016580018b1052002f0a8f859e0022002f0a4f819
:1016680055e0012002f014f80146294802f055f827
:101678004de002f00df968b12549274b587801f083
:101688003bf818b1052002f08ff840e0032002f083
:101698008bf83ce0012001f0fbff01461c4802f0fa
:1016a8003cf834e002f0ecf898b11c4c1a4b93f972
:1016b80001201b49204601f05bfb042002f074f86e
:1016c800204602f0f5f8124a0146204601f0b2fb26
:1016d8001de0012001f0dcff01460d4802f01df875
:1016e80015e0104b4ff48022c3f81c21012002f0b2
:1016f8005bf86168064802f04af965684ff47a7049
:1017080001f0c6ff0146284602f05af9606038bd6c
:10171800b8040020f1040020f00400203c0400205c
:08172800c437000000800041fd
:020000040000fa
:101730008a892de9f041054610070c4658d44b68bc
:10174000002b05dc0b6c002b02dc0020bde8f081d7
:10175000e66a002ef9d0002312f480522f682b6025
:1017600032d0606da3895a0705d56368c01a636bd0
:101770000bb1236cc01a00230246e66a216a284690
:10178000b047431ca38906d129681d292cd82a4ab1
:10179000ca40d60728d500226260d9042269226097
:1017a00004d5421c01d12b6803b96065616b2f60c1
:1017b0000029cad004f14403994202d0284600f01f
:1017c000fffd00206063c1e7216a01232846b0477e
:1017d000411cc7d12b68002bc4d01d2b01d0162b68
:1017e00001d12f60b1e7a38943f04003a381ade7a6
:1017f0000f69002fa9d093070e6808bf4b690f60cf
:1018000018bf0023a6eb07088b60b8f1000f9cdd22
:1018100043463a46216aa66a2846b047002806dcb5
:10182000a38943f04003a3814ff0ff308ee70744c4
:0c183000a8eb0008e9e700bf0100402021
:020000040000fa
:10183c000020202020202020202028282828282094
:10184c00202020202020202020202020202020208c
:10185c0020881010101010101010101010101010f4
:10186c0010040404040404040404041010101010e4
:10187c0010104141414141410101010101010101ae
:10188c000101010101010101010101011010101000
:10189c001010424242424242020202020202020280
:1018ac0002020202020202020202020210101010d4
:1018bc0020000000000000000000000000000000fc
:1018cc00000000000000000000000000000000000c
:1018dc0000000000000000000000000000000000fc
:1018ec0000000000000000000000000000000000ec
:1018fc0000000000000000000000000000000000dc
:10190c0000000000000000000000000000000000cb
:10191c0000000000000000000000000000000000bb
:10192c0000000000000000000000000000000000ab
:01193c0000aa
:020000040000fa
:02193e007047f0
:020000040000fa
:1019400000283cd00368384a002908bf1146b1eb93
:10195000430f36d3354a934235d807ee901af8ee46
:10196000677a07ee103af8ee476a87eea67adfed5f
:10197000306a67eea67af2ee046a77eea67a77ee20
:10198000677afceee77a17ee902a2a498b4206d84e
:10199000b2f5ff7f19d8012a3dd9500816e0b2f5fb
:1019a000bf7f3ad2032a3bd950002349a1fb00c094
:1019b0004008a1fb0212520842ea002006e0002083
:1019c00070470020704700207047ff2019498b4264
:1019d00094bf00210121194a136823f00203136008
:1019e000d369002bfcd1154ad060136823f04073f3
:1019f00043ea01631360136843f002031360d36981
:101a0000002bfcd10d4b10225a831a46d369002bb0
:101a1000fcd1012070470120d8e74ff67f70d5e751
:101a200040f20120d2e700bf0087930340420f003d
:101a300095bfd633801a0600abaaaaaa004001417e
:020000040000fa
:101a40000a2573203d3e2025730000004932435f84
:101a50005441534b5f53544154455f49444c4500f6
:101a60004932435f5441534b5f53544154455f5295
:101a7000454144494e475f54454d504552415455a8
:101a8000524500004932435f5441534b5f53544128
:101a900054455f4449445f524541445f54454d506d
:101aa00045524154555245004932435f5441534bce
:101ab0005f53544154455f57524954494e475f451f
:101ac0004550524f4d0000004932435f5441534b43
:101ad0005f53544154455f4449445f57524954450c
:101ae0005f454550524f4d004932435f5441534b7f
:101af0005f53544154455f52454144494e475f4509
:101b00004550524f4d0000004932435f5441534b02
:101b10005f53544154455f4449445f524541445fdb
:101b2000454550524f4d00004932435f5441534b9d
:101b30005f53544154455f4552524f52000000bf1d
:020000040000fa
:101b4000364b42f20e229a821a46d36813f0010fe6
:101b5000fbd0324b05221a7403f50063304a9a62b7
:101b60001a46536813f0100ffbd12e4b4222c3f8d4
:101b700084201a46d2f8843013f0400ffad02a4b52
:101b800000229a6377225a631a46d36b13f0040f2c
:101b9000fbd1254b022283f830201a46d36b13f079
:101ba000020ffbd1204a136c03f00303032bfad17d
:101bb0001e4b01225a711a46d37813f0010ffbd045
:101bc000184b1b4a1a621a46536813f0040ffbd1d4
:101bd000144b184a5a621a46536813f0080ffbd187
:101be000104b4122c3f8dc201a46d2f8dc3013f047
:101bf000400ffad00b4b4122c3f8e0201a46d2f82e
:101c0000e03013f0400ffad0084b6ff07f421a61ba
:101c100040f2ff725a61084a9a617047001400400e
:101c200006013000001c0040001000400008004089
:0c1c3000070101000701020056860100b8
:020000040000fa
:101c3c002de9f04791461f468a680b69ddf8208034
:101c4c009342b8bf1346c9f8003091f843200646ba
:101c5c000c4612b10133c9f800302368990642bf13
:101c6c00d9f800300233c9f80030256815f00605a4
:101c7c0007d104f1190ae368d9f800209b1aab428a
:101c8c0028dc94f843302268003318bf01239206f5
:101c9c002dd404f1430239463046c047013020d0e0
:101cac002368e568d9f8002003f00603042b08bf6d
:101cbc00ad1aa36822690cbf25eae575002593428d
:101ccc00c4bf9b1aed184ff000091a344d451ad1b8
:101cdc00002008e00123524639463046c047013007
:101cec0003d14ff0ff30bde8f0870135c3e7e118b1
:101cfc005a1c302081f84300224494f8451082f895
:101d0c0043100233c5e70123224639463046c0470b
:0a1d1c000130e6d009f10109d8e713
:020000040000fa
:021d2600704704
:020000040000fa
:101d2800324b70b51d6806460c4625b1ab6913b930
:101d3800284600f065fe2e4b9c420fd16c68b4f922
:101d48000c309ab215072cd4d00611d4092232606f
:101d580043f04003a3814ff0ff303ee0254b9c4207
:101d680001d1ac68ebe7244b9c4208bfec68e6e77e
:101d7800510712d5616b41b104f14403994202d075
:101d8800304600f019fb00236363a38923f0240382
:101d9800a3810023636023692360a38943f00803b8
:101da800a38123694bb9a38903f42073b3f5007f9a
:101db80003d02146304600f095fba28912f00103ba
:101dc8000cd00023a36063695b42a361236953b904
:101dd800b4f90c3013f08000bad170bd920758bf27
:101de8006369a360f2e70020f7e700bf040500205d
:0c1df800fc0300201c040020dc03002081
:020000040000fa
:101e04002de9f04781460e4601f0e4fd10b10520ae
:101e1400bde8f0872d4bd3f88051002d4fdd6c1eab
:101e240004eb4403294c04eb830418346f1ea246cc
:101e3400204601f0cbfd80460146304601f093fd7b
:101e440018bb4146304601f089fd18b90c3c3d46ab
:101e5400002febd11d4bd3f880211d2a2dd0521b0e
:101e6400002a18dc194c05eb450504eb850a0af138
:101e7400180a504601f04efd3146504601f0a4fdcb
:101e8400d4f880310133c4f880314946504601f01a
:101e94005dfb0020bce702eb4202184605eb45015e
:101ea40003eb81016b1c03eb430300eb8300920003
:101eb4001831183001f0f6f8d4e70320a8e7034bf3
:101ec400d3f880311d2bcdd10320a1e704000020dd
:020000040000fa
:101ed40030b585b004460378022b11d0032b2ed0e5
:101ee4000bb105b030bd01f065fa0121274800f0bf
:101ef40083ff012001f068f9254801f090fcf0e728
:101f040001f0c8fc98b101f055fa01211f4800f016
:101f140073ff1f4a0521a01c00f0a0fc18b1042087
:101f240001f052f9dde7032001f04ef9d9e7012071
:101f340001f0b0fb0146164801f0f1fbd1e701f0d6
:101f4400a1fcd0b1134da379039363790293237950
:101f54000193e3780093a3780f4a1921284600f0ef
:101f6400ebfc284601f0a6fc094a0146284600f08d
:101f740063ff012001f028f9b3e7012001f08afb97
:101f84000146034801f0cbfbabe700bff904002096
:0c1f9400d8040020780400202021000068
:020000040000fa
:101fa000f8b50e461446054618b183690bb900f022
:101fb0002bfd274b9c4230d16c68a369a360a38999
:101fc000190734d52369002b31d0b4f90c30f6b29f
:101fd0009a04374634d523692068c01a636983425e
:101fe00004dc2146284600f097fd30bba368013b86
:101ff000a36023685a1c22601e706369013083420b
:1020000004d0a389db0706d50a2e04d12146284631
:1020100000f082fd88b93846f8bd0e4b9c4201d1d4
:10202000ac68cae70c4b9c4208bfec68c5e7214688
:102030002846fff779fe0028c7d04ff0ff37eae7c0
:1020400043f40053a381236e23f400532366c2e7b5
:0c205000fc0300201c040020dc03002026
:020000040000fa
:10205c002de9f0478e689e4282460c469146984682
:10206c0038d8b1f80cc01cf4906f31d06269256877
:10207c00096902eb42026f1a02ebd272013355105e
:10208c003b449d4238bf1d461cf4806f30d029461e
:10209c0000f094f8064650b90c23caf80030a38916
:1020ac0043f04003a3814ff0ff30bde8f0873a4680
:1020bc00216901f007fba38923f4906343f08003ab
:1020cc00a381266165613e44ed1b2660a5604646f2
:1020dc00464500d9464632464946206800f0deffa8
:1020ec00a3689b1ba36023681e4426600020dce7ca
:1020fc002a4600f083fd06460028e2d121695046ad
:06210c0000f058f9c8e7dd
:020000040000fa
:02211200704714
:020000040000fa
:102114000a2573203d3e2025730000000a454550e2
:10212400524f4d3a253032647c253032647c253060
:1021340032647c253032647c253032647c000000bb
:1021440055495f5441534b5f53544154455f494e85
:102154004954000055495f5441534b5f5354415413
:10216400455f49444c45000055495f5441534b5f1a
:1021740041574149545f454550524f4d5f41564187
:10218400494c41424c45000055495f5441534b5f13
:1021940053544154455f41574149545f5052494e4d
:1021a4005445525f415641494c41424c4500000060
:1021b40055495f5441534b5f53544154455f455215
:0421c400524f520024
:020000040000fa
:1021c800f8b5cd1c25f0030508350c2d38bf0c25b6
:1021d800002d064601dba94203d90c2333600020f9
:1021e800f8bd01f00bfc21490a6814469cb9204f40
:1021f8003b6823b92146304601f01afa386029466f
:10220800304601f015fa431c23d10c2333603046c5
:1022180001f0f5fbe3e723685b1b17d40b2b03d90d
:1022280023601c44256004e06368a2420cbf0b6075
:102238005360304601f0e3fb04f10b00231d20f04e
:102248000700c21accd01b1aa350c9e722466468fb
:10225800cce7c41c24f00304a042e3d0211a304682
:1022680001f0e6f90130ddd1cfe700bf0805002015
:042278000c05002031
:020000040000fa
:10227c0010b50378042b3ed0062b3fd0022b00d098
:10228c0010bd204b9c68da78187940ea022000b225
:10229c00002821dbc011fef753fb00221a4bfdf77f
:1022ac00ebff00f05dfc03b207ee103ab8eec77a14
:1022bc00f2ee027a27ee277af1ee046ac7ee267a5e
:1022cc009fed127a77ee877afdeee77a17ee903a69
:1022dc00237001f0e9f9d3e7404240f3c810fef750
:1022ec002ffb00220a4bfdf7c7ff00f039fc03b2ad
:1022fc0007ee103adae701f0d7f9c1e701f0d4f9ab
:10230c00bee700bf940400200000e03f0000004244
:04231c000000e0bf1e
:020000040000fa
:1023200001f0ff01102a2bdb10f0070f08d010f886
:10233000013b013a8b422dd010f0070f42b3f6d18a
:10234000f0b441ea012141ea014122f007047ff0a3
:1023500000070023f0e80256083c85ea010586eafa
:10236000010685fa47f5a3fa87f586fa47f6a5fa36
:1023700087f68eb9eed1f0bc01f0ff0102f0070242
:1023800032b110f8013b013a83ea010313b1f8d1ed
:102390000020704701387047002d06bf35460338ce
:1023a000073815f0010f07d1013015f4807f02bf07
:1023b000013015f4c03f0130f0bc0138704700bf58
:020000040000fa
:1023c00038b50546002945d051f8043c0c1f002bb8
:1023d000b8bfe41801f016fb1f4a1368104633b962
:1023e000636014602846bde8384001f00cbba3428e
:1023f0000cd921686218934204bf1a685b68636055
:1024000004bf521822600460ece713465a680ab110
:10241000a242fad919685818a0420bd12068014489
:10242000581882421960ddd1106852685a60014420
:102430001960d7e702d90c232b60d3e72068211855
:102440008a4204bf11685268626004bf09182160a3
:0c2450005c60c7e738bd00bf0805002035
:020000040000fa
:10245c0008b51b4b98471b4b9847eff3108172b68e
:10246c00194ad2f8883043f47003c2f88830bff3ad
:10247c004f8fbff36f8f01b962b6144c202363608a
:10248c0000f074f8124b23f07f030f4a9360114b4a
:10249c009847a36823f00103a3602346da6812f07f
:1024ac00010ffbd1094b5a6842f004025a60012219
:1024bc009a60094b9847094b984701f00efafee7d2
:1024cc00af390000af39000000ed00e000600041c2
:1024dc0000000000a12c0000af390000af39000053
:020000040000fa
:1024ec008b8973b59d0706460c4607d501f147034a
:1024fc000b600b6101234b6102b070bd01ab6a46ee
:10250c0000f010fc009905463046fff757fe78b9ed
:10251c00b4f90c309a05efd423f0030343f0020313
:10252c00a38104f147032360236101236361e3e783
:10253c000d4bb362a389206043f08003a381009b01
:10254c006361019b20615bb1b4f90e10304601f060
:10255c008df828b1a38923f0030343f00103a38171
:0c256c00a3891d43a581c7e73139000099
:020000040000fa
:102578001e4b1f4a9342f0b438bf002103d203f820
:10258800011b9342fbd11b4ad2e9000150ea010327
:102598004ff0000610d09468034602f10c076cb99e
:1025a80021b1014403f8016b9942fbd13a46d2e9c3
:1025b800000150ea0103eed1f0bc704759b101f1b6
:1025c8000c030c38801a1a443b461c1813f8015b9c
:1025d80025709342f9d111f0030318bf012303ebcf
:1025e800910107eb81073a46e1e700bf00000020b0
:0825f80004000020200a00008d
:020000040000fa
:102600002de9f74380460e46144601f097f901285c
:102610000ed1731efe2b0bd88df8046005460027e3
:102620000df10409af4213d1304603b0bde8f08389
:10263000324604f1580301a9404600f067fe421cef
:102640000546ecd1a38943f04003a3810646ebe79e
:10265000a36817f80910013b002ba36004daa269f4
:10266000934207db0a2905d023685a1c226019709f
:102670000137d7e722464046fff792fc431cf7d1cb
:02268000e4e78d
:020000040000fa
:02268200fee771
:020000040000fa
:102684001c4ad36823f4e0631b041b0c43f0bf63b0
:1026940043f40033d360bff35f8f62b6164be0227e
:1026a40083f836234ff48001596083f837234ff4bd
:1026b4000001596083f838234ff08071596083f822
:1026c40039234ff00071596083f83a234ff0806149
:1026d400596083f83b234ff00061596083f83c2331
:1026e4004ff08051596083f83d234ff000525a60f7
:0c26f400704700bf00ed00e000e100e0d6
:020000040000fa
:10270000f0b583b0194b1c781cb10124204603b0ee
:10271000f0bd0d460646164b0193002101a8fff7b8
:102720000ff908b90224f1e7104f3b7b7b70be70b4
:102730003d61032000f01afd0222791c572000f0b1
:1027400031fc80b13b7b0133dbb2052b07d03b73ff
:1027500001f01df90146074801f01df9d6e7034bca
:1027600000221a73f4e70224d0e700bf940400208b
:08277000801a0600c8040020d5
:020000040000fa
:10277800f8b51b4b1e68b369074613b9304600f01d
:102788003ff94836d6e90134013b03d53368dbb15c
:102798003668f7e7b4f90c50a5b9124b2566c4e9b9
:1027a8000055a560c4e90335c4e905550822294642
:1027b80004f1580001f074f8c4e90d55c4e9125544
:1027c8002046f8bd6434dfe70421384600f084fd74
:1027d800044630600028dbd10c233b60f0e700bfe3
:0827e800e03900000100ffffd1
:020000040000fa
:1027f00030b583b001f040f80546174c01a92046da
:1028000000f02bfd18b9019801f00bf8f6e700f085
:102810000ffe28b101f0dcf8294601f0abf840b119
:102820000e4b5869b0b1002101f07cf8002003b0d4
:1028300030bd00f0ebfb094c0025204600f0e8ff1e
:1028400003460028f2d0e3602946184601f06af8f2
:10285000e560f2e700bfe9e7a801002004000020de
:020000040000fa
:102860002de9f04184b0174c247824b1012420468e
:1028700004b0bde8f08116460f460546124b03939f
:10288000002103a8fff75cf808b90224efe7dff89e
:102890003480c8f81060052000f068fc4146002331
:1028a00001f8013f00972b460122572000f094fbce
:1028b00008b90224dbe701f06af80146034801f099
:1028c0006af8d4e794040020801a0600c8040020a7
:020000040000fa
:1028d000f0b585b0164b1c781cb10124204605b01c
:1028e000f0bd0d460646134b0393002103a8fff7e6
:1028f00027f808b90224f1e70d4fbe603d610120c1
:1029000000f034fc00238df80b3002230093fb1cf5
:1029100001220df10b014f2000f05efb08b90224eb
:10292000dce701f034f80146034801f034f8d5e75c
:0c29300094040020a0860100c8040020d0
:020000040000fa
:10293c000cb430b5184b0c1e9bb01d6808da8b23f9
:10294c002b604ff0ff301bb0bde8304002b0704739
:10295c004ff40273adf8103014bf04f1ff3323466b
:10296c00039306934ff6ff73adf8123000230190da
:10297c00059019931e9a1fab01a928460093fef7e8
:10298c00e1fb431cbcbf8b232b60002cdbd0019bd9
:0c299c0000221a70d7e700bf04050020dd
:020000040000fa
:1029a800144b01221a601a46d369002bfcd1114b33
:1029b8004ff480725a601a46d369002bfcd10d4b34
:1029c800ff22da600c4a1a601a46d369002bfcd140
:1029d800084b10225a831a46d369002bfcd1074ba7
:1029e800002283f8212083f82020024b83229a7545
:1029f800704700bf0040014116001000b0030020de
:020000040000fa
:102a0800836910b5044633bbc0e912330365124b22
:102a1800124a1b688262984204bf01238361fff750
:102a2800a7fe60602046fff7a3fea0602046fff7e0
:102a38009ffe0022e0600421606800f051f9012245
:102a48000921a06800f04cf902221221e06800f088
:102a580047f90123a36110bde039000031390000b6
:020000040000fa
:102a680020b310b40446134b1b7d0bbb114b1860ed
:102a7800596001221a7500230f4809e0426802f0e4
:102a88000702012a14bfe25c34f813208262013382
:102a9800027e12f0010f01d09942efd1054a9360ee
:102aa8000120054b98755df8044b7047002070476e
:0c2ab8000020f8e780030020002001410e
:020000040000fa
:102ac400114b124a1a604ff622029a814ff4403297
:102ad4005a601a46d369002bfcd10b4a136843f0a1
:102ae40002031360d369002bfcd1094b00229a61c5
:102af400da611a6283f82c205a621a605a609a606a
:102b04001a75da60da85704700200141040110402b
:042b1400800300201a
:020000040000fa
:102b180038b50b6905460c46dbb118b183690bb9aa
:102b2800fff76eff0c4b9c4209d16c68b4f90c306e
:102b38007bb121462846bde83840fef7f5bd074b76
:102b48009c4201d1ac68f1e7054b9c4208bfec6898
:102b5800ece7002038bd00bffc0300201c04002067
:042b6800dc0300206a
:020000040000fa
:102b6c004fea410212f5001215d211d56ff47873a9
:102b7c00b3eb625212d94feac12343f0004343ea4c
:102b8c00505311f0004f23fa02f018bf4042704727
:102b9c004ff00000704750ea013005d111f00040b1
:102bac0008bf6ff0004070474ff00000704700bf47
:020000040000fa
:102bbc00104b00229a61da610f4b83221a765a6805
:102bcc0022f480225a601a46d369002bfcd161b1e1
:102bdc00084b032283f8202041ea4001064b59623e
:102bec001a46d369002bfcd17047024b042283f8a0
:0c2bfc002020f1e7b00300200040014160
:020000040000fa
:102c0800f8b5074614460e4621b91146bde8f84006
:102c1800fff7d6ba22b9fff7cffb25462846f8bdfd
:102c280000f04efea0420fd221463846fff7c8fa00
:102c380005460028f2d03146224600f045fd3146cf
:0c2c48003846fff7b9fbe9e73546e7e73f
:020000040000fa
:102c5400f8b50e46096e8904074614460bd4d518f8
:102c6400ac420dd0324614f8011b384600f0dcfab1
:102c74000130f5d10ee023f00303d518ac4201d1a5
:102c8400002009e0324654f8041b384600f02cfdbd
:0a2c94000130f3d14ff0ff30f8bd1e
:020000040000fa
:022c9e00fee74f
:020000040000fa
:102ca00070b50d4d0d4c641ba4100026a64209d131
:102cb0000b4d0c4cfdf7d6fa641ba4100026a6425f
:102cc00005d170bd55f8043b98470136eee755f83d
:102cd000043b98470136f2e77002000070020000e2
:082ce000700200007402000004
:020000040000fa
:102ce800002310b50446c0e9003383608181036680
:102cf800c281c0e90433836119460822583000f0c4
:102d0800cffd054b6362054ba362054be362054ba0
:102d18002462236310bd00bf953500006d2f0000ad
:082d280079340000a739000016
:020000040000fa
:102d300070b50e46b1f90e10002990b014461d462c
:102d400007da00232b60b3891a0610d44ff480638e
:102d50000ee001aa00f0eafb0028f2db029a02f47e
:102d60007042a2f500535a425a412a60eee74023ce
:082d70000020236010b070bdcb
:020000040000fa
:102d78000eb410b59bb01dab019005906ff00041eb
:102d88000a48069103910a4953f8042b0491002438
:102d980001a9006800931994fef7d6f9019b1c70ed
:102da8001bb0bde8104003b0704700bf0405002009
:042db8000802ffff0f
:020000040000fa
:102dbc0010b5054c237833b9044b13b10448aff369
:102dcc0000800123237010bd5c0400200000000073
:102ddc000000000008b5034b1bb103490348aff3d7
:102dec00008008bd0000000060040020000000000e
:020000040000fa
:102dfc00b8b138b505460c4a92f82c200ab100201f
:102e0c0038bd0c4600f064f9074b9d61dc61002273
:102e1c001a62012083f82c00da85044b84229a75ff
:102e2c00eee70020704700bf800300200020014126
:020000040000fa
:102e3c0038b50d4b1c78acb91546fff70ffe10b921
:102e4c000124204638bd084b5d601b78012b02d055
:102e5c00054b01221a7000f094fd0146034800f066
:102e6c0094fdeee70224ece7e8040020a80400201f
:020000040000fa
:102e7c0070b5b9b115460ab1022801d9284670bd02
:102e8c000a4b2bb108461146aff30080284670bda3
:102e9c000c468e1814f8010bfff735f9b442f9d132
:102eac00284670bd0d46284670bd00bf00000000ce
:020000040000fa
:102ebc000d4b01221a801a46136913f0010ffbd136
:102ecc00094b4ff401421a8000221a621a46136908
:102edc0013f0200ffbd1044b00225a621a461369df
:0c2eec0013f0400ffbd1704700240040a1
:020000040000fa
:102ef8002de9f8438046894600f14804002614b9b4
:102f08003046bde8f883d4e90175013f01d524684e
:102f1800f5e7ab89012b07d9b5f90e30013303d09a
:0c2f280029464046c84706436435eee7e2
:020000040000fa
:102f34000c4b012283f8562083f85720222183f872
:102f44003b1083f8d82083f8d920332283f8bc209f
:102f54004ff48022c3f80021c3f81021002283f823
:082f640052217047008000417a
:020000040000fa
:102f6c002de9f0411f468b89db0505460c461646bc
:102f7c0005d502230022b1f90e1000f09bfaa389ab
:102f8c00b4f90e1023f48053a38132463b462846f5
:082f9c00bde8f04100f07cba31
:020000040000fa
:102fa4000b4b93f820305bb20bb10020704710b587
:102fb4000c46074b98800021d96059619c601a61c6
:102fc4009970197083f82110fff7f6fd012010bde8
:042fd400b003002026
:020000040000fa
:102fd80010b50b4c94f8204064b20cb1002010bd21
:102fe800074ca080e360029b6361a160226100211d
:102ff800a170217084f82110fff7dcfd0120eee7b5
:04300800b0030020f1
:020000040000fa
:10300c0010b40b4bd3f88041002c0edd013c04ebcb
:10301c00440203eb8202183207ca83e80700c3f8a4
:10302c00804118465df8044b70470020fae700bf5a
:04303c00040000206c
:020000040000fa
:1030400010b50a4c4ff4d8720021204600f02cfc39
:10305000204600f061fc064b2361082204f5c27192
:1030600004f5d27000f0a7fa10bd00bf04000020e4
:043070008f39000094
:020000040000fa
:1030740038b50021074800f047fc074d074c2a46a5
:103084000749204600f072fb00232b70204600f015
:10309400c6fb38bd19360000f8040020d80400200f
:0430a400d51e000035
:020000040000fa
:1030a800884210b501eb020302d983421c4607d8b7
:1030b800421e994208d011f8014b02f8014ff8e777
:1030c80083189a1a9a4200d110bd14f8011d03f80a
:0430d800011df7e7f8
:020000040000fa
:1030dc000a4b5b8b13f0070f0ed0084b80221a762d
:1030ec0007225a831b7e13f0040f05d0034b9a6af8
:1030fc001a7e12f0040ffad1704700bf0020014174
:020000040000fa
:10310c0010b5074c2146074800f0f4fb224606494f
:10311c00064800f027fb00232370636010bd00bf3e
:10312c00e80400209d37000089320000a80400202c
:020000040000fa
:10313c0038b5084d084c2a460849204600f012fbc9
:10314c0000232b7000f01dfc0146204600f01dfcf6
:10315c0038bd00bff0040020b80400201916000090
:020000040000fa
:10316c00084b1b7883420cd010b50446064951f825
:10317c00202051f82310054800f03af8014b1c7040
:10318c0010bd704794040020f8350000401a000070
:020000040000fa
:10319c0010b5074c2146074800f0a6fb224606490d
:1031ac00064800f0dffa002323702373236110bd5f
:1031bc0094040020b53200007d220000c8040020d9
:020000040000fa
:1031cc00084b1b7883420cd010b50446064951f8c5
:1031dc00202051f82310054800f00af8014b1c7010
:1031ec0010bd7047f8040020d837000014210000ef
:020000040000fa
:1031fc000fb40a4b13b51c6824b1a36913b920464c
:10320c00fff7fcfb05ab049aa16801932046fdf780
:10321c009dfe02b0bde8104004b0704704050020cc
:020000040000fa
:10322c009368013b002b10b4936008da9469a342b5
:10323c0001db0a2903d15df8044bfef7abbe136822
:0e324c00581c1060197008465df8044b70475e
:020000040000fa
:10325a00438882889bb293420cd043889bb282688f
:10326a0052f823300b6043880133028813404380ad
:0c327a000020704700230b60012070470b
:020000040000fa
:02328600fee761
:020000040000fa
:1032880008b50378022b00d008bd074b1b7813b193
:10329800054b00221a70044b58680028f4d000210e
:0c32a80000f03cfbf0e700bfe804002051
:020000040000fa
:1032b40008b50378012b09d0032b0ad0052b04bfd2
:1032c40006230370044800f0c3f808bd022303700a
:0c32d400f8e704230370f5e7c8040020ad
:020000040000fa
:1032e00070b54a1e642555430e4605f17001fef780
:1032f0006bff044640b10021c0e900160c30a0600d
:0c33000005f1640200f0d0fa204670bd18
:020000040000fa
:10330c00f0b5094c85b005461e46d4f8e04009b925
:10331c000a4601a9a047431c01bf002333608a233e
:0c332c002b6005b0f0bd00bfb401002014
:020000040000fa
:10333800074a136843b10749184488428cbf4ff0c5
:10334800ff33106018467047034b1360f3e700bf64
:0c335800100500201807002018050020b8
:020000040000fa
:1033640038b504460d4600230b60043000f07afaa9
:1033740030b12946204600f0adfa6560204638bddc
:0a3384002946606800f0a6faf7e79a
:020000040000fa
:10338e008388013302881340428892b29a420ad04f
:10339e0010b4828892b2846844f822108380002090
:0a33ae005df8044b704702207047e1
:020000040000fa
:1033b800074b93f82c3043b1064b84221a75044b03
:1033c800002283f82c201a62da610120704700bfbe
:0833d8008003002000200141e8
:020000040000fa
:1033e00008b500f039fafff7a5fdfef7a9fbfff7d6
:1033f000dbfafff767fbfef796fcfff75ffd00f0d7
:08340000eaf8fff73ff908bdef
:020000040000fa
:1034080070b569b115464ab140b90c468e1801200d
:1034180000f0d4fa04f8010ba642f8d1284670bd92
:083428000d46284670bd00bfef
:020000040000fa
:10343000074bd3f88031002b08dd013b03eb43033e
:10344000034800eb830303f1180070470020704726
:043450000400002054
:020000040000fa
:1034540010b5044600f0befa08b1052010bd21469f
:103464000348fff792ff022814bf00200320f5e76a
:04347400a80100208b
:020000040000fa
:1034780010b50c46b1f90e1000f01ef8431ca389d4
:1034880015bf606523f4805343f48053a38118bfac
:04349800a38110bd3f
:020000040000fa
:10349c0038b5074c054608461146002222601a46ec
:1034ac0000f0a4fa431c02d1236803b12b6038bd91
:0434bc0000000020ec
:020000040000fa
:1034c00038b5074c054608461146002222601a46c8
:1034d00000f08efa431c02d1236803b12b6038bd83
:0434e00000000020c8
:020000040000fa
:1034e40082b001b901a942b14bb113780b601278d3
:1034f400101c18bf012002b070471046fbe76ff0a4
:043504000100f8e7e3
:020000040000fa
:1035080038b5074c054608461146002222601a467f
:1035180000f06cfa431c02d1236803b12b6038bd5c
:04352800000000207f
:020000040000fa
:10352c0038b5074c0023054608461146236000f0c9
:10353c0055fa431c02d1236803b12b6038bd00bf80
:04354c00000000205b
:020000040000fa
:1035500038b504460d46084600f03efa38b905f184
:1035600008012046fff7fefeec60204638bd002033
:02357000fce776
:020000040000fa
:1035720030313233343536373839414243444546a7
:10358200003031323334353637383961626364653d
:023592006600d1
:020000040000fa
:1035940010b50c46b1f90e10fff7b4ff0028abbf0d
:1035a400636da3891b1823f48053acbf6365a381a7
:0235b40010bd48
:020000040000fa
:1035b60013464ab1013a1a4208d1028081600023bb
:1035c6004380838018467047032070470320704766
:020000040000fa
:1035d60008b5fff7e0fd00f0d3f9fff72efdfef783
:1035e600abf9fff790fdfff7a6fdfff740fd08bd1d
:020000040000fa
:0235f600fee7ee
:020000040000fa
:1035f8004c1a0000601a0000841a0000a81a000083
:10360800c81a0000e81a0000081b0000281b000068
:020000040000fa
:1036180008b5064800f0daf90378012b00d008bd98
:10362800022303700148fff711fff8e7d8040020d0
:020000040000fa
:1036380038b5064c0023054608462360fff778fe98
:10364800431c02d1236803b12b6038bd0000002061
:020000040000fa
:1036580038b5064c002305460846236000f0bef93d
:10366800431c02d1236803b12b6038bd0000002041
:020000040000fa
:1036780038b5064c002305460846236000f0b2f929
:10368800431c02d1236803b12b6038bd0000002021
:020000040000fa
:1036980010b5044600f08cf904fb00f0024ca4fbc2
:0c36a8000030800910bd00bfd34d62103f
:020000040000fa
:1036b40008b50020fff758fd034b186910b100212d
:0c36c40000f02ef908bd00bf94040020a7
:020000040000fa
:1036d0000a44914200f1ff3300d1704710b511f850
:0c36e000014b03f8014f9142f9d110bddd
:020000040000fa
:1036ec00b2f90c3013f4005f06d143f4005393810c
:0c36fc00136e43f400531366fef77cbf0e
:020000040000fa
:1037080038b5044600f06ef80546204600f0a8f8e3
:0a37180008b100236360284638bda5
:020000040000fa
:1037220038b504460d4600f0a6f8294600f04bf9dc
:0a37320001462046fef765fb38bd96
:020000040000fa
:10373c0049b1ff2a85bf8a2303600a704ff0ff301e
:0a374c0098bf01207047084670473f
:020000040000fa
:02375600fee78c
:020000040000fa
:10375800044a138843f002031380136913f0020f1d
:08376800fbd170470024004072
:020000040000fa
:1037700010b5044601604260083000f020f90023d3
:06378000e360204610bdcd
:020000040000fa
:02378600fee75c
:020000040000fa
:10378800034a136913f0080ffbd1014b986970477e
:0437980000240040c9
:020000040000fa
:10379c0008b5022303700248fff756fe08bd00bfb0
:0437ac00a80400204d
:020000040000fa
:1037b000034b1b7883421cbf014b1870704700bf3e
:0437c000f0040020f1
:020000040000fa
:1037c4000a54656d7065726174757265203d2025bb
:0437d4006420460027
:020000040000fa
:1037d80044210000582100006c2100008c210000c9
:0437e800b421000008
:020000040000fa
:1037ec00034628b1006818b102681a600023036010
:0237fc00704714
:020000040000fa
:1037fe0010b5044600f0dcf8201d00f0d9f8204684
:02380e0010bdeb
:020000040000fa
:1038100008b5fff779ff18b10346083800225a604f
:0238200008bde1
:020000040000fa
:1038220010b5044600f027f801462046fef7e9faf3
:0238320010bdc7
:020000040000fa
:10383400232d302b2000686c4c0065666745464795
:1038440000232d302b2000686c4c006566674546cc
:0238540047002b
:020000040000fa
:02385600fee78b
:020000040000fa
:10385800024b40f204521a80704700bf00400041fa
:020000040000fa
:1038680020b10068b0fa80f0400970470120704725
:020000040000fa
:1038780008b5024b1b69984708bd00bf040000202b
:020000040000fa
:10388800024b1878b0fa80f040097047e80400202d
:020000040000fa
:10389800024b1878b0fa80f0400970479404002071
:020000040000fa
:1038a80002440346934200d1704703f8011bf9e72d
:020000040000fa
:1038b800034613f8012b002afbd1181a0138704768
:020000040000fa
:1038c80051f8043c181f002bbcbf0b58c018704798
:020000040000fa
:0e38d800034610b102680a600160184670478e
:020000040000fa
:0e38e60008b50020fff779fd00f046f8fce77a
:020000040000fa
:0c38f400014b586299627047b00300203d
:020000040000fa
:0c390000014bd860196170478003002063
:020000040000fa
:0c390c00014b5862996270478003002054
:020000040000fa
:0c39180010b50446fff76fff204610bdfd
:020000040000fa
:0c39240008b510b103684068984708bd62
:020000040000fa
:0c3930000149fff7e1ba00bf192b0000ad
:020000040000fa
:0c393c00014b93f828017047b4010020f3
:020000040000fa
:0c3948004ff400534b600020704700bf9c
:020000040000fa
:0b3954004300504f53495800002e0064
:020000040000fa
:0a39600088422cbf002001207047b0
:020000040000fa
:0a396a00884214bf002001207047be
:020000040000fa
:0a397400884294bf00200120704734
:020000040000fa
:08397e0008b500f00df808bdca
:020000040000fa
:0839860008b5fff7e6fe08bddd
:020000040000fa
:08398e0008b5fff7fafe08bdc1
:020000040000fa
:0839960008b5fef734fa08bd84
:020000040000fa
:08399e0008b5fef726ff08bd85
:020000040000fa
:0839a600b1f90e10fff755be48
:020000040000fa
:0239ae00704760
:020000040000fa
:0839b0004ff0ff30704700bf2b
:020000040000fa
:0639b8004ff400407047cf
:020000040000fa
:0639be00002303607047c6
:020000040000fa
:0439c4000020704728
:020000040000fa
:0439c80008447047f8
:020000040000fa
:0439cc00816070475f
:020000040000fa
:0439d0008068704754
:020000040000fa
:0439d4004068704790
:020000040000fa
:0439d800c06870470c
:020000040000fa
:0439dc0000bf704771
:020000040000fa
:0439e00020030020a0
:020000040000fa
:0439e400fff7e4bf46
:020000040000fa
:0439e800fff7aebf78
:020000040000fa
:0439ec0000f006b829
:020000040000fa
:0439f00000f006b825
:020000040000fa
:0439f400fff708bd14
:020000040000fa
:0439f800fff740badb
:020000040000fa
:0439fc0001207047ef
:020000040000fa
:043a000000207047eb
:020000040000fa
:023a0400704709
:020000040000fa
:023a0600704707
:020000040000fa
:0200000400807a
:044000003912003c35
:020000040000fa
:0200000400807a
:044004008000a82a66
:020000040000fa
:0200000400807a
:04400800ffffffffb8
:00000001FF
