:020000040000fa
:10000000f0ff0320cd1200004f190000531a00002a
:1000100043200000db210000dd2100000000000083
:10002000000000000000000000000000cf100000f1
:10003000371f000000000000cf100000cf100000ac
:10004000cf100000cf100000cf100000cf10000034
:10005000cf100000cf100000cf100000cf10000024
:10006000cf100000cf100000cf100000cf10000014
:10007000cf100000cf100000cf100000cf10000004
:10008000cf100000cf100000cf100000cf100000f4
:10009000cf100000cf100000cf100000cf100000e4
:1000a000cf100000cf100000cf100000cf100000d4
:1000b000cf100000cf100000cf100000cf100000c4
:1000c000cf100000cf100000cf100000cf100000b4
:1000d000cf100000cf100000cf100000cf100000a4
:1000e000cf100000cf100000000000000000000052
:1000f00000000000cf100000cf100000cf10000063
:10010000cf100000cf100000cf100000cf10000073
:10011000cf100000cf100000290b0000290b0000b9
:10012000290b0000290b0000790600007906000069
:100130007906000079060000cf100000cf10000003
:10014000cf100000cf100000cf100000cf10000033
:10015000cf100000cf100000cf100000cf10000023
:10016000cf100000cf100000cf100000cf10000013
:10017000cf100000cf100000cf100000cf10000003
:10018000cf100000cf100000cf100000cf100000f3
:10019000cf100000cf100000cf100000cf100000e3
:1001a000cf100000cf100000cf100000cf100000d3
:1001b000cf100000cf100000cf100000cf100000c3
:1001c000cf100000cf100000cf100000cf100000b3
:1001d000cf100000cf100000cf100000cf100000a3
:1001e000cf100000cf100000cf100000cf10000093
:1001f000cf100000cf100000cf100000cf10000083
:10020000cf100000cf100000cf100000cf10000072
:10021000cf100000cf100000cf100000cf10000062
:10022000cf100000cf100000cf100000cf10000052
:10023000cf100000cf100000cf100000cf10000042
:10024000cf100000cf100000cf100000cf10000032
:10025000cf100000cf100000cf100000cf10000022
:04026000cf100000bb
:020000040000fa
:10026400f8b500bff8bc08bc9e467047d117000023
:10027400f8b500bff8bc08bc9e467047ad17000037
:020000040000fa
:100284002de9f04306460c4601f14300097e85b092
:100294006e29984617460c9b00f0ba8024d863292f
:1002a40039d00ad8002900f0c380582900f0918081
:1002b40004f1420584f8421035e0642901d069292b
:1002c400f6d125681a6815f0800f02f104012cd0cc
:1002d40012681960002a03da2d23524284f843304d
:1002e400dff8bcc10a233fe0732900f0a58008d8d9
:1002f4006f2921d07029dbd1226842f020022260cc
:1003040003e0752918d07829d2d1782284f84520c1
:10031400dff890c161e01a68111d1960136884f850
:10032400423004f14205012393e01268196015f08c
:10033400400f18bf12b2cde7d4f800c01a681cf001
:10034400800f02f104051d6001d0126803e01cf067
:10035400400ffad01288dff848c16f290cbf082378
:100364000a23002184f843106568a560002da2bf0c
:10037400216821f0040121600ab9002d46d0054608
:10038400b2fbf3f103fb112e93421cf80ee005f8c7
:1003940001ed39d9082b0bd12368da0708d5236975
:1003a40062689a42debf302305f8013c05f1ff354f
:1003b400401b2061cdf800803b4603aa214630460d
:1003c40000f04afd013049d14ff0ff3005b0bde8df
:1003d400f083dff8ccc084f845101d68216855f817
:1003e400042b1d600d060bd5cd0744bf41f0200141
:1003f40021601ab9236823f0200323601023b0e797
:100404004b0648bf92b2efe70a46b9e70546c1e793
:100414001a68d4f800c06169151d1d601cf0800fb6
:10042400136801d0196003e01cf0400ffad0198062
:10043400002323610546bde71a68111d196015687c
:1004440062680021284600f0a1fe08b1401b6060ec
:1004540063682361002384f84330abe723692a46a9
:1004640039463046c0470130aed023689b0713d4c9
:10047400e068039b9842b8bf1846a7e701234a46a1
:1004840039463046c04701309ed00135e368039aaf
:100494009b1aab42f2dcebe7002504f11909f5e7fe
:0804a4007e1d00008f1d000009
:020000040000fa
:1004ac002de9f04f1e468b891b069db007460d4665
:1004bc0014460ed50b6963b9402100f003fe286089
:1004cc00286120b90c233b604ff0ff30c3e0402380
:1004dc006b6100230993dff88491039620238df838
:1004ec00293030238df82a304ff0ff3809f1060af5
:1004fc0023461e4613f8012b0ab1252af9d1b6eb77
:10050c00040b0bd05b4622462946384600f07efd94
:10051c00013000f09b80099b5b4409933378002bde
:10052c0000f094800023cde90583013604930793f2
:10053c008df853301a934ff0010b3446052214f802
:10054c00011b464800f01efe049bc0b9d80644bff0
:10055c0020228df85320190744bf2b228df85320ed
:10056c0032782a2a13d0079a344600200a262146cc
:10057c0011f8013b303b092b4bd970b914e0a0ebbf
:10058c0009000bfa00f0184304902646d5e7039aad
:10059c00111d12680391002a01db079204e05242fc
:1005ac0043f002030792049323782e2b0bd163782c
:1005bc002a2b33d1039b1a1d1b680392002bb8bf47
:1005cc0043460234059303222178254800f0dafdd6
:1005dc0040b14023a0eb0a0003fa00f0049b034354
:1005ec000134049314f8011b1e488df828100622c0
:1005fc0000f0c8fd03ab00932a461b4b04a908b3bb
:10060c00384601f0e2fd421c20d0099b03440993bb
:10061c006ee706fb023201200c46a8e700230134ea
:10062c00059319460a26204610f8012b303a092a60
:10063c0003d9002bc7d00591c5e706fb0121012387
:10064c000446f0e73846fff717fedce7ab895b069c
:10065c003ff53aaf09981db0bde8f08f302000008f
:0c066c00362000003a20000019100000a9
:020000040000fa
:100678006a4b9b7d002b00f0d08010b5674b5b8bdd
:1006880013f0020f16d0664bff2283f820200222b7
:1006980083f82120624b93f820305bb2b3f1ff3f1f
:1006a80000f08b805e4b93f820305bb2062b00f095
:1006b8009c8010bd594b5b8b13f0010f07d0584b32
:1006c800ff2283f82020022283f82120e2e7534bff
:1006d8005b8b13f0040f07d0514bff2283f82020c7
:1006e800012283f82120d5e74d4b93f820305bb2e7
:1006f800032b42d0042b10d0022bcbd1484b1b69c3
:100708002bb10021464b988800f0dcffc2e701219d
:10071800434b988800f0d6ffbce7414a93691269b9
:1007280093420bd03e4a9168581c9061ca5c3b4b7f
:100738009a621a46d369002bfcd1abe7384b5b6948
:1007480073b1374b9b885b0043f00103334a536214
:10075800d369002bfcd1324b032283f8202099e780
:100768002e4a536843f440335360d369002bfcd1bd
:100778002b4b062283f820208ce7294a5369013b3a
:10078800d2699a420cd0254ad369002bfcd1234b5d
:10079800986a234bd968da69541cdc61885479e774
:1007a8001e4a536843f4e0235360d369002bfcd1fd
:1007b8001b4b062283f82020e5e7194b002283f81b
:1007c8002020164a536843f440335360d369002b02
:1007d800fcd1124b83221a76114b5b6a002b3ff433
:1007e80068af0f4a906a984763e70d4b002283f879
:1007f800202083f82120094b83221a761a46538b2e
:1008080003f03003102bfad1054b5b6a002b3ff441
:1008180050af034a906a98474be770470040014140
:040828004402002066
:020000040000fa
:10082c00980200201c000000000000004402002080
:10083c002c0000000000000014020020300000001a
:10084c000000000004000020b001000000000000c7
:10085c007002002028000000000000004e03002061
:10086c000100000000000000e80200201000000061
:10087c0000000000480300200600000000000000fb
:10088c00d00200201800000000000000f802002038
:10089c0010000000000000005003002005000000c4
:1008ac0000000000b40200201c000000000000004a
:1008bc00280300200c000000000000004f03002063
:1008cc000100000000000000340300200c000000b8
:1008dc0000000000400300200800000000000000a1
:1008ec000803002010000000000000001803002086
:1008fc00100000000000000058030020040000005d
:10090c00000000005c030020040000000100000057
:10091c00b4010020b40100206000000001000000c0
:10092c0000000000000000000000000000000000bb
:10093c0000000000000000000000000000000000ab
:10094c00000000000000000000000000000000009b
:10095c00000000000000000000000000000000008b
:10096c00000000000000000000000000000000007b
:10097c00000000000000000000000000000000006b
:10098c00600300200400000000000000640300204d
:10099c000400000000000000000000200400000023
:1009ac0000000000680300200400000000000000ac
:1009bc00000000000000000022222222222222221b
:020000040000fa
:1009cc0010b50378082b0cd8dfe803f0050c1e2dae
:1009dc004a686f898900012001f0bcfa484801f08f
:1009ec004bfb10bd4749002301f8013f444b01224a
:1009fc004f2001f071f818b1082001f0abfaf0e7c4
:100a0c00022001f0a7faece73d4b02223e494f20b1
:100a1c0001f04af818b1082001f09cfae1e7032034
:100a2c0001f098fadde7374a5178937843ea0123cd
:100a3c001bb203ebc303354981fb0301db17c3eb8b
:100a4c006103c3f307232033d3702d4c204601f0f0
:100a5c001bfb042001f07efa204601f00dfbc0e7e1
:100a6c00284b93f90430042b02dd264b00221a711b
:100a7c0024490b795a1c0a714b70cb788b70204b24
:100a8c0002220131572001f027f818b1082001f09b
:100a9c0061faa6e7052001f05dfaa2e7062001f055
:100aac0059fa174801f0f8fa9be7194c154b93f9d2
:100abc000330184a1821204600f044fd204601f06e
:100acc0003fb0f4a0146204601f00cfa18b108202e
:100adc0001f040fa85e7072001f03cfa81e70e4b64
:100aec004ff48022c3f81c21002001f033fa044c8f
:100afc00204601f0c9fa204601f0d6fa71e700bf92
:100b0c00f80200205003002051030020676666663f
:0c0b1c00d0020020741f00000080004187
:020000040000fa
:100b280038b54f4b9b7dd3b14d4a137edbb2927dd6
:100b380012f0800f14d14a4a137edbb2927d12f074
:100b4800010f02d013f0010f50d1454a137edbb2da
:100b5800927d12f0040f02d013f0040f18d138bda3
:100b680013f0800fe7d03e4b5b8b13f00703e2d006
:100b78003c4ce38500f06aff394b84221a75002348
:100b880084f82c30636a002bd5d0a06a9847d2e746
:100b9800344b93f82c30002be1d0324b1a6adb69c6
:100ba8009a42dcd22e4b9a6a5b6803f00703012b4a
:100bb8002c4b9869196a01f101041c6214bf425454
:100bc80020f81120274b1a6adb699a42c7d1254bb6
:100bd800002283f82c20da61214a842111755b6a8e
:100be800002bbcd01f4a906a9847b8e71d4b1b7d65
:100bf800002baad01b4b9a685c68194b1b7e13f01c
:100c0800010f19d0a24217d2164b1d6814491a4673
:100c18004b6803f00703012b936803f10100906010
:100c280014bfeb5c35f813308b6290680b7e13f0c1
:100c3800010f01d08442ebd80a4b9a685b689a424c
:100c480083d3084b00221a755a60054a0121117591
:100c5800db68002b3ff479af024a1069984774e7c4
:080c68000020014114020020ec
:020000040000fa
:100c7000364b42f20e229a821a46d36813f0010fc5
:100c8000fbd0324b05221a7403f50063304a9a6296
:100c90001a46536813f0100ffbd12e4b4222c3f8b3
:100ca00084201a46d2f8843013f0400ffad02a4b31
:100cb00000229a6377225a631a46d36b13f0040f0b
:100cc000fbd1254b022283f830201a46d36b13f058
:100cd000020ffbd1204a136c03f00303032bfad15c
:100ce0001e4b01225a711a46d37813f0010ffbd024
:100cf000184b1b4a1a621a46536813f0040ffbd1b3
:100d0000144b184a5a621a46536813f0080ffbd165
:100d1000104b4122c3f8dc201a46d2f8dc3013f025
:100d2000400ffad00b4b4122c3f8e0201a46d2f80c
:100d3000e03013f0400ffad0084b6ff07f421a6199
:100d400040f2ff725a61084a9a61704700140040ed
:100d500006013000001c0040001000400008004068
:0c0d600007010100070102005686010097
:020000040000fa
:100d6c0010b584b0344b1b78062b0bd8dfe803f09e
:100d7c00040c1e2d34555500012001f0e1f82f48cc
:100d8c0001f07af904b010bd2b49002301f8013fa2
:100d9c002a4b0122572000f09ffe18b1062001f0cb
:100dac00cff8efe7022001f0cbf8ebe7234b05225d
:100dbc002349572000f078fe18b1062001f0c0f846
:100dcc00e0e7032001f0bcf8dce7042001f0b8f800
:100ddc001a4801f061f9d5e7174b1a4c5a7903926e
:100dec001a790292da7801929a7800925b78164a14
:100dfc002821204600f0a6fb204601f065f90f4a99
:100e0c000146204601f06ef818b1062001f098f862
:100e1c00b8e7052001f094f8b4e7084c204601f03f
:100e2c0043f9204601f030f9002001f089f8214601
:100e3c00064800f021fea5e748030020e802002048
:100e4c004903002070020020cc1c00004e0300203f
:020000040000fa
:100e5c002de9f04791461f468a680b69ddf8208022
:100e6c009342b8bf1346c9f8003091f843200646a8
:100e7c000c4612b10133c9f800302368990642bf01
:100e8c00d9f800300233c9f80030256815f0060592
:100e9c0007d104f1190ae368d9f800209b1aab4278
:100eac0028dc94f843302268003318bf01239206e3
:100ebc002dd404f1430239463046c047013020d0ce
:100ecc002368e568d9f8002003f00603042b08bf5b
:100edc00ad1aa36822690cbf25eae575002593427b
:100eec00c4bf9b1aed184ff000091a344d451ad1a6
:100efc00002008e00123524639463046c0470130f5
:100f0c0003d14ff0ff30bde8f0870135c3e7e1189e
:100f1c005a1c302081f84300224494f8451082f882
:100f2c0043100233c5e70123224639463046c047f9
:0a0f3c000130e6d009f10109d8e701
:020000040000fa
:020f46007047f2
:020000040000fa
:100f48002de9f04781460e4601f03ff910b1052022
:100f5800bde8f0872d4bd3f88051002d4fdd6c1e76
:100f680004eb4403294c04eb830418346f1ea24697
:100f7800204601f028f980460146304601f0f3f892
:100f880018bb4146304601f0e9f818b90c3c3d461b
:100f9800002febd11d4bd3f880211d2a2dd0521bd9
:100fa800002a18dc194c05eb450504eb850a0af103
:100fb800180a504601f0baf83146504601f001f9d6
:100fc800d4f880310133c4f880314946504601f0e5
:100fd800e4f80020bce702eb4202184605eb4501a5
:100fe80003eb81016b1c03eb430300eb83009200ce
:100ff8001831183000f0f6fcd4e70320a8e7034bbb
:10100800d3f880311d2bcdd10320a1e704000020a7
:020000040000fa
:101018002de9f0478e689e4282460c4691469846d6
:1010280038d8b1f80cc01cf4906f31d062692568cb
:10103800096902eb42026f1a02ebd27201335510b2
:101048003b449d4238bf1d461cf4806f30d0294672
:1010580000f03af8064650b90c23caf80030a389c4
:1010680043f04003a3814ff0ff30bde8f0873a46d4
:10107800216900f0f9fea38923f4906343f080030b
:10108800a381266165613e44ed1b2660a560464646
:10109800464500d9464632464946206800f0a2fc3b
:1010a800a3689b1ba36023681e4426600020dce71e
:1010b8002a4600f02dfb06460028e2d12169504659
:0610c80000f0b2f8c8e7d9
:020000040000fa
:0210ce00fee73b
:020000040000fa
:1010d000f8b5cd1c25f0030508350c2d38bf0c25bf
:1010e000002d064601dba94203d90c233360002002
:1010f000f8bd01f076f821490a6814469cb9204fe2
:101100003b6823b92146304600f06afe3860294624
:10111000304600f065fe431c23d10c23336030467b
:1011200001f060f8e3e723685b1b17d40b2b03d9ae
:1011300023601c44256004e06368a2420cbf0b607e
:101140005360304601f04ef804f10b00231d20f0ef
:101150000700c21accd01b1aa350c9e72246646804
:10116000cce7c41c24f00304a042e3d0211a30468b
:1011700000f036fe0130ddd1cfe700bf6003002074
:0411800064030020e4
:020000040000fa
:0c118400014b5862996270474402002041
:020000040000fa
:1011900001f0ff01102a2bdb10f0070f08d010f828
:1011a000013b013a8b422dd010f0070f42b3f6d12c
:1011b000f0b441ea012141ea014122f007047ff045
:1011c00000070023f0e80256083c85ea010586ea9c
:1011d000010685fa47f5a3fa87f586fa47f6a5fad8
:1011e00087f68eb9eed1f0bc01f0ff0102f00702e4
:1011f00032b110f8013b013a83ea010313b1f8d18f
:101200000020704701387047002d06bf354603386f
:10121000073815f0010f07d1013015f4807f02bfa8
:10122000013015f4c03f0130f0bc0138704700bff9
:020000040000fa
:1012300038b50546002945d051f8043c0c1f002b59
:10124000b8bfe41800f0cdff1f4a1368104633b949
:10125000636014602846bde8384000f0c3bfa34275
:101260000cd921686218934204bf1a685b686360f6
:1012700004bf521822600460ece713465a680ab1b2
:10128000a242fad919685818a0420bd1206801442b
:10129000581882421960ddd1106852685a600144c2
:1012a0001960d7e702d90c232b60d3e720682118f7
:1012b0008a4204bf11685268626004bf0918216045
:0c12c0005c60c7e738bd00bf6003002081
:020000040000fa
:1012cc0008b51b4b98471b4b9847eff3108172b630
:1012dc00194ad2f8883043f47003c2f88830bff34f
:1012ec004f8fbff36f8f01b962b6144c202363602c
:1012fc0000f02ef8124b23f07f030f4a9360114b32
:10130c009847a36823f00103a3602346da6812f020
:10131c00010ffbd1094b5a6842f004025a600122ba
:10132c009a60094b9847094b984700f0e4fefee79a
:10133c00df210000df21000000ed00e00060004133
:10134c000000000065170000df210000df21000015
:020000040000fa
:10135c001e4b1f4a9342f0b438bf002103d203f84e
:10136c00011b9342fbd11b4ad2e9000150ea010355
:10137c004ff0000610d09468034602f10c076cb9cc
:10138c0021b1014403f8016b9942fbd13a46d2e9f1
:10139c00000150ea0103eed1f0bc704759b101f1e4
:1013ac000c030c38801a1a443b461c1813f8015bca
:1013bc0025709342f9d111f0030318bf012303ebfd
:1013cc00910107eb81073a46e1e700bf00000020de
:0813dc00040000202c080000b1
:020000040000fa
:1013e40008b51d4b1b78022b17d0032b28d0012bdb
:1013f40000d008bd032000f0d9fd00211748fff7f5
:10140400bffe154b9a685968587800f067fa0028af
:10141400efd1042000f0cafdebe7032000f0c6fd85
:1014240000210e48fff7acfe0b4b9a6859685878b8
:1014340000f08cfa0028dcd1042000f0b7fdd8e7d6
:10144400002000f0b3fd044bd8680028d1d000215f
:1014540000f074fecde700bf18030020091f000050
:020000040000fa
:101464001c4ad36823f4e0631b041b0c43f0bf63e2
:1014740043f40033d360bff35f8f62b6164be022b0
:1014840083f836234ff48001596083f837234ff4ef
:101494000001596083f838234ff08071596083f854
:1014a40039234ff00071596083f83a234ff080617b
:1014b400596083f83b234ff00061596083f83c2363
:1014c4004ff08051596083f83d234ff000525a6029
:0c14d400704700bf00ed00e000e100e008
:020000040000fa
:1014e00030b583b000f0c6fd0546174c01a9204673
:1014f00000f010fb18b9019800f07ffdf6e700f04e
:10150000c1fb28b100f063fe294600f035fe40b172
:101510000e4b5869b0b1002100f012fe002003b05c
:1015200030bd00f02ffa094c0025204600f03dfeaa
:1015300003460028f2d0e3602946184600f000fe7a
:10154000e560f2e700bfe9e7a80100200400002001
:020000040000fa
:101550000cb430b5184b0c1e9bb01d6808da8b23f9
:101560002b604ff0ff301bb0bde8304002b0704739
:101570004ff40273adf8103014bf04f1ff3323466b
:10158000039306934ff6ff73adf8123000230190da
:10159000059019931e9a1fab01a928460093fef7e8
:1015a00085ff431cbcbf8b232b60002cdbd0019b31
:0c15b00000221a70d7e700bf5c03002087
:020000040000fa
:1015bc00144b01221a601a46d369002bfcd1114b33
:1015cc004ff480725a601a46d369002bfcd10d4b34
:1015dc00ff22da600c4a1a601a46d369002bfcd140
:1015ec00084b10225a831a46d369002bfcd1074ba7
:1015fc00002283f8212083f82020024b83229a7545
:10160c00704700bf0040014116001000440200204a
:020000040000fa
:10161c0020b310b40446134b1b7d0bbb114b18604d
:10162c00596001221a7500230f4809e0426802f044
:10163c000702012a14bfe25c34f8132082620133e2
:10164c00027e12f0010f01d09942efd1054a93604e
:10165c000120054b98755df8044b704700207047ce
:0c166c000020f8e71402002000200141db
:020000040000fa
:10167800114b124a1a604ff622029a814ff44032f7
:101688005a601a46d369002bfcd10b4a136843f001
:1016980002031360d369002bfcd1094b00229a6125
:1016a800da611a6283f82c205a621a605a609a60ca
:1016b8001a75da60da85704700200141040110408c
:0416c80014020020e8
:020000040000fa
:1016cc00104b00229a61da610f4b83221a765a680a
:1016dc0022f480225a601a46d369002bfcd161b1e6
:1016ec00084b032283f8202041ea4001064b596243
:1016fc001a46d369002bfcd17047024b042283f8a5
:0c170c002020f1e74402002000400141d1
:020000040000fa
:10171800f8b5074614460e4621b91146bde8f8400b
:10172800fff7d2bc22b9fff77ffd25462846f8bd52
:1017380000f0d4fca0420fd221463846fff7c4fc83
:1017480005460028f2d03146224600f08dfb31468e
:0c1758003846fff769fde9e73546e7e792
:020000040000fa
:1017640070b50d4d0d4c641ba4100026a64209d182
:101774000b4d0c4cfef774fd641ba4100026a6420e
:1017840005d170bd55f8043b98470136eee755f88e
:10179400043b98470136f2e7700200007002000033
:0817a400700200007402000055
:020000040000fa
:1017ac0010b5054c237833b9044b13b10448aff38f
:1017bc0000800123237010bd98020020000000005f
:1017cc000000000008b5034b1bb103490348aff3fd
:1017dc00008008bd000000009c02002000000000fa
:020000040000fa
:1017ec00b8b138b505460c4a92f82c200ab1002045
:1017fc0038bd0c4600f028f9074b9d61dc610022d6
:10180c001a62012083f82c00da85044b84229a7525
:10181c00eee70020704700bf1402002000200141b9
:020000040000fa
:10182c0008b500f0acfc00f0c1f800f0d3fc00f0ff
:10183c007dfa00f009fb074800f0e2fb064800f0d7
:10184c00dffb00f04ffa00f0b5fa044b01221a70de
:10185c0008bd00bf28030020340300204f030020e4
:020000040000fa
:10186c000d4b01221a801a46136913f0010ffbd19c
:10187c00094b4ff401421a8000221a621a4613696e
:10188c0013f0200ffbd1044b00225a621a46136945
:0c189c0013f0400ffbd170470024004007
:020000040000fa
:1018a8000c4b012283f8562083f85720222183f815
:1018b8003b1083f8d82083f8d920332283f8bc2042
:1018c8004ff48022c3f80021c3f81021002283f8c6
:0818d80052217047008000411d
:020000040000fa
:1018e0000c4b93f820305bb20bb10020704710b561
:1018f000084b9880d9605a6100229a601a610124cd
:101900009c701a7083f821202146fff7dffe2046e5
:0819100010bd00bf44020020dd
:020000040000fa
:1019180043690bb10020704770b515460e46044662
:1019280000f010fc804725616661314600f047fcf5
:10193800a0610021284600f0fffba169204600f0c5
:0619480034fc012070bd1b
:020000040000fa
:02194e00fee7b2
:020000040000fa
:101950000b4b93f820305bb20bb10020704710b5f1
:101960000c46074b98800021d96059619c601a6130
:101970009970197083f82110fff7a8fe012010bd9f
:0419800044020020fd
:020000040000fa
:1019840010b40b4bd3f88041002c0edd013c04eb6a
:10199400440203eb8202183207ca83e80700c3f843
:1019a400804118465df8044b70470020fae700bff9
:0419b400040000200b
:020000040000fa
:1019b80010b50a4c4ff4d8720021204600f07efb87
:1019c800204600f0b3fb064b2361082204f5c271e0
:1019d80004f5d27000f0e0f910bd00bf040000204b
:0419e8009321000047
:020000040000fa
:1019ec00884210b501eb020302d983421c4607d88a
:1019fc00421e994208d011f8014b02f8014ff8e74a
:101a0c0083189a1a9a4200d110bd14f8011d03f8dc
:041a1c00011df7e7ca
:020000040000fa
:101a200010b503688b4207d0043000f055fa002847
:101a300014bf0020032010bd0446043000f0effa6c
:101a4000206020b1002100f07bfb0020f3e70020a4
:021a5000f1e7bc
:020000040000fa
:021a5200fee7ad
:020000040000fa
:101a54000a4b5b8b13f0070f0ed0084b80221a76cb
:101a640007225a831b7e13f0040f05d0034b9a6a96
:101a74001a7e12f0040ffad1704700bf0020014112
:020000040000fa
:101a840038b504460d4600f047fb08b1012038bdc7
:101a9400064b5d6000f092f801212046fff7a4fe9a
:101aa400002814bf00200220f1e700bf40030020fb
:020000040000fa
:101ab40038b5094c247814b10124204638bd064dac
:101ac40068706960aa60eb60012000f06ffa034857
:101ad40000f091faf1e700bf18030020080300208a
:020000040000fa
:101ae40038b5094c247814b10124204638bd064d7c
:101af40068706960aa60eb60022000f057fa03483e
:101b040000f079faf1e700bf180300200803002071
:020000040000fa
:101b1400438882889bb293420cd043889bb28268ec
:101b240052f823300b60438801330288134043800a
:0c1b34000020704700230b600120704768
:020000040000fa
:101b4000074a136843b10749184488428cbf4ff0d5
:101b5000ff33106018467047034b1360f3e700bf74
:0c1b6000680300207005002070030020c6
:020000040000fa
:101b6c0038b504460d4600230b60043000f06cfac7
:101b7c0030b12946204600f0b7fa6560204638bde2
:0a1b8c002946606800f0b0faf7e7a0
:020000040000fa
:101b96008388013302881340428892b29a420ad05f
:101ba60010b4828892b2846844f8221083800020a0
:0a1bb6005df8044b704702207047f1
:020000040000fa
:101bc000074b93f82c3043b1064b84221a75044b13
:101bd000002283f82c201a62da610120704700bfce
:081be000140200200020014165
:020000040000fa
:101be80008b500f02bfafff75bfefff73df8fff7ab
:101bf800e1fcfff73dfdfff7a2f9fff733fefff722
:081c080011fefff72bfc08bde3
:020000040000fa
:101c100010b5074c204600f00ff94ff47a7000f031
:101c2000eff8044a01462046fff776fe10bd00bfdc
:081c3000b4020020f8020020bc
:020000040000fa
:101c380008b502683ab1043000f08cf8002814bfe7
:101c48000020022008bd0b4601600021184600f064
:061c580073fa0020f6e71c
:020000040000fa
:101c5e00436903b9704710b504460021006900f0ce
:101c6e0068fa6169a06900f0a7fa0146a0612046f2
:061c7e0000f098fa10bd11
:020000040000fa
:101c8400074bd3f88031002b08dd013b03eb430302
:101c9400034800eb830303f11800704700207047ea
:041ca4000400002018
:020000040000fa
:101ca80010b5044600f091fa08b1052010bd214690
:101cb8000348fff76cff022814bf00200320f5e754
:041cc800a80100204f
:020000040000fa
:101ccc000a454550524f4d3a253032647c2530320e
:101cdc00647c253032647c253032647c253032645f
:041cec007c0000bfb9
:020000040000fa
:101cf00010b5054c22460549054800f011f90023ae
:101d00002371237010bd00bf50030020cd090000d7
:041d1000f8020020b5
:020000040000fa
:101d140008b5074b1b7813b9fff7e0fb08bd044b6c
:101d240000221a7000f078f8fff770fff4e700bfa4
:041d34004f03002039
:020000040000fa
:101d380010b5054c22460549054800f0edf800238a
:101d48002370e36010bd00bf18030020e5130000f6
:041d5800080300205c
:020000040000fa
:101d5c0038b505460c46084600f035fa38b904f19a
:101d6c0008012846fff7fcfee560204638bd002040
:021d7c00fce782
:020000040000fa
:101d7e0030313233343536373839414243444546b3
:101d8e000030313233343536373839616263646549
:021d9e006600dd
:020000040000fa
:101da00013464ab1013a1a4208d1028081600023e9
:101db0004380838018467047032070470320704794
:020000040000fa
:101dc00010b5044c22460449044800f0a9f8002349
:101dd000237010bd480300206d0d0000e8020020b4
:020000040000fa
:101de00038b5064c0023054608462360fff7a8fed9
:101df000431c02d1236803b12b6038bd00000020d2
:020000040000fa
:101e000010b5044600f0d9f904fb00f0024ca4fb25
:0c1e10000030800910bd00bfd34d6210ef
:020000040000fa
:101e1c0008b5002000f094f802490348fff72cfea7
:0c1e2c0008bd00bfe80200204e030020ab
:020000040000fa
:101e380010b504460246044900f06ef800232361f9
:0c1e48006361204610bd00bf5f1c00005d
:020000040000fa
:101e540008b50021034800f059f90021024800f0b8
:0c1e640061f908bd9d1f0000891f0000ef
:020000040000fa
:101e70000a44914200f1ff3300d1704710b511f8c8
:0c1e8000014b03f8014f9142f9d110bd55
:020000040000fa
:101e8c0070b50e461546044630b129462046b0477b
:0a1e9c0024680cb10028f8d070bdd6
:020000040000fa
:101ea60038b5044600f08bf80546204600f0cff81a
:0a1eb60008b100236360284638bd20
:020000040000fa
:101ec000044a138843f002031380136913f0020fce
:081ed000fbd170470024004023
:020000040000fa
:101ed80010b50c46083100f05cf9034610b1002338
:081ee800e3602346184610bd1b
:020000040000fa
:101ef00008b5044b1a60fff791fb002814bf0020bf
:081f0000022008bd400300208f
:020000040000fa
:101f080008b5034b03221a700248fff7c9fe08bd43
:081f180018030020080300205b
:020000040000fa
:101f200010b5044601604260083000f049f9002312
:061f3000e360204610bd35
:020000040000fa
:021f3600fee7c4
:020000040000fa
:101f3800034a136913f0080ffbd1014b98697047e6
:041f48000024004031
:020000040000fa
:101f4c00034b1b7883421cbf014b1870704700bfba
:101f5c0048030020034b1b7883421cbf014b1870b5
:081f6c00704700bf5003002084
:020000040000fa
:101f74000a54656d7065726174757265203d202523
:041f8400642046008f
:020000040000fa
:101f880008b5034b586808b1fff78afe08bd00bfc3
:041f980040030020e2
:020000040000fa
:101f9c0008b5034b186808b1fff780fe08bd00bff9
:041fac0040030020ce
:020000040000fa
:101fb000034b1b7883421cbf014b1870704700bf56
:041fc00018030020e2
:020000040000fa
:101fc400034628b1006818b102681a600023036050
:021fd400704754
:020000040000fa
:101fd60008b503688b4201d0002008bdfff7efff6c
:021fe600fbe717
:020000040000fa
:101fe80010b5044600f0e8f8201d00f0e5f820469a
:021ff80010bd1a
:020000040000fa
:101ffa0010b5044600f039f801462046fef79fff67
:02200a0010bd07
:020000040000fa
:10200c0010b50446002340f8043b00f09ff820462e
:02201c0010bdf5
:020000040000fa
:10201e0008b5fff741ff18b10346083800225a6091
:02202e0008bdeb
:020000040000fa
:10203000232d302b2000686c4c00656667454647b1
:01204000009f
:020000040000fa
:02204200fee7b7
:020000040000fa
:10204400024b40f204521a80704700bf0040004126
:020000040000fa
:1020540020b10068b0fa80f0400970470120704751
:020000040000fa
:1020640008b50a460149fff70fff08bdd71f000056
:020000040000fa
:1020740008b5024b1b69984708bd00bf0400002047
:020000040000fa
:1020840008b501460148fff7d5fd08bd2803002027
:020000040000fa
:1020940008b501460148fff7c1fc08bd280300202c
:020000040000fa
:1020a40008b501460148fff7c5fd08bd340300200b
:020000040000fa
:1020b40008b501460148fff7b1fc08bd3403002010
:020000040000fa
:1020c40002440346934200d1704703f8011bf9e729
:020000040000fa
:1020d400034613f8012b002afbd1181a0138704764
:020000040000fa
:1020e40051f8043c181f002bbcbf0b58c018704794
:020000040000fa
:0e20f400034610b102680a600160184670478a
:020000040000fa
:0e21020008b50020fff76ffd00f03af8fce78b
:020000040000fa
:0c211000014bd8601961704714020020d8
:020000040000fa
:0c211c00014b93f82c00704714020020c7
:020000040000fa
:0c212800014b58629962704714020020bd
:020000040000fa
:0c21340010b5044600f00ef8204610bd67
:020000040000fa
:0c21400008b510b103684068984708bd5e
:020000040000fa
:0c214c00014b1869704700bf0400002020
:020000040000fa
:0c21580010b50446fff744ff204610bd00
:020000040000fa
:0a21640088422cbf002001207047c4
:020000040000fa
:0a216e00884214bf002001207047d2
:020000040000fa
:0a217800884294bf00200120704748
:020000040000fa
:0821820008b5fff7c6fd08bd1a
:020000040000fa
:08218a0008b5fff798fe08bd3f
:020000040000fa
:0821920008b5fff7d0fe08bdff
:020000040000fa
:08219a0008b5fff762ff08bd64
:020000040000fa
:0821a20008b5fff7dafd08bde6
:020000040000fa
:0821aa0008b5fff737ff08bd7f
:020000040000fa
:0821b20008b5fef7c8fe08bde8
:020000040000fa
:0621ba004ff400407047e5
:020000040000fa
:0621c000002303607047dc
:020000040000fa
:0421c6000844704712
:020000040000fa
:0421ca008160704779
:020000040000fa
:0421ce00806870476e
:020000040000fa
:0421d200c06870472a
:020000040000fa
:0421d60000bf70478f
:020000040000fa
:0221da00fee71e
:020000040000fa
:0221dc00fee71c
:020000040000fa
:0221de00704748
:020000040000fa
:0221e000704746
:020000040000fa
:0221e200704744
:020000040000fa
:0221e400704742
:020000040000fa
:0200000400807a
:044000003912003c35
:020000040000fa
:0200000400807a
:044004008000a82a66
:020000040000fa
:0200000400807a
:04400800ffffffffb8
:00000001FF
