:020000040000fa
:10000000f0ff0320dd120000e3180000e7190000f4
:100010000b200000af210000b12100000000000013
:10002000000000000000000000000000df100000e1
:10003000ff1e000000000000df100000df100000c5
:10004000df100000df100000df100000df100000f4
:10005000df100000df100000df100000df100000e4
:10006000df100000df100000df100000df100000d4
:10007000df100000df100000df100000df100000c4
:10008000df100000df100000df100000df100000b4
:10009000df100000df100000df100000df100000a4
:1000a000df100000df100000df100000df10000094
:1000b000df100000df100000df100000df10000084
:1000c000df100000df100000df100000df10000074
:1000d000df100000df100000df100000df10000064
:1000e000df100000df100000000000000000000032
:1000f00000000000df100000df100000df10000033
:10010000df100000df100000df100000df10000033
:10011000df100000df100000390b0000390b000079
:10012000390b0000390b0000790600007906000049
:100130007906000079060000df100000df100000e3
:10014000df100000df100000df100000df100000f3
:10015000df100000df100000df100000df100000e3
:10016000df100000df100000df100000df100000d3
:10017000df100000df100000df100000df100000c3
:10018000df100000df100000df100000df100000b3
:10019000df100000df100000df100000df100000a3
:1001a000df100000df100000df100000df10000093
:1001b000df100000df100000df100000df10000083
:1001c000df100000df100000df100000df10000073
:1001d000df100000df100000df100000df10000063
:1001e000df100000df100000df100000df10000053
:1001f000df100000df100000df100000df10000043
:10020000df100000df100000df100000df10000032
:10021000df100000df100000df100000df10000022
:10022000df100000df100000df100000df10000012
:10023000df100000df100000df100000df10000002
:10024000df100000df100000df100000df100000f2
:10025000df100000df100000df100000df100000e2
:04026000df100000ab
:020000040000fa
:10026400f8b500bff8bc08bc9e467047a51700004f
:10027400f8b500bff8bc08bc9e4670478117000063
:020000040000fa
:100284002de9f04306460c4601f14300097e85b092
:100294006e29984617460c9b00f0ba8024d863292f
:1002a40039d00ad8002900f0c380582900f0918081
:1002b40004f1420584f8421035e0642901d069292b
:1002c400f6d125681a6815f0800f02f104012cd0cc
:1002d40012681960002a03da2d23524284f843304d
:1002e400dff8bcc10a233fe0732900f0a58008d8d9
:1002f4006f2921d07029dbd1226842f020022260cc
:1003040003e0752918d07829d2d1782284f84520c1
:10031400dff890c161e01a68111d1960136884f850
:10032400423004f14205012393e01268196015f08c
:10033400400f18bf12b2cde7d4f800c01a681cf001
:10034400800f02f104051d6001d0126803e01cf067
:10035400400ffad01288dff848c16f290cbf082378
:100364000a23002184f843106568a560002da2bf0c
:10037400216821f0040121600ab9002d46d0054608
:10038400b2fbf3f103fb112e93421cf80ee005f8c7
:1003940001ed39d9082b0bd12368da0708d5236975
:1003a40062689a42debf302305f8013c05f1ff354f
:1003b400401b2061cdf800803b4603aa214630460d
:1003c40000f052fd013049d14ff0ff3005b0bde8d7
:1003d400f083dff8ccc084f845101d68216855f817
:1003e400042b1d600d060bd5cd0744bf41f0200141
:1003f40021601ab9236823f0200323601023b0e797
:100404004b0648bf92b2efe70a46b9e70546c1e793
:100414001a68d4f800c06169151d1d601cf0800fb6
:10042400136801d0196003e01cf0400ffad0198062
:10043400002323610546bde71a68111d196015687c
:1004440062680021284600f0a9fe08b1401b6060e4
:1004540063682361002384f84330abe723692a46a9
:1004640039463046c0470130aed023689b0713d4c9
:10047400e068039b9842b8bf1846a7e701234a46a1
:1004840039463046c04701309ed00135e368039aaf
:100494009b1aab42f2dcebe7002504f11909f5e7fe
:0804a400921d0000a31d0000e1
:020000040000fa
:1004ac002de9f04f1e468b891b069db007460d4665
:1004bc0014460ed50b6963b9402100f00bfe286081
:1004cc00286120b90c233b604ff0ff30c3e0402380
:1004dc006b6100230993dff88491039620238df838
:1004ec00293030238df82a304ff0ff3809f1060af5
:1004fc0023461e4613f8012b0ab1252af9d1b6eb77
:10050c00040b0bd05b4622462946384600f086fd8c
:10051c00013000f09b80099b5b4409933378002bde
:10052c0000f094800023cde90583013604930793f2
:10053c008df853301a934ff0010b3446052214f802
:10054c00011b464800f026fe049bc0b9d80644bfe8
:10055c0020228df85320190744bf2b228df85320ed
:10056c0032782a2a13d0079a344600200a262146cc
:10057c0011f8013b303b092b4bd970b914e0a0ebbf
:10058c0009000bfa00f0184304902646d5e7039aad
:10059c00111d12680391002a01db079204e05242fc
:1005ac0043f002030792049323782e2b0bd163782c
:1005bc002a2b33d1039b1a1d1b680392002bb8bf47
:1005cc0043460234059303222178254800f0e2fdce
:1005dc0040b14023a0eb0a0003fa00f0049b034354
:1005ec000134049314f8011b1e488df828100622c0
:1005fc0000f0d0fd03ab00932a461b4b04a908b3b3
:10060c00384601f0ccfd421c20d0099b03440993d1
:10061c006ee706fb023201200c46a8e700230134ea
:10062c00059319460a26204610f8012b303a092a60
:10063c0003d9002bc7d00591c5e706fb0121012387
:10064c000446f0e73846fff717fedce7ab895b069c
:10065c003ff53aaf09981db0bde8f08ff81f0000c8
:0c066c00fe1f000002200000291000000a
:020000040000fa
:100678006a4b9b7d002b00f0d08010b5674b5b8bdd
:1006880013f0020f16d0664bff2283f820200222b7
:1006980083f82120624b93f820305bb2b3f1ff3f1f
:1006a80000f08b805e4b93f820305bb2062b00f095
:1006b8009c8010bd594b5b8b13f0010f07d0584b32
:1006c800ff2283f82020022283f82120e2e7534bff
:1006d8005b8b13f0040f07d0514bff2283f82020c7
:1006e800012283f82120d5e74d4b93f820305bb2e7
:1006f800032b42d0042b10d0022bcbd1484b1b69c3
:100708002bb10021464b988800f0a4ffc2e70121d5
:10071800434b988800f09effbce7414a93691269f1
:1007280093420bd03e4a9168581c9061ca5c3b4b7f
:100738009a621a46d369002bfcd1abe7384b5b6948
:1007480073b1374b9b885b0043f00103334a536214
:10075800d369002bfcd1324b032283f8202099e780
:100768002e4a536843f440335360d369002bfcd1bd
:100778002b4b062283f820208ce7294a5369013b3a
:10078800d2699a420cd0254ad369002bfcd1234b5d
:10079800986a234bd968da69541cdc61885479e774
:1007a8001e4a536843f4e0235360d369002bfcd1fd
:1007b8001b4b062283f82020e5e7194b002283f81b
:1007c8002020164a536843f440335360d369002b02
:1007d800fcd1124b83221a76114b5b6a002b3ff433
:1007e80068af0f4a906a984763e70d4b002283f879
:1007f800202083f82120094b83221a761a46538b2e
:1008080003f03003102bfad1054b5b6a002b3ff441
:1008180050af034a906a98474be770470040014140
:040828004402002066
:020000040000fa
:10082c00980200201c000000000000004402002080
:10083c002c0000000000000014020020300000001a
:10084c000000000004000020b001000000000000c7
:10085c00700200202800000000000000320300207d
:10086c000100000000000000e80200201000000061
:10087c00000000002c030020060000000000000017
:10088c00d00200201800000000000000f802002038
:10089c0010000000000000003403002005000000e0
:1008ac0000000000b40200201c000000000000004a
:1008bc003303002001000000000000003c03002076
:1008cc0004000000000000004003002004000000b1
:1008dc0000000000080300200c00000000000000d5
:1008ec00140300200c000000000000002003002076
:1008fc000c00000000000000440300200400000075
:10090c00000000004803002004000000000000006c
:10091c004c0300200400000001000000b401002082
:10092c00b401002060000000010000000000000085
:10093c0000000000000000000000000000000000ab
:10094c00000000000000000000000000000000009b
:10095c00000000000000000000000000000000008b
:10096c00000000000000000000000000000000007b
:10097c00000000000000000000000000000000006b
:10098c0000000000000000000000000050030020e8
:10099c0004000000000000005403002004000000cc
:1009ac000000000000000020040000000000000017
:1009bc0058030020040000000000000000000000ac
:1009cc000000000022222222222222222222222283
:020000040000fa
:1009dc0010b50378082b0cd8dfe803f0050c1e2d9e
:1009ec004a686f898900012001f098fa484801f0a3
:1009fc0037fb10bd4749002301f8013f444b01224e
:100a0c004f2001f033f818b1082001f087faf0e715
:100a1c00022001f083faece73d4b02223e494f20c5
:100a2c0001f00cf818b1082001f078fae1e7032086
:100a3c0001f074fadde7374a5178937843ea0123e1
:100a4c001bb203ebc303354981fb0301db17c3eb7b
:100a5c006103c3f307232033d3702d4c204601f0e0
:100a6c0007fb042001f05afa204601f0f9fac0e71e
:100a7c00284b93f90430042b02dd264b00221a710b
:100a8c0024490b795a1c0a714b70cb788b70204b14
:100a9c0002220131572000f0e9ff18b1082001f0c3
:100aac003dfaa6e7052001f039faa2e7062001f08d
:100abc0035fa174801f0c4fa9be7194c154b93f91a
:100acc000330184a1821204600f004fd204601f09e
:100adc00dffa0f4a0146204601f00cf818b1082045
:100aec0001f01cfa85e7072001f018fa81e70e4b9c
:100afc004ff48022c3f81c21002001f00ffa044ca3
:100b0c00204601f0b5fa204601f0a2fa71e700bfc9
:100b1c00f802002034030020350300206766666667
:0c0b2c00d00200203c1f000000800041af
:020000040000fa
:100b380038b54f4b9b7dd3b14d4a137edbb2927dc6
:100b480012f0800f14d14a4a137edbb2927d12f064
:100b5800010f02d013f0010f50d1454a137edbb2ca
:100b6800927d12f0040f02d013f0040f18d138bd93
:100b780013f0800fe7d03e4b5b8b13f00703e2d0f6
:100b88003c4ce38500f02cff394b84221a75002376
:100b980084f82c30636a002bd5d0a06a9847d2e736
:100ba800344b93f82c30002be1d0324b1a6adb69b6
:100bb8009a42dcd22e4b9a6a5b6803f00703012b3a
:100bc8002c4b9869196a01f101041c6214bf425444
:100bd80020f81120274b1a6adb699a42c7d1254ba6
:100be800002283f82c20da61214a842111755b6a7e
:100bf800002bbcd01f4a906a9847b8e71d4b1b7d55
:100c0800002baad01b4b9a685c68194b1b7e13f00b
:100c1800010f19d0a24217d2164b1d6814491a4663
:100c28004b6803f00703012b936803f10100906000
:100c380014bfeb5c35f813308b6290680b7e13f0b1
:100c4800010f01d08442ebd80a4b9a685b689a423c
:100c580083d3084b00221a755a60054a0121117581
:100c6800db68002b3ff479af024a1069984774e7b4
:080c78000020014114020020dc
:020000040000fa
:100c8000364b42f20e229a821a46d36813f0010fb5
:100c9000fbd0324b05221a7403f50063304a9a6286
:100ca0001a46536813f0100ffbd12e4b4222c3f8a3
:100cb00084201a46d2f8843013f0400ffad02a4b21
:100cc00000229a6377225a631a46d36b13f0040ffb
:100cd000fbd1254b022283f830201a46d36b13f048
:100ce000020ffbd1204a136c03f00303032bfad14c
:100cf0001e4b01225a711a46d37813f0010ffbd014
:100d0000184b1b4a1a621a46536813f0040ffbd1a2
:100d1000144b184a5a621a46536813f0080ffbd155
:100d2000104b4122c3f8dc201a46d2f8dc3013f015
:100d3000400ffad00b4b4122c3f8e0201a46d2f8fc
:100d4000e03013f0400ffad0084b6ff07f421a6189
:100d500040f2ff725a61084a9a61704700140040dd
:100d600006013000001c0040001000400008004058
:0c0d700007010100070102005686010087
:020000040000fa
:100d7c0010b584b0344b1b78062b0bd8dfe803f08e
:100d8c00040c1e2d34555500012001f0bdf82f48e0
:100d9c0001f066f904b010bd2b49002301f8013fa6
:100dac002a4b0122572000f061fe18b1062001f0f9
:100dbc00abf8efe7022001f0a7f8ebe7234b052295
:100dcc002349572000f03afe18b1062001f09cf898
:100ddc00e0e7032001f098f8dce7042001f094f838
:100dec001a4801f02df9d5e7174b1a4c5a79039292
:100dfc001a790292da7801929a7800925b78164a04
:100e0c002821204600f066fb204601f041f90f4aec
:100e1c000146204600f06efe18b1062001f074f871
:100e2c00b8e7052001f070f8b4e7084c204601f053
:100e3c000ff9204601f01cf9002001f065f821465d
:100e4c00064800f0e3fda5e72c030020e802002093
:100e5c002d03002070020020e01c00003203002053
:020000040000fa
:100e6c002de9f04791461f468a680b69ddf8208012
:100e7c009342b8bf1346c9f8003091f84320064698
:100e8c000c4612b10133c9f800302368990642bff1
:100e9c00d9f800300233c9f80030256815f0060582
:100eac0007d104f1190ae368d9f800209b1aab4268
:100ebc0028dc94f843302268003318bf01239206d3
:100ecc002dd404f1430239463046c047013020d0be
:100edc002368e568d9f8002003f00603042b08bf4b
:100eec00ad1aa36822690cbf25eae575002593426b
:100efc00c4bf9b1aed184ff000091a344d451ad196
:100f0c00002008e00123524639463046c0470130e4
:100f1c0003d14ff0ff30bde8f0870135c3e7e1188e
:100f2c005a1c302081f84300224494f8451082f872
:100f3c0043100233c5e70123224639463046c047e9
:0a0f4c000130e6d009f10109d8e7f1
:020000040000fa
:020f56007047e2
:020000040000fa
:100f58002de9f04781460e4601f021f910b1052030
:100f6800bde8f0872d4bd3f88051002d4fdd6c1e66
:100f780004eb4403294c04eb830418346f1ea24687
:100f8800204601f00af980460146304601f0d5f8be
:100f980018bb4146304601f0cbf818b90c3c3d4629
:100fa800002febd11d4bd3f880211d2a2dd0521bc9
:100fb800002a18dc194c05eb450504eb850a0af1f3
:100fc800180a504601f09cf83146504601f0e3f803
:100fd800d4f880310133c4f880314946504601f0d5
:100fe800c6f80020bce702eb4202184605eb4501b3
:100ff80003eb81016b1c03eb430300eb83009200be
:101008001831183000f0b8fcd4e70320a8e7034be8
:10101800d3f880311d2bcdd10320a1e70400002097
:020000040000fa
:101028002de9f0478e689e4282460c4691469846c6
:1010380038d8b1f80cc01cf4906f31d062692568bb
:10104800096902eb42026f1a02ebd27201335510a2
:101058003b449d4238bf1d461cf4806f30d0294662
:1010680000f03af8064650b90c23caf80030a389b4
:1010780043f04003a3814ff0ff30bde8f0873a46c4
:10108800216900f0edfea38923f4906343f0800307
:10109800a381266165613e44ed1b2660a560464636
:1010a800464500d9464632464946206800f064fc69
:1010b800a3689b1ba36023681e4426600020dce70e
:1010c8002a4600f0edfa06460028e2d1216950468a
:0610d80000f0b2f8c8e7c9
:020000040000fa
:0210de00fee72b
:020000040000fa
:1010e000f8b5cd1c25f0030508350c2d38bf0c25af
:1010f000002d064601dba94203d90c2333600020f2
:10110000f8bd01f058f821490a6814469cb9204fef
:101110003b6823b92146304600f06cfe3860294612
:10112000304600f067fe431c23d10c233360304669
:1011300001f042f8e3e723685b1b17d40b2b03d9bc
:1011400023601c44256004e06368a2420cbf0b606e
:101150005360304601f030f804f10b00231d20f0fd
:101160000700c21accd01b1aa350c9e722466468f4
:10117000cce7c41c24f00304a042e3d0211a30467b
:1011800000f038fe0130ddd1cfe700bf5003002072
:0411900054030020e4
:020000040000fa
:0c119400014b5862996270474402002031
:020000040000fa
:1011a00001f0ff01102a2bdb10f0070f08d010f818
:1011b000013b013a8b422dd010f0070f42b3f6d11c
:1011c000f0b441ea012141ea014122f007047ff035
:1011d00000070023f0e80256083c85ea010586ea8c
:1011e000010685fa47f5a3fa87f586fa47f6a5fac8
:1011f00087f68eb9eed1f0bc01f0ff0102f00702d4
:1012000032b110f8013b013a83ea010313b1f8d17e
:101210000020704701387047002d06bf354603385f
:10122000073815f0010f07d1013015f4807f02bf98
:10123000013015f4c03f0130f0bc0138704700bfe9
:020000040000fa
:1012400038b50546002945d051f8043c0c1f002b49
:10125000b8bfe41800f0afff1f4a1368104633b957
:10126000636014602846bde8384000f0a5bfa34283
:101270000cd921686218934204bf1a685b686360e6
:1012800004bf521822600460ece713465a680ab1a2
:10129000a242fad919685818a0420bd1206801441b
:1012a000581882421960ddd1106852685a600144b2
:1012b0001960d7e702d90c232b60d3e720682118e7
:1012c0008a4204bf11685268626004bf0918216035
:0c12d0005c60c7e738bd00bf5003002081
:020000040000fa
:1012dc0008b51b4b98471b4b9847eff3108172b620
:1012ec00194ad2f8883043f47003c2f88830bff33f
:1012fc004f8fbff36f8f01b962b6144c202363601c
:10130c0000f02ef8124b23f07f030f4a9360114b21
:10131c009847a36823f00103a3602346da6812f010
:10132c00010ffbd1094b5a6842f004025a600122aa
:10133c009a60094b9847094b984700f0c0fefee7ae
:10134c00b3210000b321000000ed00e0006000417b
:10135c0000000000f5160000b3210000b3210000ce
:020000040000fa
:10136c001e4b1f4a9342f0b438bf002103d203f83e
:10137c00011b9342fbd11b4ad2e9000150ea010345
:10138c004ff0000610d09468034602f10c076cb9bc
:10139c0021b1014403f8016b9942fbd13a46d2e9e1
:1013ac00000150ea0103eed1f0bc704759b101f1d4
:1013bc000c030c38801a1a443b461c1813f8015bba
:1013cc0025709342f9d111f0030318bf012303ebed
:1013dc00910107eb81073a46e1e700bf00000020ce
:0813ec00040000202c080000a1
:020000040000fa
:1013f4001c4ad36823f4e0631b041b0c43f0bf6353
:1014040043f40033d360bff35f8f62b6164be02220
:1014140083f836234ff48001596083f837234ff45f
:101424000001596083f838234ff08071596083f8c4
:1014340039234ff00071596083f83a234ff08061eb
:10144400596083f83b234ff00061596083f83c23d3
:101454004ff08051596083f83d234ff000525a6099
:0c146400704700bf00ed00e000e100e078
:020000040000fa
:1014700030b583b000f0e2fd0546174c01a92046c7
:1014800000f012fb18b9019800f09bfdf6e700f0a0
:1014900003fc28b100f085fe294600f057fe40b15c
:1014a0000e4b5869b0b1002100f034fe002003b0ab
:1014b00030bd00f031fa094c0025204600f05ffef7
:1014c00003460028f2d0e3602946184600f022fec9
:1014d000e560f2e700bfe9e7a80100200400002072
:020000040000fa
:1014e0000cb430b5184b0c1e9bb01d6808da8b236a
:1014f0002b604ff0ff301bb0bde8304002b07047aa
:101500004ff40273adf8103014bf04f1ff332346db
:10151000039306934ff6ff73adf81230002301904a
:10152000059019931e9a1fab01a928460093fef758
:10153000bdff431cbcbf8b232b60002cdbd0019b69
:0c15400000221a70d7e700bf4c03002007
:020000040000fa
:10154c00144b01221a601a46d369002bfcd1114ba3
:10155c004ff480725a601a46d369002bfcd10d4ba4
:10156c00ff22da600c4a1a601a46d369002bfcd1b0
:10157c00084b10225a831a46d369002bfcd1074b17
:10158c00002283f8212083f82020024b83229a75b5
:10159c00704700bf004001411600100044020020bb
:020000040000fa
:1015ac0020b310b40446134b1b7d0bbb114b1860be
:1015bc00596001221a7500230f4809e0426802f0b5
:1015cc000702012a14bfe25c34f813208262013353
:1015dc00027e12f0010f01d09942efd1054a9360bf
:1015ec000120054b98755df8044b7047002070473f
:0c15fc000020f8e714020020002001414c
:020000040000fa
:10160800114b124a1a604ff622029a814ff4403267
:101618005a601a46d369002bfcd10b4a136843f071
:1016280002031360d369002bfcd1094b00229a6195
:10163800da611a6283f82c205a621a605a609a603a
:101648001a75da60da8570470020014104011040fc
:041658001402002058
:020000040000fa
:10165c00104b00229a61da610f4b83221a765a687a
:10166c0022f480225a601a46d369002bfcd161b156
:10167c00084b032283f8202041ea4001064b5962b3
:10168c001a46d369002bfcd17047024b042283f815
:0c169c002020f1e7440200200040014142
:020000040000fa
:1016a800f8b5074614460e4621b91146bde8f8407c
:1016b800fff712bd22b9fff7bffd25462846f8bd42
:1016c80000f0f0fca0420fd221463846fff704fd97
:1016d80005460028f2d03146224600f0c1fb3146cb
:0c16e8003846fff7a9fde9e73546e7e7c3
:020000040000fa
:1016f40070b50d4d0d4c641ba4100026a64209d1f3
:101704000b4d0c4cfef7acfd641ba4100026a64246
:1017140005d170bd55f8043b98470136eee755f8fe
:10172400043b98470136f2e77002000070020000a3
:081734007002000074020000c5
:020000040000fa
:10173c0010b50a4800f048fc094800f045fc0024ac
:10174c00084b1c60084b1c602146084800f0c4fc88
:10175c002146074800f0ccfc10bd00bf140300204c
:10176c0008030020400300203c030020651f0000fc
:04177c00511f0000f9
:020000040000fa
:1017800010b5054c237833b9044b13b10448aff3bb
:1017900000800123237010bd98020020000000008b
:1017a0000000000008b5034b1bb103490348aff329
:1017b000008008bd000000009c0200200000000026
:020000040000fa
:1017c000b8b138b505460c4a92f82c200ab1002071
:1017d00038bd0c4600f008f9074b9d61dc61002222
:1017e0001a62012083f82c00da85044b84229a7552
:1017f000eee70020704700bf1402002000200141e6
:020000040000fa
:101800000d4b01221a801a46136913f0010ffbd108
:10181000094b4ff401421a8000221a621a461369da
:1018200013f0200ffbd1044b00225a621a461369b1
:0c18300013f0400ffbd170470024004073
:020000040000fa
:10183c000c4b012283f8562083f85720222183f881
:10184c003b1083f8d82083f8d920332283f8bc20ae
:10185c004ff48022c3f80021c3f81021002283f832
:08186c00522170470080004189
:020000040000fa
:101874000c4b93f820305bb20bb10020704710b5cd
:10188400084b9880d9605a6100229a601a61012439
:101894009c701a7083f821202146fff7ddfe204654
:0818a40010bd00bf440200204a
:020000040000fa
:1018ac0043690bb10020704770b515460e460446cf
:1018bc0000f030fc804725616661314600f067fc22
:1018cc00a0610021284600f01ffca169204600f011
:0618dc0054fc012070bd68
:020000040000fa
:0218e200fee71f
:020000040000fa
:1018e4000b4b93f820305bb20bb10020704710b55e
:1018f4000c46074b98800021d96059619c601a619d
:101904009970197083f82110fff7a6fe012010bd0d
:041914004402002069
:020000040000fa
:1019180010b40b4bd3f88041002c0edd013c04ebd6
:10192800440203eb8202183207ca83e80700c3f8af
:10193800804118465df8044b70470020fae700bf65
:041948000400002077
:020000040000fa
:10194c0010b50a4c4ff4d8720021204600f098fbd9
:10195c00204600f0d3fb064b2361082204f5c2712c
:10196c0004f5d27000f020fa10bd00bf0400002076
:04197c0067210000df
:020000040000fa
:10198000884210b501eb020302d983421c4607d8f6
:10199000421e994208d011f8014b02f8014ff8e7b6
:1019a00083189a1a9a4200d110bd14f8011d03f849
:0419b000011df7e737
:020000040000fa
:1019b40010b503688b4207d0043000f087fa002882
:1019c40014bf0020032010bd0446043000f009fbbe
:1019d400206020b1002100f09bfb0020f3e70020f1
:0219e400f1e729
:020000040000fa
:0219e600fee71a
:020000040000fa
:1019e8000a4b5b8b13f0070f0ed0084b80221a7638
:1019f80007225a831b7e13f0040f05d0034b9a6a03
:101a08001a7e12f0040ffad1704700bf002001417e
:020000040000fa
:101a180038b504460d4600f067fb08b1012038bd13
:101a2800064b1d6000f0d2f801212046fff7c4fee6
:101a3800002814bf00200220f1e700bf3c0300206b
:020000040000fa
:101a4800f8b504460d4616461f4600f0abf808b137
:101a58000120f8bd054b1f60324629462046fff796
:101a680005ff002814bf00200220f2e744030020ed
:020000040000fa
:101a7800f8b504460d4616461f4600f093f808b11f
:101a88000120f8bd054b1f60324629462046fff766
:101a980025ff002814bf00200220f2e7440300209d
:020000040000fa
:101aa800438882889bb293420cd043889bb2826859
:101ab80052f823300b604388013302881340438077
:0c1ac8000020704700230b6001207047d5
:020000040000fa
:101ad40008b500f042fbfff737ff00f069fb00f0a8
:101ae40033f9fff729fe00f00bf900f071f9024b0e
:0c1af40001221a7008bd00bf330300205f
:020000040000fa
:101b000070b504460d46164600f0e6fa08b101200d
:101b100070bd054b1e6029462046fff747fd002893
:0c1b200014bf00200220f3e74003002067
:020000040000fa
:101b2c00074a136843b10749184488428cbf4ff0e9
:101b3c00ff33106018467047034b1360f3e700bf88
:0c1b4c005803002060050020600300200a
:020000040000fa
:101b580038b504460d4600230b60043000f05afaed
:101b680030b12946204600f0a5fa6560204638bd08
:0a1b78002946606800f09efaf7e7c6
:020000040000fa
:101b82008388013302881340428892b29a420ad073
:101b920010b4828892b2846844f8221083800020b4
:0a1ba2005df8044b70470220704705
:020000040000fa
:101bac00074b93f820305bb23bb9064b588b00f0d7
:101bbc003000103818bf012070470120704700bf5b
:081bcc00440200200040014129
:020000040000fa
:101bd400074b93f82c3043b1064b84221a75044bff
:101be400002283f82c201a62da610120704700bfba
:081bf400140200200020014151
:020000040000fa
:101bfc0008b500f005fafff71bfefff73bf8fff7ff
:101c0c009ffcfff7fbfcfff7a0f9fff7f3fdfff7d5
:081c1c005bfffff7e9fb08bdc7
:020000040000fa
:101c240010b5074c204600f00ff94ff47a7000f01d
:101c3400eff8044a01462046fff736fe10bd00bf08
:081c4400b4020020f8020020a8
:020000040000fa
:101c4c0008b502683ab1043000f08cf8002814bfd3
:101c5c000020022008bd0b4601600021184600f050
:061c6c0053fa0020f6e728
:020000040000fa
:101c7200436903b9704710b504460021006900f0ba
:101c820048fa6169a06900f087fa0146a06120461e
:061c920000f078fa10bd1d
:020000040000fa
:101c9800074bd3f88031002b08dd013b03eb4303ee
:101ca800034800eb830303f11800704700207047d6
:041cb8000400002004
:020000040000fa
:101cbc0010b5044600f071fa08b1052010bd21469c
:101ccc000348fff758ff022814bf00200320f5e754
:041cdc00a80100203b
:020000040000fa
:101ce0000a454550524f4d3a253032647c253032fa
:101cf000647c253032647c253032647c253032644b
:041d00007c0000bfa4
:020000040000fa
:101d040010b5054c22460549054800f0ebf80023c0
:101d14002371237010bd00bf34030020dd090000cf
:041d2400f8020020a1
:020000040000fa
:101d280008b5074b1b7813b9fff79efb08bd044b9a
:101d380000221a7000f078f8fff770fff4e700bf90
:041d48003303002041
:020000040000fa
:101d4c0008b5054800f040f90021044b196004481f
:101d5c00fff71afa08bd00bf20030020440300203f
:041d6c00791f0000db
:020000040000fa
:101d700038b505460c46084600f015fa38b904f1a6
:101d800008012846fff7e8fee560204638bd002040
:021d9000fce76e
:020000040000fa
:101d9200303132333435363738394142434445469f
:101da2000030313233343536373839616263646535
:021db2006600c9
:020000040000fa
:101db40013464ab1013a1a4208d1028081600023d5
:101dc4004380838018467047032070470320704780
:020000040000fa
:101dd40010b5044c22460449044800f083f800235b
:101de400237010bd2c0300207d0d0000e8020020ac
:020000040000fa
:101df40038b5064c0023054608462360fff794fed9
:101e0400431c02d1236803b12b6038bd00000020bd
:020000040000fa
:101e140010b5044600f0b9f904fb00f0024ca4fb31
:0c1e24000030800910bd00bfd34d6210db
:020000040000fa
:101e300008b5002000f06ef802490348fff7ecfdfa
:0c1e400008bd00bfe802002032030020b3
:020000040000fa
:101e4c0010b504460246044900f048f8002323610b
:0c1e5c006361204610bd00bf731c000035
:020000040000fa
:101e68000a44914200f1ff3300d1704710b511f8d0
:0c1e7800014b03f8014f9142f9d110bd5d
:020000040000fa
:101e840070b50e461546044630b129462046b04783
:0a1e940024680cb10028f8d070bdde
:020000040000fa
:101e9e0038b5044600f073f80546204600f0b7f852
:0a1eae0008b100236360284638bd28
:020000040000fa
:101eb800044a138843f002031380136913f0020fd6
:081ec800fbd17047002400402b
:020000040000fa
:101ed00010b50c46083100f04af9034610b1002352
:081ee000e3602346184610bd23
:020000040000fa
:101ee80010b5044601604260083000f04ff9002345
:061ef800e360204610bd6e
:020000040000fa
:021efe00fee7fd
:020000040000fa
:101f0000034a136913f0080ffbd1014b986970471e
:041f10000024004069
:020000040000fa
:101f1400034b1b7883421cbf014b1870704700bff2
:101f24002c030020034b1b7883421cbf014b187009
:081f3400704700bf34030020d8
:020000040000fa
:101f3c000a54656d7065726174757265203d20255b
:041f4c0064204600c7
:020000040000fa
:101f500008b5034b186808b1fff7b0fe08bd00bf15
:041f60003c0300201e
:020000040000fa
:101f640008b5034b186808b1fff7a6fe08bd00bf0b
:041f74004003002006
:020000040000fa
:101f780008b5034b186808b1fff79cfe08bd00bf01
:041f880044030020ee
:020000040000fa
:101f8c00034628b1006818b102681a600023036088
:021f9c0070478c
:020000040000fa
:101f9e0008b503688b4201d0002008bdfff7efffa4
:021fae00fbe74f
:020000040000fa
:101fb00010b5044600f0eef8201d00f0ebf82046c6
:021fc00010bd52
:020000040000fa
:101fc20010b5044600f039f801462046fef7c3ff7b
:021fd20010bd40
:020000040000fa
:101fd40010b50446002340f8043b00f0a5f8204661
:021fe40010bd2e
:020000040000fa
:101fe60008b5fff759ff18b10346083800225a60b2
:021ff60008bd24
:020000040000fa
:101ff800232d302b2000686c4c00656667454647ea
:0120080000d7
:020000040000fa
:02200a00fee7ef
:020000040000fa
:10200c00024b40f204521a80704700bf004000415e
:020000040000fa
:10201c0020b10068b0fa80f0400970470120704789
:020000040000fa
:10202c0008b50a460149fff727ff08bd9f1f0000ae
:020000040000fa
:10203c0008b5024b1b69984708bd00bf040000207f
:020000040000fa
:10204c0008b501460148fff7fbfd08bd140300204d
:020000040000fa
:10205c0008b501460148fff7a7fc08bd1403002092
:020000040000fa
:10206c0008b501460148fff7ebfd08bd2003002031
:020000040000fa
:10207c0008b501460148fff797fc08bd2003002076
:020000040000fa
:10208c0002440346934200d1704703f8011bf9e761
:020000040000fa
:10209c00034613f8012b002afbd1181a013870479c
:020000040000fa
:1020ac0051f8043c181f002bbcbf0b58c0187047cc
:020000040000fa
:0e20bc00034610b102680a60016018467047c2
:020000040000fa
:0e20ca0008b50020fff795fd00f040f8fce798
:020000040000fa
:0c20d800014b187d704700bf140200206f
:020000040000fa
:0c20e400014bd860196170471402002005
:020000040000fa
:0c20f000014b93f82c00704714020020f4
:020000040000fa
:0c20fc00014b58629962704714020020ea
:020000040000fa
:0c21080010b5044600f00ef8204610bd93
:020000040000fa
:0c21140008b510b103684068984708bd8a
:020000040000fa
:0c212000014b1869704700bf040000204c
:020000040000fa
:0c212c0010b50446fff73eff204610bd32
:020000040000fa
:0a21380088422cbf002001207047f0
:020000040000fa
:0a214200884214bf002001207047fe
:020000040000fa
:0a214c00884294bf00200120704774
:020000040000fa
:0821560008b5fff7e6fd08bd26
:020000040000fa
:08215e0008b5fff7aafe08bd59
:020000040000fa
:0821660008b5fff7cafe08bd31
:020000040000fa
:08216e0008b5fff75cff08bd96
:020000040000fa
:0821760008b5fff7fafd08bdf2
:020000040000fa
:08217e0008b5fff731ff08bdb1
:020000040000fa
:0821860008b5fef7e6fe08bdf6
:020000040000fa
:06218e004ff40040704711
:020000040000fa
:0621940000230360704708
:020000040000fa
:04219a00084470473e
:020000040000fa
:04219e0081607047a5
:020000040000fa
:0421a200806870479a
:020000040000fa
:0421a600c068704756
:020000040000fa
:0421aa0000bf7047bb
:020000040000fa
:0221ae00fee74a
:020000040000fa
:0221b000fee748
:020000040000fa
:0221b200704774
:020000040000fa
:0221b400704772
:020000040000fa
:0221b600704770
:020000040000fa
:0221b80070476e
:020000040000fa
:0200000400807a
:044000003912003c35
:020000040000fa
:0200000400807a
:044004008000a82a66
:020000040000fa
:0200000400807a
:04400800ffffffffb8
:00000001FF
