:020000040000fa
:10000000f8ff0320794a000021600000276000000b
:1000100033600000396000003f6000000000000015
:10002000000000000000000000000000db290000cc
:100030002d60000000000000db290000db2900002b
:10004000db290000db290000db290000db290000a0
:10005000db290000db290000db290000db29000090
:10006000db290000db290000db290000db29000080
:10007000db290000db290000db290000db29000070
:10008000db290000db290000db290000db29000060
:10009000db290000db290000db290000db29000050
:1000a000db290000db290000db290000db29000040
:1000b000db290000db290000db290000db29000030
:1000c000db290000db290000db290000db29000020
:1000d000db290000db290000db290000db29000010
:1000e000db290000db290000000000000000000008
:1000f00000000000db290000db290000db290000f4
:10010000db290000db290000db290000db290000df
:10011000db290000db290000dd310000dd310000bb
:10012000dd310000dd310000352000003520000009
:100130003520000035200000db290000db2900000d
:10014000db290000db290000db290000db2900009f
:10015000db290000db290000db290000db2900008f
:10016000db290000db290000db290000db2900007f
:10017000db290000db290000db290000db2900006f
:10018000db290000db290000db290000db2900005f
:10019000db290000db290000db290000db2900004f
:1001a000db290000db290000db290000db2900003f
:1001b000db290000db290000db290000db2900002f
:1001c000db290000db290000db290000db2900001f
:1001d000db290000db290000db290000db2900000f
:1001e000db290000db290000db290000db290000ff
:1001f000db290000db290000db290000db290000ef
:10020000db290000db290000db290000db290000de
:10021000db290000db290000db290000db290000ce
:10022000db290000db290000db290000db290000be
:10023000db290000db290000db290000db290000ae
:10024000db290000db290000db290000db2900009e
:10025000db290000db290000db290000db2900008e
:04026000db29000096
:020000040000fa
:10026400f8b500bff8bc08bc9e4670472d5000008e
:10027400f8b500bff8bc08bc9e46704709500000a2
:020000040000fa
:040284002003002033
:020000040000fa
:100288002de9f04f55ec104b99b0476a0891834619
:100298000d921493229ecde9044547b9102005f02c
:1002a80049fec0e90177cbf824000760c760dbf896
:1002b8002430196859b15a684a60012393408b6009
:1002c800584605f0f9f9dbf8243000221a60002db1
:1002d800bfbf0123336025f000430593a4bf00236b
:1002e8003360059cb24ba3431ad1149a42f20f73a0
:1002f8001360049bc4f31304234300f04f85239b2e
:1003080053b9ac4b23e0ac4b01930833239a1360e9
:10031800019819b0bde8f08fa64b01930333f5e7b8
:100328009ded047b0022002351ec170b8ded0e7b15
:1003380002f0a6fb074660b1149a01231360239bc1
:10034800002b00f028859d4b239a1360013b0193f5
:10035800dee716aa17a99ded0e0b584603f0dcfc44
:10036800c4f30a568046002e7fd00f9b1597c3f31f
:100378001303dde90e4543f07f5545f44015a6f219
:10038800ff3600228e4b2046294601f0dbf982a376
:10039800d3e9002300f0c0ff81a3d3e9002301f0d3
:1003a800d3f9044630460d4601f01afb7ea3d3e983
:1003b800002300f0b1ff02460b462046294601f013
:1003c800c3f904460d4604f0f9fb002282460023d7
:1003d8002046294602f05efb48b1504601f000fb7a
:1003e80022462b4602f04cfb08b90af1ff3abaf153
:1003f800160f59d8734b03ebca03d3e90023dde981
:100408000e0102f047fb002850d00af1ff3a002302
:100418001193169b9e1b731e079345bfc6f10103dc
:100428000693002300234cbf07930693baf1000fed
:100438003edb079bcdf840a0534407930023099364
:10044800089b092b00f28e80052bc4bf043b089340
:10045800089ba3f10203ccbf00240124032b00f264
:100468008c80dfe803f02f716f7ddde916631e4491
:1004780006f23240202811ddc0f14000049b844080
:1004880006f2124023fa00f0204301f099fa012302
:100498000446a1f1f875013e159372e7049bc0f17b
:1004a800200003fa00f0f0e70123b1e71190b0e76c
:1004b800069ba3eb0a030693caf1000309930023e2
:1004c8001093bde700230c930d9b002b59dc0123ef
:1004d800029399460d93dbf8245000226a600422a7
:1004e80002f11400984269684fd9584604f0c4f8dc
:1004f800dbf8243028601b680193b9f10e0f00f275
:10050800e680002c00f0e380baf1000f78dd2d4a78
:100518000af00f0302ebc30393ed007b4fea2a14a2
:10052800e2068ded0a7b69d5274bdde90e01d3e99b
:10053800082301f01bf8cde9040104f00f04032699
:10054800214d50e00123bee700230c930d9b53443b
:1005580003f1010902934b46012bb8bf0123bae707
:100568000123f2e70023012408930c94013b0022a5
:10057800029399460d921223ade701230c93023b97
:10058800f5e70d9b02939946a5e701316960520092
:10059800a6e700bfaff3008061436f63a787d23f30
:1005a800b3c8608b288ac63ffb799f501344d33f5a
:1005b8000000f07f655f00005c5f00006a5f00007c
:1005c8000000f83f18360000f0580000e30708d58f
:1005d800dde90a01d5e9002300f09efecde90a0114
:1005e800013664100835002cf0d1dde90a23dde975
:1005f800040100f0bbffcde904011ae002269fe7e1
:1006080000f09f80caf100049f4ba04d04f00f0238
:1006180003ebc203d3e90023dde90e0100f07cfe01
:10062800cde90401241100230226002c7ed1002be1
:10063800e1d1119b002b00f08680dde90445002202
:10064800934b2046294602f025fa00287bd0b9f1c1
:10065800000f78d0029b002b35dd0af1ff330a9397
:10066800204600228b4b294600f056fecde90401b6
:10067800029c0136304601f0b3f9dde9042300f0ad
:100688004bfe0022844b01f05ff80646a1f150773b
:10069800002c5cd10022814bdde9040101f052f805
:1006a80032463b46cde9040102f012fa002840f038
:1006b8008982324607f10043dde9040102f0eaf9d4
:1006c800002840f07d82dde90e34cde90434179b23
:1006d800002bc0f24f81baf10e0f00f34b816a4b29
:1006e80003ebca0393ed007b0d9b002b8ded027b82
:1006f80080f2d880b9f1000f00f3d48040f05f8217
:100708000022664b51ec170b00f006fedde90423ce
:1007180002f0d4f94c464e46002840f03882019d3c
:10072800312305f8013b0af1010a34e2e70705d550
:10073800d5e9002300f0f0fd0136012364100835e7
:1007480073e7022675e7cdf828a04c4692e74e4b92
:1007580003ebc40353e90201019b1c440c9b002bcf
:1007680046d002460b4600204d4900f0fffe3246b7
:100778003b4600f0e7ff019d06460f46dde9040110
:1007880004f01cfa129001f02bf902460b46dde941
:10079800040100f0d7ff129b303305f8013b3246c5
:1007a8003b46cde9040102f075f9002860d1dde986
:1007b80004230020364900f0c5ff32463b4602f0cc
:1007c80069f9002840f0b480a5423ff47caf0022cc
:1007d800304b3046394600f09ffd002206460f4652
:1007e8002c4bdde9040100f097fdcde90401c5e7d4
:1007f80032463b4600f090fdcde91201019e2546a8
:10080800dde9040104f0daf9074601f0e9f83037c8
:1008180002460b46dde9040100f094ff06f8017b6f
:10082800a642cde904014ff0000226d11c4bdde9b8
:10083800120100f089ff02460b46dde9040102f0cf
:1008480047f9002874d1dde912230020144900f08b
:1008580079ff02460b46dde9040102f01bf9002886
:100868003ff431af15f8013c302b05f1ff3202d0cf
:10087800ddf828a04ae01546f4e7064b00f04cfde9
:10088800cde90401bce700bf18360000f0580000ad
:100898000000f03f0000244000001c40000014400d
:1008a8000000e03fdde90467019ddde902233046f1
:1008b800394600f05bfe04f081f9044601f090f837
:1008c800dde9022300f028fd02460b463046394692
:1008d80004f1300600f036ff05f8016b019eae1bef
:1008e800b14502460b4638d100f02effdde9022360
:1008f80006460f4602f0ecf8c0b9dde9022330469f
:10090800394602f0bdf808b1e1070fd44146584610
:1009180004f0d2fe0023149a2b700af1010313602d
:10092800239b002b3ff4f4ac1d60f1e4cdf828a024
:1009380015f8012c392a05f1ff3308d1019a9a429a
:1009480009d10a9a019901320a9230220a701a785a
:1009580001321a708ce71d46eae700229b4b00f033
:10096800dbfc0022002306460f4602f089f8002827
:100978009bd0cbe70c9a002a00f0cb80089a012a7a
:1009880000f3ae80159a002a00f0a68003f23343e4
:10099800099c069d069a1a440692079a01211a4450
:1009a8005846079205f094fa0646002d0cdd079b81
:1009b800002b09ddab42069aa8bf2b46d21a069235
:1009c800079aed1ad31a0793099bf3b10c9b002bd6
:1009d80000f0a380002c10dd31462246584603f073
:1009e800ebf9424601460646584601f0c3fe414629
:1009f8000746584604f060feb846099b1a1b04d007
:100a08004146584603f0d8f980460121584605f07a
:100a18005ffa109b002b044640f381801a4601467a
:100a2800584603f0c9f9089b012b04467add0027d4
:100a3800236904eb8303186904f042fbc0f120002a
:100a4800079b184410f01f0000f08880c0f12003b5
:100a5800042b40f38180c0f11c00069b03440693dd
:100a6800079b034405440793069b002b05dd41467d
:100a78001a46584603f054f88046079b002b05ddbc
:100a880021461a46584603f04bf80446119b002ba2
:100a980066d02146404604f01bfd002860da00239a
:100aa80041460a22584603f07afb0c9b0af1ff3aaa
:100ab8008046002b00f07981002331460a225846ef
:100ac80003f06dfb029b002b064600f38980089b10
:100ad800022b40f385804be0169bc3f1360357e7a2
:100ae800099b09f1ff34a342bfbf099b0994e21a8d
:100af800109bbbbf9b1810931c1b0024b9f1000f5f
:100b0800b5bf069b069da3eb09054b46b8bf00235e
:100b180040e7099c069d0c9e47e7099a70e7089be9
:100b2800012b15dc049b9bb9059bc3f313028ab9ff
:100b3800274f1f4037b1069b01330693079b0133ac
:100b480007930127109b002b7ff472af012077e7f2
:100b58000027f7e7049ff5e786d018461c307ce7a6
:100b6800b9f1000f36dc089b022b33ddcdf8089075
:100b7800029b63b921460522584603f010fb014643
:100b88000446404604f0a4fc00283ff7c8ad0d9b7e
:100b9800019d6fea030a00272146584604f08cfda0
:100ba800002e3ff4b3ae2fb1b74203d039465846b2
:100bb80004f082fd3146584604f07efda6e6002486
:100bc8002646e4e7ddf828a02646a8e500002440ec
:100bd8000000f07f0c9bcdf80890002b00f0ec8013
:100be800002d05dd31462a46584602f099ff064693
:100bf800002f56d07168584603f03efd3269023224
:100c08000546920006f10c010c3005f0b5f80122fa
:100c18002946584602f084ff019b03f10109dde9ea
:100c2800012313440993049b03f0010337460793f8
:100c3800064609f1ff3321464046029301f032fe91
:100c4800034630330490394640460a9304f040fc8a
:100c5800324606902146584602f074fcc2680a9b48
:100c6800054602bb0146404604f032fc0a9b024698
:100c7800294658460c920a9304f01efd089b0c9acc
:100c880043ea0201079b0b434d460a9b0dd1392bc2
:100c980027d0069a002a01dd049b3133029a13708b
:100ca8007ae73046b8e70122e2e70699002904db33
:100cb80008980143079801431ed1002aeedd4146fa
:100cc80001225846069302f02bff2146804604f085
:100cd800fffb0028069b02dce0d1da07ded5392bc2
:100ce800dad1029a3923137015f8013c392b05f132
:100cf800ff3246d00133d2e7002a03dd392bf0d08a
:100d08000133cbe7099a09f8013c914520d04146c7
:100d180000230a22584603f042fab74280464ff0b1
:100d280000034ff00a023946584606d103f037fa55
:100d38000746064609f101097be703f030fa00236c
:100d480007460a223146584603f029faf1e70027f8
:100d5800414601225846029302f0e2fe21468046af
:100d680004f0b6fb0028bfdc02d1029bdb07bbd432
:100d780015f8013c302b05f1ff327ff40daf154615
:100d8800f6e7019b934204d10af1010a3123019a43
:100d980085e71546a8e7134bfff7d9ba239b002b25
:100da8007ff4b1aa104bfff7d2ba029b002b03dce9
:100db800089b022b3ff7dcae019d2146404601f01f
:100dc80071fd00f1300305f8013b019a0299aa1a56
:100dd8009142bcdd414600230a22584603f0dff960
:0c0de8008046eae7695f00005c5f0000e5
:020000040000fa
:100df4002de9f04f8db00c46ddf8588093461f4620
:100e0400064605f003f903680593184605f08cf8c7
:100e1400d8f800300690073323f0070303f10802e3
:100e240094f818a02568c8f80020d3e90023c4e981
:100e3400122394ed127b8ded027bdde9028323f016
:100e440000494ff0ff32a24b4046494604f0e8fc0b
:100e540070bb4ff0ff329e4b4046494601f026fee0
:100e640030bb00220023dde9020101f015fe10b1c0
:100e74002d2384f84330974b1a1d25f00405baf14d
:100e8400470f94bf994691462560032300252361ab
:100e9400a84600975b460aaa2146304602f026f986
:100ea400013040f009814ff0ff300db0bde8f08f04
:100eb400dde902231046194604f0b2fc38b1039b65
:100ec400002bbcbf2d2384f84330834bd4e76368e5
:100ed400591c0af0df081cd10623636045f48063c3
:100ee400236063680493039b002b19dadde9022174
:100ef40081f00043cde902232d23b8f1460f079377
:100f040010d0b8f1450f02d1049b013304930221a0
:100f140009e0b8f1470fe1d1002bdfd10123dce771
:100f24000023eae703210aab019309ab0093049a77
:100f340008ab9ded020b3046fff7a4f9b8f1470f5b
:100f4400814650d1ea074ed40a9d089ab8f1470f5a
:100f5400a5eb090571d1d31c03db6368934280f2ce
:100f64009a80aaf1020a5ffa8afa531e002b0893a8
:100f7400b6bfc2f101032b222d22092b04f1500824
:100f840084f850a084f8512074dd0df12f024ff045
:100f94000a0e93fbfef10efb11303030632b02f18d
:100fa400ff3c02f8010c5ddc3031023a0cf8011c04
:100fb40004f152030df12f008242194655d3a1ebdf
:100fc400080805eb0803012d236102dc2268d00721
:100fd40001d501332361079b002b3ff45aaf2d2326
:100fe40084f8433055e7049bb8f1460f09eb030539
:100ff40010d199f80030302b0ad100220023dde90a
:10100400020101f03ffd18b9049bc3f101030893e9
:10101400089b1d4400220023dde9020101f032fd9a
:1010240000b10a950a9b9d428ed93022591c0a911f
:101034001a700a9b9d42f9d886e7baf1650f94d9d4
:10104400baf1660f29d1002a63681cdd226113b945
:101054002168c90702d5013313442361a2654ff007
:101064000008b8e762460b4693e712f8011b03f841
:10107400011ba1e73022134484f8522004f15401e7
:1010840084f853309be713b92168c80701d50233ac
:10109400e3e70123e1e74ff0670aaa4205db23688f
:1010a4002261d907dad5531cd7e7002ad4bfc2f18d
:1010b400020301232b44d0e723685a050ed4236985
:1010c4004a4659463046b84701302fd1ebe600bfb7
:1010d400ffffef7fc65e0000ce5e0000baf1650f31
:1010e40040f2c98000220023d4e9120101f0cafcb5
:1010f40088b30123884a59463046b84701303ff443
:10110400d2ae089bab4202db2368d8070ed5dde9db
:10111400052359463046b84701303ff4c4ae4ff07a
:101124000008013d04f11a09454509dc23689d07bf
:1011340000f1ed80e0680a9b9842b8bf1846b4e617
:1011440001234a4659463046b84701303ff4abae16
:1011540008f10108e8e7089b002b2adc01236e4a0a
:1011640059463046b84701303ff49dae089b2b43a7
:1011740002d12368d907d9d5dde90523594630467c
:10118400b84701303ff48fae4ff0000804f11a0a5b
:10119400089b5b42434501dc2b4691e70123524601
:1011a40059463046b84701303ff47dae08f1010896
:1011b400eee7a36dab42a8bf2b46002b984606dd95
:1011c4004a4659463046b84701303ff46cae0023d6
:1011d400029304f11a0328eae87804930ae001234d
:1011e400049a59463046b84701303ff45cae029b3e
:1011f40001330293d4f858a0029aaaeb080393424d
:10120400eddc089bab421adb2368da0717d4089b92
:101214009a451cdba5eb0a08b8f1000f08dd43462c
:1012240009eb0a0259463046b84701303ff43bae59
:101234004ff0000928eae87804f11a0a14e0dde91d
:10124400052359463046b8470130e0d12be6a5ebdb
:101254000308e1e70123524659463046b8470130b6
:101264003ff421ae09f10109089beb1aa3eb080333
:101274004b45efdc5ae7012d01dcdb0735d50123b3
:101284004a4659463046b84701303ff40caedde9d2
:10129400052359463046b84701303ff404ae0022d6
:1012a4000023d4e91201013d01f0ecfbc0b92b4647
:1012b40009f1010259463046b84701300cd1f2e534
:1012c4000123524659463046b84701303ff4ebad4e
:1012d40009f101094d45f3dc434604f15002f0e6ff
:1012e4004ff0000904f11a0af4e701234a46e1e742
:1012f4000123424659463046b84701303ff4d3ad46
:101304000135e3680a9a9b1aab42f1dc12e7002527
:0c13140004f11908f5e700bfd65e0000e8
:020000040000fa
:1013200070b54ff0ff0c4cf4e06c1cea11541dbf7b
:101330001cea135594ea0c0f95ea0c0f00f0def846
:101340002c4481ea030621ea4c5123ea4c5350ea2b
:10135000013518bf52ea033541f4801143f480137c
:1013600038d0a0fb02ce4ff00005e1fb02e506f00d
:101370000042e0fb03e54ff00006e1fb03569cf062
:10138000000f18bf4ef0010ea4f1ff04b6f5007f68
:1013900064f5407404d25fea4e0e6d4146eb0606da
:1013a00042eac62141ea55514feac52040ea5e5063
:1013b0004feace2eb4f1fd0c88bfbcf5e06f1ed80d
:1013c000bef1004f08bf5fea500e50f1000041eb44
:1013d000045170bd06f0004646ea010140ea0200f1
:1013e00081ea0301b4eb5c04c2bfd4eb0c0541ea13
:1013f000045170bd41f480114ff0000e013c00f328
:10140000ab8014f1360fdebf002001f0004170bd4b
:10141000c4f10004203c35da0c341bdc04f1140464
:10142000c4f1200500fa05f320fa04f001fa05f2f0
:1014300040ea020001f0004221f0004110ebd370bd
:1014400021fa04f642eb06015eea430e08bf20eae9
:10145000d37070bdc4f10c04c4f1200500fa04f38c
:1014600020fa05f001fa04f240ea020001f000411e
:1014700010ebd37041f100015eea430e08bf20ea91
:10148000d37070bdc4f1200500fa05f24eea020ed9
:1014900020fa04f301fa05f243ea020321fa04f008
:1014a00001f0004121fa04f220ea020000ebd370bf
:1014b0005eea430e08bf20ead37070bd94f0000fbf
:1014c0000fd101f00046400041eb010111f4801ff3
:1014d00008bf013cf7d041ea060195f0000f18bfa4
:1014e000704703f00046520043eb030313f4801fe0
:1014f00008bf013df7d043ea0603704794ea0c0f9a
:101500000cea135518bf95ea0c0f0cd050ea4106af
:1015100018bf52ea4306d1d181ea030101f000412c
:101520004ff0000070bd50ea410606bf1046194654
:1015300052ea430619d094ea0c0f02d150ea013660
:1015400013d195ea0c0f05d152ea03361cbf1046a1
:1015500019460ad181ea030101f0004141f0fe4140
:1015600041f470014ff0000070bd41f0fe4141f4c4
:10157000780170bd70b54ff0ff0c4cf4e06c1ceac4
:1015800011541dbf1cea135594ea0c0f95ea0c0f79
:1015900000f0a7f8a4eb050481ea030e52ea033534
:1015a0004fea013100f088804fea03334ff0805555
:1015b00045ea131343ea12634fea022245ea111582
:1015c00045ea10654fea00260ef000419d4208bf33
:1015d000964244f1fd0404f5407402d25b084feae0
:1015e0003202b61a65eb03055b084fea32024ff48c
:1015f00080104ff4002cb6eb020e75eb030e22bfe9
:10160000b61a754640ea0c005b084fea3202b6eba8
:10161000020e75eb030e22bfb61a754640ea5c0057
:101620005b084fea3202b6eb020e75eb030e22bfe7
:10163000b61a754640ea9c005b084fea3202b6ebe8
:10164000020e75eb030e22bfb61a754640eadc00a7
:1016500055ea060e18d04fea051545ea16754fea09
:1016600006164feac30343ea52734feac2025fea27
:101670001c1cc0d111f4801f0bd141ea00014ff0b6
:1016800000004ff0004cb6e711f4801f04bf014387
:101690000020b4f1fd0c88bfbcf5e06f3ff6afaea3
:1016a000b5eb030c04bfb6eb020c5fea500c50f133
:1016b000000041eb045170bd0ef0004e4eea1131b6
:1016c00014eb5c04c2bfd4eb0c0541ea045170bdbd
:1016d00041f480114ff0000e013c90e645ea060e01
:1016e0008de60cea135594ea0c0f08bf95ea0c0f2f
:1016f0003ff43baf94ea0c0f0ad150ea01347ff477
:1017000034af95ea0c0f7ff425af104619462ce74d
:1017100095ea0c0f06d152ea03353ff4fdae1046b0
:10172000194622e750ea410618bf52ea43067ff401
:10173000c5ae50ea41047ff40daf52ea43057ff491
:10174000ebae12e781f0004102e000bf83f00043fe
:1017500030b54fea41044fea430594ea050f08bf4c
:1017600090ea020f1fbf54ea000c55ea020c7fea10
:10177000645c7fea655c00f0e2804fea5454d4eb8d
:101780005555b8bf6d420cdd2c4480ea020281ea57
:10179000030382ea000083ea010180ea020281ea8f
:1017a0000303362d88bf30bd11f0004f4fea0131e1
:1017b0004ff4801c4cea113102d0404261eb4101f0
:1017c00013f0004f4fea03334cea133302d0524276
:1017d00063eb430394ea050f00f0a780a4f1010432
:1017e000d5f1200e0ddb02fa0efc22fa05f280186c
:1017f00041f1000103fa0ef2801843fa05f3594152
:101800000ee0a5f120050ef1200e012a03fa0efcd0
:1018100028bf4cf0020c43fa05f3c01851ebe371fa
:1018200001f0004507d54ff0000edcf1000c7eeb17
:1018300000006eeb0101b1f5801f1bd3b1f5001f55
:101840000cd349085fea30004fea3c0c04f1010474
:101850004fea445212f5800f80f09a80bcf1004f9d
:1018600008bf5fea500c50f1000041eb045141ea1f
:10187000050130bd5fea4c0c404141eb010111f420
:10188000801fa4f10104e9d191f0000f04bf0146cb
:101890000020b1fa81f308bf2033a3f10b03b3f1a9
:1018a00020020cda0c3208dd02f1140cc2f10c0239
:1018b00001fa0cf021fa02f10ce002f11402d8bf97
:1018c000c2f1200c01fa02f120fa0cfcdcbf41ea63
:1018d0000c019040e41aa2bf01eb0451294330bd32
:1018e0006fea04041f3c1cda0c340edc04f114040f
:1018f000c4f1200220fa04f001fa02f340ea0300e6
:1019000021fa04f345ea030130bdc4f10c04c4f12b
:10191000200220fa02f001fa04f340ea030029460b
:1019200030bd21fa04f0294630bd94f0000f83f455
:10193000801306bf81f480110134013d4ee77fea38
:10194000645c18bf7fea655c29d094ea050f08bf84
:1019500090ea020f05d054ea000c04bf1946104665
:1019600030bd91ea030f1ebf0021002030bd5feaa9
:10197000545c05d14000494128bf41f0004130bdd1
:1019800014f580043cbf01f5801130bd01f0004525
:1019900045f0fe4141f470014ff0000030bd7fea98
:1019a000645c1abf194610467fea655c1cbf0b4693
:1019b000024650ea013406bf52ea033591ea030faa
:1019c00041f4002130bd00bf90f0000f04bf0021a2
:1019d000704730b54ff4806404f132044ff00005d5
:1019e0004ff0000150e700bf90f0000f04bf00214e
:1019f000704730b54ff4806404f1320410f00045b4
:101a000048bf40424ff000013ee700bf42004feaae
:101a1000e2014fea31014fea02701fbf12f07f432b
:101a200093f07f4f81f06051704732f07f4208bfe2
:101a3000704793f07f4f04bf41f40021704730b5e9
:101a40004ff4607401f0004521f000411ce700bf35
:101a500050ea010208bf704730b54ff000050ae0b8
:101a600050ea010208bf704730b511f0004502d5b9
:101a7000404261eb41014ff4806404f132045feabb
:101a8000915c3ff4d8ae4ff003025feadc0c18bf64
:101a900003325feadc0c18bf033202ebdc02c2f156
:101aa000200300fa03fc20fa02f001fa03fe40eae8
:0c1ab0000e0021fa02f11444bde600bf54
:020000040000fa
:101abc007c0400201c00000000000000b00300208b
:101acc002c0000000000000080030020300000000b
:101adc000000000004000020b00100000000000025
:101aec00c40400201000000001000000fc430000b2
:101afc001444000030440000504400000405002051
:101b0c000800000000000000d404002010000000b9
:101b1c0000000000980400201800000001000000e4
:101b2c00c4320000dc320000fc3200002033000024
:101b3c004c330000783300000c0500200800000036
:101b4c0000000000e4040020100000000000000071
:101b5c005c0400201e00000000000000dc030020dc
:101b6c002000000001000000082e00001c2e0000c8
:101b7c00402e0000642e0000842e0000a42e0000d5
:101b8c00c42e0000e42e0000b0040020140000005d
:101b9c0000000000f4040020100000000000000011
:101bac00140500200400000000000000fc030020cd
:101bbc0020000000000000001c0400202000000099
:101bcc00000000003c040020200000000000000089
:101bdc001805002004000000010000002003002074
:101bec002003002060000000010000000000000045
:101bfc001c0400203c040020fc030020000000001a
:101c0c0000000000000000000000000000000000c8
:101c1c0000000000000000000000000000000000b8
:101c2c0000000000000000000000000000000000a8
:101c3c000000000000000000000000000000000098
:101c4c000000000000000000000000001c05002047
:101c5c00040000000000000020050020040000002b
:101c6c0000000000b40100206c0100000100000025
:101c7c004300000000000000000000000000000015
:101c8c000000000000000000000000000000000048
:101c9c0043000000000000000000000000000000f5
:101cac000000000000000000000000000000000028
:101cbc0043000000000000000000000000000000d5
:101ccc000000000000000000000000000000000008
:101cdc0043000000000000000000000000000000b5
:101cec0000000000000000000000000000000000e8
:101cfc004300000000000000000000000000000095
:101d0c0000000000000000000000000000000000c7
:101d1c004300000000000000000000000000000074
:101d2c0000000000000000000000000000000000a7
:101d3c004300000000000000000000000000000054
:101d4c000000000000000000000000000000000087
:101d5c00ef5d00003d5b000000000000042d000062
:101d6c0005600000046000000460000004600000d6
:101d7c0004600000046000000460000004600000c7
:101d8c000460000004600000ffffffffffffffff87
:101d9c00ffffffffffff00000100415343494900d3
:101dac000000000000000000000000000000000027
:101dbc0000000000000000000000415343494900ae
:101dcc000000000000000000000000000000000007
:101ddc0000000000000000000000000000000020d7
:101dec000400000000000000240500200400000096
:101dfc00000000000000000000000000222222224f
:020000040000fa
:101e0c002de9f04306460c4601f14300097e85b0ee
:101e1c006e29984617460c9b00f0ba8024d863298b
:101e2c0039d00ad8002900f0c380582900f09180dd
:101e3c0004f1420584f8421035e0642901d0692987
:101e4c00f6d125681a6815f0800f02f104012cd028
:101e5c0012681960002a03da2d23524284f84330a9
:101e6c00dff8bcc10a233fe0732900f0a58008d835
:101e7c006f2921d07029dbd1226842f02002226028
:101e8c0003e0752918d07829d2d1782284f845201e
:101e9c00dff890c161e01a68111d1960136884f8ad
:101eac00423004f14205012393e01268196015f0e9
:101ebc00400f18bf12b2cde7d4f800c01a681cf05e
:101ecc00800f02f104051d6001d0126803e01cf0c4
:101edc00400ffad01288dff848c16f290cbf0823d5
:101eec000a23002184f843106568a560002da2bf69
:101efc00216821f0040121600ab9002d46d0054665
:101f0c00b2fbf3f103fb112e93421cf80ee005f823
:101f1c0001ed39d9082b0bd12368da0708d52369d1
:101f2c0062689a42debf302305f8013c05f1ff35ab
:101f3c00401b2061cdf800803b4603aa2146304669
:101f4c0001f0d0f8013049d14ff0ff3005b0bde8b9
:101f5c00f083dff8ccc084f845101d68216855f873
:101f6c00042b1d600d060bd5cd0744bf41f020019d
:101f7c0021601ab9236823f0200323601023b0e7f3
:101f8c004b0648bf92b2efe70a46b9e70546c1e7f0
:101f9c001a68d4f800c06169151d1d601cf0800f13
:101fac00136801d0196003e01cf0400ffad01980bf
:101fbc00002323610546bde71a68111d19601568d9
:101fcc0062680021284601f055fe08b1401b606094
:101fdc0063682361002384f84330abe723692a4606
:101fec0039463046c0470130aed023689b0713d426
:101ffc00e068039b9842b8bf1846a7e701234a46fe
:10200c0039463046c04701309ed00135e368039a0b
:10201c009b1aab42f2dcebe7002504f11909f5e75a
:08202c00ca5b0000db5b000051
:020000040000fa
:1020340098b500af854b9b7ddbb2002b00f003818c
:10204400824b5b8b9bb203f00203022b08d1804bc3
:10205400ff2283f820207e4b022283f82120aae06d
:102064007a4b5b8b9bb203f00103012b08d1784bb5
:10207400ff2283f82020764b022283f821209ae065
:10208400724b5b8b9bb203f00403042b08d1704b9f
:10209400ff2283f820206e4b012283f821208ae05e
:1020a4006b4b93f820305bb2042b00f2838001a2c7
:1020b40052f823f0b9210000b9210000cd2000001e
:1020c40069210000f1200000614b1b69002b06d040
:1020d4005f4b9b880021184602f0a2fc6be05c4b2e
:1020e4009b880121184602f09bfc64e0584b9a69d6
:1020f400574b1b699a4224d1554b5b69002b10d076
:10210400534b9b885b00514a43f00103536200bf69
:102114004e4bdb69002bfbd14d4b032283f820206f
:1021240049e04a4b5b68494a43f44033536000bf7b
:10213400464bdb69002bfbd1454b062283f820205c
:1021440039e0434b9a68424b9b69591c4048816172
:1021540013441a783d4b9a6200bf3c4bdb69002b59
:10216400fbd128e03a4bda69394b5b69013b9a426f
:102174000ed1364b5b68354a43f4e023536000bf0d
:10218400324bdb69002bfbd1314b062283f8202034
:1021940000bf2e4bdb69002bfbd12c4b9c6a2c4bd4
:1021a400da682b4bdb69591c2948c1611344e2b23c
:1021b4001a7000e000bf264b93f820305bb2b3f1f5
:1021c400ff3f1cd1224b002283f820201f4b5b6869
:1021d4001e4a43f44033536000bf1c4bdb69002ba1
:1021e400fbd11a4b83221a76194b5b6a002b2ad037
:1021f400174b5b6a164a926a1046984723e0144bc1
:1022040093f820305bb2062b1dd1114b002283f8ca
:1022140020200f4b002283f821200c4b83221a76b6
:1022240000bf0a4b5b8b9bb203f03003102bf8d139
:10223400074b5b6a002b06d0054b5b6a044a926a23
:102244001046984700bf00bf98bd00bf0040014141
:04225400b0030020b3
:020000040000fa
:102258002de9f04f0d469db014461e46074618b1ad
:1022680083690bb902f06cfa704b9d425cd17d68b2
:10227800ab891b0762d52b69002b5fd0002309931c
:10228800dff8ac91039620238df8293030238df8a0
:102298002a304ff0ff3809f1060a23461e4613f884
:1022a800012b0ab1252af9d1b6eb040b0bd05b46fa
:1022b80022462946384602f01dfd013000f0b08064
:1022c800099b5b4409933378002b00f0a980002315
:1022d800cde905830136049307938df853301a939b
:1022e8004ff0010b3446052214f8011b504801f049
:1022f800c3fc049b68bbd80644bf20228df853203a
:10230800190744bf2b228df8532032782a2a28d067
:10231800079a344600200a26214611f8013b303b33
:10232800092b60d918bb29e0424b9d4201d1bd68f9
:102338009ee7414b9d4208bffd6899e7294638460c
:1023480001f02ef8002899d04ff0ff301db0bde8fd
:10235800f08fa0eb09000bfa00f018430490264612
:10236800c0e7039a111d12680391002a01db079246
:1023780004e0524243f002030792049323782e2b81
:102388000bd163782a2b33d1039b1a1d1b68039248
:10239800002bb8bf4346023405930322217827480f
:1023a80001f06afc40b14023a0eb0a0003fa00f0f8
:1023b800049b03430134049314f8011b20488df84f
:1023c8002810062201f058fc03ab00932a461d4b47
:1023d80004a908b33846fef709fd421c20d0099b22
:1023e8000344099359e706fb023201200c4693e7a0
:1023f80000230134059319460a26204610f8012bbc
:10240800303a092a03d9002bc7d00591c5e706fb46
:10241800012101230446f0e73846fff7f3fcdce727
:10242800ab895b0690d4099890e700bf1c04002094
:10243800fb5e00003c040020fc030020015f00005c
:08244800055f0000fd4c0000df
:020000040000fa
:102450002de9f04f1e468b891b069db007460d46a1
:1024600014460ed50b6963b9402101f0adfa28601e
:10247000286120b90c233b604ff0ff30c3e04023bc
:102480006b6100230993dff88491039620238df874
:10249000293030238df82a304ff0ff3809f1060a31
:1024a00023461e4613f8012b0ab1252af9d1b6ebb3
:1024b000040b0bd05b4622462946384601f0cef984
:1024c000013000f09b80099b5b4409933378002b1b
:1024d00000f094800023cde905830136049307932f
:1024e0008df853301a934ff0010b3446052214f83f
:1024f000011b464801f0c4fb049bc0b9d80644bf89
:1025000020228df85320190744bf2b228df8532029
:1025100032782a2a13d0079a344600200a26214608
:1025200011f8013b303b092b4bd970b914e0a0ebfb
:1025300009000bfa00f0184304902646d5e7039ae9
:10254000111d12680391002a01db079204e0524238
:1025500043f002030792049323782e2b0bd1637868
:102560002a2b33d1039b1a1d1b680392002bb8bf83
:1025700043460234059303222178254801f080fb6d
:1025800040b14023a0eb0a0003fa00f0049b034390
:102590000134049314f8011b1e488df828100622fc
:1025a00001f06efb03ab00932a461b4b04a908b352
:1025b0003846fef71ffc421c20d0099b03440993b8
:1025c0006ee706fb023201200c46a8e70023013427
:1025d000059319460a26204610f8012b303a092a9d
:1025e00003d9002bc7d00591c5e706fb01210123c4
:1025f0000446f0e73846fff709fcdce7ab895b06e9
:102600003ff53aaf09981db0bde8f08fea5e0000d3
:0c261000f05e0000f45e00005d38000089
:020000040000fa
:10261c0090b585b000af786039607b68fb60fb6873
:10262c001b78052b00f2968001a252f823f000bf14
:10263c0055260000792600009d260000c5260000c6
:10264c001b2700005b27000003f0a6fc04464ff498
:10265c007a7003f01ff903461946204603f060fb1d
:10266c000246fb685a60012002f0fefd03f0fafa04
:10267c00034683f00103dbb2002b6ad1022002f087
:10268c00f3fd03f0fdfb0346184603f0bafa60e0d5
:10269c0003f0f6fb03461946304801f0e9f903460e
:1026ac00fb72fb7a002b03d0052002f0ddfd51e01c
:1026bc00032002f0d9fd4de003f0c4fa0346002bd1
:1026cc0019d003f069fc0246254b93f901302549da
:1026dc00254802f071fc042002f0c6fd224803f0ec
:1026ec001ffc044603f0ccfb03461a4621461e4849
:1026fc0001f08cff2ee003f0c3fb0446012003f035
:10270c00c9f803461946204603f02ef822e0174b71
:10271c004ff48022c3f81c21012002f0a5fd03f028
:10272c00affb0246fb685b681946104603f014fbce
:10273c00fb685c684ff47a7003f0acf803461946fa
:10274c00204603f0edfa0246fb685a6002e000bf37
:10275c0000e000bf00bf1437bd4690bd0d05002042
:10276c000c050020903300005c0400200080004128
:020000040000fa
:10277c002de9f04f15460a692b699a420c46bcbfed
:10278c002c460d46d4f81090d5f81080a3686168db
:10279c0009eb0807bb4285b0b8bf013101f06afff5
:1027ac0000f1140606eb870e33460022734519d34d
:1027bc0004f1140303eb890305f11402009302ebfb
:1027cc00880301934ff6ff75019b029293420cd83c
:1027dc00002f03dd5ef8043d002b5fd0076105b0d0
:1027ec00bde8f08f43f8042be0e7136813ea050cff
:1027fc0027d004f1140ab0464ff000095af8041b14
:10280c0001ea05030393d8f8003003ea050b039b98
:10281c000cfb03b34fea114bd8f800104b444feab2
:10282c0011490cfb0b9101eb13412b4043ea014383
:10283c0048f8043b009b53454fea1149ded8c8f8d1
:10284c000090029bb3f802900432b9f1000f23d030
:10285c00336804f11408b4464ff0000ad8f800109d
:10286c00bcf802b0294009fb01b18a442b4043ea71
:10287c000a434cf8043b58f8043bdcf800101b0ce2
:10288c00294009fb0313009903eb1a4341454fea16
:10289c00134ae3d8ccf80030043695e7013f97e7ac
:020000040000fa
:1028ac002de9f74f03690c69a3428046c0f28d8075
:1028bc00013c01f114074fea840c07eb0c0300f107
:1028cc001405009305eb0c03019357f8243055f8cd
:1028dc00242001339a42b2fbf3f636d34ff0000ab0
:1028ec00be46a946d3464ff6ff705ef8042b02eaab
:1028fc00000306fb03a34fea134a0340abeb0303ad
:10290c00120cd9f800b006fb02a213fa8bf34feab3
:10291c00124a02ea000bd9f80020cbeb124202eb70
:10292c002342034043ea024349f8043b009b7345ae
:10293c004fea224bd9d255f80c3033b9019b043bea
:10294c009d421a4635d3c8f81040404602f0befdf1
:10295c0000282adb013628464ff0000e4ff6ff7c8c
:10296c0057f8042bd0f8009002ea0c03aeeb0303eb
:10297c00120c13fa89f3c2eb194202eb234203ea5d
:10298c000c034fea224e43ea0242009b40f8042b10
:10299c00bb42e5d255f8242005eb84032ab9043b4d
:1029ac009d421a460bd3c8f81040304603b0bde820
:1029bc00f08f1268043b002ac5d1013cc0e71268b5
:0e29cc00043b002aefd1013ceae70020eee7d1
:020000040000fa
:0229da00fee716
:020000040000fa
:1029dc004ff0ff3c06e000bf4ff0010c02e000bfdf
:1029ec004ff0010c4df804cd4fea410c7fea6c5cc2
:1029fc004fea430c18bf7fea6c5c1bd001b050ea65
:102a0c00410c0cbf52ea430c91ea030f02bf90ea4f
:102a1c00020f0020704710f1000f91ea030f58bf0e
:102a2c00994208bf90422cbfd8176feae37040f070
:102a3c00010070474fea410c7fea6c5c02d150ea0e
:102a4c00013c07d14fea430c7fea6c5cd6d152eac9
:102a5c00033cd3d05df8040b704700bf844610468e
:102a6c0062468c461946634600e000bf01b5fff78d
:102a7c00b7ff002848bf10f1000f01bd4df808ed5d
:102a8c00fff7f4ff0cbf012000205df808fb00bf2e
:102a9c004df808edfff7eaff34bf012000205df888
:102aac0008fb00bf4df808edfff7e0ff94bf0120d5
:102abc0000205df808fb00bf4df808edfff7ceffd6
:102acc0094bf012000205df808fb00bf4df808ed15
:102adc00fff7c4ff34bf012000205df808fb00bfe6
:020000040000fa
:102aec0080b489b000aff860b9607a600023fb61f4
:102afc00fb6807ee903af8ee677ac7ed067abb688a
:102b0c0007ee903af8ee677ac7ed057a4ff00003be
:102b1c003b61bb685b00fa689a4201d2002357e024
:102b2c00bb682e4a93421fd8d7ed066ad7ed057abb
:102b3c0086eea77ad7ed067adfed296a67eea67adc
:102b4c00f2ee046a77eea67a77ee677ac7ed047a2e
:102b5c00d7ed047afceee77a17ee903afb61bb688e
:102b6c00204a934213d801e0002331e0fb69b3f50e
:102b7c00ff7f02d9ff23fb6126e0fb69012b02d802
:102b8c000123fb6120e0fb695b08fb611ce0fb6936
:102b9c00b3f5bf7f03d34ff67f73fb6114e0fb6982
:102bac00032b03d840f20123fb610de0fb695b00b2
:102bbc000d4aa2fb03235b081a02fb690a49a1fb1d
:102bcc0003135b081343fb617b68fa691a600123ea
:102bdc0018462437bd465df8047b704740420f0011
:0c2bec0095bfd633801a0600abaaaaaa37
:020000040000fa
:102bf8008a892de9f041054610070c4658d44b68e0
:102c0800002b05dc0b6c002b02dc0020bde8f081fa
:102c1800e66a002ef9d0002312f480522f682b6048
:102c280032d0606da3895a0705d56368c01a636bf3
:102c38000bb1236cc01a00230246e66a216a2846b3
:102c4800b047431ca38906d129681d292cd82a4ad4
:102c5800ca40d60728d500226260d90422692260ba
:102c680004d5421c01d12b6803b96065616b2f60e4
:102c78000029cad004f14403994202d0284601f041
:102c8800e9f800206063c1e7216a01232846b047bc
:102c9800411cc7d12b68002bc4d01d2b01d0162b8b
:102ca80001d12f60b1e7a38943f04003a381ade7c9
:102cb8000f69002fa9d093070e6808bf4b690f60f2
:102cc80018bf0023a6eb07088b60b8f1000f9cdd46
:102cd80043463a46216aa66a2846b047002806dcd9
:102ce800a38943f04003a3814ff0ff308ee70744e8
:0c2cf800a8eb0008e9e700bf0100402045
:020000040000fa
:102d040000202020202020202020282828282820b7
:102d140020202020202020202020202020202020af
:102d24002088101010101010101010101010101017
:102d34001004040404040404040404101010101007
:102d440010104141414141410101010101010101d1
:102d54000101010101010101010101011010101023
:102d640010104242424242420202020202020202a3
:102d740002020202020202020202020210101010f7
:102d8400200000000000000000000000000000001f
:102d9400000000000000000000000000000000002f
:102da400000000000000000000000000000000001f
:102db400000000000000000000000000000000000f
:102dc40000000000000000000000000000000000ff
:102dd40000000000000000000000000000000000ef
:102de40000000000000000000000000000000000df
:102df40000000000000000000000000000000000cf
:012e040000cd
:020000040000fa
:102e08004932435f5441534b5f53544154455f49e2
:102e1800444c45004932435f5441534b5f5354413e
:102e280054455f52454144494e475f54454d5045ce
:102e380052415455524500004932435f5441534b67
:102e48005f53544154455f4449445f524541445f90
:102e580054454d5045524154555245004932435fff
:102e68005441534b5f53544154455f575249544959
:102e78004e475f454550524f4d0000bf4932435fb2
:102e88005441534b5f53544154455f4449445f5741
:102e9800524954455f454550524f4d004932435fb2
:102ea8005441534b5f53544154455f524541444943
:102eb8004e475f454550524f4d0000bf4932435f72
:102ec8005441534b5f53544154455f4449445f5206
:102ed8004541445f454550524f4d00004932435fdc
:102ee8005441534b5f53544154455f4552524f52de
:102ef800000000bf0a2573203d3e2025730000bf57
:020000040000fa
:102f080080b588b000af78603a4bd3f88031fb6168
:102f180023e0fb69013bfb61fa6913465b0013443c
:102f28009b001833334a1344bb61b86902f068ff49
:102f380078617969786802f05bfd0346002b01d05f
:102f4800bb6952e07969786802f040fd0346002bbe
:102f580003d0fb690133fb6102e0fb69002bd8dc7d
:102f6800244bd3f880311d2b01d100233de0214ba8
:102f7800d3f88021fb69d31a3b613b69002b1cdd28
:102f8800fa6913465b0013449b001833194a13442b
:102f9800fb60fb695a1c13465b0013449b00183303
:102fa800144a1344bb603a6913465b0013449b0000
:102fb8001a46f968b86802f071fafa6913465b00b4
:102fc80013449b0018330b4a1344bb61b86902f0e1
:102fd800fdfe7968b86902f087fe064bd3f88031a8
:102fe8000133044ac2f88031bb6918462037bd4610
:082ff80080bd00bf04000020b1
:020000040000fa
:1030000080b582b000af0023fb710023bb71364b4b
:103010001b7ddbb2002b63d0334b9a68324b5b686d
:103020009a4234bf01230023bb71304b1b7edbb2bd
:1030300003f00103012b0cbf01230023fb7130e0df
:103040002a4b5b6803f00703012b0bd0264b1a6851
:10305000254b9b68591c2448816013441a78234be4
:103060009a620be0204b1a681f4b9b68591c1e4844
:1030700081605b0013441a881c4b9a621a4b9a6851
:10308000194b5b689a4234bf01230023bb71174b75
:103090001b7edbb203f00103012b0cbf01230023d5
:1030a000fb71fb79002b02d0bb79002bc8d10e4bf2
:1030b0009a680d4b5b689a4212d30b4b00221a752b
:1030c000094b00225a60094b01221a75064bdb6836
:1030d000002b05d0044bdb68034a12691046984761
:1030e00000bf0837bd4680bd80030020002001419d
:020000040000fa
:1030f0002de9f04791461f468a680b69ddf820806c
:103100009342b8bf1346c9f8003091f843200646f1
:103110000c4612b10133c9f800302368990642bf4a
:10312000d9f800300233c9f80030256815f00605db
:1031300007d104f1190ae368d9f800209b1aab42c1
:1031400028dc94f843302268003318bf012392062c
:103150002dd404f1430239463046c047013020d017
:103160002368e568d9f8002003f00603042b08bfa4
:10317000ad1aa36822690cbf25eae57500259342c4
:10318000c4bf9b1aed184ff000091a344d451ad1ef
:10319000002008e00123524639463046c04701303e
:1031a00003d14ff0ff30bde8f0870135c3e7e118e8
:1031b0005a1c302081f84300224494f8451082f8cc
:1031c00043100233c5e70123224639463046c04743
:0a31d0000130e6d009f10109d8e74b
:020000040000fa
:0231da0070473c
:020000040000fa
:1031dc0080b582b000af0023fb71364b9b7ddbb218
:1031ec00002b62d0334b1b7edbb203f08003802bb1
:1031fc000cbf01230023fb712e4b9b7ddbb203f034
:10320c008003802b04d1fb79002b01d0012300e03b
:10321c000023fb71fb7903f00103fb71fb79002b9d
:10322c0001d001f0a3fb234b1b7edbb203f00103a7
:10323c00012b0cbf01230023fb711e4b9b7ddbb2ca
:10324c0003f00103012b04d1fb79002b01d00123e6
:10325c0000e00023fb71fb7903f00103fb71fb79a8
:10326c00002b01d0fff7c6fe124b1b7edbb203f026
:10327c000403042b0cbf01230023fb710d4b9b7d1e
:10328c00dbb203f00403042b04d1fb79002b01d037
:10329c00012300e00023fb71fb7903f00103fb71b8
:1032ac00fb79002b01d000f08dfc00bf0837bd4628
:0832bc0080bd00bf00200141ac
:020000040000fa
:1032c40053454e534f525f5441534b5f53544154f3
:1032d400455f494e4954000053454e534f525f5485
:1032e40041534b5f41574149545f4932435f415613
:1032f40041494c41424c450053454e534f525f5453
:1033040041534b5f53544152545f54454d504552c1
:1033140041545552455f52454144000053454e5374
:103324004f525f5441534b5f53544154455f41578f
:103334004149545f5052494e5445525f41564149a8
:103344004c41424c450000bf53454e534f525f54cd
:1033540041534b5f53544154455f41574149545f76
:103364005052494e54494e475f434f4d504c45547b
:10337400450000bf53454e534f525f5441534b5f7a
:1033840053544154455f4552524f52000a25303838
:103394006c782054656d7065726174757265203d3a
:0433a400202564007c
:020000040000fa
:1033a800324b70b51d6806460c4625b1ab6913b99a
:1033b800284601f0c5f92e4b9c420fd16c68b4f930
:1033c8000c309ab215072cd4d00611d409223260d9
:1033d80043f04003a3814ff0ff303ee0254b9c4271
:1033e80001d1ac68ebe7244b9c4208bfec68e6e7e8
:1033f800510712d5616b41b104f14403994202d0df
:10340800304600f027fd00236363a38923f02403db
:10341800a3810023636023692360a38943f0080321
:10342800a38123694bb9a38903f42073b3f5007f03
:1034380003d02146304600f0a5fda28912f0010311
:103448000cd00023a36063695b42a361236953b96d
:10345800b4f90c3013f08000bad170bd920758bf90
:103468006369a360f2e70020f7e700bf18050020b2
:0c3478001c0400203c040020fc03002089
:020000040000fa
:1034840090b585b000af78607b681b781b021ab2d8
:103494007b6801331b781bb21343fb81b7f90e30f1
:1034a400002b14dbb7f90e30db111bb21846fef704
:1034b40099fa4ff00002214bfdf730ff03460c460a
:1034c4001846214601f07cfb0346fb8119e0fb8989
:1034d4005b429bb2fb81b7f90e30db11fb81b7f97c
:1034e4000e301846fef77efa4ff00002144bfdf73b
:1034f40015ff03460c461846214601f061fb0346be
:10350400fb81b7f90e3007ee903af8eee77ab2eea7
:10351400027a27ee877af1ee046ac7ee267a9fede7
:10352400097a77ee877afdeee77a17ee903afb8117
:10353400fb895bb218461437bd4690bd0000e03fde
:083544000000e0bf000000429e
:020000040000fa
:10354c002de9f84f0d46074611462846144601f062
:10355c00bdff061e08d13146384601f08bf8012319
:10356c00c0e90436bde8f88fa4bf23462c46384684
:10357c006168a6bf1d460026012601f07bf82b6969
:10358c002769c66004f1140205f1140602eb8708e2
:10359c0006eb830e00f114054ff0000a4ff6ff798d
:1035ac0052f804bb56f8043b1afa8bfa03ea0901e9
:1035bc001b0caaeb0101c3eb1b4303eb214301eaf8
:1035cc0009014fea234ab64541ea0343944645f8bc
:1035dc00043be5d84ff6ff74c44504d355f8043dbd
:1035ec0083b10761bee75cf8041b1afa81f31a1465
:1035fc0002eb1142234043ea02434fea224a45f8c8
:08360c00043be9e7013fe9e797
:020000040000fa
:0436140002f000bd03
:020000040000fa
:10361800000000000000f03f00000000000024400f
:1036280000000000000059400000000000408f40ea
:10363800000000000088c34000000000006af84055
:103648000000000080842e4100000000d012634179
:103658000000000084d797410000000065cdcd41ef
:10366800000000205fa00242000000e876483742d0
:10367800000000a2941a6d42000040e59c30a2426e
:103688000000901ec4bcd64200003426f56b0c43e3
:103698000080e03779c3414300a0d885573476438a
:1036a80000c84e676dc1ab43003d9160e458e143eb
:1036b800408cb5781daf154450efe2d6e41a4b4460
:1036c80092d54d06cff08044f64ae1c7022db544a5
:0836d800b49dd9794378ea445e
:020000040000fa
:1036e00080b586b000af7860396000237b617b686d
:1036f000002b01d1002349e07b681b683b613b68dc
:10370000002b01d1234b3b6007f10c031a463969aa
:103710003868fff7ebf9034683f00103dbb2002bb7
:1037200001d0002332e03b691b4a934201d90123b7
:103730007b611a4b1b68194a23f00203136000bf18
:10374000164bdb69002bfbd1144afb68d360134b8b
:103750001b6823f040727b691b0603f040730f491e
:1037600013430b600d4b1b680c4a43f002031360bc
:1037700000bf0a4bdb69002bfbd1084b10225a8398
:1037800000bf064bdb69002bfbd10123184618371d
:10379000bd4680bd00879303801a060000400141aa
:020000040000fa
:1037a000f8b50e461446054618b183690bb900f00a
:1037b000cbff274b9c4230d16c68a369a360a389df
:1037c000190734d52369002b31d0b4f90c30f6b287
:1037d0009a04374634d523692068c01a6369834246
:1037e00004dc2146284601f09bf930bba368013b6d
:1037f000a36023685a1c22601e70636901308342f3
:1038000004d0a389db0706d50a2e04d12146284619
:1038100001f086f988b93846f8bd0e4b9c4201d1bb
:10382000ac68cae70c4b9c4208bfec68c5e7214670
:103830002846fff7b9fd0028c7d04ff0ff37eae769
:1038400043f40053a381236e23f400532366c2e79d
:0c3850001c0400203c040020fc030020ad
:020000040000fa
:10385c002de9f0478e689e4282460c46914698466a
:10386c0038d8b1f80cc01cf4906f31d0626925685f
:10387c00096902eb42026f1a02ebd2720133551046
:10388c003b449d4238bf1d461cf4806f30d0294606
:10389c0000f094f8064650b90c23caf80030a389fe
:1038ac0043f04003a3814ff0ff30bde8f0873a4668
:1038bc00216902f05ffaa38923f4906343f080033b
:1038cc00a381266165613e44ed1b2660a5604646da
:1038dc00464500d9464632464946206801f0dcfd93
:1038ec00a3689b1ba36023681e4426600020dce7b2
:1038fc002a4601f0d7f906460028e2d12169504644
:06390c0000f0a6fac8e776
:020000040000fa
:023912007047fc
:020000040000fa
:1039140080b487b000af786039600023fb757b68a2
:10392400fb6000233b61fb68002b3fd0234b1b7dd6
:10393400dbb283f00103dbb2002b37d01f4afb68f4
:1039440013601e4a3b6853601c4b01221a7519e030
:103954001b4b5b6803f00703012b09d0174b1a6854
:103964003b69591c396113441a78154b9a6209e072
:10397400124b1a683b69591c39615b0013441a885d
:103984000f4b9a620e4b1b7edbb203f00103012b3b
:1039940004d10a4b5b683a699a42d9d3074a3b6916
:1039a4009360074b01229a750123fb75fb7d184632
:1039b4001c37bd465df8047b704700bf80030020c0
:0439c400002001419d
:020000040000fa
:1039c800f8b5cd1c25f0030508350c2d38bf0c259e
:1039d800002d064601dba94203d90c2333600020e1
:1039e800f8bdfff792ff21490a6814469cb9204f99
:1039f8003b6823b92146304602f046f9386029462b
:103a0800304602f041f9431c23d10c233360304681
:103a180000f0d9f8e3e723685b1b17d40b2b03d915
:103a280023601c44256004e06368a2420cbf0b605d
:103a38005360304600f0c7f804f10b00231d20f056
:103a48000700c21accd01b1aa350c9e722466468e3
:103a5800cce7c41c24f00304a042e3d0211a30466a
:103a680002f012f90130ddd1cfe700bf1c050020bc
:043a78002005002005
:020000040000fa
:103a7c0090b589b002af786039600023fb7502f015
:103a8c00f1f8034683f00103dbb2002b02d00123d3
:103a9c00fb7537e01e4b3b6107f110030021184604
:103aac00fff718fe034683f00103dbb2002b02d0b4
:103abc000223fb7526e00023fb7307f10f010223a1
:103acc000093144b01224f2001f01afd034683f0a2
:103adc000103dbb2002b02d00223fb7512e00e4a6d
:103aec007b6893600c4a3b681361012001f0b4f8c9
:103afc0002f0d0f9044602f04ffa0346194620466c
:103b0c0002f02af9fb7d18461c37bd4690bd00bf5c
:0c3b1c00a0860100b3040020b0040020cb
:020000040000fa
:103b28002de9f0470c464fea621a236949680aeb07
:103b38000309a3680746164609f10105ab4233dbc2
:103b4800384600f099fd0023804600f1140100f189
:103b58001002184653452adb20692aeaea7a04f15a
:103b6800140316f01f0201eb8a0103eb800c22d02c
:103b7800c2f1200e00201e689640304341f8040b25
:103b880053f8040b9c4520fa0ef0f4d8086008b1ed
:103b980009f10205013d3846c8f81050214601f0e8
:103ba8008bfd4046bde8f08701315b00c6e742f86f
:103bb800040f0133cee7043953f8042b41f8042fde
:063bc8009c45f9d8e6e778
:020000040000fa
:023bce0070473e
:020000040000fa
:103bd00080b582b000af254b93f82c30dbb2002bc0
:103be0003fd0224b1a6a214bdb699a4239d2204bd3
:103bf0009b6afb801e4b5b6803f00703012b0bd015
:103c00001a4b9a69194b1b6a591c184801621344d4
:103c1000fa88d2b21a700ae0144b9a69134b1b6ae5
:103c2000591c124801625b001344fa881a800f4b3a
:103c30001a6a0e4bdb699a4213d10c4b002283f8af
:103c40002c200a4b0022da61094b84221a75074b9b
:103c50005b6a002b05d0054b5b6a044a926a1046ea
:103c6000984700bf0837bd4680bd00bf80030020d5
:043c700000200141ee
:020000040000fa
:0c3c740080b500af02f0a1f900bf80bdd8
:020000040000fa
:103c800001f0ff01102a2bdb10f0070f08d010f80d
:103c9000013b013a8b422dd010f0070f42b3f6d111
:103ca000f0b441ea012141ea014122f007047ff02a
:103cb00000070023f0e80256083c85ea010586ea81
:103cc000010685fa47f5a3fa87f586fa47f6a5fabd
:103cd00087f68eb9eed1f0bc01f0ff0102f00702c9
:103ce00032b110f8013b013a83ea010313b1f8d174
:103cf0000020704701387047002d06bf3546033855
:103d0000073815f0010f07d1013015f4807f02bf8d
:103d1000013015f4c03f0130f0bc0138704700bfde
:020000040000fa
:103d20002de9f74359ec108b0e4640f2ff74012148
:103d3000154600f0a5fcc9f3130314ea195418bf83
:103d400043f480130193b8f10003074623d068467b
:103d5000009300f029fd0099d8b1019ac0f1200329
:103d600002fa03f30b43c2407b610192019bbb61ea
:103d7000002b14bf022101213961acb1a4f23344fc
:103d800004443460c0f135002860384603b0bde813
:103d9000f0837961eae701a800f006fd019b7b61f1
:103da000012139612030e8e707eb8103a0f23240be
:0e3db0003060186901f088f9c0eb4110e4e7bb
:020000040000fa
:103dc0002de9f843154612f0030206460f4607d0c8
:103dd000013a214c002354f8222000f0e4f9074670
:103de000ad1035d0746a3cb9102002f0a7f8c0e9d4
:103df000014470620460c460d6f82480d8f808409a
:103e00004cb940f27121304602f066f80023c8f840
:103e10000800044603604ff00008eb070ad5394656
:103e200022463046fef7aafc39468146304601f06c
:103e300047fc4f466d100bd0206838b9224621460a
:103e40003046fef79bfc2060c0f800800446e4e7a3
:0c3e50003846bde8f88300bfe45f0000c6
:020000040000fa
:103e5c0038b50546002945d051f8043c0c1f002b01
:103e6c00b8bfe418fff74ffd1f4a1368104633b96b
:103e7c00636014602846bde83840fff7a2bea34239
:103e8c000cd921686218934204bf1a685b6863609e
:103e9c0004bf521822600460ece713465a680ab15a
:103eac00a242fad919685818a0420bd120680144d3
:103ebc00581882421960ddd1106852685a6001446a
:103ecc001960d7e702d90c232b60d3e7206821189f
:103edc008a4204bf11685268626004bf09182160ed
:0c3eec005c60c7e738bd00bf1c0500206b
:020000040000fa
:103ef80080b400af204b214a1a601f4b4ff62202b4
:103f08009a811d4b4ff440325a6000bf1a4bdb694f
:103f1800002bfbd1184b1b68174a43f002031360b0
:103f280000bf154bdb69002bfbd1154b00229a61b2
:103f3800134b0022da61124b00221a62104b002246
:103f480083f82c200e4b00225a620d4b00221a6077
:103f58000b4b00225a600a4b00229a60084b002241
:103f68001a75074b0022da60054b0022da8500bf7c
:103f7800bd465df8047b70470020014104011040f4
:043f88008003002092
:020000040000fa
:103f8c008b8973b59d0706460c4607d501f147038f
:103f9c000b600b6101234b6102b070bd01ab6a4633
:103fac0000f05cff009905463046fff707fd78b935
:103fbc00b4f90c309a05efd423f0030343f0020359
:103fcc00a38104f147032360236101236361e3e7c9
:103fdc000d4bb362a389206043f08003a381009b47
:103fec006361019b20615bb1b4f90e10304601f0a6
:103ffc0069fe28b1a38923f0030343f00103a381d5
:0c400c00a3891d43a581c7e7cd5f00001c
:020000040000fa
:104018001e4b1f4a9342f0b438bf002103d203f865
:10402800011b9342fbd11b4ad2e9000150ea01036c
:104038004ff0000610d09468034602f10c076cb9e3
:1040480021b1014403f8016b9942fbd13a46d2e908
:10405800000150ea0103eed1f0bc704759b101f1fb
:104068000c030c38801a1a443b461c1813f8015be1
:1040780025709342f9d111f0030318bf012303eb14
:10408800910107eb81073a46e1e700bf00000020f5
:0840980004000020bc1a000026
:020000040000fa
:1040a00080b500af002000f04ffebff35f8f62b617
:1040b0000721362000f08cfc362001f045f807215e
:1040c000372000f085fc372001f03ef8072138202a
:1040d00000f07efc382001f037f80721392000f08d
:1040e00077fc392001f030f807213a2000f070fc0d
:1040f0003a2001f029f807213b2000f069fc3b2021
:1041000001f022f807213c2000f062fc3c2001f085
:104110001bf807213d2000f05bfc3d2001f014f866
:0441200000bf80bd9f
:020000040000fa
:104124002de9f74380460e46144601f053ff01285b
:104134000ed1731efe2b0bd88df8046005460027a4
:104144000df10409af4213d1304603b0bde8f0834a
:10415400324604f1580301a9404601f035fb421ce4
:104164000546ecd1a38943f04003a3810646ebe75f
:10417400a36817f80910013b002ba36004daa269b5
:10418400934207db0a2905d023685a1c2260197060
:104194000137d7e722464046fff700fb431cf7d11f
:0241a400e4e74e
:020000040000fa
:1041a6002de9f0410d691f4606460c4601f1140c37
:1041b60000234ff6ff7edcf8000000ea0e0102fb4a
:1041c60001710f0c000c02fb007001ea0e010133b5
:1041d60001eb00419d424fea10474cf8041beadc14
:1041e600d7b1a368ab4212dc61683046013100f0fa
:1041f60044fa2269023204f10c01804692000c3026
:1042060001f0bbfd2146304601f057fa444604eb67
:0e421600850301355f6125612046bde8f0811a
:020000040000fa
:1042240080b500af01f0a0fe01f0baf901f0a3fee1
:1042340001f072fa00f050f900f05cfe01f056fa59
:10424400124b4122c3f8dc2000bf104bd3f8dc3002
:1042540003f04003402bf8d10c4b4122c3f8e0207b
:1042640000bf0a4bd3f8e03003f04003402bf8d1f1
:10427400074b6ff07f421a61054b40f2ff725a619f
:10428400034b044a9a6100bf80bd00bf001c00407c
:084294000008004056860100fd
:020000040000fa
:10429c0080b400af194b01221a6000bf174bdb69c9
:1042ac00002bfbd1154b4ff480725a6000bf134b9f
:1042bc00db69002bfbd1114bff22da600f4b104a4c
:1042cc001a6000bf0d4bdb69002bfbd10b4b10228e
:1042dc005a8300bf094bdb69002bfbd1094b002231
:1042ec0083f82120074b002283f82020034b8322e4
:1042fc009a7500bfbd465df8047b704700400141d4
:08430c0016001000b0030020b0
:020000040000fa
:10431400f8b51b4b1e68b369074613b9304600f065
:1043240011fa4836d6e90134013b03d53368dbb1d1
:104334003668f7e7b4f90c50a5b9124b2566c4e901
:104344000055a560c4e90335c4e90555082229468a
:1043540004f1580001f0e0fdc4e90d55c4e912551b
:104364002046f8bd6434dfe70421384601f016fa2c
:10437400044630600028dbd10c233b60f0e700bf2b
:08438400840200000100ffffac
:020000040000fa
:10438c0080b584b000afb9607a603b600346fb81b6
:10439c00164b93f820305bb2002b01d0002320e0a9
:1043ac00124afb899380114a3b68d3600f4abb6960
:1043bc0053610e4abb6893600c4a7b6813610b4acd
:1043cc003b7f9370094a97f820301370074b0022fb
:1043dc0083f821203a7ffb891146184600f01cfb1c
:1043ec00012318461037bd4680bd00bfb003002026
:020000040000fa
:1043fc005052494e5445525f5441534b5f535441b4
:10440c0054455f49444c45005052494e5445525f07
:10441c005441534b5f53544154455f5052494e5491
:10442c00494e47005052494e5445525f5441534bec
:10443c005f53544154455f434f4d504c4554454494
:10444c00000000bf5052494e5445525f5441534beb
:10445c005f53544154455f4552524f52000000bfc8
:020000040000fa
:10446c0090b585b000af786039607b68fb60fb6805
:10447c001b78072b23d801a252f823f0c944000063
:10448c00c9440000a9440000c9440000bd44000018
:10449c00c9440000c3440000c94400000a4b9c6896
:1044ac000a48fef7e9ff0346237001f007fa06e01d
:1044bc0001f004fa03e001f001fa00e000bf00bfd4
:1044cc001437bd4690bd00bfb0040020b3040020db
:020000040000fa
:1044dc0080b400af174b4222c3f8842000bf154ba9
:1044ec00d3f8843003f04003402bf8d1124b002258
:1044fc009a63114b77225a6300bf0f4bdb6b03f0af
:10450c000403042bf9d00c4b022283f8302000bf9b
:10451c00094bdb6b03f00203022bf9d000bf064bf7
:10452c001b6c03f00303032bf9d100bfbd465df8f0
:0c453c00047b7047001c00400010004091
:020000040000fa
:1045480080b485b000af786039600023fb737b6866
:104558005b889ab27b689b889bb29a4205d10123fb
:10456800fb733b6800221a6017e07b689a687b68d7
:104578005b889bb29b0013441a683b681a607b688f
:104588005b889bb201339bb21ab27b681b881bb253
:1045980013401bb29ab27b685a80fb7b18461437cb
:0845a800bd465df8047b70477d
:020000040000fa
:1045b00080b582b000af01f055fc786000f058ff84
:1045c00000f062fd38603b68002b12d0386801f0c3
:1045d0001bfc03467968184601f020fa034683f075
:1045e0000103dbb2002b04d000f070fa00f006feed
:1045f0000be0084b5b69002b06d0064b5b69002182
:10460000184601f09df900e000bf00231846083766
:08461000bd4680bd040000203e
:020000040000fa
:1046180090b585b000aff860b9607a6001f014fb1e
:10462800034683f00103dbb2002b01d002231ce018
:10463800b968f868fff76af9034683f00103dbb24b
:10464800002b01d0012310e00a4a7b685360012047
:1046580000f0eefd01f00cfc044601f09ffc03465f
:104668001946204601f07afb002318461437bd4648
:0846780090bd00bf0405002005
:020000040000fa
:1046800070b5456a04460e463db9102001f056fc4f
:10469000c0e9015560620560c560656aeb6883b179
:1046a000636adb6853f82600b8b9012101fa06f500
:1046b0006a1d9200204601f07ffb60b1c0e90165f0
:1046c0000ee021220421204601f076fb636ae860b7
:1046d000db68002be4d1002070bd026843f826207f
:0846e0000023c0e90333f7e7f2
:020000040000fa
:1046e80080b400af154b012283f85620134b0122ea
:1046f80083f85720114b222283f83b200f4b0122cd
:1047080083f8d8200d4b012283f8d9200b4b332294
:1047180083f8bc20094b4ff48022c3f80021074bd3
:104728004ff48022c3f81021044b002283f8522151
:1047380000bfbd465df8047b704700bf00800041a4
:020000040000fa
:10474800836910b5044633bbc0e912330365124bc5
:10475800124a1b688262984204bf01238361fff7f3
:10476800d5fd60602046fff7d1fda0602046fff729
:10477800cdfd0022e0600421606800f04dfb0122bd
:104788000921a06800f048fb02221221e06800f02d
:1047980043fb0123a36110bd84020000cd5f00002c
:020000040000fa
:1047a800036813f0070201460bd0da0724d49907ef
:1047b8004bbf5b089b08036003604cbf01200220cd
:1047c800704798b2b0b91b0c102013f0ff0f04bf4c
:1047d8001b0a08301a0704bf1b0904309a0704bfd4
:1047e8009b080230da0703d45b0800f1010005d00a
:1047f8000b6070471046e8e700207047202070479c
:020000040000fa
:1048080080b485b000af786039600023fb737b68a3
:104818009b889bb201339bb21ab27b681b881bb280
:1048280013401bb2bb817b685b889bb2ba899a42f2
:1048380002d10223fb730be07b689a687b689b8834
:104848009bb29b0013443a681a607b68ba899a80c5
:0e485800fb7b18461437bd465df8047b7047a5
:020000040000fa
:1048680080b483b000af03460a46fb8013467b71d1
:104878007b79002b04d00f4b032283f8202003e020
:104888000c4b042283f82020fb885b007a79002aed
:1048980001d0012200e00022074913434b6200bf08
:1048a800054bdb69002bfbd100bf0c37bd465df81b
:0c48b800047b7047b00300200040014169
:020000040000fa
:1048c40080b584b000af786039607b68fb60fb68ba
:1048d4001b78032b1bd801a252f823f00d490000ca
:1048e4000d490000f14800000d490000002000f0cf
:1048f400a1fc094b5b68002b08d0074b5b680021c7
:10490400184601f01bf801e000bf00e000bf00bf43
:0c4914001037bd4680bd00bf0405002028
:020000040000fa
:1049200080b400af134b01221a8000bf114b1b69ea
:1049300003f00103012bf9d00e4b4ff401421a8012
:104940000c4b00221a6200bf0a4b1b6903f02003c4
:10495000202bf9d0074b00225a6200bf054b1b6980
:1049600003f04003402bf9d000bfbd465df8047b47
:08497000704700bf0024004065
:020000040000fa
:1049780080b582b000af0023fb80114b5b8b9bb2ec
:1049880003f00703fb80fb88002b15d00d4afb883a
:10499800d38500f0ebf80a4b84221a75094b0022e4
:1049a80083f82c20074b5b6a002b05d0054b5b6a0c
:1049b800044a926a1046984700bf0837bd4680bd32
:0849c8000020014180030020e2
:020000040000fa
:1049d00080b483b000af03463960fb80b7f906307e
:1049e000002b0adb3b68dab20c49b7f906305201fa
:1049f000d2b20b4483f800230ae03b68dab20849dc
:104a0000fb8803f00f03043b5201d2b20b441a7629
:104a100000bf0c37bd465df8047b704700e100e045
:044a200000ed00e0c5
:020000040000fa
:104a240080b582b000af03460a46fb8013467b7113
:104a34000e4b00229a610d4b0022da610c4b83224b
:104a44001a760b4b5b680a4a23f48023536000bf39
:104a5400074bdb69002bfbd17a79fb88114618469a
:104a6400fff700ff00bf0837bd4680bdb00300203c
:044a740000400141bc
:020000040000fa
:104a780008b50d4b98470d4b984700f05bfa02209c
:104a880000f092fffff7c4fa094b23f07f03094aad
:104a98009360094b984700f0d3fa084b9847084ba6
:104aa800984701f02ffafee7db310000db31000008
:104ab8000000000000ed00e0d94d0000db310000ef
:044ac800db310000de
:020000040000fa
:104acc0080b582b000af124bd3f88031002b19ddca
:104adc000f4bd3f880315a1e13465b0013449b00d6
:104aec0018330b4a13447b600c227968084801f098
:104afc0041f9074bd3f88031013b054ac2f88031ac
:104b0c00034b00e0002318460837bd4680bd00bfac
:044b1c000400002071
:020000040000fa
:104b200038b50b6905460c46dbb118b183690bb982
:104b3000fff70afe0c4b9c4209d16c68b4f90c30ab
:104b40007bb121462846bde83840fef755b8074bf3
:104b50009c4201d1ac68f1e7054b9c4208bfec6870
:104b6000ece7002038bd00bf1c0400203c040020fe
:044b7000fc03002022
:020000040000fa
:104b740080b483b000af0023fb71104b5b8b9bb2fe
:104b840003f00703bb80bb88002b10d00b4b8022a3
:104b94001a760a4b07225a8302e0084b9b6afb7180
:104ba400064b1b7edbb203f00403042bf5d000bfdd
:104bb4000c37bd465df8047b704700bf00200141ff
:020000040000fa
:104bc4004fea410212f5001215d211d56ff4787331
:104bd400b3eb625212d94feac12343f0004343ead4
:104be400505311f0004f23fa02f018bf40427047af
:104bf4004ff00000704750ea013005d111f0004039
:104c040008bf6ff0004070474ff00000704700bfce
:020000040000fa
:104c140080b584b000af78607b68fb60fb681b786c
:104c2400012b03d1fb6802221a700ee0fb681b788b
:104c3400032b03d1fb6804221a7006e0fb681b787f
:104c4400052b02d1fb6806221a7001f027f90346ee
:0e4c5400184600f065fb00bf1037bd4680bd5e
:020000040000fa
:104c640090b583b000af0346fb710e4b1b78fa7905
:104c74009a4212d00b4b1b78184600f015ff0446dd
:104c8400fb79184600f010ff03461a4621460648f1
:104c940000f0cefc034afb79137000bf0c37bd460d
:0c4ca40090bd00bfb0040020fc2e0000fa
:020000040000fa
:104cb000f8b5074614460e4621b91146bde8f8403e
:104cc000fef782be22b9fff7c9f825462846f8bd8f
:104cd00001f03cf9a0420fd221463846fef774fe9f
:104ce00005460028f2d03146224601f049f8314607
:0c4cf0003846fff7b3f8e9e73546e7e780
:020000040000fa
:104cfc00f8b50e46096e8904074614460bd4d51830
:104d0c00ac420dd0324614f8011b384600f0bbfc07
:104d1c000130f5d10ee023f00303d518ac4201d1dc
:104d2c00002009e0324654f8041b384601f030f8f4
:0a4d3c000130f3d14ff0ff30f8bd55
:020000040000fa
:104d480080b485b000af78607b6803f00703fb6030
:104d58000c4bdb68bb60ba684ff6ff031340bb60bf
:104d6800fb681a02bb68134343f0bf6343f4003384
:104d7800bb60044abb68d36000bf1437bd465df80a
:084d8800047b704700ed00e020
:020000040000fa
:104d900080b582b000af786039603b6800221a604d
:104da0007b680433184600f05dfc0346002b05d0f9
:104db0007b683968184600f0c7fc05e07b685b68d3
:104dc0003968184600f0c0fc7b683a685a607b6816
:084dd00018460837bd4680bdfe
:020000040000fa
:104dd80070b50d4d0d4c641ba4100026a64209d1d8
:104de8000b4d0c4cfbf73afa641ba4100026a642a4
:104df80005d170bd55f8043b98470136eee755f8e4
:104e0800043b98470136f2e7700200007002000088
:084e18007002000074020000aa
:020000040000fa
:104e2000002310b50446c0e9003383608181036626
:104e3000c281c0e90433836119460822583001f069
:104e40006df8054b6362054ba362054be362054bae
:104e50002462236310bd00bfed5b00000554000019
:084e6000d15a000009600000b6
:020000040000fa
:104e680070b50e46b1f90e10002990b014461d46d3
:104e780007da00232b60b3891a0610d44ff4806335
:104e88000ee001aa00f07afe0028f2db029a02f492
:104e98007042a2f500535a425a412a60eee7402375
:084ea8000020236010b070bd72
:020000040000fa
:104eb00080b584b000af786039600023fb737868f8
:104ec00000f0aeff0346002b02d00523fb730de07c
:104ed0003868fef719f8b860bb68002b02d10323cd
:104ee000fb7303e07968b86800f000fafb7b1846b2
:064ef0001037bd4680bd35
:020000040000fa
:104ef80080b400af0c4b01225a7100bf0a4bdb781b
:104f0800dbb203f00103012bf8d1084b084a1a62ff
:104f180000bf064b5b6803f00403042bf9d000bf05
:104f2800bd465df8047b704700080040001c004047
:044f3800070101006c
:020000040000fa
:104f3c0080b483b000afeff310833b603b687b60c1
:104f4c0072b60b4bd3f88830094a43f47003c2f89d
:104f5c008830bff34f8fbff36f8f7b68002b00d16e
:104f6c0062b600bf0c37bd465df8047b704700bfce
:044f7c0000ed00e064
:020000040000fa
:104f800080b584b000aff860b9601346fb80fb8841
:104f9000002b05d0fa88fb88013b1340002b01d081
:104fa00003230be0fb88013b9ab2fb681a80fb6885
:104fb000ba689a60f86800f0f7fd034618461037a3
:044fc000bd4680bdad
:020000040000fa
:104fc4000eb410b59bb01dab019005906ff000417d
:104fd4000a48069103910a4953f8042b04910024ca
:104fe40001a9006800931994fdf730fa019b1c7025
:104ff4001bb0bde8104003b0704700bf1805002087
:045004000802ffffa0
:020000040000fa
:1050080010b5054c237833b9044b13b10448aff3fa
:1050180000800123237010bd7c04002000000000e4
:105028000000000008b5034b1bb103490348aff368
:10503800008008bd0000000080040020000000007f
:020000040000fa
:1050480080b400af0d4b9b680c4a23f001039360ba
:1050580000bf0a4bdb6803f00103012bf9d0074bb3
:105068005b68064a43f004035360044b01229a60cc
:1050780000bfbd465df8047b704700bf006000417b
:020000040000fa
:1050880080b483b000af00237b600c4bd3f8803131
:10509800002b0bdd094bd3f880315a1e13465b00f9
:1050a80013449b001833054a13447b607b681846f9
:1050b8000c37bd465df8047b704700bf0400002034
:020000040000fa
:1050c800020c12040346cab90304102013f07f4fe0
:1050d80004bf1b02083013f0704f04bf1b010430db
:1050e80013f0404f04bf9b000230002b05db13f088
:1050f800804f00f1010008bf202070470020e5e73d
:020000040000fa
:1051080070b5b9b115460ab1022801d9284670bd53
:105118000a4b2bb108461146aff30080284670bdf4
:105128000c468e1814f8010b00f08dfeb442f9d12c
:10513800284670bd0d46284670bd00bf000000001f
:020000040000fa
:1051480080b483b000af0346fb80b7f90630002b6c
:105158000bdbfb8803f01f020749b7f906305b0930
:10516800012000fa02f241f8232000bf0c37bd46a7
:0c5178005df8047b704700bf00e100e020
:020000040000fa
:1051840080b485b000af78600023fb607b68002b9f
:105194000dd07b681b68002b09d07b681b68fb6003
:1051a400fb681a687b681a60fb6800221a60fb6857
:0c51b40018461437bd465df8047b7047b8
:020000040000fa
:1051c00080b500af4ff4d8720021084800f0a6fe69
:1051d000064800f0fffd054b054a1a610822054903
:1051e0000548fff7cdfe00bf80bd00bf04000020d2
:0c51f000a55f000088010020a80100203d
:020000040000fa
:1051fc0080b582b000af00237b6009e00a4a7b686f
:10520c00d3600021786800f095fb074b0022da6030
:10521c00054800f08ef978607b68002beed100bf5a
:0c522c000837bd4680bd00bf0400002014
:020000040000fa
:1052380080b584b000af0346fb710b4b1b78fa793d
:105248009a420dd0084b1b78184600f007fcf8600e
:10525800fb79184600f002fcb860034afb7913702a
:1052680000bf1037bd4680bd0405002080b584b05e
:1052780000af0346fb710b4b1b78fa799a420dd0ad
:10528800084b1b78184600f0fbfbf860fb791846c2
:1052980000f0f6fbb860034afb79137000bf1037c3
:0852a800bd4680bd0c0500208d
:020000040000fa
:1052b0002de9f8438046894600f14804002614b9d8
:1052c0003046bde8f883d4e90175013f01d5246873
:1052d000f5e7ab89012b07d9b5f90e30013303d0bf
:0c52e00029464046c84706436435eee707
:020000040000fa
:1052ec0080b582b000af78603960386800f092fd0c
:1052fc000346002b01d000230ae07a683b68083390
:10530c0019461046fff73efd3b687a68da607b6809
:08531c0018460837bd4680bdac
:020000040000fa
:1053240080b582b000af7860786800f077fd0346fe
:10533400002b01d0052309e079680648fff762fadb
:105344000346022b01d1032300e00023184608374b
:08535400bd4680bda801002048
:020000040000fa
:10535c0080b500af084b1946084800f087fa064a9a
:10536c000749084800f0fef8034b00221a70024b64
:10537c0000225a6000bf80bd040500206759000060
:08538c00c5480000d404002014
:020000040000fa
:1053940098b500af094a0a490a4800f0e7f8074bf4
:1053a40000221a7000f070fd044600f0f9fd034677
:1053b4001946204600f0d4fc00bf98bd0c0500201f
:0853c4001d260000e404002096
:020000040000fa
:1053cc0080b500af084b1946084800f03bfa064a76
:1053dc000749084800f0c6f8034b00221a70024b2c
:1053ec0000221a6100bf80bdb0040020154c0000e3
:0853fc006d440000f4040020e0
:020000040000fa
:105404002de9f0411f468b89db0505460c461646ff
:1054140005d502230022b1f90e1000f07bfba3890d
:10542400b4f90e1023f48053a38132463b46284638
:08543400bde8f04100f05cbb93
:020000040000fa
:10543c0080b582b000af786000f064fcfff74ef9e5
:10544c00fef7eafefef724fffef750fd00f096fd96
:10545c00fff760fa00f0e5fbfef71cfe00bf083713
:04546c00bd4680bdfc
:020000040000fa
:1054700080b582b000af3b4619460948fff764f893
:105480000346fb71fb79002b04d13b68184600f002
:10549000befbf0e700bf00bf0837bd4680bd00bfc0
:0454a000a80100203f
:020000040000fa
:1054a400884210b501eb020302d983421c4607d897
:1054b400421e994208d011f8014b02f8014ff8e757
:1054c40083189a1a9a4200d110bd14f8011d03f8ea
:0454d400011df7e7d8
:020000040000fa
:1054d80003690a699b1a30b50cd192001430143153
:1054e8008418114454f8045d51f8042d954203d0f2
:1054f80005d30123184630bda042f3d3fae74ff095
:04550800ff33f7e78f
:020000040000fa
:10550c0080b588b004afb9607a603b600346fb811c
:10551c00f8890023029300230193bb6900933b6835
:10552c007a68b968fef72cff034618461037bd465b
:02553c0080bd30
:020000040000fa
:10553e0080b584b000af78607b68184600f05bf8e9
:10554e00f860fb68002b07d0fb68083bbb60bb68ac
:10555e000022da60bb6800e0002318461037bd4613
:02556e0080bdfe
:020000040000fa
:1055700080b584b000aff860b9607a60fb68ba6843
:105580001a60fb687a685a60fb680833184600f0b6
:10559000dbfbfb680022da60fb6818461037bd466b
:0255a00080bdcc
:020000040000fa
:1055a40080b400af094b42f20e229a8200bf074b2f
:1055b400db6803f00103012bf9d1044b05221a74b3
:1055c40000bfbd465df8047b704700bf0014004077
:020000040000fa
:1055d40080b400af094b1b889bb2084a43f0020316
:1055e4009bb2138000bf054b1b6903f00203022b1f
:1055f400f9d000bfbd465df8047b7047002400402d
:020000040000fa
:1056040080b584b000af78607b681846fff7b8fdba
:10561400f8607b68184600f023f80346002b02d09c
:105624007b6800225a60fb6818461037bd4680bd6f
:020000040000fa
:105634000fb40a4b13b51c6824b1a36913b92046ef
:10564400fff780f805ab049aa16801932046fcf7a4
:1056540001fe02b0bde8104004b0704718050020f8
:020000040000fa
:1056640080b483b000af78607b68002b03d07b6884
:105674001b68002b01d1012300e0002303f0010388
:0e568400dbb218460c37bd465df8047b70475c
:020000040000fa
:105692009368013b002b10b4936008da9469a3422b
:1056a20001db0a2903d15df8044bfef778b81368d1
:0e56b200581c1060197008465df8044b7047d4
:020000040000fa
:1056c00070b5446a06460d463cb9102000f036fc21
:1056d000c0e9014470620460c4603db1736a6a68e5
:0e56e000db6853f82210296043f8225070bd99
:020000040000fa
:1056f00080b400af074b084a5a6200bf054b5b6895
:1057000003f00803082bf9d000bfbd465df8047b09
:0c571000704700bf001c004007010200b1
:020000040000fa
:10571c0080b400af074b084a9a6200bf054b5b6828
:10572c0003f01003102bf9d000bfbd465df8047bcd
:0c573c00704700bf001c00400601300058
