:020000040000fa
:10000000f0ff03209d3d0000855300008953000050
:100010009153000095530000995300000000000028
:10002000000000000000000000000000b3270000f6
:100030008d53000000000000b3270000b32700002c
:10004000b3270000b3270000b3270000b327000048
:10005000b3270000b3270000b3270000b327000038
:10006000b3270000b3270000b3270000b327000028
:10007000b3270000b3270000b3270000b327000018
:10008000b3270000b3270000b3270000b327000008
:10009000b3270000b3270000b3270000b3270000f8
:1000a000b3270000b3270000b3270000b3270000e8
:1000b000b3270000b3270000b3270000b3270000d8
:1000c000b3270000b3270000b3270000b3270000c8
:1000d000b3270000b3270000b3270000b3270000b8
:1000e000b3270000b327000000000000000000005c
:1000f00000000000b3270000b3270000b327000072
:10010000b3270000b3270000b3270000b327000087
:10011000b3270000b3270000dd280000dd28000021
:10012000dd280000dd280000b9230000b92300000d
:10013000b9230000b9230000b3270000b327000053
:10014000b3270000b3270000b3270000b327000047
:10015000b3270000b3270000b3270000b327000037
:10016000b3270000b3270000b3270000b327000027
:10017000b3270000b3270000b3270000b327000017
:10018000b3270000b3270000b3270000b327000007
:10019000b3270000b3270000b3270000b3270000f7
:1001a000b3270000b3270000b3270000b3270000e7
:1001b000b3270000b3270000b3270000b3270000d7
:1001c000b3270000b3270000b3270000b3270000c7
:1001d000b3270000b3270000b3270000b3270000b7
:1001e000b3270000b3270000b3270000b3270000a7
:1001f000b3270000b3270000b3270000b327000097
:10020000b3270000b3270000b3270000b327000086
:10021000b3270000b3270000b3270000b327000076
:10022000b3270000b3270000b3270000b327000066
:10023000b3270000b3270000b3270000b327000056
:10024000b3270000b3270000b3270000b327000046
:10025000b3270000b3270000b3270000b327000036
:04026000b3270000c0
:020000040000fa
:10026400f8b500bff8bc08bc9e46704711470000b3
:10027400f8b500bff8bc08bc9e467047ed460000c8
:020000040000fa
:04028400704700bf00
:020000040000fa
:100288002de9f04f55ec104b99b0476a0891834619
:100298000d921493229ecde9044547b9102004f02d
:1002a800ebffc0e90177cbf824000760c760dbf8f3
:1002b8002430196859b15a684a60012393408b6009
:1002c800584604f080fcdbf8243000221a60002d28
:1002d800bfbf0123336025f000430593a4bf00236b
:1002e8003360059cb24ba3431ad1149a42f20f73a0
:1002f8001360049bc4f31304234300f04f85239b2e
:1003080053b9ac4b23e0ac4b01930833239a1360e9
:10031800019819b0bde8f08fa64b01930333f5e7b8
:100328009ded047b0022002351ec170b8ded0e7b15
:1003380002f03efc074660b1149a01231360239b28
:10034800002b00f028859d4b239a1360013b0193f5
:10035800dee716aa17a99ded0e0b584603f04cfbd5
:10036800c4f30a568046002e7fd00f9b1597c3f31f
:100378001303dde90e4543f07f5545f44015a6f219
:10038800ff3600228e4b2046294601f0dbf982a376
:10039800d3e9002300f0c0ff81a3d3e9002301f0d3
:1003a800d3f9044630460d4601f01afb7ea3d3e983
:1003b800002300f0b1ff02460b462046294601f013
:1003c800c3f904460d4604f065f80022824600236e
:1003d8002046294602f0f6fb48b1504601f000fbe2
:1003e80022462b4602f0e4fb08b90af1ff3abaf1bb
:1003f800160f59d8734b03ebca03d3e90023dde981
:100408000e0102f0dffb002850d00af1ff3a00236a
:100418001193169b9e1b731e079345bfc6f10103dc
:100428000693002300234cbf07930693baf1000fed
:100438003edb079bcdf840a0534407930023099364
:10044800089b092b00f28e80052bc4bf043b089340
:10045800089ba3f10203ccbf00240124032b00f264
:100468008c80dfe803f02f716f7ddde916631e4491
:1004780006f23240202811ddc0f14000049b844080
:1004880006f2124023fa00f0204301f099fa012302
:100498000446a1f1f875013e159372e7049bc0f17b
:1004a800200003fa00f0f0e70123b1e71190b0e76c
:1004b800069ba3eb0a030693caf1000309930023e2
:1004c8001093bde700230c930d9b002b59dc0123ef
:1004d800029399460d93dbf8245000226a600422a7
:1004e80002f11400984269684fd9584603f096fe05
:1004f800dbf8243028601b680193b9f10e0f00f275
:10050800e680002c00f0e380baf1000f78dd2d4a78
:100518000af00f0302ebc30393ed007b4fea2a14a2
:10052800e2068ded0a7b69d5274bdde90e01d3e99b
:10053800082301f01bf8cde9040104f00f04032699
:10054800214d50e00123bee700230c930d9b53443b
:1005580003f1010902934b46012bb8bf0123bae707
:100568000123f2e70023012408930c94013b0022a5
:10057800029399460d921223ade701230c93023b97
:10058800f5e70d9b02939946a5e701316960520092
:10059800a6e700bfaff3008061436f63a787d23f30
:1005a800b3c8608b288ac63ffb799f501344d33f5a
:1005b8000000f07fa9520000a0520000ae520000d7
:1005c8000000f83f68340000304d0000e30708d50c
:1005d800dde90a01d5e9002300f09efecde90a0114
:1005e800013664100835002cf0d1dde90a23dde975
:1005f800040100f0bbffcde904011ae002269fe7e1
:1006080000f09f80caf100049f4ba04d04f00f0238
:1006180003ebc203d3e90023dde90e0100f07cfe01
:10062800cde90401241100230226002c7ed1002be1
:10063800e1d1119b002b00f08680dde90445002202
:10064800934b2046294602f0bdfa00287bd0b9f129
:10065800000f78d0029b002b35dd0af1ff330a9397
:10066800204600228b4b294600f056fecde90401b6
:10067800029c0136304601f0b3f9dde9042300f0ad
:100688004bfe0022844b01f05ff80646a1f150773b
:10069800002c5cd10022814bdde9040101f052f805
:1006a80032463b46cde9040102f0aafa002840f0a0
:1006b8008982324607f10043dde9040102f082fa3b
:1006c800002840f07d82dde90e34cde90434179b23
:1006d800002bc0f24f81baf10e0f00f34b816a4b29
:1006e80003ebca0393ed007b0d9b002b8ded027b82
:1006f80080f2d880b9f1000f00f3d48040f05f8217
:100708000022664b51ec170b00f006fedde90423ce
:1007180002f06cfa4c464e46002840f03882019da3
:10072800312305f8013b0af1010a34e2e70705d550
:10073800d5e9002300f0f0fd0136012364100835e7
:1007480073e7022675e7cdf828a04c4692e74e4b92
:1007580003ebc40353e90201019b1c440c9b002bcf
:1007680046d002460b4600204d4900f0fffe3246b7
:100778003b4600f0e7ff019d06460f46dde9040110
:1007880003f088fe129001f02bf902460b46dde9d2
:10079800040100f0d7ff129b303305f8013b3246c5
:1007a8003b46cde9040102f00dfa002860d1dde9ed
:1007b80004230020364900f0c5ff32463b4602f0cc
:1007c80001fa002840f0b480a5423ff47caf002233
:1007d800304b3046394600f09ffd002206460f4652
:1007e8002c4bdde9040100f097fdcde90401c5e7d4
:1007f80032463b4600f090fdcde91201019e2546a8
:10080800dde9040103f046fe074601f0e9f8303758
:1008180002460b46dde9040100f094ff06f8017b6f
:10082800a642cde904014ff0000226d11c4bdde9b8
:10083800120100f089ff02460b46dde9040102f0cf
:10084800dff9002874d1dde912230020144900f0f3
:1008580079ff02460b46dde9040102f0b3f90028ee
:100868003ff431af15f8013c302b05f1ff3202d0cf
:10087800ddf828a04ae01546f4e7064b00f04cfde9
:10088800cde90401bce700bf68340000304d00002a
:100898000000f03f0000244000001c40000014400d
:1008a8000000e03fdde90467019ddde902233046f1
:1008b800394600f05bfe03f0edfd044601f090f8c8
:1008c800dde9022300f028fd02460b463046394692
:1008d80004f1300600f036ff05f8016b019eae1bef
:1008e800b14502460b4638d100f02effdde9022360
:1008f80006460f4602f084f9c0b9dde90223304606
:10090800394602f055f908b1e1070fd44146584677
:1009180004f059f90023149a2b700af101031360ab
:10092800239b002b3ff4f4ac1d60f1e4cdf828a024
:1009380015f8012c392a05f1ff3308d1019a9a429a
:1009480009d10a9a019901320a9230220a701a785a
:1009580001321a708ce71d46eae700229b4b00f033
:10096800dbfc0022002306460f4602f021f900288e
:100978009bd0cbe70c9a002a00f0cb80089a012a7a
:1009880000f3ae80159a002a00f0a68003f23343e4
:10099800099c069d069a1a440692079a01211a4450
:1009a8005846079204f0fdfb0646002d0cdd079b18
:1009b800002b09ddab42069aa8bf2b46d21a069235
:1009c800079aed1ad31a0793099bf3b10c9b002bd6
:1009d80000f0a380002c10dd31462246584603f073
:1009e800a9f8424601460646584601f0affd414681
:1009f8000746584604f0e7f8b846099b1a1b04d086
:100a08004146584603f096f880460121584604f0be
:100a1800c8fb109b002b044640f381801a46014610
:100a2800584603f087f8089b012b04467add002717
:100a3800236904eb8303186903f0b4fec0f12000b6
:100a4800079b184410f01f0000f08880c0f12003b5
:100a5800042b40f38180c0f11c00069b03440693dd
:100a6800079b034405440793069b002b05dd41467d
:100a78001a46584602f01cff8046079b002b05ddee
:100a880021461a46584602f013ff0446119b002bd4
:100a980066d02146404603f0bdff002860da0023f7
:100aa80041460a22584603f0ccfa0c9b0af1ff3a59
:100ab8008046002b00f07981002331460a225846ef
:100ac80003f0bffa029b002b064600f38980089bbf
:100ad800022b40f385804be0169bc3f1360357e7a2
:100ae800099b09f1ff34a342bfbf099b0994e21a8d
:100af800109bbbbf9b1810931c1b0024b9f1000f5f
:100b0800b5bf069b069da3eb09054b46b8bf00235e
:100b180040e7099c069d0c9e47e7099a70e7089be9
:100b2800012b15dc049b9bb9059bc3f313028ab9ff
:100b3800274f1f4037b1069b01330693079b0133ac
:100b480007930127109b002b7ff472af012077e7f2
:100b58000027f7e7049ff5e786d018461c307ce7a6
:100b6800b9f1000f36dc089b022b33ddcdf8089075
:100b7800029b63b921460522584603f062fa0146f2
:100b88000446404603f046ff00283ff7c8ad0d9bda
:100b9800019d6fea030a00272146584604f013f81e
:100ba800002e3ff4b3ae2fb1b74203d039465846b2
:100bb80004f009f83146584604f005f8a6e6002482
:100bc8002646e4e7ddf828a02646a8e500002440ec
:100bd8000000f07f0c9bcdf80890002b00f0ec8013
:100be800002d05dd31462a46584602f061fe0646cc
:100bf800002f56d07168584603f010fb3269023254
:100c08000546920006f10c010c3004f03bfa012273
:100c18002946584602f04cfe019b03f10109dde923
:100c2800012313440993049b03f0010337460793f8
:100c3800064609f1ff3321464046029301f01efda6
:100c4800034630330490394640460a9303f0e2fee7
:100c5800324606902146584602f09cfbc2680a9b21
:100c6800054602bb0146404603f0d4fe0a9b0246f5
:100c7800294658460c920a9303f0a5ff089b0c9a44
:100c880043ea0201079b0b434d460a9b0dd1392bc2
:100c980027d0069a002a01dd049b3133029a13708b
:100ca8007ae73046b8e70122e2e70699002904db33
:100cb80008980143079801431ed1002aeedd4146fa
:100cc80001225846069302f0f3fd2146804603f0c0
:100cd800a1fe0028069b02dce0d1da07ded5392b1d
:100ce800dad1029a3923137015f8013c392b05f132
:100cf800ff3246d00133d2e7002a03dd392bf0d08a
:100d08000133cbe7099a09f8013c914520d04146c7
:100d180000230a22584603f094f9b74280464ff060
:100d280000034ff00a023946584606d103f089f904
:100d38000746064609f101097be703f082f900231b
:100d480007460a223146584603f07bf9f1e70027a7
:100d5800414601225846029302f0aafd21468046e8
:100d680003f058fe0028bfdc02d1029bdb07bbd48e
:100d780015f8013c302b05f1ff327ff40daf154615
:100d8800f6e7019b934204d10af1010a3123019a43
:100d980085e71546a8e7134bfff7d9ba239b002b25
:100da8007ff4b1aa104bfff7d2ba029b002b03dce9
:100db800089b022b3ff7dcae019d2146404601f01f
:100dc8005dfc00f1300305f8013b019a0299aa1a6b
:100dd8009142bcdd414600230a22584603f031f90e
:0c0de8008046eae7ad520000a052000077
:020000040000fa
:100df4002de9f04f8db00c46ddf8588093461f4620
:100e0400064604f0b3fa03680593184604f02efa74
:100e1400d8f800300690073323f0070303f10802e3
:100e240094f818a02568c8f80020d3e90023c4e981
:100e3400122394ed127b8ded027bdde9028323f016
:100e440000494ff0ff32a24b4046494603f058ff99
:100e540070bb4ff0ff329e4b4046494601f0befe48
:100e640030bb00220023dde9020101f0adfe10b128
:100e74002d2384f84330974b1a1d25f00405baf14d
:100e8400470f94bf994691462560032300252361ab
:100e9400a84600975b460aaa2146304602f0c6f8e7
:100ea400013040f009814ff0ff300db0bde8f08f04
:100eb400dde902231046194603f022ff38b1039bf3
:100ec400002bbcbf2d2384f84330834bd4e76368e5
:100ed400591c0af0df081cd10623636045f48063c3
:100ee400236063680493039b002b19dadde9022174
:100ef40081f00043cde902232d23b8f1460f079377
:100f040010d0b8f1450f02d1049b013304930221a0
:100f140009e0b8f1470fe1d1002bdfd10123dce771
:100f24000023eae703210aab019309ab0093049a77
:100f340008ab9ded020b3046fff7a4f9b8f1470f5b
:100f4400814650d1ea074ed40a9d089ab8f1470f5a
:100f5400a5eb090571d1d31c03db6368934280f2ce
:100f64009a80aaf1020a5ffa8afa531e002b0893a8
:100f7400b6bfc2f101032b222d22092b04f1500824
:100f840084f850a084f8512074dd0df12f024ff045
:100f94000a0e93fbfef10efb11303030632b02f18d
:100fa400ff3c02f8010c5ddc3031023a0cf8011c04
:100fb40004f152030df12f008242194655d3a1ebdf
:100fc400080805eb0803012d236102dc2268d00721
:100fd40001d501332361079b002b3ff45aaf2d2326
:100fe40084f8433055e7049bb8f1460f09eb030539
:100ff40010d199f80030302b0ad100220023dde90a
:10100400020101f0d7fd18b9049bc3f10103089351
:10101400089b1d4400220023dde9020101f0cafd02
:1010240000b10a950a9b9d428ed93022591c0a911f
:101034001a700a9b9d42f9d886e7baf1650f94d9d4
:10104400baf1660f29d1002a63681cdd226113b945
:101054002168c90702d5013313442361a2654ff007
:101064000008b8e762460b4693e712f8011b03f841
:10107400011ba1e73022134484f8522004f15401e7
:1010840084f853309be713b92168c80701d50233ac
:10109400e3e70123e1e74ff0670aaa4205db23688f
:1010a4002261d907dad5531cd7e7002ad4bfc2f18d
:1010b400020301232b44d0e723685a050ed4236985
:1010c4004a4659463046b84701302fd1ebe600bfb7
:1010d400ffffef7f98510000a0510000baf1650fa7
:1010e40040f2c98000220023d4e9120101f062fd1c
:1010f40088b30123884a59463046b84701303ff443
:10110400d2ae089bab4202db2368d8070ed5dde9db
:10111400052359463046b84701303ff4c4ae4ff07a
:101124000008013d04f11a09454509dc23689d07bf
:1011340000f1ed80e0680a9b9842b8bf1846b4e617
:1011440001234a4659463046b84701303ff4abae16
:1011540008f10108e8e7089b002b2adc01236e4a0a
:1011640059463046b84701303ff49dae089b2b43a7
:1011740002d12368d907d9d5dde90523594630467c
:10118400b84701303ff48fae4ff0000804f11a0a5b
:10119400089b5b42434501dc2b4691e70123524601
:1011a40059463046b84701303ff47dae08f1010896
:1011b400eee7a36dab42a8bf2b46002b984606dd95
:1011c4004a4659463046b84701303ff46cae0023d6
:1011d400029304f11a0328eae87804930ae001234d
:1011e400049a59463046b84701303ff45cae029b3e
:1011f40001330293d4f858a0029aaaeb080393424d
:10120400eddc089bab421adb2368da0717d4089b92
:101214009a451cdba5eb0a08b8f1000f08dd43462c
:1012240009eb0a0259463046b84701303ff43bae59
:101234004ff0000928eae87804f11a0a14e0dde91d
:10124400052359463046b8470130e0d12be6a5ebdb
:101254000308e1e70123524659463046b8470130b6
:101264003ff421ae09f10109089beb1aa3eb080333
:101274004b45efdc5ae7012d01dcdb0735d50123b3
:101284004a4659463046b84701303ff40caedde9d2
:10129400052359463046b84701303ff404ae0022d6
:1012a4000023d4e91201013d01f084fcc0b92b46ae
:1012b40009f1010259463046b84701300cd1f2e534
:1012c4000123524659463046b84701303ff4ebad4e
:1012d40009f101094d45f3dc434604f15002f0e6ff
:1012e4004ff0000904f11a0af4e701234a46e1e742
:1012f4000123424659463046b84701303ff4d3ad46
:101304000135e3680a9a9b1aab42f1dc12e7002527
:0c13140004f11908f5e700bfa851000023
:020000040000fa
:1013200070b54ff0ff0c4cf4e06c1cea11541dbf7b
:101330001cea135594ea0c0f95ea0c0f00f0def846
:101340002c4481ea030621ea4c5123ea4c5350ea2b
:10135000013518bf52ea033541f4801143f480137c
:1013600038d0a0fb02ce4ff00005e1fb02e506f00d
:101370000042e0fb03e54ff00006e1fb03569cf062
:10138000000f18bf4ef0010ea4f1ff04b6f5007f68
:1013900064f5407404d25fea4e0e6d4146eb0606da
:1013a00042eac62141ea55514feac52040ea5e5063
:1013b0004feace2eb4f1fd0c88bfbcf5e06f1ed80d
:1013c000bef1004f08bf5fea500e50f1000041eb44
:1013d000045170bd06f0004646ea010140ea0200f1
:1013e00081ea0301b4eb5c04c2bfd4eb0c0541ea13
:1013f000045170bd41f480114ff0000e013c00f328
:10140000ab8014f1360fdebf002001f0004170bd4b
:10141000c4f10004203c35da0c341bdc04f1140464
:10142000c4f1200500fa05f320fa04f001fa05f2f0
:1014300040ea020001f0004221f0004110ebd370bd
:1014400021fa04f642eb06015eea430e08bf20eae9
:10145000d37070bdc4f10c04c4f1200500fa04f38c
:1014600020fa05f001fa04f240ea020001f000411e
:1014700010ebd37041f100015eea430e08bf20ea91
:10148000d37070bdc4f1200500fa05f24eea020ed9
:1014900020fa04f301fa05f243ea020321fa04f008
:1014a00001f0004121fa04f220ea020000ebd370bf
:1014b0005eea430e08bf20ead37070bd94f0000fbf
:1014c0000fd101f00046400041eb010111f4801ff3
:1014d00008bf013cf7d041ea060195f0000f18bfa4
:1014e000704703f00046520043eb030313f4801fe0
:1014f00008bf013df7d043ea0603704794ea0c0f9a
:101500000cea135518bf95ea0c0f0cd050ea4106af
:1015100018bf52ea4306d1d181ea030101f000412c
:101520004ff0000070bd50ea410606bf1046194654
:1015300052ea430619d094ea0c0f02d150ea013660
:1015400013d195ea0c0f05d152ea03361cbf1046a1
:1015500019460ad181ea030101f0004141f0fe4140
:1015600041f470014ff0000070bd41f0fe4141f4c4
:10157000780170bd70b54ff0ff0c4cf4e06c1ceac4
:1015800011541dbf1cea135594ea0c0f95ea0c0f79
:1015900000f0a7f8a4eb050481ea030e52ea033534
:1015a0004fea013100f088804fea03334ff0805555
:1015b00045ea131343ea12634fea022245ea111582
:1015c00045ea10654fea00260ef000419d4208bf33
:1015d000964244f1fd0404f5407402d25b084feae0
:1015e0003202b61a65eb03055b084fea32024ff48c
:1015f00080104ff4002cb6eb020e75eb030e22bfe9
:10160000b61a754640ea0c005b084fea3202b6eba8
:10161000020e75eb030e22bfb61a754640ea5c0057
:101620005b084fea3202b6eb020e75eb030e22bfe7
:10163000b61a754640ea9c005b084fea3202b6ebe8
:10164000020e75eb030e22bfb61a754640eadc00a7
:1016500055ea060e18d04fea051545ea16754fea09
:1016600006164feac30343ea52734feac2025fea27
:101670001c1cc0d111f4801f0bd141ea00014ff0b6
:1016800000004ff0004cb6e711f4801f04bf014387
:101690000020b4f1fd0c88bfbcf5e06f3ff6afaea3
:1016a000b5eb030c04bfb6eb020c5fea500c50f133
:1016b000000041eb045170bd0ef0004e4eea1131b6
:1016c00014eb5c04c2bfd4eb0c0541ea045170bdbd
:1016d00041f480114ff0000e013c90e645ea060e01
:1016e0008de60cea135594ea0c0f08bf95ea0c0f2f
:1016f0003ff43baf94ea0c0f0ad150ea01347ff477
:1017000034af95ea0c0f7ff425af104619462ce74d
:1017100095ea0c0f06d152ea03353ff4fdae1046b0
:10172000194622e750ea410618bf52ea43067ff401
:10173000c5ae50ea41047ff40daf52ea43057ff491
:10174000ebae12e781f0004102e000bf83f00043fe
:1017500030b54fea41044fea430594ea050f08bf4c
:1017600090ea020f1fbf54ea000c55ea020c7fea10
:10177000645c7fea655c00f0e2804fea5454d4eb8d
:101780005555b8bf6d420cdd2c4480ea020281ea57
:10179000030382ea000083ea010180ea020281ea8f
:1017a0000303362d88bf30bd11f0004f4fea0131e1
:1017b0004ff4801c4cea113102d0404261eb4101f0
:1017c00013f0004f4fea03334cea133302d0524276
:1017d00063eb430394ea050f00f0a780a4f1010432
:1017e000d5f1200e0ddb02fa0efc22fa05f280186c
:1017f00041f1000103fa0ef2801843fa05f3594152
:101800000ee0a5f120050ef1200e012a03fa0efcd0
:1018100028bf4cf0020c43fa05f3c01851ebe371fa
:1018200001f0004507d54ff0000edcf1000c7eeb17
:1018300000006eeb0101b1f5801f1bd3b1f5001f55
:101840000cd349085fea30004fea3c0c04f1010474
:101850004fea445212f5800f80f09a80bcf1004f9d
:1018600008bf5fea500c50f1000041eb045141ea1f
:10187000050130bd5fea4c0c404141eb010111f420
:10188000801fa4f10104e9d191f0000f04bf0146cb
:101890000020b1fa81f308bf2033a3f10b03b3f1a9
:1018a00020020cda0c3208dd02f1140cc2f10c0239
:1018b00001fa0cf021fa02f10ce002f11402d8bf97
:1018c000c2f1200c01fa02f120fa0cfcdcbf41ea63
:1018d0000c019040e41aa2bf01eb0451294330bd32
:1018e0006fea04041f3c1cda0c340edc04f114040f
:1018f000c4f1200220fa04f001fa02f340ea0300e6
:1019000021fa04f345ea030130bdc4f10c04c4f12b
:10191000200220fa02f001fa04f340ea030029460b
:1019200030bd21fa04f0294630bd94f0000f83f455
:10193000801306bf81f480110134013d4ee77fea38
:10194000645c18bf7fea655c29d094ea050f08bf84
:1019500090ea020f05d054ea000c04bf1946104665
:1019600030bd91ea030f1ebf0021002030bd5feaa9
:10197000545c05d14000494128bf41f0004130bdd1
:1019800014f580043cbf01f5801130bd01f0004525
:1019900045f0fe4141f470014ff0000030bd7fea98
:1019a000645c1abf194610467fea655c1cbf0b4693
:1019b000024650ea013406bf52ea033591ea030faa
:1019c00041f4002130bd00bf90f0000f04bf0021a2
:1019d000704730b54ff4806404f132044ff00005d5
:1019e0004ff0000150e700bf90f0000f04bf00214e
:1019f000704730b54ff4806404f1320410f00045b4
:101a000048bf40424ff000013ee700bf42004feaae
:101a1000e2014fea31014fea02701fbf12f07f432b
:101a200093f07f4f81f06051704732f07f4208bfe2
:101a3000704793f07f4f04bf41f40021704730b5e9
:101a40004ff4607401f0004521f000411ce700bf35
:101a500050ea010208bf704730b54ff000050ae0b8
:101a600050ea010208bf704730b511f0004502d5b9
:101a7000404261eb41014ff4806404f132045feabb
:101a8000915c3ff4d8ae4ff003025feadc0c18bf64
:101a900003325feadc0c18bf033202ebdc02c2f156
:101aa000200300fa03fc20fa02f001fa03fe40eae8
:0c1ab0000e0021fa02f11444bde600bf54
:020000040000fa
:101abc005c0400201c00000000000000b0030020ab
:101acc002c0000000000000080030020300000000b
:101adc000000000004000020b00100000000000025
:101aec00a80400201000000000000000e804002002
:101afc0008000000000000003c0400201e00000054
:101b0c0000000000b80400201000000000000000dd
:101b1c00f00400200800000000000000c8040020b1
:101b2c0010000000000000009404002014000000cd
:101b3c0000000000780400201900000000000000e4
:101b4c00d80400201000000000000000f804002061
:101b5c000700000000000000000500200400000049
:101b6c0000000000dc03002020000000000000004a
:101b7c00fc03002020000000000000001c040020da
:101b8c0020000000000000000405002004000000fc
:101b9c000100000020030020200300206000000052
:101bac000100000000000000fc0300201c040020c9
:101bbc00dc0300200000000000000000000000001a
:101bcc000000000000000000000000000000000009
:101bdc0000000000000000000000000000000000f9
:101bec0000000000000000000000000000000000e9
:101bfc0000000000000000000000000000000000d9
:101c0c000000000008050020040000000000000097
:101c1c000c0500200400000000000000b4010020ae
:101c2c006c010000010000004300000000000000f7
:101c3c000000000000000000000000000000000098
:101c4c000000000000000000430000000000000045
:101c5c000000000000000000000000000000000078
:101c6c000000000000000000430000000000000025
:101c7c000000000000000000000000000000000058
:101c8c000000000000000000430000000000000005
:101c9c000000000000000000000000000000000038
:101cac0000000000000000004300000000000000e5
:101cbc000000000000000000000000000000000018
:101ccc0000000000000000004300000000000000c5
:101cdc0000000000000000000000000000000000f8
:101cec0000000000000000004300000000000000a5
:101cfc0000000000000000000000000000000000d8
:101d0c000000000000000000e1500000e94e00005f
:101d1c00000000002c2e000055530000545300000e
:101d2c00545300005453000054530000545300000b
:101d3c0054530000545300005453000054530000fb
:101d4c00ffffffffffffffffffffffffffff000095
:101d5c00010041534349490000000000000000000d
:101d6c000000000000000000000000000000000067
:101d7c0000004153434949000000000000000000ee
:101d8c000000000000000000000000000000000047
:101d9c000000000000000020040000000000000013
:101dac0010050020040000000000000000000000ee
:101dbc00000000002222222222222222222222227f
:020000040000fa
:101dcc002de9f04306460c4601f14300097e85b02f
:101ddc006e29984617460c9b00f0ba8024d86329cc
:101dec0039d00ad8002900f0c380582900f091801e
:101dfc0004f1420584f8421035e0642901d06929c8
:101e0c00f6d125681a6815f0800f02f104012cd068
:101e1c0012681960002a03da2d23524284f84330e9
:101e2c00dff8bcc10a233fe0732900f0a58008d875
:101e3c006f2921d07029dbd1226842f02002226068
:101e4c0003e0752918d07829d2d1782284f845205e
:101e5c00dff890c161e01a68111d1960136884f8ed
:101e6c00423004f14205012393e01268196015f029
:101e7c00400f18bf12b2cde7d4f800c01a681cf09e
:101e8c00800f02f104051d6001d0126803e01cf004
:101e9c00400ffad01288dff848c16f290cbf082315
:101eac000a23002184f843106568a560002da2bfa9
:101ebc00216821f0040121600ab9002d46d00546a5
:101ecc00b2fbf3f103fb112e93421cf80ee005f864
:101edc0001ed39d9082b0bd12368da0708d5236912
:101eec0062689a42debf302305f8013c05f1ff35ec
:101efc00401b2061cdf800803b4603aa21463046aa
:101f0c0001f090f8013049d14ff0ff3005b0bde839
:101f1c00f083dff8ccc084f845101d68216855f8b3
:101f2c00042b1d600d060bd5cd0744bf41f02001dd
:101f3c0021601ab9236823f0200323601023b0e733
:101f4c004b0648bf92b2efe70a46b9e70546c1e730
:101f5c001a68d4f800c06169151d1d601cf0800f53
:101f6c00136801d0196003e01cf0400ffad01980ff
:101f7c00002323610546bde71a68111d1960156819
:101f8c0062680021284601f0e5fc08b1401b606046
:101f9c0063682361002384f84330abe723692a4646
:101fac0039463046c0470130aed023689b0713d466
:101fbc00e068039b9842b8bf1846a7e701234a463e
:101fcc0039463046c04701309ed00135e368039a4c
:101fdc009b1aab42f2dcebe7002504f11909f5e79b
:081fec00544f0000654f000096
:020000040000fa
:101ff4002de9f04f0d469db014461e46074618b114
:1020040083690bb902f040f9704b9d425cd17d6845
:10201400ab891b0762d52b69002b5fd00023099382
:10202400dff8ac91039620238df8293030238df806
:102034002a304ff0ff3809f1060a23461e4613f8ea
:10204400012b0ab1252af9d1b6eb040b0bd05b4660
:1020540022462946384602f093fa013000f0b08057
:10206400099b5b4409933378002b00f0a98000237b
:10207400cde905830136049307938df853301a9301
:102084004ff0010b3446052214f8011b504801f0af
:1020940065fc049b68bbd80644bf20228df85320fe
:1020a400190744bf2b228df8532032782a2a28d0ce
:1020b400079a344600200a26214611f8013b303b9a
:1020c400092b60d918bb29e0424b9d4201d1bd6860
:1020d4009ee7414b9d4208bffd6899e72946384673
:1020e40001f01af8002899d04ff0ff301db0bde878
:1020f400f08fa0eb09000bfa00f018430490264679
:10210400c0e7039a111d12680391002a01db0792ac
:1021140004e0524243f002030792049323782e2be7
:102124000bd163782a2b33d1039b1a1d1b680392ae
:10213400002bb8bf43460234059303222178274875
:1021440001f00cfc40b14023a0eb0a0003fa00f0bc
:10215400049b03430134049314f8011b20488df8b5
:102164002810062201f0fafb03ab00932a461d4b0c
:1021740004a908b33846fef73bfe421c20d0099b55
:102184000344099359e706fb023201200c4693e706
:1021940000230134059319460a26204610f8012b22
:1021a400303a092a03d9002bc7d00591c5e706fbad
:1021b400012101230446f0e73846fff705fedce77a
:1021c400ab895b0690d4099890e700bffc0300201c
:1021d400cd5100001c040020dc030020d35100007a
:0821e400d75100008545000001
:020000040000fa
:1021ec002de9f04f1e468b891b069db007460d4608
:1021fc0014460ed50b6963b9402101f0a7fa28608b
:10220c00286120b90c233b604ff0ff30c3e0402322
:10221c006b6100230993dff88491039620238df8da
:10222c00293030238df82a304ff0ff3809f1060a97
:10223c0023461e4613f8012b0ab1252af9d1b6eb19
:10224c00040b0bd05b4622462946384601f0c8f9f0
:10225c00013000f09b80099b5b4409933378002b81
:10226c0000f094800023cde9058301360493079395
:10227c008df853301a934ff0010b3446052214f8a5
:10228c00011b464801f066fb049bc0b9d80644bf4d
:10229c0020228df85320190744bf2b228df8532090
:1022ac0032782a2a13d0079a344600200a2621466f
:1022bc0011f8013b303b092b4bd970b914e0a0eb62
:1022cc0009000bfa00f0184304902646d5e7039a50
:1022dc00111d12680391002a01db079204e052429f
:1022ec0043f002030792049323782e2b0bd16378cf
:1022fc002a2b33d1039b1a1d1b680392002bb8bfea
:10230c0043460234059303222178254801f022fb31
:10231c0040b14023a0eb0a0003fa00f0049b0343f6
:10232c000134049314f8011b1e488df82810062262
:10233c0001f010fb03ab00932a461b4b04a908b316
:10234c003846fef751fd421c20d0099b03440993eb
:10235c006ee706fb023201200c46a8e7002301348d
:10236c00059319460a26204610f8012b303a092a03
:10237c0003d9002bc7d00591c5e706fb012101232a
:10238c000446f0e73846fff71bfddce7ab895b063c
:10239c003ff53aaf09981db0bde8f08fbc51000075
:0c23ac00c2510000c6510000ed350000d9
:020000040000fa
:1023b800644b9a7d02b970475a8b910710b411d5b6
:1023c800614aff21022382f8201082f8213092f816
:1023d8002030ff2b15d092f82030062b25d05df841
:1023e800044b70475a8bd207ead45a8b12f0040177
:1023f800554a2cd0ff21012382f8201082f8213081
:10240800e5e700234f4982f820304b6843f4403316
:102418004b60cb69002bfcd1536a83200876002bd4
:10242800ddd0906a5df8044b1847464b00208324a2
:1024380082f82000194682f821001c764b8b03f0a5
:102448003003102bfad1536a002bead1c7e792f870
:10245800200040b203282ad004281ad00228b6d176
:1024680014699088002c31d08324c2e906111c76a7
:10247800596821f480215960d9690029fcd14000ac
:102488000424304982f820405862cb69002bfcd1e3
:102498009de79169106981423ad090684c1c405c74
:1024a800946119469862cb69002bfcd18fe751697a
:1024b800d0690139884220d02249cb69002bfcd150
:1024c800d368896a19540130d06180e78321c2e951
:1024d80006441976596821f480215960d969002980
:1024e800fcd1400040f001000324164982f8204046
:1024f8005862cb69002bfcd169e7596841f4e021a7
:102508005960d9690029fcd1062382f82030d3e725
:10251800516959b19188490041f001015962d9695d
:102528000029fcd1032382f8203050e7596841f490
:1025380040315960d9690029fcd1062382f820303e
:0c25480045e700bf00400141b003002047
:020000040000fa
:102554002de9f04f15460a692b699a420c46bcbf17
:102564002c460d46d4f81090d5f81080a368616805
:1025740009eb0807bb4285b0b8bf013101f050fe3a
:1025840000f1140606eb870e33460022734519d377
:1025940004f1140303eb890305f11402009302eb25
:1025a400880301934ff6ff75019b029293420cd866
:1025b400002f03dd5ef8043d002b5fd0076105b0fa
:1025c400bde8f08f43f8042be0e7136813ea050c29
:1025d40027d004f1140ab0464ff000095af8041b3e
:1025e40001ea05030393d8f8003003ea050b039bc3
:1025f4000cfb03b34fea114bd8f800104b444feadd
:1026040011490cfb0b9101eb13412b4043ea0143ad
:1026140048f8043b009b53454fea1149ded8c8f8fb
:102624000090029bb3f802900432b9f1000f23d05a
:10263400336804f11408b4464ff0000ad8f80010c7
:10264400bcf802b0294009fb01b18a442b4043ea9b
:102654000a434cf8043b58f8043bdcf800101b0c0c
:10266400294009fb0313009903eb1a4341454fea40
:10267400134ae3d8ccf80030043695e7013f97e7d6
:020000040000fa
:102684002de9f74f03690c69a3428046c0f28d809f
:10269400013c01f114074fea840c07eb0c0300f131
:1026a4001405009305eb0c03019357f8243055f8f7
:1026b400242001339a42b2fbf3f636d34ff0000ada
:1026c400be46a946d3464ff6ff705ef8042b02ead5
:1026d400000306fb03a34fea134a0340abeb0303d7
:1026e400120cd9f800b006fb02a213fa8bf34feade
:1026f400124a02ea000bd9f80020cbeb124202eb9b
:102704002342034043ea024349f8043b009b7345d8
:102714004fea224bd9d255f80c3033b9019b043b14
:102724009d421a4635d3c8f81040404602f074f969
:1027340000282adb013628464ff0000e4ff6ff7cb6
:1027440057f8042bd0f8009002ea0c03aeeb030315
:10275400120c13fa89f3c2eb194202eb234203ea87
:102764000c034fea224e43ea0242009b40f8042b3a
:10277400bb42e5d255f8242005eb84032ab9043b77
:102784009d421a460bd3c8f81040304603b0bde84a
:10279400f08f1268043b002ac5d1013cc0e71268df
:0e27a400043b002aefd1013ceae70020eee7fb
:020000040000fa
:0227b200fee740
:020000040000fa
:1027b40030b50378022b85b0044604d0032b21d016
:1027c4006bb305b030bd02f041fdf0b13a4d02f0fb
:1027d400d5fa0121681c01f0a7ffa01c374a052186
:1027e40001f090fa2b78002858d0042be9d0344a11
:1027f4003449a2f10c0051f8231002f0b7f9042374
:102804002b70dee702f01afd18bb012002f012fc67
:1028140001462a4805b0bde8304002f0d3ba264c40
:1028240002f0acfa601c012101f07eff2378012b39
:1028340009d0254a234902f1140051f8231002f06b
:1028440095f9012323701d4805b0bde8304002f01e
:102854000dbca07961792279e378cde90210cde944
:1028640000321921a378194a1948134c01f0a2fc2b
:10287400174802f0fbfc114a0146154801f074ffa9
:102884002378012b9dd0104a0e4902f1140051f80f
:10289400231002f06bf90123237092e7032b90d0ed
:1028a4000c4a0849a2f1200051f8231002f05ef905
:1028b40003232b7085e700bff8040020d804002010
:1028c400c436000084510000a43600000037000024
:0828d40078040020d836000052
:020000040000fa
:1028dc00454b9a7d002a7ed01a7e997d70b50e06e6
:1028ec00d2b260d4404b1a7e997dc807d2b22ed595
:1028fc00d1072cd53d48027d4ab381681a7e4468c5
:10290c00d20717d5a14215d2056801e08c4210d927
:10291c005a6802f00702012a826802f1010114bf11
:10292c00aa5c35f8122081609a6281681a7ed607fb
:10293c00ecd4446883689c4209d82b49c2680023b4
:10294c000124037543600c750ab100699047264a4f
:10295c00137e917d4907dbb23cd55b073ad5234802
:10296c0090f82c30002b35d0016ac369994231d2d2
:10297c00946a5268816902f00702012a026a2ed019
:10298c00551c8c540562026a934223d11649426a43
:10299c000023842480f82c30c3610c75d2b1806a7a
:1029ac00bde87040104715069cd55a8b12f00702f3
:1029bc0098d00e48c2855b8b5c070dd10a49436adf
:1029cc00842400220c7580f82c20002b8ad0806a7d
:1029dc00984787e770bd704702f0d8faeee721f808
:1029ec00124001320262cee7002001418003002038
:020000040000fa
:1029fc0038b503780446042b25d8dfe803f003151b
:102a0c0048582e0002f0ccfc05464ff47a7002f0c8
:102a1c000dfb0146284602f0bffc344b60601a786f
:102a2c00012a1cbf01221a7002f00cfc60b12f4c61
:102a3c002f49601c01f03afa2378002832d1022b7e
:102a4c0001d00223237038bd012002f0effabde85b
:102a5c0038400146264802f0b1b9244b254a4ff4c0
:102a6c008021c2f81c111a7841682148012a1cbf28
:102a7c0001221a7002f09efc4ff47a70656802f025
:102a8c00d5fa0146284602f087fc606038bd02f09a
:102a9c00d9fb0028d8d0154c1549607801f0e4f822
:102aac002378f0b1052bced00523237038bd02f06e
:102abc00c1fb0028c8d00d4c0f4994f901200f48d8
:102acc0001f0ecfd23780d48042b1cbf042323706c
:102adc0002f0c8fb064a0146bde83840074801f041
:102aec003fbe032bafd00323237038bdf00400206e
:102afc00b804002000800041705100003c0400200c
:020000040000fa
:102b0c004ff0ff3c06e000bf4ff0010c02e000bfad
:102b1c004ff0010c4df804cd4fea410c7fea6c5c90
:102b2c004fea430c18bf7fea6c5c1bd001b050ea33
:102b3c00410c0cbf52ea430c91ea030f02bf90ea1e
:102b4c00020f0020704710f1000f91ea030f58bfdd
:102b5c00994208bf90422cbfd8176feae37040f03f
:102b6c00010070474fea410c7fea6c5c02d150eadd
:102b7c00013c07d14fea430c7fea6c5cd6d152ea98
:102b8c00033cd3d05df8040b704700bf844610465d
:102b9c0062468c461946634600e000bf01b5fff75c
:102bac00b7ff002848bf10f1000f01bd4df808ed2c
:102bbc00fff7f4ff0cbf012000205df808fb00bffd
:102bcc004df808edfff7eaff34bf012000205df857
:102bdc0008fb00bf4df808edfff7e0ff94bf0120a4
:102bec0000205df808fb00bf4df808edfff7ceffa5
:102bfc0094bf012000205df808fb00bf4df808ede4
:102c0c00fff7c4ff34bf012000205df808fb00bfb4
:020000040000fa
:102c1c008a892de9f041054610070c4658d44b68bb
:102c2c00002b05dc0b6c002b02dc0020bde8f081d6
:102c3c00e66a002ef9d0002312f480522f682b6024
:102c4c0032d0606da3895a0705d56368c01a636bcf
:102c5c000bb1236cc01a00230246e66a216a28468f
:102c6c00b047431ca38906d129681d292cd82a4ab0
:102c7c00ca40d60728d500226260d9042269226096
:102c8c0004d5421c01d12b6803b96065616b2f60c0
:102c9c000029cad004f14403994202d0284600f01e
:102cac0095ff00206063c1e7216a01232846b047e5
:102cbc00411cc7d12b68002bc4d01d2b01d0162b67
:102ccc0001d12f60b1e7a38943f04003a381ade7a5
:102cdc000f69002fa9d093070e6808bf4b690f60ce
:102cec0018bf0023a6eb07088b60b8f1000f9cdd22
:102cfc0043463a46216aa66a2846b047002806dcb5
:102d0c00a38943f04003a3814ff0ff308ee70744c3
:0c2d1c00a8eb0008e9e700bf0100402020
:020000040000fa
:102d2800002856d0026800294bd007ee901ab1eb64
:102d3800420ff8ee676a4ad3334b9a4247d807eef8
:102d4800902af8eee77a9fed316a314986eea77a44
:102d58008a4210b4f2ee047ae6ee867a77ee677a63
:102d6800fceee77a17ee903a34d8b3f5ff7f39d8fe
:102d7800012b47d95808274b25491c688a4224f05b
:102d880002041c6094bf00210121da69002afcd1e9
:102d9800d86018681f4a20f0407040ea0161196045
:102da800196841f002011960d369002bfcd1102386
:102db80018495383cb69002bfcd101205df8044be3
:102dc80070471549dfed156ab1eb420fb4d2002008
:102dd80070477047b3f5bf7f06d2032b07d840f280
:102de8000120c8e7ff20c6e74ff67f70c3e70c490c
:102df8005800a1fb0040a1fb031340085b0843ea0d
:102e08000020b8e70120b6e740420f0095bfd6334f
:102e1800801a06000040014100879303c0e1644c1a
:042e2800abaaaaaafd
:020000040000fa
:102e2c00002020202020202020202828282828208e
:102e3c002020202020202020202020202020202086
:102e4c0020881010101010101010101010101010ee
:102e5c0010040404040404040404041010101010de
:102e6c0010104141414141410101010101010101a8
:102e7c0001010101010101010101010110101010fa
:102e8c00101042424242424202020202020202027a
:102e9c0002020202020202020202020210101010ce
:102eac0020000000000000000000000000000000f6
:102ebc000000000000000000000000000000000006
:102ecc0000000000000000000000000000000000f6
:102edc0000000000000000000000000000000000e6
:102eec0000000000000000000000000000000000d6
:102efc0000000000000000000000000000000000c6
:102f0c0000000000000000000000000000000000b5
:102f1c0000000000000000000000000000000000a5
:012f2c0000a4
:020000040000fa
:102f30004932435f5441534b5f53544154455f49b9
:102f4000444c45000a2573203d3e202573000000b7
:102f50004932435f5441534b5f53544154455f5290
:102f6000454144494e475f54454d504552415455a3
:102f7000524500004932435f5441534b5f53544123
:102f800054455f57524954494e475f454550524f4b
:102f90004d0000004932435f5441534b5f5354414d
:102fa00054455f52454144494e475f454550524f55
:102fb0004d0000004932435f5441534b5f5354412d
:102fc00054455f4449445f524541445f54454d5028
:102fd00045524154555245004932435f5441534b89
:102fe0005f53544154455f4449445f5752495445e7
:102ff0005f454550524f4d004932435f5441534b5a
:103000005f53544154455f4449445f524541445fd6
:10301000454550524f4d00004932435f5441534b98
:103020005f53544154455f4552524f52000000bf18
:020000040000fa
:103030002de9f04791461f468a680b69ddf820802c
:103040009342b8bf1346c9f8003091f843200646b2
:103050000c4612b10133c9f800302368990642bf0b
:10306000d9f800300233c9f80030256815f006059c
:1030700007d104f1190ae368d9f800209b1aab4282
:1030800028dc94f843302268003318bf01239206ed
:103090002dd404f1430239463046c047013020d0d8
:1030a0002368e568d9f8002003f00603042b08bf65
:1030b000ad1aa36822690cbf25eae5750025934285
:1030c000c4bf9b1aed184ff000091a344d451ad1b0
:1030d000002008e00123524639463046c0470130ff
:1030e00003d14ff0ff30bde8f0870135c3e7e118a9
:1030f0005a1c302081f84300224494f8451082f88d
:1031000043100233c5e70123224639463046c04703
:0a3110000130e6d009f10109d8e70b
:020000040000fa
:02311a007047fc
:020000040000fa
:10311c00324b70b51d6806460c4625b1ab6913b928
:10312c00284601f0adf82e4b9c420fd16c68b4f9d7
:10313c000c309ab215072cd4d00611d40922326067
:10314c0043f04003a3814ff0ff303ee0254b9c42ff
:10315c0001d1ac68ebe7244b9c4208bfec68e6e776
:10316c00510712d5616b41b104f14403994202d06d
:10317c00304600f02bfd00236363a38923f0240366
:10318c00a3810023636023692360a38943f00803b0
:10319c00a38123694bb9a38903f42073b3f5007f92
:1031ac0003d02146304600f03bfea28912f0010309
:1031bc000cd00023a36063695b42a361236953b9fc
:1031cc00b4f90c3013f08000bad170bd920758bf1f
:1031dc006369a360f2e70020f7e700bf0405002055
:0c31ec00fc0300201c040020dc03002079
:020000040000fa
:1031f8002c4a42f20e239382d368d807fcd52a4b77
:103208002a49052010741a4699625368d906fcd4d5
:1032180042232549c2f88430d1f884305a06fbd5b8
:10322800234b002277219a631a465963d36b5b07b5
:10323800fcd402231e4982f83030cb6b9807fcd4ab
:103248001b4a136c03f00303032bfad1194a012319
:103258005371d378d907fcd5134a174b13625368b7
:103268005b07fcd4154b104953624b681807fcd414
:1032780041230d4ac1f8dc30d2f8dc305906fbd5c1
:1032880041230949c2f8e030d1f8e0305b06fbd5ac
:10329800084b0b4a6ff07f4040f2ff71186159618b
:1032a8009a61704700140040001c0040060130007d
:1032b800001000400008004007010100070102005b
:0432c8005686010025
:020000040000fa
:1032cc002de9f84f0e46814602f072f810b1052038
:1032dc00bde8f88fdff8b480d8f88071002f4edd90
:1032ec007d1e05eb450408eb8404183407e03046da
:1032fc0001f0eaffb0b92f460c3c9db1013d2046d0
:10330c0002f052f801468246304601f0e3ffa34634
:10331c0051460028ebd04946584601f03dfd0020af
:10332c00bde8f88fd8f880211d2a26d007eb470b73
:10333c00d21b08eb8b0b002a0bf1180b0bdd0137a2
:10334c0007eb470708eb870002eb420218309200ac
:10335c00594601f043fb584601f0ceff3146584622
:10336c0002f020f8d8f88031494601335846c8f8a5
:10337c00803101f011fd0020d2e70320a8e707eb14
:10338c00470708eb870b0bf1180be4e70400002050
:020000040000fa
:10339c002de9f84f0d46074611462846144601f014
:1033ac0037fb061e08d13146384600f035ff0123a5
:1033bc00c0e90436bde8f88fa4bf23462c46384636
:1033cc006168a6bf1d460026012600f025ff2b696b
:1033dc002769c66004f1140205f1140602eb870894
:1033ec0006eb830e00f114054ff0000a4ff6ff793f
:1033fc0052f804bb56f8043b1afa8bfa03ea09019b
:10340c001b0caaeb0101c3eb1b4303eb214301eaa9
:10341c0009014fea234ab64541ea0343944645f86d
:10342c00043be5d84ff6ff74c44504d355f8043d6e
:10343c0083b10761bee75cf8041b1afa81f31a1416
:10344c0002eb1142234043ea02434fea224a45f879
:08345c00043be9e7013fe9e749
:020000040000fa
:04346400002070478d
:020000040000fa
:10346800000000000000f03f0000000000002440c1
:1034780000000000000059400000000000408f409c
:10348800000000000088c34000000000006af84007
:103498000000000080842e4100000000d01263412b
:1034a8000000000084d797410000000065cdcd41a1
:1034b800000000205fa00242000000e87648374282
:1034c800000000a2941a6d42000040e59c30a24220
:1034d8000000901ec4bcd64200003426f56b0c4395
:1034e8000080e03779c3414300a0d885573476433c
:1034f80000c84e676dc1ab43003d9160e458e1439d
:10350800408cb5781daf154450efe2d6e41a4b4411
:1035180092d54d06cff08044f64ae1c7022db54456
:08352800b49dd9794378ea440f
:020000040000fa
:10353000f8b50e461446054618b183690bb900f07c
:10354000a5fe274b9c4230d16c68a369a360a38978
:10355000190734d52369002b31d0b4f90c30f6b2f9
:103560009a04374634d523692068c01a63698342b8
:1035700004dc2146284600f067ff30bba368013b0e
:10358000a36023685a1c22601e7063690130834265
:1035900004d0a389db0706d50a2e04d1214628468c
:1035a00000f052ff88b93846f8bd0e4b9c4201d15d
:1035b000ac68cae70c4b9c4208bfec68c5e72146e3
:1035c0002846fff7abfd0028c7d04ff0ff37eae7ea
:1035d00043f40053a381236e23f400532366c2e710
:0c35e000fc0300201c040020dc03002081
:020000040000fa
:1035ec002de9f0478e689e4282460c4691469846dd
:1035fc0038d8b1f80cc01cf4906f31d062692568d2
:10360c00096902eb42026f1a02ebd27201335510b8
:10361c003b449d4238bf1d461cf4806f30d0294678
:10362c0000f094f8064650b90c23caf80030a38970
:10363c0043f04003a3814ff0ff30bde8f0873a46da
:10364c00216901f01dfda38923f4906343f08003ed
:10365c00a381266165613e44ed1b2660a56046464c
:10366c00464500d9464632464946206801f0b6f92f
:10367c00a3689b1ba36023681e4426600020dce724
:10368c002a4600f053ff06460028e2d12169504635
:06369c0000f09cfac8e7f3
:020000040000fa
:0236a20070476f
:020000040000fa
:1036a40055495f5441534b5f53544154455f49441a
:1036b4004c4500000a2573203d3e20257300000080
:1036c40055495f5441534b5f53544154455f4552f0
:1036d400524f520055495f5441534b5f5354415428
:1036e400455f41574149545f5052494e5445525fda
:1036f400415641494c41424c450000000a45455061
:10370400524f4d3a253032647c253032647c25306a
:1037140032647c253032647c253032647c000000c5
:1037240055495f5441534b5f53544154455f494e8f
:103734004954000055495f5441534b5f4157414937
:10374400545f454550524f4d5f415641494c4142ab
:043754004c450000e0
:020000040000fa
:10375800f8b5cd1c25f0030508350c2d38bf0c2510
:10376800002d064601dba94203d90c233360002053
:10377800f8bdfff792ff21490a6814469cb9204f0b
:103788003b6823b92146304601f022fc38602946bf
:10379800304601f01dfc431c23d10c233360304616
:1037a80000f0d9f8e3e723685b1b17d40b2b03d988
:1037b80023601c44256004e06368a2420cbf0b60d0
:1037c8005360304600f0c7f804f10b00231d20f0c9
:1037d8000700c21accd01b1aa350c9e72246646856
:1037e800cce7c41c24f00304a042e3d0211a3046dd
:1037f80001f0eefb0130ddd1cfe700bf0805002066
:043808000c0500208b
:020000040000fa
:10380c00f0b5294c83b02369984704f5d275074667
:10381c0006e02369019e984701463046fff750fdac
:10382c0001a9284601f026f90028f2d0d4f880012d
:10383c0000282cdd013800eb400004eb8000183030
:10384c0001f0b2fd394601f04bfd00bbd4f88051bc
:10385c00002d0bdd013d05eb450304eb8303183311
:10386c0093e8070084e80700c4f880510e4e002549
:10387c0004e00021e36001f045fde560304601f015
:10388c00c1fc03460028f4d1002003b0f0bd6069f0
:10389c0028b1002101f036fd002003b0f0bd00bfbf
:0c38ac00002003b0f0bd00bf04000020ad
:020000040000fa
:1038b8002de9f0470c464fea621a236949680aeb7a
:1038c8000309a3680746164609f10105ab4233db35
:1038d800384600f0a3fc0023804600f1140100f1f3
:1038e8001002184653452adb20692aeaea7a04f1cd
:1038f800140316f01f0201eb8a0103eb800c22d09f
:10390800c2f1200e00201e689640304341f8040b97
:1039180053f8040b9c4520fa0ef0f4d8086008b15f
:1039280009f10205013d3846c8f81050214601f05a
:103938004af94046bde8f08701315b00c6e742f826
:10394800040f0133cee7043953f8042b41f8042f50
:063958009c45f9d8e6e7ea
:020000040000fa
:02395e007047b0
:020000040000fa
:1039600001f0ff01102a2bdb10f0070f08d010f830
:10397000013b013a8b422dd010f0070f42b3f6d134
:10398000f0b441ea012141ea014122f007047ff04d
:1039900000070023f0e80256083c85ea010586eaa4
:1039a000010685fa47f5a3fa87f586fa47f6a5fae0
:1039b00087f68eb9eed1f0bc01f0ff0102f00702ec
:1039c00032b110f8013b013a83ea010313b1f8d197
:1039d0000020704701387047002d06bf3546033878
:1039e000073815f0010f07d1013015f4807f02bfb1
:1039f000013015f4c03f0130f0bc0138704700bf02
:020000040000fa
:103a00002de9f74359ec108b0e4640f2ff7401216b
:103a1000154600f007fcc9f3130314ea195418bf44
:103a200043f480130193b8f10003074623d068469e
:103a3000009300f05bfc0099d8b1019ac0f120031b
:103a400002fa03f30b43c2407b610192019bbb610d
:103a5000002b14bf022101213961acb1a4f233441f
:103a600004443460c0f135002860384603b0bde836
:103a7000f0837961eae701a800f038fc019b7b61e3
:103a8000012139612030e8e707eb8103a0f23240e1
:0e3a90003060186900f08afec0eb4110e4e7d8
:020000040000fa
:103aa0000378042b04d0062b02d0022b02d07047df
:103ab00000f0f8be10b51d4bda7818799c6840ea22
:103ac000022000b2002822dbc011fdf78dff184b49
:103ad0000022fdf725fc00f0e1fc03b207ee103aee
:103ae000b8eec77af2ee027a27ee277af1ee046a90
:103af000c7ee267a9fed0f7a77ee877afdeee77aaa
:103b000017ee903a2370bde8104000f0cbbe404263
:103b100040f3c810fdf768ff074b0022fdf700fcdb
:103b200000f0bcfc03b207ee103ad9e79404002081
:0c3b30000000e03f000000420000e0bf89
:020000040000fa
:103b3c002de9f843154612f0030206460f4607d04e
:103b4c00013a214c002354f8222000f078fa074661
:103b5c00ad1035d0746a3cb9102001f08bfbc0e974
:103b6c00014470620460c460d6f82480d8f8084020
:103b7c004cb940f27121304601f011fb0023c8f81a
:103b8c000800044603604ff00008eb070ad53946dd
:103b9c0022463046fef7d8fc39468146304601f0c5
:103bac0010f84f466d100bd0206838b922462146cc
:103bbc003046fef7c9fc2060c0f800800446e4e7fc
:0c3bcc003846bde8f88300bf3453000009
:020000040000fa
:103bd80038b50546002945d051f8043c0c1f002b88
:103be800b8bfe418fff759fd1f4a1368104633b9e8
:103bf800636014602846bde83840fff7acbea342b6
:103c08000cd921686218934204bf1a685b68636024
:103c180004bf521822600460ece713465a680ab1e0
:103c2800a242fad919685818a0420bd12068014459
:103c3800581882421960ddd1106852685a600144f0
:103c48001960d7e702d90c232b60d3e72068211825
:103c58008a4204bf11685268626004bf0918216073
:0c3c68005c60c7e738bd00bf0805002005
:020000040000fa
:103c7400f0b51e4d2c7883b01cb10124204603b04e
:103c8400f0bd0e4607461a4b0193214601a8fff7e3
:103c940049f830b32b782a7baf70032b2e616a70fe
:103ca40009d0144a1449a2f1300051f8231000f04d
:103cb4005dff03232b7002221049572000f044febd
:103cc40078b12b7b0133dbb2052b08bf00232b73a8
:103cd40001f06afb01460a4801f070fb204603b07c
:103ce400f0bd0224204603b0f0bd00bf94040020c0
:103cf400801a0600742f0000b84f000095040020bd
:043d0400c8040020cf
:020000040000fa
:103d08002de9f0411d4d2c7884b024b101242046c2
:103d180004b0bde8f0810f460646194b03932146cf
:103d280003a89046fef7fcffc0b12b78c5f81080b9
:103d3800052b09d0134a1449a2f1500051f8231059
:103d480000f012ff05232b7000206870009733469f
:103d580001220e49572000f00ffe20b90224204608
:103d680004b0bde8f08101f01dfb0146084801f0f0
:103d780023fb204604b0bde8f08100bf9404002076
:103d8800801a0600942f0000b84f00009504002008
:043d9800c80400203b
:020000040000fa
:103d9c0008b51b4b98471b4b9847eff3108172b635
:103dac00194ad2f8883043f47003c2f88830bff354
:103dbc004f8fbff36f8f01b962b6144c2023636031
:103dcc0000f0b8f8124b23f07f030f4a9360114bad
:103ddc009847a36823f00103a3602346da6812f026
:103dec00010ffbd1094b5a6842f004025a600122c0
:103dfc009a60094b9847094b984701f00bfafee77c
:103e0c001b3100001b31000000ed00e000600041a0
:103e1c0000000000d14500001b3100001b310000e8
:020000040000fa
:103e2c008b8973b59d0706460c4607d501f14703f0
:103e3c000b600b6101234b6102b070bd01ab6a4694
:103e4c0000f008fc009905463046fff77ffc78b976
:103e5c00b4f90c309a05efd423f0030343f00203ba
:103e6c00a38104f147032360236101236361e3e72a
:103e7c000d4bb362a389206043f08003a381009ba8
:103e8c006361019b20615bb1b4f90e10304601f007
:103e9c00bdf828b1a38923f0030343f00103a381e8
:0c3eac00a3891d43a581c7e71d5300003a
:020000040000fa
:103eb800f0b51c4d2c7885b01cb10124204605b006
:103ec800f0bd0e460746184b0393214603a8fef79c
:103ed80027ff18b90224204605b0f0bd022300933d
:103ee8000122eb1c0df10b014f208df80b4000f067
:103ef80043fd0028eed02b78af60012b2e6109d04e
:103f08000a4a0b49a2f10c0051f8231000f02cfecc
:103f180001232b7001f046fa0146064801f04cfadd
:103f2800cce700bf94040020a0860100502f0000b9
:083f3800b84f0000c80400208e
:020000040000fa
:103f40001e4b1f4a9342f0b438bf002103d203f83e
:103f5000011b9342fbd11b4ad2e9000150ea010345
:103f60004ff0000610d09468034602f10c076cb9bc
:103f700021b1014403f8016b9942fbd13a46d2e9e1
:103f8000000150ea0103eed1f0bc704759b101f1d4
:103f90000c030c38801a1a443b461c1813f8015bba
:103fa00025709342f9d111f0030318bf012303ebed
:103fb000910107eb81073a46e1e700bf00000020ce
:083fc00004000020bc1a0000ff
:020000040000fa
:103fc8002de9f74380460e46144601f0a9f9012869
:103fd8000ed1731efe2b0bd88df804600546002702
:103fe8000df10409af4213d1304603b0bde8f083a8
:103ff800324604f1580301a9404600f053fe421c22
:104008000546ecd1a38943f04003a3810646ebe7bc
:10401800a36817f80910013b002ba36004daa26912
:10402800934207db0a2905d023685a1c22601970bd
:104038000137d7e722464046fff776fa431cf7d107
:02404800e4e7ab
:020000040000fa
:10404a002de9f0410d691f4606460c4601f1140c94
:10405a0000234ff6ff7edcf8000000ea0e0102fba7
:10406a0001710f0c000c02fb007001ea0e01013312
:10407a0001eb00419d424fea10474cf8041beadc71
:10408a00d7b1a368ab4212dc61683046013100f057
:10409a00c4f82269023204f10c01804692000c3005
:1040aa0000f0efff2146304600f08cfd444604eb59
:0e40ba00850301355f6125612046bde8f08178
:020000040000fa
:1040c8001b4ad3684ff6ff010b4043f0bf6343f42c
:1040d8000033d360bff35f8f62b6164be02283f8dc
:1040e80036234ff48001596083f837234ff40001d9
:1040f800596083f838234ff08071596083f8392369
:104108004ff00071596083f83a234ff0806159608d
:1041180083f83b234ff00061596083f83c234ff04c
:104128008051596083f83d234ff000525a60704720
:0841380000ed00e000e100e0f1
:020000040000fa
:10414000f8b51b4b1e68b369074613b9304600f03b
:104150009df84836d6e90134013b03d53368dbb11d
:104160003668f7e7b4f90c50a5b9124b2566c4e9d7
:104170000055a560c4e90335c4e905550822294660
:1041800004f1580001f06cf8c4e90d55c4e912556a
:104190002046f8bd6434dfe70421384600f070fda6
:1041a000044630600028dbd10c233b60f0e700bf01
:0841b000c85300000100ffffed
:020000040000fa
:1041b8000cb430b5184b0c1e9bb01d6808da8b2365
:1041c8002b604ff0ff301bb0bde8304002b07047a5
:1041d8004ff40273adf8103014bf04f1ff332346d7
:1041e800039306934ff6ff73adf812300023019046
:1041f800059019931e9a1fab01a928460093fdf755
:10420800f1ff431cbcbf8b232b60002cdbd0019b30
:0c42180000221a70d7e700bf0405002048
:020000040000fa
:1042240070b5456a04460e463db9102001f026f8e3
:10423400c0e9015560620560c560656aeb6883b1d9
:10424400636adb6853f82600b8b9012101fa06f560
:104254006a1d9200204600f033ff60b1c0e9016599
:104264000ee021220421204600f02aff636ae86060
:10427400db68002be4d1002070bd026843f82620df
:084284000023c0e90333f7e752
:020000040000fa
:10428c00836910b5044633bbc0e912330365124b86
:10429c00124a1b688262984204bf01238361fff7b4
:1042ac0049ff60602046fff745ffa0602046fff7fe
:1042bc0041ff0022e0600421606800f0a7f90122b0
:1042cc000921a06800f0a2f902221221e06800f096
:1042dc009df90123a36110bdc85300001d530000bc
:020000040000fa
:1042ec00036813f0070201460bd0da0724d49907b0
:1042fc004bbf5b089b08036003604cbf012002208e
:10430c00704798b2b0b91b0c102013f0ff0f04bf0c
:10431c001b0a08301a0704bf1b0904309a0704bf94
:10432c009b080230da0703d45b0800f1010005d0ca
:10433c000b6070471046e8e700207047202070475c
:020000040000fa
:10434c00114a01231360d369002bfcd14ff4807305
:10435c000d495360cb69002bfcd1ff220b4b0a4853
:10436c00ca600b60c369002bfcd11023064a43833f
:10437c00d369002bfcd10649832081f8213081f8c8
:10438c0020309075704700bf0040014116001000ae
:04439c00b00300204a
:020000040000fa
:1043a000114b124a1a604ff440314ff622029a81a3
:1043b0001a465960d369002bfcd113680a4943f0af
:1043c00002031360cb69002bfcd1094a136293618d
:1043d00082f82c30d361936053621375c2e90033c5
:1043e000d360d385704700bf002001410401104015
:0443f0008003002026
:020000040000fa
:1043f40018b330b4114d2a7d02f0ff03d2b9012263
:10440400c5e900012a750e4c0be099420cd0626894
:1044140002f00702012a14bfc25c30f81320a26222
:104424000133227ed207f0d4054aab600120907597
:1044340030bc7047002030bc7047704780030020b8
:044444000020014112
:020000040000fa
:1044480038b50b6905460c46dbb118b183690bb961
:10445800fff718ff0c4b9c4209d16c68b4f90c307b
:104468007bb121462846bde83840fef7d3bb074b51
:104478009c4201d1ac68f1e7054b9c4208bfec684f
:10448800ece7002038bd00bffc0300201c0400201e
:04449800dc03002021
:020000040000fa
:10449c004fea410212f5001215d211d56ff4787360
:1044ac00b3eb625212d94feac12343f0004343ea03
:1044bc00505311f0004f23fa02f018bf40427047de
:1044cc004ff00000704750ea013005d111f0004068
:1044dc0008bf6ff0004070474ff00000704700bffe
:020000040000fa
:1044ec00104a832330b4137653680f4c23f4802383
:1044fc0000255360c4e90655d369002bfcd140005c
:10450c0059b1032340f0010084f82030054a506271
:10451c00d369002bfcd130bc7047042384f82030c5
:0c452c00f4e700bf00400141b003002094
:020000040000fa
:10453800f8b5074614460e4621b91146bde8f840bd
:10454800fff706b922b9fff743fb25462846f8bd11
:1045580000f09afea0420fd221463846fff7f8f83d
:1045680005460028f2d03146224600f08bfd314640
:0c4578003846fff72dfbe9e73546e7e782
:020000040000fa
:10458400f8b50e46096e8904074614460bd4d518af
:10459400ac420dd0324614f8011b384600f0fefa46
:1045a4000130f5d10ee023f00303d518ac4201d15c
:1045b400002009e0324654f8041b384600f072fd2e
:0a45c4000130f3d14ff0ff30f8bdd5
:020000040000fa
:1045d00070b50d4d0d4c641ba4100026a64209d1e8
:1045e0000b4d0c4cfbf73efe641ba4100026a642ac
:1045f00005d170bd55f8043b98470136eee755f8f4
:10460000043b98470136f2e7700200007002000098
:084610007002000074020000ba
:020000040000fa
:10461800002310b50446c0e9003383608181036636
:10462800c281c0e90433836119460822583000f07a
:1046380013fe054b6362054ba362054be362054b12
:104648002462236310bd00bf774f000015490000a6
:084658007d4e000069530000d3
:020000040000fa
:1046600070b50e46b1f90e10002990b014461d46e3
:1046700007da00232b60b3891a0610d44ff4806345
:104680000ee001aa00f054fc0028f2db029a02f4ca
:104690007042a2f500535a425a412a60eee7402385
:0846a0000020236010b070bd82
:020000040000fa
:1046a8000eb410b59bb01dab019005906ff00041a2
:1046b8000a48069103910a4953f8042b04910024ef
:1046c80001a9006800931994fdf78cfd019b1c70eb
:1046d8001bb0bde8104003b0704700bf04050020c0
:0446e8000802ffffc6
:020000040000fa
:1046ec0010b5054c237833b9044b13b10448aff320
:1046fc0000800123237010bd5c040020000000002a
:10470c000000000008b5034b1bb103490348aff38d
:10471c00008008bd000000006004002000000000c4
:020000040000fa
:10472c00c8b138b50c4c94f82c3093b90b4b5b8b4f
:10473c005b070d4601d000f029fc084aa06100235c
:10474c00012084212362e56184f82c00e3859175b6
:10475c0038bd002038bd7047800300200020014187
:020000040000fa
:10476c0070b50d4d2c78a4b91646fff73dfe68b117
:10477c002b786e60012b1cbf01232b7000f010fef8
:10478c000146064800f016fe204670bd0124204666
:10479c0070bd0224204670bde8040020a80400204f
:020000040000fa
:1047ac00020c12040346cab90304102013f07f4f05
:1047bc0004bf1b02083013f0704f04bf1b01043000
:1047cc0013f0404f04bf9b000230002b05db13f0ad
:1047dc00804f00f1010008bf202070470020e5e762
:020000040000fa
:1047ec0070b5b9b115460ab1022801d9284670bd79
:1047fc000a4b2bb108461146aff30080284670bd1a
:10480c000c468e1814f8010b00f0b4fdb442f9d12b
:10481c00284670bd0d46284670bd00bf0000000044
:020000040000fa
:10482c0030b40d4b0122222533244ff4802100207b
:10483c0083f8562083f8572083f83b5083f8d82010
:10484c0083f8d92083f8bc40c3f80011c3f81011c9
:0c485c0083f8520130bc7047008000411e
:020000040000fa
:104868002de9f8438046894600f14804002614b92a
:104878003046bde8f883d4e90175013f01d52468c5
:10488800f5e7ab89012b07d9b5f90e30013303d011
:0c48980029464046c84706436435eee759
:020000040000fa
:1048a40010b50a4c23784bb1094a0a4902f11400a5
:1048b40051f8231000f05af900232370206920b125
:1048c4000021bde8104000f021bd10bd940400207b
:0848d400302f0000b84f000076
:020000040000fa
:1048dc0038b5094c094d0a48002100f0effc22467e
:1048ec002846084900f028fc002328462370bde820
:1048fc00384000f0b7bb00bff8040020d8040020fb
:08490c00594e0000b527000020
:020000040000fa
:104914002de9f0411f468b89db0505460c461646fa
:1049240005d502230022b1f90e1000f0c9faa389bb
:10493400b4f90e1023f48053a38132463b46284633
:08494400bde8f04100f0aaba41
:020000040000fa
:10494c0070b50b4c94f820305bb20bb1002070bded
:10495c000d461946a080e3606361a5602261a370d7
:10496c00237084f82130fff7bbfd012070bd00bf20
:04497c00b003002064
:020000040000fa
:10498000f8b50b4d95f8204064b20cb10020f8bd8d
:104990000e46eb602146069ba8806b61ae602a61e3
:1049a000ac702c7085f82140fff7a0fd0120f8bd08
:0449b000b003002030
:020000040000fa
:1049b40010b50a4c4ff4d8720021204600f04efc8a
:1049c400204600f09dfc064b236104f5c27104f5fa
:1049d400d2700822bde8104000f0a6bb04000020fd
:0449e400ad530000cf
:020000040000fa
:1049e800884210b501eb020302d983421c4607d85e
:1049f800421e994208d011f8014b02f8014ff8e71e
:104a080083189a1a9a4200d110bd14f8011d03f8b0
:044a1800011df7e79e
:020000040000fa
:104a1c0003690a699b1a30b50cd192001430143119
:104a2c008418114454f8045d51f8042d954203d0b8
:104a3c0005d30123184630bda042f3d3fae74ff05b
:044a4c00ff33f7e756
:020000040000fa
:104a50000a4a01231380136913f00103fbd14ff4b9
:104a600001400649108013620b6913f02003fbd14b
:104a7000024a4b6213695b06fcd470470024004075
:020000040000fa
:104a8000428883889bb293420ed04288438830b4d8
:104a900092b28568048855f822200a6001332340c9
:104aa000438030bc0020704700230b60012070471a
:020000040000fa
:104ab00010b5074c0748214600f000fc2246064985
:104ac000064800f03ffb00232370636010bd00bf69
:104ad000e804002031520000354e0000a8040020f8
:020000040000fa
:104ae00038b5084d084c09492a46204600f02afbf3
:104af00000232b7000f05afc01462046bde83840e8
:104b000000f05ebcf0040020b8040020fd29000085
:020000040000fa
:104b10000378012b0dd0032b06d0052b04bf0623f1
:104b20000370064800f062b904230370034800f0e4
:104b30005db902230370014800f058b9c804002091
:020000040000fa
:104b400010b5074c0748214600f0b2fb2246064943
:104b5000064800f0f7fa002323702373236110bd89
:104b600094040020114b0000a13a0000c80400206a
:020000040000fa
:104b70000fb40a4b13b51c6824b1a36913b92046be
:104b8000fff784fb05ab049aa16801932046fdf76b
:104b900031fa02b0bde8104004b0704704050020af
:020000040000fa
:104ba0009368013b002b10b4936008da9469a34228
:104bb00001db0a2903d15df8044bfef7b9bc136889
:0e4bc000581c1060197008465df8044b7047d1
:020000040000fa
:104bce0070b5446a06460d463cb9102000f051fb04
:104bde00c0e9014470620460c4603db1736a6a68e2
:0e4bee00db6853f82210296043f8225070bd96
:020000040000fa
:104bfc0008b500f0effafff713fefef7f7fafff730
:104c0c009ffbfff7c7fbfbf737fbfff71bff00f022
:0c4c1c00f9f8bde80840fff751ba00bfee
:020000040000fa
:104c280038b500230b60044604300d4600f0e4fa62
:104c3800294628b1204600f05bfb6560204638bd58
:0c4c4800606800f055fb6560204638bd38
:020000040000fa
:104c5400838830b404880246013340882340834269
:104c640008d094889568a4b2002045f82410938055
:0c4c740030bc7047022030bc704700bf0d
:020000040000fa
:104c800070b54a1e642555430e4605f17001fef7c6
:104c900063fd044640b10021c0e900160c30a0605d
:0c4ca00005f1640200f0dcfa204670bd53
:020000040000fa
:104cac00f0b5094c85b005461e46d4f8e04009b96c
:104cbc000a4601a9a047431c01bf002333608a2385
:0c4ccc002b6005b0f0bd00bfb40100205b
:020000040000fa
:104cd800074a136843b10749184488428cbf4ff00c
:104ce800ff33106018467047034b1360f3e700bfab
:0c4cf800100500201807002018050020ff
:020000040000fa
:104d04004fea410c7fea6c5c02d150ea013c0ad1c3
:104d14004fea430c7fea6c5c02d152ea033c02d1b5
:0c4d24004ff0000070474ff00100704796
:020000040000fa
:104d30000080e03779c34143176e05b5b5b8934697
:104d4000f5f93fe9034f384d321d30f94877825a63
:084d50003cbf737fdd4f1575b8
:020000040000fa
:104d580070b569b115464ab140b90c468e180120a4
:104d6800fef77cfb04f8010ba642f8d1284670bd7b
:084d78000d46284670bd00bf86
:020000040000fa
:104d8000064b93f82c203ab105490022842008757f
:104d900083f82c20da611a6201207047800300201a
:044da00000200141ad
:020000040000fa
:104da40038b5044608460d4600f006fb38b905f14f
:104db40008012046fff736ffec60204638bd00208e
:044dc40038bd00bf37
:020000040000fa
:104dc80038b5074b0d461b6904469847294600f03d
:104dd800e5fa01462046bde83840fef773ba00bf41
:044de80004000020a3
:020000040000fa
:104dec0010b5044600f0e4fa08b1052010bd2146c8
:104dfc000348fff729ff022814bf0020032010bd31
:044e0c00a8010020d9
:020000040000fa
:104e100008b5fff795fe00f0c7fafff7cbfd00f0ed
:104e2000bffafff745fefff75bfebde80840fff75e
:044e300055bd00bfad
:020000040000fa
:104e34000378022b00d07047054b1a780ab1002280
:104e44001a7058680028f6d0002100f05fba00bf3d
:044e5400e80400204e
:020000040000fa
:104e580008b5074800f0acfa0378012b00d008bd6c
:104e6800022303700248bde80840fff7bbbf00bf3c
:044e7800d80400203a
:020000040000fa
:104e7c0010b50c46b1f90e1000f01ef8431ca389b6
:104e8c0015bf606523f4805343f48053a38118bf8e
:044e9c00a38110bd21
:020000040000fa
:104ea00038b5074c054608461146002222601a46ce
:104eb00000f096fa431c02d1236803b12b6038bd81
:044ec00000000020ce
:020000040000fa
:104ec40038b5074c054608461146002222601a46aa
:104ed40000f080fa431c02d1236803b12b6038bd73
:044ee40000000020aa
:020000040000fa
:104ee80082b001b901a942b14bb113780b601278b5
:104ef800101c18bf012002b070471046fbe76ff086
:044f08000100f8e7c5
:020000040000fa
:104f0c0038b5074c054608461146002222601a4661
:104f1c0000f05efa431c02d1236803b12b6038bd4c
:044f2c000000002061
:020000040000fa
:104f300038b5074c0023054608461146236000f0ab
:104f400047fa431c02d1236803b12b6038bd00bf70
:044f5000000000203d
:020000040000fa
:104f540030313233343536373839414243444546ab
:104f64000030313233343536373839616263646541
:024f74006600d5
:020000040000fa
:104f760010b50c46b1f90e10fff7c5ff0028abbf00
:104f8600636da3891b1823f48053acbf6365a381ab
:024f960010bd4c
:020000040000fa
:104f9800064b8021072219765a831a7e510703d5ba
:104fa8009a6a1a7e5207fbd4704700bf002001415d
:020000040000fa
:104fb800302f0000502f0000b42f0000742f000085
:104fc800d82f0000942f0000f82f000018300000a0
:020000040000fa
:104fd80038b5064c0023054608462360fff778fedf
:104fe800431c02d1236803b12b6038bd00000020a8
:020000040000fa
:104ff80038b5064c002305460846236000f0e2f960
:10500800431c02d1236803b12b6038bd0000002087
:020000040000fa
:1050180038b5064c002305460846236000f0d6f94b
:10502800431c02d1236803b12b6038bd0000002067
:020000040000fa
:1050380010b5044600f08cf9034b04fb00f0a3fb09
:0c5048000030800910bd00bfd34d621085
:020000040000fa
:1050540038b5044600f05cf80546204600f0cef86a
:0c50640008b100236360284638bd00bf7f
:020000040000fa
:10507000054b10b51b690446984701462046bde81c
:0c5080001040fef723b900bf0400002020
:020000040000fa
:10508c000a44914200f1ff3300d1704710b511f87a
:0c509c00014b03f8014f9142f9d110bd07
:020000040000fa
:1050a800b2f90c3013f4005f06d143f40053938136
:0c50b800136e43f400531366fef782bf32
:020000040000fa
:1050c40038b502fb01f42146fef744fb054618b14e
:0c50d4002246002100f0c2f8284638bd3a
:020000040000fa
:1050e00049b1ff2a85bf8a2303600a704ff0ff3061
:0a50f00098bf012070470846704782
:020000040000fa
:1050fc00044a138843f00203138013699b07fcd402
:08510c00704700bf00240040c1
:020000040000fa
:1051140038b103681bb11a68026000221a6018468d
:0851240070470346184670476e
:020000040000fa
:10512c0042b1531e1a4005d14280038081608280b7
:08513c00104670470320704784
:020000040000fa
:1051440010b50446c4e90012083000f007f9002342
:08515400e360204610bd00bf1e
:020000040000fa
:10515c0010b5044600f0fef8201d00f0fbf82046c8
:04516c0010bd00bfb3
:020000040000fa
:105170000a54656d7065726174757265203d2025f5
:045180006420460061
:020000040000fa
:1051840024370000a436000038370000d836000069
:04519400c43600001d
:020000040000fa
:10519800494e4600696e66004e414e006e616e00d3
:0251a8003000d5
:020000040000fa
:1051aa0010b50c460121fff738f80122446102616b
:0251ba0010bd26
:020000040000fa
:1051bc00232d302b2000686c4c00656667454647f4
:1051cc0000232d302b2000686c4c0065666745462b
:0251dc0047008a
:020000040000fa
:1051e000024b40f204521a80704700bf0040004159
:020000040000fa
:1051f000024a13691b07fcd49069704700240040e1
:020000040000fa
:1052000020b10068b0fa80f0400970470120704773
:020000040000fa
:1052100008b5fff71fff10b100234360083808bd31
:020000040000fa
:1052200008b50020fff7eafc00f0b8f8fce700bf83
:020000040000fa
:10523000022303700148fff7d9bd00bfa804002076
:020000040000fa
:10524000024b1878b0fa80f040097047e80400205b
:020000040000fa
:10525000024b1878b0fa80f040097047940400209f
:020000040000fa
:1052600002440346934200d1704703f8011bf9e75b
:020000040000fa
:10527000034613f8012b002afbd1181a0138704796
:020000040000fa
:10528000024b01461868fef767ba00bf040500200c
:020000040000fa
:1052900051f8043c181f002bbcbf0b58c0187047b6
:020000040000fa
:0f52a000496e66696e697479004e614e00300088
:020000040000fa
:0c52b000014bc3e909017047b003002066
:020000040000fa
:0c52bc00014b1961d8607047800300208e
:020000040000fa
:0c52c800014b996258627047800300207f
:020000040000fa
:0c52d40088422cbf00200120704700bf62
:020000040000fa
:0c52e000401ab0fa80f04009704700bf8f
:020000040000fa
:0c52ec00884294bf00200120704700bfe2
:020000040000fa
:0c52f80010b103680b600160704700bf3c
:020000040000fa
:0c53040010b50446fff728ff204610bd3e
:020000040000fa
:0c53100010b1d0e900301847704700bf12
:020000040000fa
:0c531c000149fff7a3ba00bf494400009c
:020000040000fa
:0c532800014b93f828017047b4010020ed
:020000040000fa
:0c53340005000000190000007d000000d2
:020000040000fa
:0c5340004ff400534b600020704700bf8a
:020000040000fa
:0b534c004300504f53495800002e0052
:020000040000fa
:085358004ff40040704700bf54
:020000040000fa
:0853600000230360704700bf49
:020000040000fa
:08536800b1f90e10fff744be7d
:020000040000fa
:0853700000487047a402002070
:020000040000fa
:085378004ff0ff30704700bf49
:020000040000fa
:04538000704700bfb3
:020000040000fa
:04538400fee700bf81
:020000040000fa
:04538800fee700bf7d
:020000040000fa
:04538c00fee700bf79
:020000040000fa
:04539000fee700bf75
:020000040000fa
:04539400fee700bf71
:020000040000fa
:04539800fee700bf6d
:020000040000fa
:04539c0000f012b853
:020000040000fa
:0453a000704700bf93
:020000040000fa
:0453a4000844704702
:020000040000fa
:0453a800fff7a8bea5
:020000040000fa
:0453ac00fff720bf28
:020000040000fa
:0453b0008160704761
:020000040000fa
:0453b4008068704756
:020000040000fa
:0453b8004068704792
:020000040000fa
:0453bc00c06870470e
:020000040000fa
:0453c000fdf784bfb2
:020000040000fa
:0453c400fef722ba14
:020000040000fa
:0453c800200300209e
:020000040000fa
:0453cc00fff7d4bf54
:020000040000fa
:0453d000fff7b6bf6e
:020000040000fa
:0453d40000f006b827
:020000040000fa
:0453d80000f006b823
:020000040000fa
:0453dc00fff7bcbc5f
:020000040000fa
:0453e000fff704ba15
:020000040000fa
:0453e40001207047ed
:020000040000fa
:0453e80000207047ea
:020000040000fa
:0200000400807a
:044000003912003c35
:020000040000fa
:0200000400807a
:044004008000a82a66
:020000040000fa
:0200000400807a
:04400800ffffffffb8
:00000001FF
