:020000040000fa
:10000000f0ff0320f10e000037190000191a00005c
:100010001d1a00001f1a0000211a00000000000035
:1000200000000000000000000000000003180000b5
:100030001b1a000000000000031800000318000055
:100040000318000003180000031800000318000044
:100050000318000003180000031800000318000034
:100060000318000003180000031800000318000024
:100070000318000003180000031800000318000014
:100080000318000003180000031800000318000004
:1000900003180000031800000318000003180000f4
:1000a00003180000031800000318000003180000e4
:1000b00003180000031800000318000003180000d4
:1000c00003180000031800000318000003180000c4
:1000d00003180000031800000318000003180000b4
:1000e00003180000031800000000000000000000da
:1000f00000000000031800000318000003180000af
:100100000318000003180000031800000318000083
:100110000318000003180000110700001107000079
:1001200011070000110700005d0500005d050000db
:100130005d0500005d0500000318000003180000c5
:100140000318000003180000031800000318000043
:100150000318000003180000031800000318000033
:100160000318000003180000031800000318000023
:100170000318000003180000031800000318000013
:100180000318000003180000031800000318000003
:1001900003180000031800000318000003180000f3
:1001a00003180000031800000318000003180000e3
:1001b00003180000031800000318000003180000d3
:1001c00003180000031800000318000003180000c3
:1001d00003180000031800000318000003180000b3
:1001e00003180000031800000318000003180000a3
:1001f0000318000003180000031800000318000093
:100200000318000003180000031800000318000082
:100210000318000003180000031800000318000072
:100220000318000003180000031800000318000062
:100230000318000003180000031800000318000052
:100240000318000003180000031800000318000042
:100250000318000003180000031800000318000032
:04026000031800007f
:020000040000fa
:10026400f8b500bff8bc08bc9e467047f513000003
:10027400f8b500bff8bc08bc9e467047d113000017
:020000040000fa
:08028400080000000100000069
:020000040000fa
:10028c002de9f047089e04468846002b40f08580f7
:10029c008a42154648d9b2fa82f24ab1c2f1200715
:1002ac0001fa02f320fa07f7954047ea0308944055
:1002bc004fea154e230cb8fbfef71ffa85fc0efb1c
:1002cc00178843ea084307fb0cf1994209d9eb184c
:1002dc0007f1ff3080f0e380994240f2e080023f6a
:1002ec002b445b1aa4b2b3fbfef00efb103344eab2
:1002fc00034400fb0cfca44509d92c1900f1ff3375
:10030c0080f0cb80a44540f2c88002382c4440eaef
:10031c000740a4eb0c0400271eb1d4400023c6e90f
:10032c0000433946bde8f087002a53d0b2fa82f276
:10033c00002a40f0b680491b4fea154e1ffa85f88b
:10034c000127b1fbfefc230c0efb1c1143ea0143fd
:10035c0008fb0cf1994207d9eb180cf1ff3002d2d3
:10036c00994200f2ec808446591aa3b2b1fbfef01c
:10037c000efb101443ea044408fb00f8a04507d90f
:10038c002c1900f1ff3302d2a04500f2dc80184694
:10039c00a4eb080440ea0c40bee78b4208d9002ebf
:1003ac0078d00027c6e9000138463946bde8f08709
:1003bc00b3fa83f77fb98b4202d3824200f2bd803d
:1003cc00841a61eb030301209846002ea9d0c6e9dc
:1003dc000048a6e7ffdec7f12005bb4022fa05fc6a
:1003ec004cea030c01fa07f420fa05f821fa05f39c
:1003fc004fea1c4e48ea0404b3fbfef9210c0efb39
:10040c0019331ffa8cf841ea034309fb08fa9a45a1
:10041c0002fa07f200fa07f10bd91ceb030309f1fe
:10042c00ff3080f088809a4540f28580a9f102095e
:10043c006344a3eb0a03a4b2b3fbfef00efb103330
:10044c0044ea034400fb08f8a04508d91ceb04045b
:10045c0000f1ff336bd2a04569d90238644440eafd
:10046c000940a4eb0804a0fb02894c45c6464b4648
:10047c0054d351d0002e69d0b1eb0e0264eb0304bf
:10048c0004fa05f522fa07f3fc401d43c6e90054b3
:10049c00002746e73746304643e7184637e7074616
:1004ac001fe7c2f1200320fa03f7954001fa02f08e
:1004bc0021fa03f34fea154e3843010cb3fbfef758
:1004cc001ffa85f80efb173341ea034107fb08f3cb
:1004dc008b4204fa02f407d9691807f1ff3c28d2c1
:1004ec008b4226d9023f2944cb1a81b2b3fbfef0d2
:1004fc000efb103341ea034100fb08f38b4207d992
:10050c00691800f1ff3c10d28b420ed902382944f5
:10051c00c91a40ea074714e74145abd2b8eb020ec3
:10052c0069eb0c0201381346a4e76046f0e7184665
:10053c0095e76746d8e781467be7384645e7acf157
:10054c00020c2b4410e702382c4421e73746e8e62e
:020000040000fa
:10055c006a4b9b7d002b00f0d08010b5674b5b8bfa
:10056c0013f0020f16d0664bff2283f820200222d4
:10057c0083f82120624b93f820305bb2b3f1ff3f3c
:10058c0000f08b805e4b93f820305bb2062b00f0b2
:10059c009c8010bd594b5b8b13f0010f07d0584b4f
:1005ac00ff2283f82020022283f82120e2e7534b1c
:1005bc005b8b13f0040f07d0514bff2283f82020e4
:1005cc00012283f82120d5e74d4b93f820305bb204
:1005dc00032b42d0042b10d0022bcbd1484b1b69e0
:1005ec002bb10021464b988800f07cfec2e701211c
:1005fc00434b988800f076febce7414a9369126938
:10060c0093420bd03e4a9168581c9061ca5c3b4b9c
:10061c009a621a46d369002bfcd1abe7384b5b6965
:10062c0073b1374b9b885b0043f00103334a536231
:10063c00d369002bfcd1324b032283f8202099e79d
:10064c002e4a536843f440335360d369002bfcd1da
:10065c002b4b062283f820208ce7294a5369013b57
:10066c00d2699a420cd0254ad369002bfcd1234b7a
:10067c00986a234bd968da69541cdc61885479e791
:10068c001e4a536843f4e0235360d369002bfcd11a
:10069c001b4b062283f82020e5e7194b002283f838
:1006ac002020164a536843f440335360d369002b1f
:1006bc00fcd1124b83221a76114b5b6a002b3ff450
:1006cc0068af0f4a906a984763e70d4b002283f896
:1006dc00202083f82120094b83221a761a46538b4b
:1006ec0003f03003102bfad1054b5b6a002b3ff45f
:1006fc0050af034a906a98474be77047004001415e
:04070c00c8030020fe
:020000040000fa
:1007100038b54f4b9b7dd3b14d4a137edbb2927df2
:1007200012f0800f14d14a4a137edbb2927d12f090
:10073000010f02d013f0010f50d1454a137edbb2f6
:10074000927d12f0040f02d013f0040f18d138bdbf
:1007500013f0800fe7d03e4b5b8b13f00703e2d022
:100760003c4ce38500f032ff394b84221a7500239c
:1007700084f82c30636a002bd5d0a06a9847d2e762
:10078000344b93f82c30002be1d0324b1a6adb69e2
:100790009a42dcd22e4b9a6a5b6803f00703012b66
:1007a0002c4b9869196a01f101041c6214bf425470
:1007b00020f81120274b1a6adb699a42c7d1254bd2
:1007c000002283f82c20da61214a842111755b6aaa
:1007d000002bbcd01f4a906a9847b8e71d4b1b7d81
:1007e000002baad01b4b9a685c68194b1b7e13f038
:1007f000010f19d0a24217d2164b1d6814491a4690
:100800004b6803f00703012b936803f1010090602c
:1008100014bfeb5c35f813308b6290680b7e13f0dd
:10082000010f01d08442ebd80a4b9a685b689a4268
:1008300083d3084b00221a755a60054a01211175ad
:10084000db68002b3ff479af024a1069984774e7e0
:080850000020014138030020e3
:020000040000fa
:10085800f8b54c4b1c7d93f82c30002b40f08c8065
:100868000546e4b203f0ff02002c40f0888000281f
:1008780000f083800668002e7fd0434b002908bf14
:100888001946b1eb061f3ed300270a463b46300502
:10089800310b00f0affec0f5803000286dd03b4b27
:1008a800196821f0020119601946ca69002afcd1a9
:1008b80080b2364b98816b68022b4bd03348026864
:1008c80022f0706222f4604242ea473242f08072bb
:1008d80002604268ab68e9680b4322f4015222f0d7
:1008e800070213436a6813434360284ad369002bfd
:1008f800fcd1264a136843f002031360d369002b26
:10090800fcd1012439e0b1ebc60f09d30a46002314
:10091800f004710b00f06efec0f580300227bce7d2
:1009280006eb46038b4228d80022b01942eb02039b
:10093800801943eb0206330443ea104302041046cd
:100948001e460a460023314600f054fec0f58030aa
:100958000427a2e70d4a136823f0706323f4604369
:1009680043ea473717605168ab68e868034321f0ea
:1009780047010b435360b8e700242046f8bd1446ee
:10098800fbe700bf380300200087930300200141e4
:020000040000fa
:100998000378002b00f0898090f90130022b40f099
:1009a800848070b582b00446856aaa69c2f30723b9
:1009b800c3eb03133d4901eb8303d6b206eb4606ae
:1009c800db6903ebc60633699a4228d1c368db6842
:1009d800984785f8240095f82430dbb2002b0cbf2b
:1009e80001204ff0ff306875296aa36a2bb19a6a13
:1009f800a26200221a779a621a70b36843b1236b15
:100a080001332363b368f2689847236b013b236380
:100a1800a56a15b12b7f012b08d002b070bdab6a57
:100a2800836200232b77ab622b70f1e7ab69c3f3ca
:100a38000722c2eb02121d4901eb8202dbb203eb73
:100a48004303d66906ebc306626973699a4207d005
:100a5800e3681b69002106f1140098477369636114
:100a68002b7d022b0cd0042b13d0012bd5d10223c4
:100a78002b77e3681b68aa68696868889847cce799
:100a880002232b77e3685b682a69e96868889847d6
:100a9800c3e702232b776b682a69e9686888e468ea
:100aa800ad680095a468a047b7e77047fc0200202e
:020000040000fa
:100ab80000283cd00368384a002908bf1146b1eb2a
:100ac800430f36d3354a934235d807ee901af8eedd
:100ad800677a07ee103af8ee476a87eea67adfedf6
:100ae800306a67eea67af2ee046a77eea67a77eeb7
:100af800677afceee77a17ee902a2a498b4206d8e5
:100b0800b2f5ff7f19d8012a3dd9500816e0b2f591
:100b1800bf7f3ad2032a3bd950002349a1fb00c02a
:100b28004008a1fb0212520842ea002006e0002019
:100b380070470020704700207047ff2019498b42fa
:100b480094bf00210121194a136823f0020313609e
:100b5800d369002bfcd1154ad060136823f0407389
:100b680043ea01631360136843f002031360d36917
:100b7800002bfcd10d4b10225a831a46d369002b47
:100b8800fcd1012070470120d8e74ff67f70d5e7e8
:100b980040f20120d2e700bf0087930340420f00d4
:100ba80095bfd633801a0600abaaaaaa0040014115
:020000040000fa
:100bb800364b42f20e229a821a46d36813f0010f7e
:100bc800fbd0324b05221a7403f50063304a9a624f
:100bd8001a46536813f0100ffbd12e4b4222c3f86c
:100be80084201a46d2f8843013f0400ffad02a4bea
:100bf80000229a6377225a631a46d36b13f0040fc4
:100c0800fbd1254b022283f830201a46d36b13f010
:100c1800020ffbd1204a136c03f00303032bfad114
:100c28001e4b01225a711a46d37813f0010ffbd0dc
:100c3800184b1b4a1a621a46536813f0040ffbd16b
:100c4800144b184a5a621a46536813f0080ffbd11e
:100c5800104b4122c3f8dc201a46d2f8dc3013f0de
:100c6800400ffad00b4b4122c3f8e0201a46d2f8c5
:100c7800e03013f0400ffad0084b6ff07f421a6152
:100c880040f2ff725a61084a9a61704700140040a6
:100c980006013000001c0040001000400008004021
:0c0ca80007010100070102005686010050
:020000040000fa
:100cb4002de9f0410478002c5fd090f90240022c19
:100cc4005bd101290cbf076a476a002f55d016462d
:100cd4000d4604463a68c2f307212b484ff04c0cea
:100ce4000cfb01015ffa82f8096901eb0818d8f8d6
:100cf4000c108a4239d17e767a7e52b2b2f1ff3f2d
:100d04001bd0fb683b61ff692946204600f02ffd9c
:100d1400d8f804306bb394f82830013384f82830c1
:100d2400d8f80430d8f8082039463046984794f863
:100d34002830013b84f828301be0a26b11689942eb
:100d440010d051688b420bd09268934208bf0223a3
:100d540009d00023bb766368db6898473861d2e723
:100d6400012300e000230133f4e72946204600f084
:100d7400fefc25b9204600f00afdbde8f0812046be
:0c0d840000f013fdf9e700bfb0020020f2
:020000040000fa
:100d90002de9f04780460e4600f03afe10b10520de
:100da000bde8f087294bd3f88051002d1add6c1e69
:100db00004eb4403254c04eb830418346f1ea24655
:100dc000204600f023fe81460146304600f007fe33
:100dd00010bb4946304600f0fdfd18b90c3c3d46bd
:100de000002febd1194bd3f880311d2b2cd00133c0
:100df000164ac2f880315b1b002b13dc05eb45055e
:100e0000124b03eb850505f1180a504600f0d0fda2
:100e10003146504600f0f8fd4146504600f098fc3f
:100e20000020bde703eb4303104605eb450102eb51
:100e300081016a1c02eb420200eb82009a00183129
:100e4000183000f0a9fbd9e70320a9e7080000202b
:020000040000fa
:100e5000f40300201c00000000000000fc02002041
:100e60003c00000000000000b00200204c00000028
:100e700000000000c80300202c000000000000005b
:100e8000380300203000000000000000680300204c
:100e90003000000000000000580200205800000050
:100ea00000000000b8010020a000000000000000c9
:100eb0009803002030000000000000000000002027
:100ec000080000000000000008000020b001000041
:100ed00000000000100400200400000000000000da
:100ee00000000000000000002222222222222222f2
:020000040000fa
:100ef00008b51b4b98471b4b9847eff3108172b610
:100f0000194ad2f8883043f47003c2f88830bff32e
:100f10004f8fbff36f8f01b962b6144c202363600b
:100f200000f072f8124b23f07f030f4a9360114bcd
:100f30009847a36823f00103a3602346da6812f000
:100f4000010ffbd1094b5a6842f004025a6001229a
:100f50009a60094b9847094b984700f0e5fcfee77b
:100f6000231a0000231a000000ed00e00060004199
:100f70000000000089130000231a0000231a00005b
:020000040000fa
:100f8000002835d138b51d4b1b78002b33d11b4cb5
:100f9000012384f82a3084f8293023700a686260bb
:100fa0000025a5604868e06088682061a382cb695d
:100fb000a3610b6ae3612562656284f828504b6a7d
:100fc000e363cb68e3620b6923634b6963638b69fb
:100fd000a3638b6aa36453692146094898476368f1
:100fe0001b682146074898470223a370284638bd4e
:100ff0004ff0ff3070474ff0ff30f8e7b0020020ad
:081000000d190000b1160000fb
:020000040000fa
:101008001e4b1f4a9342f0b438bf002103d203f8a5
:10101800011b9342fbd11b4ad2e9000150ea0103ac
:101028004ff0000610d09468034602f10c076cb923
:1010380021b1014403f8016b9942fbd13a46d2e948
:10104800000150ea0103eed1f0bc704759b101f13b
:101058000c030c38801a1a443b461c1813f8015b21
:1010680025709342f9d111f0030318bf012303eb54
:10107800910107eb81073a46e1e700bf0000002035
:0810880008000020500e0000da
:020000040000fa
:101090001c4ad36823f4e0631b041b0c43f0bf63ba
:1010a00043f40033d360bff35f8f62b6164be02288
:1010b00083f836234ff48001596083f837234ff4c7
:1010c0000001596083f838234ff08071596083f82c
:1010d00039234ff00071596083f83a234ff0806153
:1010e000596083f83b234ff00061596083f83c233b
:1010f0004ff08051596083f83d234ff000525a6001
:0c110000704700bf00ed00e000e100e0df
:020000040000fa
:10110c0030b583b00546174c01a9204600f0b4fa5f
:10111c0018b9019800f0cbfbf6e700f001fb28b101
:10112c0000f06efc294600f059fc40b10e4b58699a
:10113c00b0b1002100f03cfc002003b030bd00f049
:10114c000bfa094c0025204600f0a8fb03460028aa
:10115c00f2d0e3602946184600f02afce560f2e77d
:0c116c0000bfe9e7ac01002008000020f3
:020000040000fa
:10117800002827d138b5164b1b7833bb144c0123f4
:1011880084f8343084f8353023700a68e26048699e
:10119800a0614868e0618868a06008696062c86802
:1011a80020620025a5626560a5702563a3858b690b
:1011b8002361636153692146064898470223637097
:1011c800284638bd4ff0ff3070474ff0ff30f8e742
:0811d800fc020020990900004f
:020000040000fa
:1011e000144b01221a601a46d369002bfcd1114b13
:1011f0004ff480725a601a46d369002bfcd10d4b14
:10120000ff22da600c4a1a601a46d369002bfcd11f
:10121000084b10225a831a46d369002bfcd1074b86
:10122000002283f8212083f82020024b83229a7524
:10123000704700bf0040014116001000c8030020a5
:020000040000fa
:1012400020b310b40446134b1b7d0bbb114b18602d
:10125000596001221a7500230f4809e0426802f024
:101260000702012a14bfe25c34f8132082620133c2
:10127000027e12f0010f01d09942efd1054a93602e
:101280000120054b98755df8044b704700207047ae
:0c1290000020f8e7380300200020014196
:020000040000fa
:10129c00114b124a1a604ff622029a814ff44032d7
:1012ac005a601a46d369002bfcd10b4a136843f0e1
:1012bc0002031360d369002bfcd1094b00229a6105
:1012cc00da611a6283f82c205a621a605a609a60aa
:1012dc001a75da60da85704700200141040110406c
:0412ec0038030020a3
:020000040000fa
:1012f000104b00229a61da610f4b83221a765a68ea
:1013000022f480225a601a46d369002bfcd161b1c5
:10131000084b032283f8202041ea4001064b596222
:101320001a46d369002bfcd17047024b042283f884
:0c1330002020f1e7c8030020004001412c
:020000040000fa
:10133c0010b500f0c5fa00f0a3f8fff737fcfff783
:10134c0049fffff7a5ff00f03afa00f07bf80849d7
:10135c000020fff70bff074c206007490020fff728
:10136c0009fe606000f058fbfff78cfe10bd00bf5b
:0c137c00cc170000000000202c16000020
:020000040000fa
:1013880070b50d4d0d4c641ba4100026a64209d162
:101398000b4d0c4cfef762ff641ba4100026a642fe
:1013a80005d170bd55f8043b98470136eee755f86e
:1013b800043b98470136f2e7700200007002000013
:0813c800700200007402000035
:020000040000fa
:1013d00010b5054c237833b9044b13b10448aff36f
:1013e00000800123237010bdf403002000000000e2
:1013f0000000000008b5034b1bb103490348aff3dd
:10140000008008bd00000000f8030020000000007c
:020000040000fa
:10141000b8b138b505460c4a92f82c200ab1002024
:1014200038bd0c4600f0d2f8074b9d61dc6100220c
:101430001a62012083f82c00da85044b84229a7505
:10144000eee70020704700bf380300200020014174
:020000040000fa
:101450000d4b01221a801a46136913f0010ffbd1bc
:10146000094b4ff401421a8000221a621a4613698e
:1014700013f0200ffbd1044b00225a621a46136965
:0c14800013f0400ffbd170470024004027
:020000040000fa
:10148c000c4b012283f8562083f85720222183f835
:10149c003b1083f8d82083f8d920332283f8bc2062
:1014ac004ff48022c3f80021c3f81021002283f8e6
:0814bc0052217047008000413d
:020000040000fa
:1014c4000c4b93f820305bb20bb10020704710b581
:1014d400084b9880d9605a6100229a601a610124ed
:1014e4009c701a7083f821202146fff7fffe2046e6
:0814f40010bd00bfc803002079
:020000040000fa
:1014fc000b4b93f820305bb20bb10020704710b54a
:10150c000c46074b98800021d96059619c601a6188
:10151c009970197083f82110fff7e4fe012010bdbb
:04152c00c8030020d0
:020000040000fa
:1015300010b50b4c94f8204064b20cb1002010bde3
:10154000074ca080e360029b6361a16022610021df
:10155000a170217084f82110fff7cafe0120eee788
:04156000c80300209c
:020000040000fa
:1015640010b40b4bd3f88041002c0edd013c04eb8e
:10157400440203eb8202183207ca83e80700c3f867
:10158400804118465df8044b70470020fae700bf1d
:04159400080000202b
:020000040000fa
:10159800884210b501eb020302d983421c4607d8e2
:1015a800421e994208d011f8014b02f8014ff8e7a2
:1015b80083189a1a9a4200d110bd14f8011d03f835
:0415c800011df7e723
:020000040000fa
:1015cc000a4b5b8b13f0070f0ed0084b80221a7658
:1015dc0007225a831b7e13f0040f05d0034b9a6a23
:1015ec001a7e12f0040ffad1704700bf002001419f
:020000040000fa
:1015fc0053b94ab9002908bf00281cbf4ff0ff316e
:10160c004ff0ff3000f000baadf1080c6de904cedc
:10161c00fef736feddf804e0dde9022304b0704786
:020000040000fa
:10162c005816000003000000980300205c1800000e
:10163c001c180000a41900009819000005000000f7
:0c164c00b8010020481800000300000056
:020000040000fa
:101658008d1900001114000075190000811900008f
:101668000517000069190000411200005119000017
:0c1678005d190000dd180000590800009a
:020000040000fa
:10168400438882889bb293420cd043889bb2826881
:1016940052f823300b60438801330288134043809f
:0c16a4000020704700230b6001207047fd
:020000040000fa
:1016b00010b5044643685b6a984730b9002301229d
:1016c00019462046fff7f6fa10bd03464ff0ff32e9
:0a16d00000212046fff7eefaf6e7ce
:020000040000fa
:1016da0038b504460d4600230b60043000f001f9ca
:1016ea0030b12946204600f013f96560204638bd1e
:0a16fa002946606800f00cf9f7e7dc
:020000040000fa
:10170400074b93f82c3043b1064b84221a75044bd3
:10171400002283f82c201a62da610120704700bf8e
:08172400380300200020014100
:020000040000fa
:10172c00074bd3f88031002b08dd013b03eb43035f
:10173c00034800eb830303f1180070470020704747
:04174c000800002071
:020000040000fa
:1017500038b504460d46084600f05af938b905f187
:1017600008012046fff7b9ffec60204638bd002095
:02177000fce794
:020000040000fa
:10177200012907bf00f12002036a00f12402436a33
:101782002bb15969116000221a765a611a71704799
:020000040000fa
:1017920008b5436a4bb11a7e012a06d102221a7693
:0c17a20042685268d9689868904708bdfa
:020000040000fa
:1017ae0008b5036a4bb11a7e012a06d102221a76b7
:0c17be0042689269d9689868904708bd9d
:020000040000fa
:0217ca00704766
:020000040000fa
:1017cc000418000068030020020000000200000062
:0c17dc00580200203418000064000000d7
:020000040000fa
:1017e80038b5044600f04af80546204600f07af875
:0a17f80008b100236360284638bde5
:020000040000fa
:02180200fee7ff
:020000040000fa
:10180400c5140000fd140000311500004519000046
:08181400b90a000039190000b7
:020000040000fa
:10181c00020000000000000000000800ffffffffb6
:08182c00ffffffffffffffffbc
:020000040000fa
:10183400000000003a0000003b0000003c000000f3
:041844003d00000063
:020000040000fa
:1018480000000000360000003700000038000000eb
:041858003900000053
:020000040000fa
:10185c00050000000600000007000000000000006a
:04186c000100000077
:020000040000fa
:10187000034a136913f0080ffbd1014b98697047b5
:041880000024004000
:020000040000fa
:10188400034628b1006818b102681a600023036097
:0218940070479b
:020000040000fa
:1018960010b5044600f0b2f8201d00f0aff820465f
:0218a60010bd73
:020000040000fa
:1018a80008b5fff79dff18b10346083800225a60b3
:0218b80008bd69
:020000040000fa
:1018ba0010b5044600f01df801462046fff763fa0a
:0218ca0010bd4f
:020000040000fa
:1018cc00024b40f204521a80704700bf00400041a6
:020000040000fa
:1018dc00024bd88d0022da85704700bf38030020f8
:020000040000fa
:1018ec0020b10068b0fa80f04009704701207047c1
:020000040000fa
:1018fc0008b5024b1b69984708bd00bf08000020c3
:020000040000fa
:0e190c0008b5002301221146fff7cef908bdf1
:020000040000fa
:0e191a00034610b102680a600160184670476b
:020000040000fa
:0e19280008b50020fff706fd00f05ff8fce7b1
:020000040000fa
:02193600fee7ca
:020000040000fa
:0c193800014b586299627047c803002000
:020000040000fa
:0c194400014b93f821007047c8030020fd
:020000040000fa
:0c195000014b187d704700bf38030020d9
:020000040000fa
:0c195c00014b9868704700bf3803002062
:020000040000fa
:0c196800014bd860196170473803002063
:020000040000fa
:0c197400014b93f82c0070473803002052
:020000040000fa
:0c198000014b186a704700bf38030020bc
:020000040000fa
:0c198c00014b586299627047380300203c
:020000040000fa
:0c1998000400000000000000020000003d
:020000040000fa
:0c19a40000000000ffffffff40000000fb
:020000040000fa
:0c19b00010b50446fff76fff204610bd85
:020000040000fa
:0c19bc0008b510b103684068984708bdea
:020000040000fa
:0c19c80008b500f016f8fff79dfb08bd05
:020000040000fa
:0a19d40088422cbf0020012070475c
:020000040000fa
:0a19de00884214bf0020012070476a
:020000040000fa
:0a19e800884294bf002001207047e0
:020000040000fa
:0819f20008b5fff7e8ff08bd8e
:020000040000fa
:0819fa0008b5fff738ff08bd36
:020000040000fa
:061a0200002303607047a1
:020000040000fa
:041a08008160704742
:020000040000fa
:041a0c008068704737
:020000040000fa
:041a1000c0687047f3
:020000040000fa
:041a1400704700bf58
:020000040000fa
:021a1800fee7e7
:020000040000fa
:021a1a00fee7e5
:020000040000fa
:021a1c00fee7e3
:020000040000fa
:021a1e00fee7e1
:020000040000fa
:021a2000fee7df
:020000040000fa
:021a220070470b
:020000040000fa
:021a2400704709
:020000040000fa
:0200000400807a
:044000003912003c35
:020000040000fa
:0200000400807a
:044004008000a82a66
:020000040000fa
:0200000400807a
:04400800ffffffffb8
:00000001FF
