:020000040000fa
:10000000f8ff0320c93d00006d4d0000734d000056
:100010007f4d0000854d00008b4d0000000000006a
:100020000000000000000000000000003326000077
:10003000794d000000000000332600003326000048
:10004000332600003326000033260000332600004c
:10005000332600003326000033260000332600003c
:10006000332600003326000033260000332600002c
:10007000332600003326000033260000332600001c
:10008000332600003326000033260000332600000c
:1000900033260000332600003326000033260000fc
:1000a00033260000332600003326000033260000ec
:1000b00033260000332600003326000033260000dc
:1000c00033260000332600003326000033260000cc
:1000d00033260000332600003326000033260000bc
:1000e000332600003326000000000000000000005e
:1000f00000000000332600003326000033260000f5
:10010000332600003326000033260000332600008b
:100110003326000033260000152c0000152c0000ab
:10012000152c0000152c0000e51f0000e51f000045
:10013000e51f0000e51f0000332600003326000005
:10014000332600003326000033260000332600004b
:10015000332600003326000033260000332600003b
:10016000332600003326000033260000332600002b
:10017000332600003326000033260000332600001b
:10018000332600003326000033260000332600000b
:1001900033260000332600003326000033260000fb
:1001a00033260000332600003326000033260000eb
:1001b00033260000332600003326000033260000db
:1001c00033260000332600003326000033260000cb
:1001d00033260000332600003326000033260000bb
:1001e00033260000332600003326000033260000ab
:1001f000332600003326000033260000332600009b
:10020000332600003326000033260000332600008a
:10021000332600003326000033260000332600007a
:10022000332600003326000033260000332600006a
:10023000332600003326000033260000332600005a
:10024000332600003326000033260000332600004a
:10025000332600003326000033260000332600003a
:040260003326000041
:020000040000fa
:10026400f8b500bff8bc08bc9e467047b141000019
:10027400f8b500bff8bc08bc9e4670478d4100002d
:020000040000fa
:100288002de9f04f55ec104b99b0476a0891834619
:100298000d921493229ecde9044547b9102004f02d
:1002a8000bfdc0e90177cbf824000760c760dbf8d5
:1002b8002430196859b15a684a60012393408b6009
:1002c800584604f0fcf9dbf8243000221a60002daf
:1002d800bfbf0123336025f000430593a4bf00236b
:1002e8003360059cb24ba3431ad1149a42f20f73a0
:1002f8001360049bc4f31304234300f04f85239b2e
:1003080053b9ac4b23e0ac4b01930833239a1360e9
:10031800019819b0bde8f08fa64b01930333f5e7b8
:100328009ded047b0022002351ec170b8ded0e7b15
:1003380002f0d2f9074660b1149a01231360239b97
:10034800002b00f028859d4b239a1360013b0193f5
:10035800dee716aa17a99ded0e0b584602f09cff82
:10036800c4f30a568046002e7fd00f9b1597c3f31f
:100378001303dde90e4543f07f5545f44015a6f219
:10038800ff3600228e4b2046294601f0dbf982a376
:10039800d3e9002300f0c0ff81a3d3e9002301f0d3
:1003a800d3f9044630460d4601f01afb7ea3d3e983
:1003b800002300f0b1ff02460b462046294601f013
:1003c800c3f904460d4603f077fd00228246002358
:1003d8002046294602f08af948b1504601f000fb50
:1003e80022462b4602f078f908b90af1ff3abaf129
:1003f800160f59d8734b03ebca03d3e90023dde981
:100408000e0102f073f9002850d00af1ff3a0023d8
:100418001193169b9e1b731e079345bfc6f10103dc
:100428000693002300234cbf07930693baf1000fed
:100438003edb079bcdf840a0534407930023099364
:10044800089b092b00f28e80052bc4bf043b089340
:10045800089ba3f10203ccbf00240124032b00f264
:100468008c80dfe803f02f716f7ddde916631e4491
:1004780006f23240202811ddc0f14000049b844080
:1004880006f2124023fa00f0204301f099fa012302
:100498000446a1f1f875013e159372e7049bc0f17b
:1004a800200003fa00f0f0e70123b1e71190b0e76c
:1004b800069ba3eb0a030693caf1000309930023e2
:1004c8001093bde700230c930d9b002b59dc0123ef
:1004d800029399460d93dbf8245000226a600422a7
:1004e80002f11400984269684fd9584603f09cfa03
:1004f800dbf8243028601b680193b9f10e0f00f275
:10050800e680002c00f0e380baf1000f78dd2d4a78
:100518000af00f0302ebc30393ed007b4fea2a14a2
:10052800e2068ded0a7b69d5274bdde90e01d3e99b
:10053800082301f01bf8cde9040104f00f04032699
:10054800214d50e00123bee700230c930d9b53443b
:1005580003f1010902934b46012bb8bf0123bae707
:100568000123f2e70023012408930c94013b0022a5
:10057800029399460d921223ade701230c93023b97
:10058800f5e70d9b02939946a5e701316960520092
:10059800a6e700bfaff3008061436f63a787d23f30
:1005a800b3c8608b288ac63ffb799f501344d33f5a
:1005b8000000f07fe94c0000e04c0000ee4c000029
:1005c8000000f83fc82d000050480000e30708d598
:1005d800dde90a01d5e9002300f09efecde90a0114
:1005e800013664100835002cf0d1dde90a23dde975
:1005f800040100f0bbffcde904011ae002269fe7e1
:1006080000f09f80caf100049f4ba04d04f00f0238
:1006180003ebc203d3e90023dde90e0100f07cfe01
:10062800cde90401241100230226002c7ed1002be1
:10063800e1d1119b002b00f08680dde90445002202
:10064800934b2046294602f051f800287bd0b9f197
:10065800000f78d0029b002b35dd0af1ff330a9397
:10066800204600228b4b294600f056fecde90401b6
:10067800029c0136304601f0b3f9dde9042300f0ad
:100688004bfe0022844b01f05ff80646a1f150773b
:10069800002c5cd10022814bdde9040101f052f805
:1006a80032463b46cde9040102f03ef8002840f00e
:1006b8008982324607f10043dde9040102f016f8a9
:1006c800002840f07d82dde90e34cde90434179b23
:1006d800002bc0f24f81baf10e0f00f34b816a4b29
:1006e80003ebca0393ed007b0d9b002b8ded027b82
:1006f80080f2d880b9f1000f00f3d48040f05f8217
:100708000022664b51ec170b00f006fedde90423ce
:1007180002f000f84c464e46002840f03882019d11
:10072800312305f8013b0af1010a34e2e70705d550
:10073800d5e9002300f0f0fd0136012364100835e7
:1007480073e7022675e7cdf828a04c4692e74e4b92
:1007580003ebc40353e90201019b1c440c9b002bcf
:1007680046d002460b4600204d4900f0fffe3246b7
:100778003b4600f0e7ff019d06460f46dde9040110
:1007880003f09afb129001f02bf902460b46dde9c3
:10079800040100f0d7ff129b303305f8013b3246c5
:1007a8003b46cde9040101f0a1ff002860d1dde955
:1007b80004230020364900f0c5ff32463b4601f0cd
:1007c80095ff002840f0b480a5423ff47caf00229a
:1007d800304b3046394600f09ffd002206460f4652
:1007e8002c4bdde9040100f097fdcde90401c5e7d4
:1007f80032463b4600f090fdcde91201019e2546a8
:10080800dde9040103f058fb074601f0e9f8303749
:1008180002460b46dde9040100f094ff06f8017b6f
:10082800a642cde904014ff0000226d11c4bdde9b8
:10083800120100f089ff02460b46dde9040101f0d0
:1008480073ff002874d1dde912230020144900f059
:1008580079ff02460b46dde9040101f047ff002855
:100868003ff431af15f8013c302b05f1ff3202d0cf
:10087800ddf828a04ae01546f4e7064b00f04cfde9
:10088800cde90401bce700bfc82d000050480000b6
:100898000000f03f0000244000001c40000014400d
:1008a8000000e03fdde90467019ddde902233046f1
:1008b800394600f05bfe03f0fffa044601f090f8b9
:1008c800dde9022300f028fd02460b463046394692
:1008d80004f1300600f036ff05f8016b019eae1bef
:1008e800b14502460b4638d100f02effdde9022360
:1008f80006460f4601f018ffc0b9dde9022330466d
:10090800394601f0e9fe08b1e1070fd441465846df
:1009180003f0d5fe0023149a2b700af1010313602b
:10092800239b002b3ff4f4ac1d60f1e4cdf828a024
:1009380015f8012c392a05f1ff3308d1019a9a429a
:1009480009d10a9a019901320a9230220a701a785a
:1009580001321a708ce71d46eae700229b4b00f033
:10096800dbfc0022002306460f4601f0b5fe0028f6
:100978009bd0cbe70c9a002a00f0cb80089a012a7a
:1009880000f3ae80159a002a00f0a68003f23343e4
:10099800099c069d069a1a440692079a01211a4450
:1009a8005846079204f05ef90646002d0cdd079bb9
:1009b800002b09ddab42069aa8bf2b46d21a069235
:1009c800079aed1ad31a0793099bf3b10c9b002bd6
:1009d80000f0a380002c10dd31462246584602f074
:1009e800abfc424601460646584601f0effc41463c
:1009f8000746584603f063feb846099b1a1b04d005
:100a08004146584602f098fc80460121584604f0b9
:100a180029f9109b002b044640f381801a460146b1
:100a2800584602f089fc089b012b04467add002712
:100a3800236904eb8303186903f004fcc0f1200068
:100a4800079b184410f01f0000f08880c0f12003b5
:100a5800042b40f38180c0f11c00069b03440693dd
:100a6800079b034405440793069b002b05dd41467d
:100a78001a46584602f018fb8046079b002b05ddf6
:100a880021461a46584602f00ffb0446119b002bdc
:100a980066d02146404603f067fd002860da00234f
:100aa80041460a22584602f0fdfd0c9b0af1ff3a26
:100ab8008046002b00f07981002331460a225846ef
:100ac80002f0f0fd029b002b064600f38980089b8c
:100ad800022b40f385804be0169bc3f1360357e7a2
:100ae800099b09f1ff34a342bfbf099b0994e21a8d
:100af800109bbbbf9b1810931c1b0024b9f1000f5f
:100b0800b5bf069b069da3eb09054b46b8bf00235e
:100b180040e7099c069d0c9e47e7099a70e7089be9
:100b2800012b15dc049b9bb9059bc3f313028ab9ff
:100b3800274f1f4037b1069b01330693079b0133ac
:100b480007930127109b002b7ff472af012077e7f2
:100b58000027f7e7049ff5e786d018461c307ce7a6
:100b6800b9f1000f36dc089b022b33ddcdf8089075
:100b7800029b63b921460522584602f093fd0146bf
:100b88000446404603f0f0fc00283ff7c8ad0d9b33
:100b9800019d6fea030a00272146584603f08ffd9e
:100ba800002e3ff4b3ae2fb1b74203d039465846b2
:100bb80003f085fd3146584603f081fda6e6002482
:100bc8002646e4e7ddf828a02646a8e500002440ec
:100bd8000000f07f0c9bcdf80890002b00f0ec8013
:100be800002d05dd31462a46584602f05dfa0646d4
:100bf800002f56d07168584602f016ff326902324b
:100c08000546920006f10c010c3003f0a1ff012209
:100c18002946584602f048fa019b03f10109dde92b
:100c2800012313440993049b03f0010337460793f8
:100c3800064609f1ff3321464046029301f05efc67
:100c4800034630330490394640460a9303f08cfc3f
:100c5800324606902146584602f04cf8c2680a9b74
:100c6800054602bb0146404603f07efc0a9b02464d
:100c7800294658460c920a9303f021fd089b0c9aca
:100c880043ea0201079b0b434d460a9b0dd1392bc2
:100c980027d0069a002a01dd049b3133029a13708b
:100ca8007ae73046b8e70122e2e70699002904db33
:100cb80008980143079801431ed1002aeedd4146fa
:100cc80001225846069302f0eff92146804603f0c8
:100cd8004bfc0028069b02dce0d1da07ded5392b75
:100ce800dad1029a3923137015f8013c392b05f132
:100cf800ff3246d00133d2e7002a03dd392bf0d08a
:100d08000133cbe7099a09f8013c914520d04146c7
:100d180000230a22584602f0c5fcb74280464ff02d
:100d280000034ff00a023946584606d102f0bafcd1
:100d38000746064609f101097be702f0b3fc0023e8
:100d480007460a223146584602f0acfcf1e7002774
:100d5800414601225846029302f0a6f921468046f0
:100d680003f002fc0028bfdc02d1029bdb07bbd4e6
:100d780015f8013c302b05f1ff327ff40daf154615
:100d8800f6e7019b934204d10af1010a3123019a43
:100d980085e71546a8e7134bfff7d9ba239b002b25
:100da8007ff4b1aa104bfff7d2ba029b002b03dce9
:100db800089b022b3ff7dcae019d2146404601f01f
:100dc8009dfb00f1300305f8013b019a0299aa1a2c
:100dd8009142bcdd414600230a22584602f062fcdb
:0c0de8008046eae7ed4c0000e04c000003
:020000040000fa
:100df4002de9f04f8db00c46ddf8588093461f4620
:100e0400064603f0adff03680593184603f04eff52
:100e1400d8f800300690073323f0070303f10802e3
:100e240094f818a02568c8f80020d3e90023c4e981
:100e3400122394ed127b8ded027bdde9028323f016
:100e440000494ff0ff32a24b4046494603f0befc36
:100e540070bb4ff0ff329e4b4046494601f052fcb6
:100e640030bb00220023dde9020101f041fc10b196
:100e74002d2384f84330974b1a1d25f00405baf14d
:100e8400470f94bf994691462560032300252361ab
:100e9400a84600975b460aaa2146304601f042fe66
:100ea400013040f009814ff0ff300db0bde8f08f04
:100eb400dde902231046194603f088fc38b1039b90
:100ec400002bbcbf2d2384f84330834bd4e76368e5
:100ed400591c0af0df081cd10623636045f48063c3
:100ee400236063680493039b002b19dadde9022174
:100ef40081f00043cde902232d23b8f1460f079377
:100f040010d0b8f1450f02d1049b013304930221a0
:100f140009e0b8f1470fe1d1002bdfd10123dce771
:100f24000023eae703210aab019309ab0093049a77
:100f340008ab9ded020b3046fff7a4f9b8f1470f5b
:100f4400814650d1ea074ed40a9d089ab8f1470f5a
:100f5400a5eb090571d1d31c03db6368934280f2ce
:100f64009a80aaf1020a5ffa8afa531e002b0893a8
:100f7400b6bfc2f101032b222d22092b04f1500824
:100f840084f850a084f8512074dd0df12f024ff045
:100f94000a0e93fbfef10efb11303030632b02f18d
:100fa400ff3c02f8010c5ddc3031023a0cf8011c04
:100fb40004f152030df12f008242194655d3a1ebdf
:100fc400080805eb0803012d236102dc2268d00721
:100fd40001d501332361079b002b3ff45aaf2d2326
:100fe40084f8433055e7049bb8f1460f09eb030539
:100ff40010d199f80030302b0ad100220023dde90a
:10100400020101f06bfb18b9049bc3f101030893bf
:10101400089b1d4400220023dde9020101f05efb70
:1010240000b10a950a9b9d428ed93022591c0a911f
:101034001a700a9b9d42f9d886e7baf1650f94d9d4
:10104400baf1660f29d1002a63681cdd226113b945
:101054002168c90702d5013313442361a2654ff007
:101064000008b8e762460b4693e712f8011b03f841
:10107400011ba1e73022134484f8522004f15401e7
:1010840084f853309be713b92168c80701d50233ac
:10109400e3e70123e1e74ff0670aaa4205db23688f
:1010a4002261d907dad5531cd7e7002ad4bfc2f18d
:1010b400020301232b44d0e723685a050ed4236985
:1010c4004a4659463046b84701302fd1ebe600bfb7
:1010d400ffffef7f5a4c0000624c0000baf1650f2d
:1010e40040f2c98000220023d4e9120101f0f6fa8b
:1010f40088b30123884a59463046b84701303ff443
:10110400d2ae089bab4202db2368d8070ed5dde9db
:10111400052359463046b84701303ff4c4ae4ff07a
:101124000008013d04f11a09454509dc23689d07bf
:1011340000f1ed80e0680a9b9842b8bf1846b4e617
:1011440001234a4659463046b84701303ff4abae16
:1011540008f10108e8e7089b002b2adc01236e4a0a
:1011640059463046b84701303ff49dae089b2b43a7
:1011740002d12368d907d9d5dde90523594630467c
:10118400b84701303ff48fae4ff0000804f11a0a5b
:10119400089b5b42434501dc2b4691e70123524601
:1011a40059463046b84701303ff47dae08f1010896
:1011b400eee7a36dab42a8bf2b46002b984606dd95
:1011c4004a4659463046b84701303ff46cae0023d6
:1011d400029304f11a0328eae87804930ae001234d
:1011e400049a59463046b84701303ff45cae029b3e
:1011f40001330293d4f858a0029aaaeb080393424d
:10120400eddc089bab421adb2368da0717d4089b92
:101214009a451cdba5eb0a08b8f1000f08dd43462c
:1012240009eb0a0259463046b84701303ff43bae59
:101234004ff0000928eae87804f11a0a14e0dde91d
:10124400052359463046b8470130e0d12be6a5ebdb
:101254000308e1e70123524659463046b8470130b6
:101264003ff421ae09f10109089beb1aa3eb080333
:101274004b45efdc5ae7012d01dcdb0735d50123b3
:101284004a4659463046b84701303ff40caedde9d2
:10129400052359463046b84701303ff404ae0022d6
:1012a4000023d4e91201013d01f018fac0b92b461c
:1012b40009f1010259463046b84701300cd1f2e534
:1012c4000123524659463046b84701303ff4ebad4e
:1012d40009f101094d45f3dc434604f15002f0e6ff
:1012e4004ff0000904f11a0af4e701234a46e1e742
:1012f4000123424659463046b84701303ff4d3ad46
:101304000135e3680a9a9b1aab42f1dc12e7002527
:0c13140004f11908f5e700bf6a4c000066
:020000040000fa
:1013200070b54ff0ff0c4cf4e06c1cea11541dbf7b
:101330001cea135594ea0c0f95ea0c0f00f0def846
:101340002c4481ea030621ea4c5123ea4c5350ea2b
:10135000013518bf52ea033541f4801143f480137c
:1013600038d0a0fb02ce4ff00005e1fb02e506f00d
:101370000042e0fb03e54ff00006e1fb03569cf062
:10138000000f18bf4ef0010ea4f1ff04b6f5007f68
:1013900064f5407404d25fea4e0e6d4146eb0606da
:1013a00042eac62141ea55514feac52040ea5e5063
:1013b0004feace2eb4f1fd0c88bfbcf5e06f1ed80d
:1013c000bef1004f08bf5fea500e50f1000041eb44
:1013d000045170bd06f0004646ea010140ea0200f1
:1013e00081ea0301b4eb5c04c2bfd4eb0c0541ea13
:1013f000045170bd41f480114ff0000e013c00f328
:10140000ab8014f1360fdebf002001f0004170bd4b
:10141000c4f10004203c35da0c341bdc04f1140464
:10142000c4f1200500fa05f320fa04f001fa05f2f0
:1014300040ea020001f0004221f0004110ebd370bd
:1014400021fa04f642eb06015eea430e08bf20eae9
:10145000d37070bdc4f10c04c4f1200500fa04f38c
:1014600020fa05f001fa04f240ea020001f000411e
:1014700010ebd37041f100015eea430e08bf20ea91
:10148000d37070bdc4f1200500fa05f24eea020ed9
:1014900020fa04f301fa05f243ea020321fa04f008
:1014a00001f0004121fa04f220ea020000ebd370bf
:1014b0005eea430e08bf20ead37070bd94f0000fbf
:1014c0000fd101f00046400041eb010111f4801ff3
:1014d00008bf013cf7d041ea060195f0000f18bfa4
:1014e000704703f00046520043eb030313f4801fe0
:1014f00008bf013df7d043ea0603704794ea0c0f9a
:101500000cea135518bf95ea0c0f0cd050ea4106af
:1015100018bf52ea4306d1d181ea030101f000412c
:101520004ff0000070bd50ea410606bf1046194654
:1015300052ea430619d094ea0c0f02d150ea013660
:1015400013d195ea0c0f05d152ea03361cbf1046a1
:1015500019460ad181ea030101f0004141f0fe4140
:1015600041f470014ff0000070bd41f0fe4141f4c4
:10157000780170bd70b54ff0ff0c4cf4e06c1ceac4
:1015800011541dbf1cea135594ea0c0f95ea0c0f79
:1015900000f0a7f8a4eb050481ea030e52ea033534
:1015a0004fea013100f088804fea03334ff0805555
:1015b00045ea131343ea12634fea022245ea111582
:1015c00045ea10654fea00260ef000419d4208bf33
:1015d000964244f1fd0404f5407402d25b084feae0
:1015e0003202b61a65eb03055b084fea32024ff48c
:1015f00080104ff4002cb6eb020e75eb030e22bfe9
:10160000b61a754640ea0c005b084fea3202b6eba8
:10161000020e75eb030e22bfb61a754640ea5c0057
:101620005b084fea3202b6eb020e75eb030e22bfe7
:10163000b61a754640ea9c005b084fea3202b6ebe8
:10164000020e75eb030e22bfb61a754640eadc00a7
:1016500055ea060e18d04fea051545ea16754fea09
:1016600006164feac30343ea52734feac2025fea27
:101670001c1cc0d111f4801f0bd141ea00014ff0b6
:1016800000004ff0004cb6e711f4801f04bf014387
:101690000020b4f1fd0c88bfbcf5e06f3ff6afaea3
:1016a000b5eb030c04bfb6eb020c5fea500c50f133
:1016b000000041eb045170bd0ef0004e4eea1131b6
:1016c00014eb5c04c2bfd4eb0c0541ea045170bdbd
:1016d00041f480114ff0000e013c90e645ea060e01
:1016e0008de60cea135594ea0c0f08bf95ea0c0f2f
:1016f0003ff43baf94ea0c0f0ad150ea01347ff477
:1017000034af95ea0c0f7ff425af104619462ce74d
:1017100095ea0c0f06d152ea03353ff4fdae1046b0
:10172000194622e750ea410618bf52ea43067ff401
:10173000c5ae50ea41047ff40daf52ea43057ff491
:10174000ebae12e781f0004102e000bf83f00043fe
:1017500030b54fea41044fea430594ea050f08bf4c
:1017600090ea020f1fbf54ea000c55ea020c7fea10
:10177000645c7fea655c00f0e2804fea5454d4eb8d
:101780005555b8bf6d420cdd2c4480ea020281ea57
:10179000030382ea000083ea010180ea020281ea8f
:1017a0000303362d88bf30bd11f0004f4fea0131e1
:1017b0004ff4801c4cea113102d0404261eb4101f0
:1017c00013f0004f4fea03334cea133302d0524276
:1017d00063eb430394ea050f00f0a780a4f1010432
:1017e000d5f1200e0ddb02fa0efc22fa05f280186c
:1017f00041f1000103fa0ef2801843fa05f3594152
:101800000ee0a5f120050ef1200e012a03fa0efcd0
:1018100028bf4cf0020c43fa05f3c01851ebe371fa
:1018200001f0004507d54ff0000edcf1000c7eeb17
:1018300000006eeb0101b1f5801f1bd3b1f5001f55
:101840000cd349085fea30004fea3c0c04f1010474
:101850004fea445212f5800f80f09a80bcf1004f9d
:1018600008bf5fea500c50f1000041eb045141ea1f
:10187000050130bd5fea4c0c404141eb010111f420
:10188000801fa4f10104e9d191f0000f04bf0146cb
:101890000020b1fa81f308bf2033a3f10b03b3f1a9
:1018a00020020cda0c3208dd02f1140cc2f10c0239
:1018b00001fa0cf021fa02f10ce002f11402d8bf97
:1018c000c2f1200c01fa02f120fa0cfcdcbf41ea63
:1018d0000c019040e41aa2bf01eb0451294330bd32
:1018e0006fea04041f3c1cda0c340edc04f114040f
:1018f000c4f1200220fa04f001fa02f340ea0300e6
:1019000021fa04f345ea030130bdc4f10c04c4f12b
:10191000200220fa02f001fa04f340ea030029460b
:1019200030bd21fa04f0294630bd94f0000f83f455
:10193000801306bf81f480110134013d4ee77fea38
:10194000645c18bf7fea655c29d094ea050f08bf84
:1019500090ea020f05d054ea000c04bf1946104665
:1019600030bd91ea030f1ebf0021002030bd5feaa9
:10197000545c05d14000494128bf41f0004130bdd1
:1019800014f580043cbf01f5801130bd01f0004525
:1019900045f0fe4141f470014ff0000030bd7fea98
:1019a000645c1abf194610467fea655c1cbf0b4693
:1019b000024650ea013406bf52ea033591ea030faa
:1019c00041f4002130bd00bf90f0000f04bf0021a2
:1019d000704730b54ff4806404f132044ff00005d5
:1019e0004ff0000150e700bf90f0000f04bf00214e
:1019f000704730b54ff4806404f1320410f00045b4
:101a000048bf40424ff000013ee700bf42004feaae
:101a1000e2014fea31014fea02701fbf12f07f432b
:101a200093f07f4f81f06051704732f07f4208bfe2
:101a3000704793f07f4f04bf41f40021704730b5e9
:101a40004ff4607401f0004521f000411ce700bf35
:101a500050ea010208bf704730b54ff000050ae0b8
:101a600050ea010208bf704730b511f0004502d5b9
:101a7000404261eb41014ff4806404f132045feabb
:101a8000915c3ff4d8ae4ff003025feadc0c18bf64
:101a900003325feadc0c18bf033202ebdc02c2f156
:101aa000200300fa03fc20fa02f001fa03fe40eae8
:0c1ab0000e0021fa02f11444bde600bf54
:020000040000fa
:101abc003c0400201c00000000000000b0030020cb
:101acc002c0000000000000080030020300000000b
:101adc000000000004000020b00100000000000025
:101aec006c04002010000000010000001c380000f5
:101afc00343800005038000070380000ac0400206e
:101b0c0008000000000000007c0400201000000011
:101b1c00000000008c0400201000000001000000f8
:101b2c000c35000024350000503500007c350000d9
:101b3c00b404002008000000000000009c040020f9
:101b4c0010000000000000005804002014000000e9
:101b5c0000000000bc040020040000000000000095
:101b6c00dc0300202000000000000000fc0300202b
:101b7c0020000000000000001c04002020000000d9
:101b8c0000000000c0040020040000000100000060
:101b9c002003002020030020600000000100000052
:101bac0000000000fc0300201c040020dc030020cb
:101bbc000000000000000000000000000000000019
:101bcc000000000000000000000000000000000009
:101bdc0000000000000000000000000000000000f9
:101bec0000000000000000000000000000000000e9
:101bfc0000000000000000000000000000000000d9
:101c0c00c40400200400000000000000c8040020f0
:101c1c000400000000000000b40100206c01000072
:101c2c000100000043000000000000000000000064
:101c3c000000000000000000000000000000000098
:101c4c000000000043000000000000000000000045
:101c5c000000000000000000000000000000000078
:101c6c000000000043000000000000000000000025
:101c7c000000000000000000000000000000000058
:101c8c000000000043000000000000000000000005
:101c9c000000000000000000000000000000000038
:101cac0000000000430000000000000000000000e5
:101cbc000000000000000000000000000000000018
:101ccc0000000000430000000000000000000000c5
:101cdc0000000000000000000000000000000000f8
:101cec0000000000430000000000000000000000a5
:101cfc0000000000000000000000000000000000d8
:101d0c0000000000ab4b0000e549000000000000a3
:101d1c0044270000614d0000604d0000604d000044
:101d2c00604d0000604d0000604d0000604d0000f3
:101d3c00604d0000604d0000604d0000ffffffff94
:101d4c00ffffffffffffffffffff000001004153fc
:101d5c0043494900000000000000000000000000a2
:101d6c0000000000000000000000000000004153d3
:101d7c004349490000000000000000000000000082
:101d8c000000000000000000000000000000000047
:101d9c00000000200400000000000000cc04002023
:101dac000400000000000000000000000000000023
:020000040000fa
:101dbc002de9f04306460c4601f14300097e85b03f
:101dcc006e29984617460c9b00f0ba8024d86329dc
:101ddc0039d00ad8002900f0c380582900f091802e
:101dec0004f1420584f8421035e0642901d06929d8
:101dfc00f6d125681a6815f0800f02f104012cd079
:101e0c0012681960002a03da2d23524284f84330f9
:101e1c00dff8bcc10a233fe0732900f0a58008d885
:101e2c006f2921d07029dbd1226842f02002226078
:101e3c0003e0752918d07829d2d1782284f845206e
:101e4c00dff890c161e01a68111d1960136884f8fd
:101e5c00423004f14205012393e01268196015f039
:101e6c00400f18bf12b2cde7d4f800c01a681cf0ae
:101e7c00800f02f104051d6001d0126803e01cf014
:101e8c00400ffad01288dff848c16f290cbf082325
:101e9c000a23002184f843106568a560002da2bfb9
:101eac00216821f0040121600ab9002d46d00546b5
:101ebc00b2fbf3f103fb112e93421cf80ee005f874
:101ecc0001ed39d9082b0bd12368da0708d5236922
:101edc0062689a42debf302305f8013c05f1ff35fc
:101eec00401b2061cdf800803b4603aa21463046ba
:101efc0000f014fe013049d14ff0ff3005b0bde8c1
:101f0c00f083dff8ccc084f845101d68216855f8c3
:101f1c00042b1d600d060bd5cd0744bf41f02001ed
:101f2c0021601ab9236823f0200323601023b0e743
:101f3c004b0648bf92b2efe70a46b9e70546c1e740
:101f4c001a68d4f800c06169151d1d601cf0800f63
:101f5c00136801d0196003e01cf0400ffad019800f
:101f6c00002323610546bde71a68111d1960156829
:101f7c0062680021284601f03df908b1401b606001
:101f8c0063682361002384f84330abe723692a4656
:101f9c0039463046c0470130aed023689b0713d476
:101fac00e068039b9842b8bf1846a7e701234a464e
:101fbc0039463046c04701309ed00135e368039a5c
:101fcc009b1aab42f2dcebe7002504f11909f5e7ab
:081fdc002a4a00003b4a000004
:020000040000fa
:101fe40098b500af854b9b7ddbb2002b00f00381dd
:101ff400824b5b8b9bb203f00203022b08d1804b14
:10200400ff2283f820207e4b022283f82120aae0bd
:102014007a4b5b8b9bb203f00103012b08d1784b05
:10202400ff2283f82020764b022283f821209ae0b5
:10203400724b5b8b9bb203f00403042b08d1704bef
:10204400ff2283f820206e4b012283f821208ae0ae
:102054006b4b93f820305bb2042b00f2838001a217
:1020640052f823f069210000692100007d2000005e
:1020740019210000a1200000614b1b69002b06d030
:102084005f4b9b880021184601f072fe6be05c4bad
:102094009b880121184601f06bfe64e0584b9a6955
:1020a400574b1b699a4224d1554b5b69002b10d0c6
:1020b400534b9b885b00514a43f00103536200bfba
:1020c4004e4bdb69002bfbd14d4b032283f82020c0
:1020d40049e04a4b5b68494a43f44033536000bfcc
:1020e400464bdb69002bfbd1454b062283f82020ad
:1020f40039e0434b9a68424b9b69591c40488161c3
:1021040013441a783d4b9a6200bf3c4bdb69002ba9
:10211400fbd128e03a4bda69394b5b69013b9a42bf
:102124000ed1364b5b68354a43f4e023536000bf5d
:10213400324bdb69002bfbd1314b062283f8202084
:1021440000bf2e4bdb69002bfbd12c4b9c6a2c4b24
:10215400da682b4bdb69591c2948c1611344e2b28c
:102164001a7000e000bf264b93f820305bb2b3f145
:10217400ff3f1cd1224b002283f820201f4b5b68b9
:102184001e4a43f44033536000bf1c4bdb69002bf1
:10219400fbd11a4b83221a76194b5b6a002b2ad087
:1021a400174b5b6a164a926a1046984723e0144b11
:1021b40093f820305bb2062b1dd1114b002283f81b
:1021c40020200f4b002283f821200c4b83221a7607
:1021d40000bf0a4b5b8b9bb203f03003102bf8d18a
:1021e400074b5b6a002b06d0054b5b6a044a926a74
:1021f4001046984700bf00bf98bd00bf0040014192
:04220400b003002003
:020000040000fa
:102208002de9f04f1e468b891b069db007460d46eb
:1022180014460ed50b6963b9402100f0ebfe286027
:10222800286120b90c233b604ff0ff30c3e0402306
:102238006b6100230993dff88491039620238df8be
:10224800293030238df82a304ff0ff3809f1060a7b
:1022580023461e4613f8012b0ab1252af9d1b6ebfd
:10226800040b0bd05b4622462946384600f00cfe8c
:10227800013000f09b80099b5b4409933378002b65
:1022880000f094800023cde9058301360493079379
:102298008df853301a934ff0010b3446052214f889
:1022a800011b464800f0a8ff049bc0b9d80644bfec
:1022b80020228df85320190744bf2b228df8532074
:1022c80032782a2a13d0079a344600200a26214653
:1022d80011f8013b303b092b4bd970b914e0a0eb46
:1022e80009000bfa00f0184304902646d5e7039a34
:1022f800111d12680391002a01db079204e0524283
:1023080043f002030792049323782e2b0bd16378b2
:102318002a2b33d1039b1a1d1b680392002bb8bfcd
:1023280043460234059303222178254800f064ffd0
:1023380040b14023a0eb0a0003fa00f0049b0343da
:102348000134049314f8011b1e488df82810062246
:1023580000f052ff03ab00932a461b4b04a908b3b5
:102368003846fef743fd421c20d0099b03440993dd
:102378006ee706fb023201200c46a8e70023013471
:10238800059319460a26204610f8012b303a092ae7
:1023980003d9002bc7d00591c5e706fb012101230e
:1023a8000446f0e73846fff705fddce7ab895b0636
:1023b8003ff53aaf09981db0bde8f08f7e4c00009c
:0c23c800844c0000884c0000912e0000a6
:020000040000fa
:1023d4002de9f04f15460a692b699a420c46bcbf99
:1023e4002c460d46d4f81090d5f81080a368616887
:1023f40009eb0807bb4285b0b8bf013101f016fbf9
:1024040000f1140606eb870e33460022734519d3f8
:1024140004f1140303eb890305f11402009302eba6
:10242400880301934ff6ff75019b029293420cd8e7
:10243400002f03dd5ef8043d002b5fd0076105b07b
:10244400bde8f08f43f8042be0e7136813ea050caa
:1024540027d004f1140ab0464ff000095af8041bbf
:1024640001ea05030393d8f8003003ea050b039b44
:102474000cfb03b34fea114bd8f800104b444fea5e
:1024840011490cfb0b9101eb13412b4043ea01432f
:1024940048f8043b009b53454fea1149ded8c8f87d
:1024a4000090029bb3f802900432b9f1000f23d0dc
:1024b400336804f11408b4464ff0000ad8f8001049
:1024c400bcf802b0294009fb01b18a442b4043ea1d
:1024d4000a434cf8043b58f8043bdcf800101b0c8e
:1024e400294009fb0313009903eb1a4341454feac2
:1024f400134ae3d8ccf80030043695e7013f97e758
:020000040000fa
:102504002de9f74f03690c69a3428046c0f28d8020
:10251400013c01f114074fea840c07eb0c0300f1b2
:102524001405009305eb0c03019357f8243055f878
:10253400242001339a42b2fbf3f636d34ff0000a5b
:10254400be46a946d3464ff6ff705ef8042b02ea56
:10255400000306fb03a34fea134a0340abeb030358
:10256400120cd9f800b006fb02a213fa8bf34fea5f
:10257400124a02ea000bd9f80020cbeb124202eb1c
:102584002342034043ea024349f8043b009b73455a
:102594004fea224bd9d255f80c3033b9019b043b96
:1025a4009d421a4635d3c8f81040404601f0deff7c
:1025b40000282adb013628464ff0000e4ff6ff7c38
:1025c40057f8042bd0f8009002ea0c03aeeb030397
:1025d400120c13fa89f3c2eb194202eb234203ea09
:1025e4000c034fea224e43ea0242009b40f8042bbc
:1025f400bb42e5d255f8242005eb84032ab9043bf9
:102604009d421a460bd3c8f81040304603b0bde8cb
:10261400f08f1268043b002ac5d1013cc0e7126860
:0e262400043b002aefd1013ceae70020eee77c
:020000040000fa
:02263200fee7c1
:020000040000fa
:102634004ff0ff3c06e000bf4ff0010c02e000bf8a
:102644004ff0010c4df804cd4fea410c7fea6c5c6d
:102654004fea430c18bf7fea6c5c1bd001b050ea10
:10266400410c0cbf52ea430c91ea030f02bf90eafb
:10267400020f0020704710f1000f91ea030f58bfba
:10268400994208bf90422cbfd8176feae37040f01c
:10269400010070474fea410c7fea6c5c02d150eaba
:1026a400013c07d14fea430c7fea6c5cd6d152ea75
:1026b400033cd3d05df8040b704700bf844610463a
:1026c40062468c461946634600e000bf01b5fff739
:1026d400b7ff002848bf10f1000f01bd4df808ed09
:1026e400fff7f4ff0cbf012000205df808fb00bfda
:1026f4004df808edfff7eaff34bf012000205df834
:1027040008fb00bf4df808edfff7e0ff94bf012080
:1027140000205df808fb00bf4df808edfff7ceff81
:1027240094bf012000205df808fb00bf4df808edc0
:10273400fff7c4ff34bf012000205df808fb00bf91
:020000040000fa
:10274400002020202020202020202828282828207d
:102754002020202020202020202020202020202075
:1027640020881010101010101010101010101010dd
:1027740010040404040404040404041010101010cd
:102784001010414141414141010101010101010197
:1027940001010101010101010101010110101010e9
:1027a4001010424242424242020202020202020269
:1027b40002020202020202020202020210101010bd
:1027c40020000000000000000000000000000000e5
:1027d40000000000000000000000000000000000f5
:1027e40000000000000000000000000000000000e5
:1027f40000000000000000000000000000000000d5
:1028040000000000000000000000000000000000c4
:1028140000000000000000000000000000000000b4
:1028240000000000000000000000000000000000a4
:102834000000000000000000000000000000000094
:012844000093
:020000040000fa
:1028480080b588b000af78603a4bd3f88031fb612f
:1028580023e0fb69013bfb61fa6913465b00134403
:102868009b001833334a1344bb61b86902f0a6f9d8
:1028780078617969786802f057f80346002b01d02f
:10288800bb6952e07969786802f03cf80346002b8e
:1028980003d0fb690133fb6102e0fb69002bd8dc44
:1028a800244bd3f880311d2b01d100233de0214b6f
:1028b800d3f88021fb69d31a3b613b69002b1cddef
:1028c800fa6913465b0013449b001833194a1344f2
:1028d800fb60fb695a1c13465b0013449b001833ca
:1028e800144a1344bb603a6913465b0013449b00c7
:1028f8001a46f968b86801f01dfefa6913465b00cc
:1029080013449b0018330b4a1344bb61b86902f0a7
:102918003bf97968b86902f0c5f8064bd3f88031fd
:102928000133044ac2f88031bb6918462037bd46d6
:0829380080bd00bf0400002077
:020000040000fa
:1029400090b585b000af786039607b68fb60fb684c
:102950001b78032b66d801a252f823f06d290000e2
:1029600091290000e3290000232a000002f042f927
:1029700004464ff47a7001f055ff0346194620468d
:1029800002f0b2f80246fb685a60012001f014fd23
:1029900002f06cf80346002b17d002f02bf9034627
:1029a0001a462249224801f0cffb022001f004fd23
:1029b0001f4802f07df9044602f03cf903461a462e
:1029c00021461b4801f000f82ce002f033f90446e0
:1029d000012001f027ff03461946204601f0ccfef6
:1029e00020e0144b4ff48022c3f81c21012001f099
:1029f000e3fc02f01ff90246fb685b6819461046cb
:102a000002f08ef8fb685c684ff47a7001f00aff00
:102a100003461946204602f067f80246fb685a60f2
:102a200000e000bf00bf1437bd4690bd94350000e4
:082a3000580400200080004161
:020000040000fa
:102a380080b582b000af0023fb710023bb71364b19
:102a48001b7ddbb2002b63d0334b9a68324b5b683b
:102a58009a4234bf01230023bb71304b1b7edbb28b
:102a680003f00103012b0cbf01230023fb7130e0ad
:102a78002a4b5b6803f00703012b0bd0264b1a681f
:102a8800254b9b68591c2448816013441a78234bb2
:102a98009a620be0204b1a681f4b9b68591c1e4812
:102aa80081605b0013441a881c4b9a621a4b9a681f
:102ab800194b5b689a4234bf01230023bb71174b43
:102ac8001b7edbb203f00103012b0cbf01230023a3
:102ad800fb71fb79002b02d0bb79002bc8d10e4bc0
:102ae8009a680d4b5b689a4212d30b4b00221a75f9
:102af800094b00225a60094b01221a75064bdb6804
:102b0800002b05d0044bdb68034a1269104698472e
:102b180000bf0837bd4680bd80030020002001416a
:020000040000fa
:102b28002de9f04791461f468a680b69ddf8208039
:102b38009342b8bf1346c9f8003091f843200646bf
:102b48000c4612b10133c9f800302368990642bf18
:102b5800d9f800300233c9f80030256815f00605a9
:102b680007d104f1190ae368d9f800209b1aab428f
:102b780028dc94f843302268003318bf01239206fa
:102b88002dd404f1430239463046c047013020d0e5
:102b98002368e568d9f8002003f00603042b08bf72
:102ba800ad1aa36822690cbf25eae5750025934292
:102bb800c4bf9b1aed184ff000091a344d451ad1bd
:102bc800002008e00123524639463046c04701300c
:102bd80003d14ff0ff30bde8f0870135c3e7e118b6
:102be8005a1c302081f84300224494f8451082f89a
:102bf80043100233c5e70123224639463046c04711
:0a2c08000130e6d009f10109d8e718
:020000040000fa
:022c1200704709
:020000040000fa
:102c140080b582b000af0023fb71364b9b7ddbb2e5
:102c2400002b62d0334b1b7edbb203f08003802b7e
:102c34000cbf01230023fb712e4b9b7ddbb203f001
:102c44008003802b04d1fb79002b01d0012300e009
:102c54000023fb71fb7903f00103fb71fb79002b6b
:102c640001d001f02ff8234b1b7edbb203f00103ec
:102c7400012b0cbf01230023fb711e4b9b7ddbb298
:102c840003f00103012b04d1fb79002b01d00123b4
:102c940000e00023fb71fb7903f00103fb71fb7976
:102ca400002b01d0fff7c6fe124b1b7edbb203f0f4
:102cb4000403042b0cbf01230023fb710d4b9b7dec
:102cc400dbb203f00403042b04d1fb79002b01d005
:102cd400012300e00023fb71fb7903f00103fb7186
:102ce400fb79002b01d000f035fa00bf0837bd4650
:082cf40080bd00bf002001417a
:020000040000fa
:102cfc002de9f84f0d46074611462846144601f0bb
:102d0c0031fc061e08d13146384600f08bfe0123fb
:102d1c00c0e90436bde8f88fa4bf23462c463846dc
:102d2c006168a6bf1d460026012600f07bfe2b69bc
:102d3c002769c66004f1140205f1140602eb87083a
:102d4c0006eb830e00f114054ff0000a4ff6ff79e5
:102d5c0052f804bb56f8043b1afa8bfa03ea090141
:102d6c001b0caaeb0101c3eb1b4303eb214301ea50
:102d7c0009014fea234ab64541ea0343944645f814
:102d8c00043be5d84ff6ff74c44504d355f8043d15
:102d9c0083b10761bee75cf8041b1afa81f31a14bd
:102dac0002eb1142234043ea02434fea224a45f820
:082dbc00043be9e7013fe9e7f0
:020000040000fa
:102dc800000000000000f03f000000000000244068
:102dd80000000000000059400000000000408f4043
:102de800000000000088c34000000000006af840ae
:102df8000000000080842e4100000000d0126341d2
:102e08000000000084d797410000000065cdcd4147
:102e1800000000205fa00242000000e87648374228
:102e2800000000a2941a6d42000040e59c30a242c6
:102e38000000901ec4bcd64200003426f56b0c433b
:102e48000080e03779c3414300a0d88557347643e2
:102e580000c84e676dc1ab43003d9160e458e14343
:102e6800408cb5781daf154450efe2d6e41a4b44b8
:102e780092d54d06cff08044f64ae1c7022db544fd
:082e8800b49dd9794378ea44b6
:020000040000fa
:102e90002de9f0478e689e4282460c469146984640
:102ea00038d8b1f80cc01cf4906f31d06269256835
:102eb000096902eb42026f1a02ebd272013355101c
:102ec0003b449d4238bf1d461cf4806f30d02946dc
:102ed00000f094f8064650b90c23caf80030a389d4
:102ee00043f04003a3814ff0ff30bde8f0873a463e
:102ef000216901f031fea38923f4906343f080033c
:102f0000a381266165613e44ed1b2660a5604646af
:102f1000464500d9464632464946206801f00efb38
:102f2000a3689b1ba36023681e4426600020dce787
:102f30002a4600f0edff06460028e2d121695046fe
:062f400000f04cfac8e7a6
:020000040000fa
:022f46007047d2
:020000040000fa
:102f480080b487b000af786039600023fb757b6878
:102f5800fb6000233b61fb68002b3fd0234b1b7dac
:102f6800dbb283f00103dbb2002b37d01f4afb68ca
:102f780013601e4a3b6853601c4b01221a7519e006
:102f88001b4b5b6803f00703012b09d0174b1a682a
:102f98003b69591c396113441a78154b9a6209e048
:102fa800124b1a683b69591c39615b0013441a8833
:102fb8000f4b9a620e4b1b7edbb203f00103012b11
:102fc80004d10a4b5b683a699a42d9d3074a3b69ec
:102fd8009360074b01229a750123fb75fb7d184608
:102fe8001c37bd465df8047b704700bf8003002096
:042ff8000020014173
:020000040000fa
:102ffc00f8b5cd1c25f0030508350c2d38bf0c2574
:10300c00002d064601dba94203d90c2333600020b6
:10301c00f8bdfff792ff21490a6814469cb9204f6e
:10302c003b6823b92146304601f02afd3860294619
:10303c00304601f025fd431c23d10c233360304670
:10304c0000f083f8e3e723685b1b17d40b2b03d941
:10305c0023601c44256004e06368a2420cbf0b6033
:10306c005360304600f071f804f10b00231d20f082
:10307c000700c21accd01b1aa350c9e722466468b9
:10308c00cce7c41c24f00304a042e3d0211a304640
:10309c0001f0f6fc0130ddd1cfe700bfc404002005
:0430ac00c804002034
:020000040000fa
:1030b0002de9f0470c464fea621a236949680aeb8a
:1030c0000309a3680746164609f10105ab4233db45
:1030d000384600f0adfc0023804600f1140100f1f9
:1030e0001002184653452adb20692aeaea7a04f1dd
:1030f000140316f01f0201eb8a0103eb800c22d0af
:10310000c2f1200e00201e689640304341f8040ba7
:1031100053f8040b9c4520fa0ef0f4d8086008b16f
:1031200009f10205013d3846c8f81050214601f06a
:10313000cafa4046bde8f08701315b00c6e742f8b5
:10314000040f0133cee7043953f8042b41f8042f60
:063150009c45f9d8e6e7fa
:020000040000fa
:023156007047c0
:020000040000fa
:1031580080b582b000af254b93f82c30dbb2002b42
:103168003fd0224b1a6a214bdb699a4239d2204b55
:103178009b6afb801e4b5b6803f00703012b0bd097
:103188001a4b9a69194b1b6a591c18480162134457
:10319800fa88d2b21a700ae0144b9a69134b1b6a68
:1031a800591c124801625b001344fa881a800f4bbd
:1031b8001a6a0e4bdb699a4213d10c4b002283f832
:1031c8002c200a4b0022da61094b84221a75074b1e
:1031d8005b6a002b05d0054b5b6a044a926a10466d
:1031e800984700bf0837bd4680bd00bf8003002058
:0431f8000020014171
:020000040000fa
:1032000001f0ff01102a2bdb10f0070f08d010f897
:10321000013b013a8b422dd010f0070f42b3f6d19b
:10322000f0b441ea012141ea014122f007047ff0b4
:1032300000070023f0e80256083c85ea010586ea0b
:10324000010685fa47f5a3fa87f586fa47f6a5fa47
:1032500087f68eb9eed1f0bc01f0ff0102f0070253
:1032600032b110f8013b013a83ea010313b1f8d1fe
:103270000020704701387047002d06bf35460338df
:10328000073815f0010f07d1013015f4807f02bf18
:10329000013015f4c03f0130f0bc0138704700bf69
:020000040000fa
:1032a0002de9f74359ec108b0e4640f2ff740121d3
:1032b000154600f0bdfbc9f3130314ea195418bff7
:1032c00043f480130193b8f10003074623d0684606
:1032d000009300f011fc0099d8b1019ac0f12003cd
:1032e00002fa03f30b43c2407b610192019bbb6175
:1032f000002b14bf022101213961acb1a4f2334487
:1033000004443460c0f135002860384603b0bde89d
:10331000f0837961eae701a800f0eefb019b7b6195
:10332000012139612030e8e707eb8103a0f2324048
:0e3330003060186900f08affc0eb4110e4e73e
:020000040000fa
:103340002de9f843154612f0030206460f4607d052
:10335000013a214c002354f8222000f0a7f9074637
:10336000ad1035d0746a3cb9102001f0a9fcc0e959
:10337000014470620460c460d6f82480d8f8084024
:103380004cb940f27121304601f070fc0023c8f8be
:103390000800044603604ff00008eb070ad53946e1
:1033a00022463046fff716f839468146304601f08e
:1033b0008af94f466d100bd0206838b92246214655
:1033c0003046fff707f82060c0f800800446e4e7c5
:0c33d0003846bde8f88300bf4c4d0000fb
:020000040000fa
:1033dc0038b50546002945d051f8043c0c1f002b8c
:1033ec00b8bfe418fff7a9fd1f4a1368104633b99c
:1033fc00636014602846bde83840fff7a6bea342c0
:10340c000cd921686218934204bf1a685b68636028
:10341c0004bf521822600460ece713465a680ab1e4
:10342c00a242fad919685818a0420bd1206801445d
:10343c00581882421960ddd1106852685a600144f4
:10344c001960d7e702d90c232b60d3e72068211829
:10345c008a4204bf11685268626004bf0918216077
:0c346c005c60c7e738bd00bfc40400204e
:020000040000fa
:1034780080b400af204b214a1a601f4b4ff622023e
:103488009a811d4b4ff440325a6000bf1a4bdb69da
:10349800002bfbd1184b1b68174a43f0020313603b
:1034a80000bf154bdb69002bfbd1154b00229a613d
:1034b800134b0022da61124b00221a62104b0022d1
:1034c80083f82c200e4b00225a620d4b00221a6002
:1034d8000b4b00225a600a4b00229a60084b0022cc
:1034e8001a75074b0022da60054b0022da8500bf07
:1034f800bd465df8047b704700200141040110407f
:04350800800300201c
:020000040000fa
:10350c0053454e534f525f5441534b5f53544154a8
:10351c00455f494e4954000053454e534f525f543a
:10352c0041534b5f53544154455f41574149545f9c
:10353c005052494e5445525f415641494c41424cc0
:10354c00450000bf53454e534f525f5441534b5fa0
:10355c0053544154455f41574149545f5052494e71
:10356c0054494e475f434f4d504c4554450000bfa6
:10357c0053454e534f525f5441534b5f5354415438
:10358c00455f4552524f52000a5254433d30782504
:04359c006c78000047
:020000040000fa
:1035a0001e4b1f4a9342f0b438bf002103d203f8e8
:1035b000011b9342fbd11b4ad2e9000150ea0103ef
:1035c0004ff0000610d09468034602f10c076cb966
:1035d00021b1014403f8016b9942fbd13a46d2e98b
:1035e000000150ea0103eed1f0bc704759b101f17e
:1035f0000c030c38801a1a443b461c1813f8015b64
:1036000025709342f9d111f0030318bf012303eb96
:10361000910107eb81073a46e1e700bf0000002077
:0836200004000020bc1a0000a8
:020000040000fa
:1036280080b500af002000f095fcbff35f8f62b655
:103638000721362000f070fb362000f023fe07211a
:10364800372000f069fb372000f01cfe07213820e6
:1036580000f062fb382000f015fe0721392000f049
:103668005bfb392000f00efe07213a2000f054fbe6
:103678003a2000f007fe07213b2000f04dfb3b20dd
:1036880000f000fe07213c2000f046fb3c2000f043
:10369800f9fd07213d2000f03ffb3d2000f0f2fd41
:0436a80000bf80bd22
:020000040000fa
:1036ac002de9f0410d691f4606460c4601f1140c3c
:1036bc0000234ff6ff7edcf8000000ea0e0102fb4f
:1036cc0001710f0c000c02fb007001ea0e010133ba
:1036dc0001eb00419d424fea10474cf8041beadc19
:1036ec00d7b1a368ab4212dc61683046013100f0ff
:1036fc0099f92269023204f10c01804692000c30d7
:10370c0001f024fa2146304600f0d7ff444604eb82
:0e371c00850301355f6125612046bde8f0811f
:020000040000fa
:10372c0080b500af01f0defa00f068ff01f0e1fabd
:10373c0000f0f0ff00f0a4f800f09afc00f0d4ffc9
:10374c00124b4122c3f8dc2000bf104bd3f8dc3005
:10375c0003f04003402bf8d10c4b4122c3f8e0207e
:10376c0000bf0a4bd3f8e03003f04003402bf8d1f4
:10377c00074b6ff07f421a61054b40f2ff725a61a2
:10378c00034b044a9a6100bf80bd00bf001c00407f
:08379c00000800405686010000
:020000040000fa
:1037a40080b400af194b01221a6000bf174bdb69cc
:1037b400002bfbd1154b4ff480725a6000bf134ba2
:1037c400db69002bfbd1114bff22da600f4b104a4f
:1037d4001a6000bf0d4bdb69002bfbd10b4b102291
:1037e4005a8300bf094bdb69002bfbd1094b002234
:1037f40083f82120074b002283f82020034b8322e7
:103804009a7500bfbd465df8047b704700400141d6
:0838140016001000b0030020b3
:020000040000fa
:10381c005052494e5445525f5441534b5f5354419f
:10382c0054455f49444c45005052494e5445525ff3
:10383c005441534b5f53544154455f5052494e547d
:10384c00494e47005052494e5445525f5441534bd8
:10385c005f53544154455f434f4d504c4554454480
:10386c00000000bf5052494e5445525f5441534bd7
:10387c005f53544154455f4552524f52000000bfb4
:020000040000fa
:10388c0080b400af174b4222c3f8842000bf154b05
:10389c00d3f8843003f04003402bf8d1124b0022b4
:1038ac009a63114b77225a6300bf0f4bdb6b03f00b
:1038bc000403042bf9d00c4b022283f8302000bff8
:1038cc00094bdb6b03f00203022bf9d000bf064b54
:1038dc001b6c03f00303032bf9d100bfbd465df84d
:0c38ec00047b7047001c004000100040ee
:020000040000fa
:1038f80080b485b000af786039600023fb737b68c3
:103908005b889ab27b689b889bb29a4205d1012357
:10391800fb733b6800221a6017e07b689a687b6833
:103928005b889bb29b0013441a683b681a607b68eb
:103938005b889bb201339bb21ab27b681b881bb2af
:1039480013401bb29ab27b685a80fb7b1846143727
:08395800bd465df8047b7047d9
:020000040000fa
:1039600080b582b000af01f051f9786000f0ccfd75
:1039700000f04cfc38603b68002b12d0386801f036
:1039800021f903467968184600f0e4ff034683f006
:103990000103dbb2002b04d000f040fa00f0d0fcb1
:1039a0000be0084b5b69002b06d0064b5b690021de
:1039b000184600f061ff00e000bf002318460837fa
:0839c000bd4680bd040000209b
:020000040000fa
:1039c80090b585b000aff860b9607a6001f04af848
:1039d800034683f00103dbb2002b01d002231ce075
:1039e800b968f868fff7acfa034683f00103dbb265
:1039f800002b01d0012310e00a4a7b6853600120a4
:103a080000f0b8fc01f008f9044601f0eff80346ad
:103a18001946204601f080f8002318461437bd46a1
:083a280090bd00bfac040020ba
:020000040000fa
:103a300070b5456a04460e463db9102001f040f9c4
:103a4000c0e9015560620560c560656aeb6883b1d5
:103a5000636adb6853f82600b8b9012101fa06f55c
:103a60006a1d9200204601f085f860b1c0e9016549
:103a70000ee021220421204601f07cf8636ae86010
:103a8000db68002be4d1002070bd026843f82620db
:083a90000023c0e90333f7e74e
:020000040000fa
:103a980080b400af154b012283f85620134b012246
:103aa80083f85720114b222283f83b200f4b012229
:103ab80083f8d8200d4b012283f8d9200b4b3322f1
:103ac80083f8bc20094b4ff48022c3f80021074b30
:103ad8004ff48022c3f81021044b002283f85221ae
:103ae80000bfbd465df8047b704700bf0080004101
:020000040000fa
:103af800036813f0070201460bd0da0724d49907ac
:103b08004bbf5b089b08036003604cbf0120022089
:103b1800704798b2b0b91b0c102013f0ff0f04bf08
:103b28001b0a08301a0704bf1b0904309a0704bf90
:103b38009b080230da0703d45b0800f1010005d0c6
:103b48000b6070471046e8e7002070472020704758
:020000040000fa
:103b580080b485b000af786039600023fb737b6860
:103b68009b889bb201339bb21ab27b681b881bb23d
:103b780013401bb2bb817b685b889bb2ba899a42af
:103b880002d10223fb730be07b689a687b689b88f1
:103b98009bb29b0013443a681a607b68ba899a8082
:0e3ba800fb7b18461437bd465df8047b704762
:020000040000fa
:103bb80080b483b000af03460a46fb8013467b718e
:103bc8007b79002b04d00f4b032283f8202003e0dd
:103bd8000c4b042283f82020fb885b007a79002aaa
:103be80001d0012200e00022074913434b6200bfc5
:103bf800054bdb69002bfbd100bf0c37bd465df8d8
:0c3c0800047b7047b00300200040014125
:020000040000fa
:103c140080b584b000af786039607b68fb60fb6876
:103c24001b78032b1bd801a252f823f05d3c000043
:103c34005d3c0000413c00005d3c0000002000f0c1
:103c44009bfb094b5b68002b08d0074b5b6800218a
:103c5400184600f00ffe01e000bf00e000bf00bf07
:0c3c64001037bd4680bd00bfac0400203e
:020000040000fa
:103c700080b400af134b01221a8000bf114b1b69a7
:103c800003f00103012bf9d00e4b4ff401421a80cf
:103c90000c4b00221a6200bf0a4b1b6903f0200381
:103ca000202bf9d0074b00225a6200bf054b1b693d
:103cb00003f04003402bf9d000bfbd465df8047b04
:083cc000704700bf0024004022
:020000040000fa
:103cc80080b582b000af0023fb80114b5b8b9bb2a9
:103cd80003f00703fb80fb88002b15d00d4afb88f7
:103ce800d38500f0c1f80a4b84221a75094b0022cb
:103cf80083f82c20074b5b6a002b05d0054b5b6ac9
:103d0800044a926a1046984700bf0837bd4680bdee
:083d180000200141800300209e
:020000040000fa
:103d200080b483b000af03463960fb80b7f906303a
:103d3000002b0adb3b68dab20c49b7f906305201b6
:103d4000d2b20b4483f800230ae03b68dab2084998
:103d5000fb8803f00f03043b5201d2b20b441a76e6
:103d600000bf0c37bd465df8047b704700e100e002
:043d700000ed00e082
:020000040000fa
:103d740080b582b000af03460a46fb8013467b71d0
:103d84000e4b00229a610d4b0022da610c4b832208
:103d94001a760b4b5b680a4a23f48023536000bff6
:103da400074bdb69002bfbd17a79fb881146184657
:103db400fff700ff00bf0837bd4680bdb0030020f9
:043dc4000040014179
:020000040000fa
:103dc80008b50d4b98470d4b984700f075f9022040
:103dd80000f086fdfff7e0fb094b23f07f03094a5b
:103de8009360094b984700f0edf9084b9847084b4a
:103df800984700f049fffee7132c0000132c000041
:103e08000000000000ed00e0ed3f0000132c000072
:043e1800132c000067
:020000040000fa
:103e1c0080b582b000af124bd3f88031002b19dd86
:103e2c000f4bd3f880315a1e13465b0013449b0092
:103e3c0018330b4a13447b600c227968084800f055
:103e4c0085fe074bd3f88031013b054ac2f880311f
:103e5c00034b00e0002318460837bd4680bd00bf69
:043e6c00040000202e
:020000040000fa
:103e700080b483b000af0023fb71104b5b8b9bb20f
:103e800003f00703bb80bb88002b10d00b4b8022b4
:103e90001a760a4b07225a8302e0084b9b6afb7191
:103ea000064b1b7edbb203f00403042bf5d000bfee
:103eb0000c37bd465df8047b704700bf0020014110
:020000040000fa
:103ec0004fea410212f5001215d211d56ff4787342
:103ed000b3eb625212d94feac12343f0004343eae5
:103ee000505311f0004f23fa02f018bf40427047c0
:103ef0004ff00000704750ea013005d111f000404a
:103f000008bf6ff0004070474ff00000704700bfdf
:020000040000fa
:103f1000f8b5074614460e4621b91146bde8f840eb
:103f2000fff76cb822b9fff759fa25462846f8bdc5
:103f300000f0cefea0420fd221463846fff75ef8d1
:103f400005460028f2d03146224600f005fe3146f3
:0c3f50003846fff743fae9e73546e7e79b
:020000040000fa
:103f5c0080b485b000af78607b6803f00703fb602a
:103f6c000c4bdb68bb60ba684ff6ff031340bb60b9
:103f7c00fb681a02bb68134343f0bf6343f400337e
:103f8c00bb60044abb68d36000bf1437bd465df804
:083f9c00047b704700ed00e01a
:020000040000fa
:103fa40080b582b000af786039603b6800221a6047
:103fb4007b680433184600f06dfb0346002b05d0e4
:103fc4007b683968184600f0bffb05e07b685b68d6
:103fd4003968184600f0b8fb7b683a685a607b6819
:083fe40018460837bd4680bdf8
:020000040000fa
:103fec0070b50d4d0d4c641ba4100026a64209d1d2
:103ffc000b4d0c4cfcf730f9641ba4100026a642a8
:10400c0005d170bd55f8043b98470136eee755f8dd
:10401c00043b98470136f2e7700200007002000082
:08402c007002000074020000a4
:020000040000fa
:1040340080b584b000af786039600023fb73786882
:1040440000f0cafd0346002b02d00523fb730de0ec
:104054003868fef7f7fbb860bb68002b02d1032376
:10406400fb7303e07968b86800f0c2f9fb7b18467b
:064074001037bd4680bdbf
:020000040000fa
:10407c0080b400af0c4b01225a7100bf0a4bdb78a5
:10408c00dbb203f00103012bf8d1084b084a1a628a
:10409c0000bf064b5b6803f00403042bf9d000bf90
:1040ac00bd465df8047b704700080040001c0040d2
:0440bc0007010100f7
:020000040000fa
:1040c00080b483b000afeff310833b603b687b604c
:1040d00072b60b4bd3f88830094a43f47003c2f828
:1040e0008830bff34f8fbff36f8f7b68002b00d1f9
:1040f00062b600bf0c37bd465df8047b704700bf59
:0441000000ed00e0ee
:020000040000fa
:1041040080b584b000aff860b9601346fb80fb88cb
:10411400002b05d0fa88fb88013b1340002b01d00b
:1041240003230be0fb88013b9ab2fb681a80fb680f
:10413400ba689a60f86800f065fc034618461037c0
:04414400bd4680bd37
:020000040000fa
:104148000eb410b59bb01dab019005906ff0004107
:104158000a48069103910a4953f8042b0491002454
:1041680001a9006800931994fef74af8019b1c7096
:104178001bb0bde8104003b0704700bfc00400206a
:044188000802ffff2b
:020000040000fa
:10418c0010b5054c237833b9044b13b10448aff385
:10419c0000800123237010bd3c04002000000000af
:1041ac000000000008b5034b1bb103490348aff3f3
:1041bc00008008bd0000000040040020000000004a
:020000040000fa
:1041cc0080b400af0d4b9b680c4a23f00103936045
:1041dc0000bf0a4bdb6803f00103012bf9d0074b3e
:1041ec005b68064a43f004035360044b01229a6057
:1041fc0000bfbd465df8047b704700bf0060004106
:020000040000fa
:10420c0080b483b000af00237b600c4bd3f88031bb
:10421c00002b0bdd094bd3f880315a1e13465b0083
:10422c0013449b001833054a13447b607b68184683
:10423c000c37bd465df8047b704700bf04000020be
:020000040000fa
:10424c00020c12040346cab90304102013f07f4f6a
:10425c0004bf1b02083013f0704f04bf1b01043065
:10426c0013f0404f04bf9b000230002b05db13f012
:10427c00804f00f1010008bf202070470020e5e7c7
:020000040000fa
:10428c0080b483b000af0346fb80b7f90630002b37
:10429c000bdbfb8803f01f020749b7f906305b09fb
:1042ac00012000fa02f241f8232000bf0c37bd4672
:0c42bc005df8047b704700bf00e100e0eb
:020000040000fa
:1042c80080b485b000af78600023fb607b68002b6a
:1042d8000dd07b681b68002b09d07b681b68fb60ce
:1042e800fb681a687b681a60fb6800221a60fb6822
:0c42f80018461437bd465df8047b704783
:020000040000fa
:1043040080b500af4ff4d8720021084800f0c6fc15
:10431400064800f03bfc054b054a1a610822054992
:104324000548fff7edfe00bf80bd00bf040000207c
:0c433400f54b000088010020a8010020cb
:020000040000fa
:1043400080b582b000af00237b6009e00a4a7b6839
:10435000d3600021786800f08ffa074b0022da6002
:10436000054800f01ff978607b68002beed100bf94
:0c4370000837bd4680bd00bf04000020df
:020000040000fa
:10437c0080b584b000af0346fb710b4b1b78fa7908
:10438c009a420dd0084b1b78184600f001fbf860e0
:10439c00fb79184600f0fcfab860034afb791370fd
:1043ac0000bf1037bd4680bdac04002080b584b082
:1043bc0000af0346fb710b4b1b78fa799a420dd078
:1043cc00084b1b78184600f0f5faf860fb79184694
:1043dc0000f0f0fab860034afb79137000bf103795
:0843ec00bd4680bdb4040020b1
:020000040000fa
:1043f40080b582b000af78603960386800f0ecfbbb
:104404000346002b01d000230ae07a683b68083396
:1044140019461046fff7c4fd3b687a68da607b688a
:0844240018460837bd4680bdb3
:020000040000fa
:10442c0080b582b000af7860786800f0d1fb0346ad
:10443c00002b01d0052309e079680648fff786fbbd
:10444c000346022b01d1032300e000231846083752
:08445c00bd4680bda80100204f
:020000040000fa
:1044640080b500af084b1946084800f0c5f9064a64
:104474000749084800f0adf8034b00221a70024bbc
:1044840000225a6000bf80bdac0400209f48000099
:08449400153c00007c0400202f
:020000040000fa
:10449c0098b500af094a0a490a4800f096f8074b4c
:1044ac0000221a7000f0c0fb044600f09dfb03468e
:1044bc001946204600f02efb00bf98bdb404002026
:0844cc00412900009c040020be
:020000040000fa
:1044d40080b582b000af786000f0f6fafff7dafa40
:1044e400fff722f9fff75cf9fef7c4ff00f00cfcbc
:1044f400fff7bcfb00f020fbfff794f800bf083780
:04450400bd4680bd73
:020000040000fa
:1045080080b582b000af3b4619460948fff7f0f97d
:104518000346fb71fb79002b04d13b68184600f079
:1045280091faf0e700bf00bf0837bd4680bd00bf65
:04453800a8010020b6
:020000040000fa
:10453c00884210b501eb020302d983421c4607d80e
:10454c00421e994208d011f8014b02f8014ff8e7ce
:10455c0083189a1a9a4200d110bd14f8011d03f861
:04456c00011df7e74f
:020000040000fa
:1045700003690a699b1a30b50cd1920014301431ca
:104580008418114454f8045d51f8042d954203d069
:1045900005d30123184630bda042f3d3fae74ff00c
:0445a000ff33f7e707
:020000040000fa
:1045a40080b584b000af78607b68184600f05af894
:1045b400f860fb68002b07d0fb68083bbb60bb6856
:1045c4000022da60bb6800e0002318461037bd46bd
:0245d40080bda8
:020000040000fa
:1045d60080b584b000aff860b9607a60fb68ba68ed
:1045e6001a60fb687a685a60fb680833184600f060
:1045f60086fafb680022da60fb6818461037bd466b
:0246060080bd75
:020000040000fa
:1046080080b400af094b42f20e229a8200bf074bda
:10461800db6803f00103012bf9d1044b05221a745e
:1046280000bfbd465df8047b704700bf0014004022
:020000040000fa
:1046380080b400af094b1b889bb2084a43f00203c1
:104648009bb2138000bf054b1b6903f00203022bca
:10465800f9d000bfbd465df8047b704700240040d8
:020000040000fa
:1046680080b584b000af78607b681846fff728fef5
:10467800f8607b68184600f00bf80346002b02d060
:104688007b6800225a60fb6818461037bd4680bd1b
:020000040000fa
:1046980080b483b000af78607b68002b03d07b6860
:1046a8001b68002b01d1012300e0002303f0010364
:0e46b800dbb218460c37bd465df8047b704738
:020000040000fa
:1046c60070b5446a06460d463cb9102000f0f5fa6e
:1046d600c0e9014470620460c4603db1736a6a68ef
:0e46e600db6853f82210296043f8225070bda3
:020000040000fa
:1046f40080b400af074b084a5a6200bf054b5b68a1
:1047040003f00803082bf9d000bfbd465df8047b15
:0c471400704700bf001c004007010200bd
:020000040000fa
:1047200080b400af074b084a9a6200bf054b5b6834
:1047300003f01003102bf9d000bfbd465df8047bd9
:0c474000704700bf001c00400601300064
:020000040000fa
:10474c0080b483b000af786039607b68002b06d0f2
:10475c007b681a683b681a607b683a681a607b68e9
:0c476c0018460c37bd465df8047b704712
:020000040000fa
:1047780080b584b000af7860396000f043fa034632
:104788003968184600f0acf9f860f9687868fff7fe
:0c4798004dfc034618461037bd4680bd9e
:020000040000fa
:1047a400074a136843b10749184488428cbf4ff045
:1047b400ff33106018467047034b1360f3e700bfe4
:0c47c400cc040020d8060020d8040020ff
:020000040000fa
:1047d0004fea410c7fea6c5c02d150ea013c0ad1fd
:1047e0004fea430c7fea6c5c02d152ea033c02d1ef
:0c47f0004ff0000070474ff001007047d0
:020000040000fa
:1047fc0080b483b000af78603960064a7b68d360c0
:10480c00044a3b68136100bf0c37bd465df8047b5e
:08481c00704700bf800300207b
:020000040000fa
:1048240080b582b000af786000f00cfa02467b6875
:1048340003fb02f3034aa2fb03239b091846083730
:08484400bd4680bdd34d62109a
:020000040000fa
:104850000080e03779c34143176e05b5b5b893467c
:10486000f5f93fe9034f384d321d30f94877825a48
:084870003cbf737fdd4f15759d
:020000040000fa
:1048780080b582b000af786039607b68002b06d0c5
:104888007b681b687a68526839681046984700bf89
:064898000837bd4680bd9b
:020000040000fa
:10489e0080b584b000af78607b68fb60fb68022255
:1048ae001a7000f0b6f903461846fff7b8fd00bfc0
:0648be001037bd4680bd6d
:020000040000fa
:1048c40080b400af00bf064b1b6903f00803082b3c
:1048d400f9d0034b9b691846bd465df8047b7047cd
:0448e400002400406c
:020000040000fa
:1048e80080b483b000af78607b681b01044a03f092
:1048f8007003536000bf0c37bd465df8047b7047fa
:04490800006000410a
:020000040000fa
:10490c0080b483b000af786039607a683b689a42b3
:10491c0034bf01230023dbb218460c37bd465df8cb
:04492c00047b704751
:020000040000fa
:1049300080b483b000af786039607a683b689a428f
:104940000cbf01230023dbb218460c37bd465df8cf
:04495000047b70472d
:020000040000fa
:1049540080b483b000af786039607a683b689a426b
:104964008cbf01230023dbb218460c37bd465df82b
:04497400047b704709
:020000040000fa
:1049780080b582b000af78607b68184600f0bef85a
:104988007b680433184600f0b9f87b681846083786
:04499800bd4680bddb
:020000040000fa
:10499c0080b483b000af0346fb71fb79044a52f834
:1049ac00233018460c37bd465df8047b704700bfba
:1049bc006c04002080b483b000af0346fb71fb791c
:1049cc00044a52f8233018460c37bd465df8047b78
:0849dc00704700bf8c040020ad
:020000040000fa
:1049e40082b001b901a942b14bb113780b601278be
:1049f400101c18bf012002b070471046fbe76ff08f
:044a04000100f8e7ce
:020000040000fa
:104a080080b483b000af78607b6800225a807b68ee
:104a180000229a80002318460c37bd465df8047bb7
:024a28007047d5
:020000040000fa
:104a2a0030313233343536373839414243444546da
:104a3a000030313233343536373839616263646570
:024a4a00660004
:020000040000fa
:104a4c0080b582b000af786000f0daf80346194602
:104a5c007868fff7e9fa034618460837bd4680bd6b
:020000040000fa
:104a6c0080b400af054b1b78002b0cbf0123002337
:104a7c00dbb21846bd465df8047b7047ac040020e1
:020000040000fa
:104a8c0038b5064c0023054608462360fff784fe24
:104a9c00431c02d1236803b12b6038bd00000020f9
:020000040000fa
:104aac0080b483b000af786039607b683a689a60f4
:0e4abc007b6818460c37bd465df8047b7047da
:020000040000fa
:104acc0080b400af044b40f204521a8000bfbd46c4
:0c4adc005df8047b704700bf0040004103
:020000040000fa
:104ae80080b483b000af786039603a687b6813445b
:0c4af80018460c37bd465df8047b704783
:020000040000fa
:104b040080b483b000af78607b6800221a607b6851
:0c4b140018460c37bd465df8047b704766
:020000040000fa
:104b200080b582b000af7860396039687868fff787
:0c4b300081fa034618460837bd4680bdd8
:020000040000fa
:104b3c0080b500af00f0f8f8fff7defb00f0e7f807
:0c4b4c00fff78afcfff7a4fc00bf80bd4f
:020000040000fa
:104b58000a44914200f1ff3300d1704710b511f8b3
:0c4b6800014b03f8014f9142f9d110bd40
:020000040000fa
:104b740038b502fb01f42146fef73efa054618b1aa
:0c4b84002246002100f08af8284638bdc7
:020000040000fa
:104b900080b582b000af78607b681846fff7ecfe06
:0a4ba0007b6818460837bd4680bd4b
:020000040000fa
:104baa0049b1ff2a85bf8a2303600a704ff0ff309c
:0a4bba0098bf0120704708467047bd
:020000040000fa
:104bc40080b483b000af78607b689b6818460c376c
:084bd400bd465df8047b70474b
:020000040000fa
:104bdc0080b483b000af78607b68db6818460c3714
:084bec00bd465df8047b704733
:020000040000fa
:104bf40080b582b000affff763fe78607b6818462b
:064c04000837bd4680bd2b
:020000040000fa
:104c0c0080b500af024b1b6998470346184680bd20
:044c1c000400002070
:020000040000fa
:104c200080b400af024b1846bd465df8047b704768
:044c30007c040020e0
:020000040000fa
:104c340080b400af024b1846bd465df8047b704754
:044c44009c040020ac
:020000040000fa
:104c480080b400af4ff400431846bd465df8047bbe
:024c58007047a3
:020000040000fa
:104c5a00494e4600696e66004e414e006e616e0016
:024c6a00300018
:020000040000fa
:104c6c0010b50c460121fef7ddfe01224461026104
:024c7c0010bd69
:020000040000fa
:104c7e00232d302b2000686c4c0065666745464737
:014c8e000025
:020000040000fa
:104c900080b500af0020fff71dfc00f045f8fce7f1
:020000040000fa
:104ca00002440346934200d1704703f8011bf9e721
:020000040000fa
:104cb000034613f8012b002afbd1181a013870475c
:020000040000fa
:104cc000024b01461868fef799b900bfc0040020e6
:020000040000fa
:104cd00051f8043c181f002bbcbf0b58c01870477c
:020000040000fa
:0f4ce000496e66696e697479004e614e0030004e
:020000040000fa
:0e4cf00080b400af00bfbd465df8047b704786
:020000040000fa
:0e4cfe0080b400af00bfbd465df8047b704778
:020000040000fa
:0e4d0c0080b400af00bfbd465df8047b704769
:020000040000fa
:0e4d1a0080b400af00bfbd465df8047b70475b
:020000040000fa
:0c4d280080b500af00f008f800bf80bdaf
:020000040000fa
:0c4d340080b500affff77efc00bf80bd23
:020000040000fa
:0c4d400080b500affef70cfe00bf80bd88
:020000040000fa
:0c4d4c0005000000190000007d000000c0
:020000040000fa
:0b4d58004300504f53495800002e004c
:020000040000fa
:084d640000487047a402002082
:020000040000fa
:064d6c0080b400affee779
:020000040000fa
:064d720080b400affee773
:020000040000fa
:064d780080b400affee76d
:020000040000fa
:064d7e0080b400affee767
:020000040000fa
:064d840080b400affee761
:020000040000fa
:064d8a0080b400affee75b
:020000040000fa
:0200000400807a
:044000003912003c35
:020000040000fa
:0200000400807a
:044004008000a82a66
:020000040000fa
:0200000400807a
:04400800ffffffffb8
:00000001FF
